{
  "contractName": "CharityManager",
  "abi": [
    {
      "constant": false,
      "inputs": [],
      "name": "renounceOwnership",
      "outputs": [],
      "payable": false,
      "stateMutability": "nonpayable",
      "type": "function"
    },
    {
      "constant": true,
      "inputs": [],
      "name": "owner",
      "outputs": [
        {
          "name": "",
          "type": "address"
        }
      ],
      "payable": false,
      "stateMutability": "view",
      "type": "function"
    },
    {
      "constant": true,
      "inputs": [],
      "name": "isOwner",
      "outputs": [
        {
          "name": "",
          "type": "bool"
        }
      ],
      "payable": false,
      "stateMutability": "view",
      "type": "function"
    },
    {
      "constant": false,
      "inputs": [
        {
          "name": "newOwner",
          "type": "address"
        }
      ],
      "name": "transferOwnership",
      "outputs": [],
      "payable": false,
      "stateMutability": "nonpayable",
      "type": "function"
    },
    {
      "anonymous": false,
      "inputs": [
        {
          "indexed": true,
          "name": "previousOwner",
          "type": "address"
        },
        {
          "indexed": true,
          "name": "newOwner",
          "type": "address"
        }
      ],
      "name": "OwnershipTransferred",
      "type": "event"
    },
    {
      "constant": false,
      "inputs": [],
      "name": "donateToCharity",
      "outputs": [],
      "payable": true,
      "stateMutability": "payable",
      "type": "function"
    },
    {
      "constant": false,
      "inputs": [
        {
          "name": "_to",
          "type": "address"
        },
        {
          "name": "_amout",
          "type": "uint256"
        }
      ],
      "name": "donateFromCharity",
      "outputs": [],
      "payable": false,
      "stateMutability": "nonpayable",
      "type": "function"
    },
    {
      "constant": true,
      "inputs": [],
      "name": "getCharityBalance",
      "outputs": [
        {
          "name": "",
          "type": "uint256"
        }
      ],
      "payable": false,
      "stateMutability": "view",
      "type": "function"
    }
  ],
  "bytecode": "0x6080604052670de0b6b3a7640000600155336000806101000a81548173ffffffffffffffffffffffffffffffffffffffff021916908373ffffffffffffffffffffffffffffffffffffffff1602179055506000809054906101000a900473ffffffffffffffffffffffffffffffffffffffff1673ffffffffffffffffffffffffffffffffffffffff16600073ffffffffffffffffffffffffffffffffffffffff167f8be0079c531659141344cd1fd0a4f28419497f9722a3daafe3b4186f6b6457e060405160405180910390a361092a806100db6000396000f300608060405260043610610083576000357c0100000000000000000000000000000000000000000000000000000000900463ffffffff1680632aa085b01461008857806344b7eda1146100d55780636e87be2014610100578063715018a61461010a5780638da5cb5b146101215780638f32d59b14610178578063f2fde38b146101a7575b600080fd5b34801561009457600080fd5b506100d3600480360381019080803573ffffffffffffffffffffffffffffffffffffffff169060200190929190803590602001909291905050506101ea565b005b3480156100e157600080fd5b506100ea61039a565b6040518082815260200191505060405180910390f35b6101086103b9565b005b34801561011657600080fd5b5061011f61049a565b005b34801561012d57600080fd5b50610136610621565b604051808273ffffffffffffffffffffffffffffffffffffffff1673ffffffffffffffffffffffffffffffffffffffff16815260200191505060405180910390f35b34801561018457600080fd5b5061018d61064a565b604051808215151515815260200191505060405180910390f35b3480156101b357600080fd5b506101e8600480360381019080803573ffffffffffffffffffffffffffffffffffffffff1690602001909291905050506106a1565b005b6101f261064a565b15156102b2576040517f08c379a00000000000000000000000000000000000000000000000000000000081526004018080602001828103825260428152602001807f7065726d697373696f6e2064656e6965642c206f6e6c79206f776e6572206f6681526020017f207468697320636f6e74726163742068617320746865207065726d697373696f81526020017f6e2e00000000000000000000000000000000000000000000000000000000000081525060600191505060405180910390fd5b670de0b6b3a764000081023073ffffffffffffffffffffffffffffffffffffffff16311015151561034b576040517f08c379a000000000000000000000000000000000000000000000000000000000815260040180806020018281038252601b8152602001807f636f6e74726163742062616c616e6365206e6f7420656e6f756768000000000081525060200191505060405180910390fd5b8173ffffffffffffffffffffffffffffffffffffffff166108fc60015483029081150290604051600060405180830381858888f19350505050158015610395573d6000803e3d6000fd5b505050565b60003073ffffffffffffffffffffffffffffffffffffffff1631905090565b6000806001543410151515610436576040517f08c379a000000000000000000000000000000000000000000000000000000000815260040180806020018281038252601c8152602001807f73686f756c6420706179206d6f7265207468616e20312065746865720000000081525060200191505060405180910390fd5b6001543481151561044357fe5b0491506001548202340390503373ffffffffffffffffffffffffffffffffffffffff166108fc829081150290604051600060405180830381858888f19350505050158015610495573d6000803e3d6000fd5b505050565b6104a261064a565b1515610562576040517f08c379a00000000000000000000000000000000000000000000000000000000081526004018080602001828103825260428152602001807f7065726d697373696f6e2064656e6965642c206f6e6c79206f776e6572206f6681526020017f207468697320636f6e74726163742068617320746865207065726d697373696f81526020017f6e2e00000000000000000000000000000000000000000000000000000000000081525060600191505060405180910390fd5b600073ffffffffffffffffffffffffffffffffffffffff166000809054906101000a900473ffffffffffffffffffffffffffffffffffffffff1673ffffffffffffffffffffffffffffffffffffffff167f8be0079c531659141344cd1fd0a4f28419497f9722a3daafe3b4186f6b6457e060405160405180910390a360008060006101000a81548173ffffffffffffffffffffffffffffffffffffffff021916908373ffffffffffffffffffffffffffffffffffffffff160217905550565b60008060009054906101000a900473ffffffffffffffffffffffffffffffffffffffff16905090565b60008060009054906101000a900473ffffffffffffffffffffffffffffffffffffffff1673ffffffffffffffffffffffffffffffffffffffff163373ffffffffffffffffffffffffffffffffffffffff1614905090565b6106a961064a565b1515610769576040517f08c379a00000000000000000000000000000000000000000000000000000000081526004018080602001828103825260428152602001807f7065726d697373696f6e2064656e6965642c206f6e6c79206f776e6572206f6681526020017f207468697320636f6e74726163742068617320746865207065726d697373696f81526020017f6e2e00000000000000000000000000000000000000000000000000000000000081525060600191505060405180910390fd5b61077281610775565b50565b600073ffffffffffffffffffffffffffffffffffffffff168173ffffffffffffffffffffffffffffffffffffffff1614151515610840576040517f08c379a00000000000000000000000000000000000000000000000000000000081526004018080602001828103825260288152602001807f746865206e65774f776e6572277320616464726573732073686f756c64206e6f81526020017f742062652030783000000000000000000000000000000000000000000000000081525060400191505060405180910390fd5b8073ffffffffffffffffffffffffffffffffffffffff166000809054906101000a900473ffffffffffffffffffffffffffffffffffffffff1673ffffffffffffffffffffffffffffffffffffffff167f8be0079c531659141344cd1fd0a4f28419497f9722a3daafe3b4186f6b6457e060405160405180910390a3806000806101000a81548173ffffffffffffffffffffffffffffffffffffffff021916908373ffffffffffffffffffffffffffffffffffffffff160217905550505600a165627a7a72305820c64e307578e83bfa2e3291f5cb3d9c78f948dbfbc8d25605bdd66f499dcaa59b0029",
  "source": "pragma solidity ^0.4.24;\r\n\r\nimport \"./Ownable.sol\";\r\n\r\ncontract CharityManager is Ownable {\r\n\r\n    // the chairty fund pool is this.balance\r\n\r\n    uint perAmount = 1 ether; // the amount to donate must be a multiple of perAmount\r\n\r\n    function donateToCharity() public payable {\r\n\r\n        // pay for donation\r\n        require(msg.value >= perAmount, \"should pay more than 1 ether\");\r\n\r\n        // return some extra money to sender\r\n        uint k = msg.value / perAmount;\r\n        uint changes = msg.value - k * perAmount;\r\n        msg.sender.transfer(changes);\r\n    }\r\n\r\n    function donateFromCharity(address _to, uint _amout) public onlyOwner {\r\n        // only the manager of this charity fund pool can call this function\r\n\r\n        require(address(this).balance >= _amout * (10 ** 18), \"contract balance not enough\");\r\n\r\n        // donate some money to world\r\n        _to.transfer(_amout * perAmount);\r\n    }\r\n\r\n    function getCharityBalance() public view returns(uint) {\r\n        \r\n        return address(this).balance;\r\n    }\r\n}",
  "sourcePath": "/home/tao/blockchain/privateChain/Solidity-SuperCommunity/contracts/CharityManager.sol",
  "compiler": {
    "name": "solc",
    "version": "0.4.24+commit.e67f0147.Emscripten.clang"
  },
  "schemaVersion": "2.0.1",
  "updatedAt": "2018-11-23T14:38:38.596Z"
}