{
  "contractName": "CommentManager",
  "abi": [
    {
      "constant": true,
      "inputs": [
        {
          "name": "_id",
          "type": "uint256"
        }
      ],
      "name": "getNameByCommentId",
      "outputs": [
        {
          "name": "",
          "type": "string"
        }
      ],
      "payable": false,
      "stateMutability": "view",
      "type": "function"
    },
    {
      "constant": false,
      "inputs": [
        {
          "name": "_to",
          "type": "address"
        },
        {
          "name": "_id",
          "type": "uint256"
        }
      ],
      "name": "rewardByAddr",
      "outputs": [
        {
          "name": "",
          "type": "address"
        }
      ],
      "payable": true,
      "stateMutability": "payable",
      "type": "function"
    },
    {
      "constant": true,
      "inputs": [
        {
          "name": "_index",
          "type": "uint256"
        }
      ],
      "name": "getCommentByIndex",
      "outputs": [
        {
          "name": "",
          "type": "string"
        },
        {
          "name": "",
          "type": "string"
        },
        {
          "name": "",
          "type": "string"
        },
        {
          "name": "",
          "type": "uint256"
        }
      ],
      "payable": false,
      "stateMutability": "view",
      "type": "function"
    },
    {
      "constant": true,
      "inputs": [],
      "name": "getCommentCount",
      "outputs": [
        {
          "name": "",
          "type": "uint256"
        }
      ],
      "payable": false,
      "stateMutability": "view",
      "type": "function"
    },
    {
      "constant": true,
      "inputs": [
        {
          "name": "_index",
          "type": "uint256"
        }
      ],
      "name": "getCommentBalanceByIndex",
      "outputs": [
        {
          "name": "",
          "type": "uint256"
        }
      ],
      "payable": false,
      "stateMutability": "view",
      "type": "function"
    }
  ],
  "bytecode": "0x608060405234801561001057600080fd5b5061084b806100206000396000f30060806040526004361061006d576000357c0100000000000000000000000000000000000000000000000000000000900463ffffffff16806316e31ea314610072578063381d0db31461009d5780633c128e13146100de578063ac2c88371461015e578063cd70aced146102e3575b600080fd5b34801561007e57600080fd5b50610087610389565b6040518082815260200191505060405180910390f35b3480156100a957600080fd5b506100c860048036038101908080359060200190929190505050610395565b6040518082815260200191505060405180910390f35b61011c600480360381019080803573ffffffffffffffffffffffffffffffffffffffff169060200190929190803590602001909291905050506103b2565b604051808273ffffffffffffffffffffffffffffffffffffffff1673ffffffffffffffffffffffffffffffffffffffff16815260200191505060405180910390f35b34801561016a57600080fd5b50610189600480360381019080803590602001909291905050506104cc565b60405180806020018060200180602001858152602001848103845288818151815260200191508051906020019080838360005b838110156101d75780820151818401526020810190506101bc565b50505050905090810190601f1680156102045780820380516001836020036101000a031916815260200191505b50848103835287818151815260200191508051906020019080838360005b8381101561023d578082015181840152602081019050610222565b50505050905090810190601f16801561026a5780820380516001836020036101000a031916815260200191505b50848103825286818151815260200191508051906020019080838360005b838110156102a3578082015181840152602081019050610288565b50505050905090810190601f1680156102d05780820380516001836020036101000a031916815260200191505b5097505050505050505060405180910390f35b3480156102ef57600080fd5b5061030e6004803603810190808035906020019092919050505061072d565b6040518080602001828103825283818151815260200191508051906020019080838360005b8381101561034e578082015181840152602081019050610333565b50505050905090810190601f16801561037b5780820380516001836020036101000a031916815260200191505b509250505060405180910390f35b60008080549050905090565b600060016000838152602001908152602001600020549050919050565b600082600073ffffffffffffffffffffffffffffffffffffffff168173ffffffffffffffffffffffffffffffffffffffff161415151561045a576040517f08c379a00000000000000000000000000000000000000000000000000000000081526004018080602001828103825260108152602001807f696e76616c696420616464726573732e0000000000000000000000000000000081525060200191505060405180910390fd5b8373ffffffffffffffffffffffffffffffffffffffff166108fc349081150290604051600060405180830381858888f193505050501580156104a0573d6000803e3d6000fd5b503460016000858152602001908152602001600020600082825401925050819055503391505092915050565b606080606060006104db6107ef565b6000868154811015156104ea57fe5b906000526020600020906005020160a0604051908101604052908160008201548152602001600182018054600181600116156101000203166002900480601f0160208091040260200160405190810160405280929190818152602001828054600181600116156101000203166002900480156105a75780601f1061057c576101008083540402835291602001916105a7565b820191906000526020600020905b81548152906001019060200180831161058a57829003601f168201915b50505050508152602001600282018054600181600116156101000203166002900480601f0160208091040260200160405190810160405280929190818152602001828054600181600116156101000203166002900480156106495780601f1061061e57610100808354040283529160200191610649565b820191906000526020600020905b81548152906001019060200180831161062c57829003601f168201915b50505050508152602001600382018054600181600116156101000203166002900480601f0160208091040260200160405190810160405280929190818152602001828054600181600116156101000203166002900480156106eb5780601f106106c0576101008083540402835291602001916106eb565b820191906000526020600020905b8154815290600101906020018083116106ce57829003601f168201915b50505050508152602001600482015481525050905080602001518160400151826060015183608001518393508292508191509450945094509450509193509193565b606060008281548110151561073e57fe5b90600052602060002090600502016001018054600181600116156101000203166002900480601f0160208091040260200160405190810160405280929190818152602001828054600181600116156101000203166002900480156107e35780601f106107b8576101008083540402835291602001916107e3565b820191906000526020600020905b8154815290600101906020018083116107c657829003601f168201915b50505050509050919050565b60a060405190810160405280600081526020016060815260200160608152602001606081526020016000815250905600a165627a7a72305820f1fc6aab168415eac90f0a1eb340a51d840772a59723e38fa4e6b0cf23adf4660029",
  "source": "pragma solidity ^0.4.24;\r\n\r\ncontract CommentManager {\r\n\r\n    struct Comment {\r\n\r\n        // required\r\n        uint id;\r\n        string name;    // the user who make this comment\r\n        string text;\r\n\r\n        // optional\r\n        string head_img;   // an image url\r\n        uint time;    // the unix time (seconds from 1970 to now)\r\n    }\r\n\r\n    Comment[] comments; // all the comments\r\n\r\n    mapping(uint => uint) commentIdToWei; // mapping a comment id to all the rewards it received so far\r\n\r\n    modifier commentCheck(string memory _comment) {\r\n\r\n        // the length of a comment must greater than 0\r\n        require(bytes(_comment).length > 0, \"the length of a comment must greater than 0\");\r\n\r\n        // all checks are ok\r\n        _;\r\n    }\r\n\r\n    function addComment(string memory _name, string memory _comment, string memory _head_img) internal commentCheck(_comment) returns(bool) {\r\n\r\n        // add a comment\r\n        uint id = comments.push(Comment(0, _name, _comment, _head_img, now)) - 1;\r\n\r\n        // set id\r\n        comments[id].id = id;\r\n\r\n        return true;\r\n    }\r\n\r\n    modifier validAddress(address _addr) {\r\n\r\n        // address cannot be 0x0\r\n        require(_addr != address(0), \"invalid address.\");\r\n\r\n        _;\r\n    }\r\n\r\n    function getNameByCommentId(uint _id) public view returns(string memory) {\r\n\r\n        // get a username by comment id\r\n        return comments[_id].name;\r\n    }\r\n\r\n    function rewardByAddr(address _to, uint _id) public validAddress(_to) payable returns(address) {\r\n\r\n        // reward a user directly\r\n        _to.transfer(msg.value);\r\n\r\n        // reward a comment by id\r\n        commentIdToWei[_id] += msg.value;\r\n\r\n        // for test\r\n        return msg.sender;\r\n    }\r\n\r\n    function getCommentByIndex(uint _index) public view returns(string memory, string memory, string memory, uint) {\r\n\r\n        \r\n        Comment memory comment = comments[_index];\r\n        return (comment.name, comment.text, comment.head_img, comment.time);\r\n    }\r\n\r\n    function getCommentCount() public view returns(uint) {\r\n\r\n        return comments.length;\r\n    }\r\n\r\n    function getCommentBalanceByIndex(uint _index) public view returns(uint) {\r\n\r\n        return commentIdToWei[_index];\r\n    }\r\n}",
  "sourcePath": "/home/tao/blockchain/privateChain/Solidity-SuperCommunity/contracts/CommentManager.sol",
  "compiler": {
    "name": "solc",
    "version": "0.4.24+commit.e67f0147.Emscripten.clang"
  },
  "schemaVersion": "2.0.1",
  "updatedAt": "2018-11-23T17:01:13.869Z"
}