{
  "contractName": "CommentManager",
  "abi": [
    {
      "constant": false,
      "inputs": [
        {
          "name": "_name",
          "type": "string"
        },
        {
          "name": "_comment",
          "type": "string"
        },
        {
          "name": "_head_img",
          "type": "string"
        }
      ],
      "name": "addComment",
      "outputs": [
        {
          "name": "",
          "type": "bool"
        }
      ],
      "payable": false,
      "stateMutability": "nonpayable",
      "type": "function"
    },
    {
      "constant": true,
      "inputs": [
        {
          "name": "_id",
          "type": "uint256"
        }
      ],
      "name": "getNameByCommentId",
      "outputs": [
        {
          "name": "",
          "type": "string"
        }
      ],
      "payable": false,
      "stateMutability": "view",
      "type": "function"
    },
    {
      "constant": false,
      "inputs": [
        {
          "name": "to",
          "type": "address"
        },
        {
          "name": "_id",
          "type": "uint256"
        }
      ],
      "name": "rewardByAddr",
      "outputs": [
        {
          "name": "",
          "type": "bool"
        }
      ],
      "payable": true,
      "stateMutability": "payable",
      "type": "function"
    },
    {
      "constant": true,
      "inputs": [
        {
          "name": "_index",
          "type": "uint256"
        }
      ],
      "name": "getCommentByIndex",
      "outputs": [
        {
          "name": "",
          "type": "string"
        },
        {
          "name": "",
          "type": "string"
        },
        {
          "name": "",
          "type": "string"
        },
        {
          "name": "",
          "type": "uint256"
        }
      ],
      "payable": false,
      "stateMutability": "view",
      "type": "function"
    },
    {
      "constant": true,
      "inputs": [],
      "name": "getCommentCount",
      "outputs": [
        {
          "name": "",
          "type": "uint256"
        }
      ],
      "payable": false,
      "stateMutability": "view",
      "type": "function"
    }
  ],
  "bytecode": "0x608060405234801561001057600080fd5b50610b15806100206000396000f30060806040526004361061006d576000357c0100000000000000000000000000000000000000000000000000000000900463ffffffff16806316e31ea31461007257806339b92d171461009d5780633c128e13146101aa578063ac2c883714610202578063cd70aced14610387575b600080fd5b34801561007e57600080fd5b5061008761042d565b6040518082815260200191505060405180910390f35b3480156100a957600080fd5b50610190600480360381019080803590602001908201803590602001908080601f0160208091040260200160405190810160405280939291908181526020018383808284378201915050505050509192919290803590602001908201803590602001908080601f0160208091040260200160405190810160405280939291908181526020018383808284378201915050505050509192919290803590602001908201803590602001908080601f0160208091040260200160405190810160405280939291908181526020018383808284378201915050505050509192919290505050610439565b604051808215151515815260200191505060405180910390f35b6101e8600480360381019080803573ffffffffffffffffffffffffffffffffffffffff169060200190929190803590602001909291905050506105d6565b604051808215151515815260200191505060405180910390f35b34801561020e57600080fd5b5061022d600480360381019080803590602001909291905050506106f1565b60405180806020018060200180602001858152602001848103845288818151815260200191508051906020019080838360005b8381101561027b578082015181840152602081019050610260565b50505050905090810190601f1680156102a85780820380516001836020036101000a031916815260200191505b50848103835287818151815260200191508051906020019080838360005b838110156102e15780820151818401526020810190506102c6565b50505050905090810190601f16801561030e5780820380516001836020036101000a031916815260200191505b50848103825286818151815260200191508051906020019080838360005b8381101561034757808201518184015260208101905061032c565b50505050905090810190601f1680156103745780820380516001836020036101000a031916815260200191505b5097505050505050505060405180910390f35b34801561039357600080fd5b506103b260048036038101908080359060200190929190505050610952565b6040518080602001828103825283818151815260200191508051906020019080838360005b838110156103f25780820151818401526020810190506103d7565b50505050905090810190601f16801561041f5780820380516001836020036101000a031916815260200191505b509250505060405180910390f35b60008080549050905090565b60008083600081511115156104dc576040517f08c379a000000000000000000000000000000000000000000000000000000000815260040180806020018281038252602b8152602001807f746865206c656e677468206f66206120636f6d6d656e74206d7573742067726581526020017f61746572207468616e203000000000000000000000000000000000000000000081525060400191505060405180910390fd5b6001600060a06040519081016040528060008152602001898152602001888152602001878152602001428152509080600181540180825580915050906001820390600052602060002090600502016000909192909190915060008201518160000155602082015181600101908051906020019061055a929190610a14565b506040820151816002019080519060200190610577929190610a14565b506060820151816003019080519060200190610594929190610a14565b50608082015181600401555050039150816000838154811015156105b457fe5b9060005260206000209060050201600001819055506001925050509392505050565b600082600073ffffffffffffffffffffffffffffffffffffffff168173ffffffffffffffffffffffffffffffffffffffff161415151561067e576040517f08c379a00000000000000000000000000000000000000000000000000000000081526004018080602001828103825260108152602001807f696e76616c696420616464726573732e0000000000000000000000000000000081525060200191505060405180910390fd5b8373ffffffffffffffffffffffffffffffffffffffff166108fc349081150290604051600060405180830381858888f193505050501580156106c4573d6000803e3d6000fd5b50346001600085815260200190815260200160002060008282540192505081905550600191505092915050565b60608060606000610700610a94565b60008681548110151561070f57fe5b906000526020600020906005020160a0604051908101604052908160008201548152602001600182018054600181600116156101000203166002900480601f0160208091040260200160405190810160405280929190818152602001828054600181600116156101000203166002900480156107cc5780601f106107a1576101008083540402835291602001916107cc565b820191906000526020600020905b8154815290600101906020018083116107af57829003601f168201915b50505050508152602001600282018054600181600116156101000203166002900480601f01602080910402602001604051908101604052809291908181526020018280546001816001161561010002031660029004801561086e5780601f106108435761010080835404028352916020019161086e565b820191906000526020600020905b81548152906001019060200180831161085157829003601f168201915b50505050508152602001600382018054600181600116156101000203166002900480601f0160208091040260200160405190810160405280929190818152602001828054600181600116156101000203166002900480156109105780601f106108e557610100808354040283529160200191610910565b820191906000526020600020905b8154815290600101906020018083116108f357829003601f168201915b50505050508152602001600482015481525050905080602001518160400151826060015183608001518393508292508191509450945094509450509193509193565b606060008281548110151561096357fe5b90600052602060002090600502016001018054600181600116156101000203166002900480601f016020809104026020016040519081016040528092919081815260200182805460018160011615610100020316600290048015610a085780601f106109dd57610100808354040283529160200191610a08565b820191906000526020600020905b8154815290600101906020018083116109eb57829003601f168201915b50505050509050919050565b828054600181600116156101000203166002900490600052602060002090601f016020900481019282601f10610a5557805160ff1916838001178555610a83565b82800160010185558215610a83579182015b82811115610a82578251825591602001919060010190610a67565b5b509050610a909190610ac4565b5090565b60a06040519081016040528060008152602001606081526020016060815260200160608152602001600081525090565b610ae691905b80821115610ae2576000816000905550600101610aca565b5090565b905600a165627a7a72305820dabfc916ee0f0ae058743e9ad79c0bd06356ff0d1ed2ab4326e529cab124b0af0029",
  "source": "pragma solidity ^0.4.24;\r\n\r\ncontract CommentManager {\r\n\r\n    struct Comment {\r\n\r\n        // required\r\n        uint id;\r\n        string name;    // the user who make this comment\r\n        string text;\r\n\r\n        // optional\r\n        string head_img;   // an image url\r\n        uint time;    // the unix time (seconds from 1970 to now)\r\n    }\r\n\r\n    Comment[] comments; // all the comments\r\n\r\n    mapping(uint => uint) commentIdToWei; // mapping a comment id to all the rewards it received so far\r\n\r\n    modifier commentCheck(string _comment) {\r\n\r\n        // the length of a comment must greater than 0\r\n        require(bytes(_comment).length > 0, \"the length of a comment must greater than 0\");\r\n\r\n        // all checks are ok\r\n        _;\r\n    }\r\n\r\n    function addComment(string _name, string _comment, string _head_img) public commentCheck(_comment) returns(bool) {\r\n\r\n        // add a comment\r\n        uint id = comments.push(Comment(0, _name, _comment, _head_img, now)) - 1;\r\n\r\n        // set id\r\n        comments[id].id = id;\r\n\r\n        return true;\r\n    }\r\n\r\n    // function getCommetsByName(string _name) public view returns(Comment[]) {\r\n\r\n    //     // return all the comments made by a user\r\n    //     Comment[] memory userComments;\r\n    //     for (uint i = 0; i < comments.length; i++) {\r\n    //         if (keccak256(abi.encodePacked(_name)) == keccak256(abi.encodePacked(comments[i].name))) {\r\n    //             userComments.push(comments[i]);\r\n    //         }\r\n    //     } \r\n    //     return userComments;\r\n    // }\r\n\r\n    modifier validAddress(address _addr) {\r\n\r\n        // address cannot be 0x0\r\n        require(_addr != address(0), \"invalid address.\");\r\n\r\n        _;\r\n    }\r\n\r\n    function getNameByCommentId(uint _id) public view returns(string) {\r\n\r\n        // get a username by comment id\r\n        return comments[_id].name;\r\n    }\r\n\r\n    function rewardByAddr(address to, uint _id) public validAddress(to) payable returns(bool) {\r\n\r\n        // reward a user directly\r\n        to.transfer(msg.value);\r\n\r\n        // reward a comment by id\r\n        commentIdToWei[_id] += msg.value;\r\n\r\n        return true;\r\n    }\r\n\r\n    function getCommentByIndex(uint _index) public view returns(string, string, string, uint) {\r\n\r\n        Comment memory comment = comments[_index];\r\n        return (comment.name, comment.text, comment.head_img, comment.time);\r\n    }\r\n\r\n    function getCommentCount() public view returns(uint) {\r\n\r\n        return comments.length;\r\n    }\r\n}",
  "sourcePath": "/home/tao/blockchain/privateChain/Solidity-SuperCommunity/contracts/CommentManager.sol",
  "compiler": {
    "name": "solc",
    "version": "0.4.24+commit.e67f0147.Emscripten.clang"
  },
  "schemaVersion": "2.0.1",
  "updatedAt": "2018-11-22T16:32:00.414Z"
}