{
  "contractName": "CommentManager",
  "abi": [
    {
      "constant": true,
      "inputs": [
        {
          "name": "_id",
          "type": "uint256"
        }
      ],
      "name": "getNameByCommentId",
      "outputs": [
        {
          "name": "",
          "type": "string"
        }
      ],
      "payable": false,
      "stateMutability": "view",
      "type": "function"
    },
    {
      "constant": false,
      "inputs": [
        {
          "name": "_to",
          "type": "address"
        },
        {
          "name": "_id",
          "type": "uint256"
        }
      ],
      "name": "rewardByAddr",
      "outputs": [
        {
          "name": "",
          "type": "address"
        }
      ],
      "payable": true,
      "stateMutability": "payable",
      "type": "function"
    },
    {
      "constant": true,
      "inputs": [
        {
          "name": "_index",
          "type": "uint256"
        }
      ],
      "name": "getCommentByIndex",
      "outputs": [
        {
          "name": "",
          "type": "string"
        },
        {
          "name": "",
          "type": "string"
        },
        {
          "name": "",
          "type": "string"
        },
        {
          "name": "",
          "type": "uint256"
        }
      ],
      "payable": false,
      "stateMutability": "view",
      "type": "function"
    },
    {
      "constant": true,
      "inputs": [],
      "name": "getCommentCount",
      "outputs": [
        {
          "name": "",
          "type": "uint256"
        }
      ],
      "payable": false,
      "stateMutability": "view",
      "type": "function"
    },
    {
      "constant": true,
      "inputs": [
        {
          "name": "_index",
          "type": "uint256"
        }
      ],
      "name": "getCommentBalanceByIndex",
      "outputs": [
        {
          "name": "",
          "type": "uint256"
        }
      ],
      "payable": false,
      "stateMutability": "view",
      "type": "function"
    }
  ],
  "bytecode": "0x608060405234801561001057600080fd5b50610883806100206000396000f3fe60806040526004361061006d576000357c0100000000000000000000000000000000000000000000000000000000900463ffffffff16806316e31ea314610072578063381d0db31461009d5780633c128e13146100ec578063ac2c88371461017a578063cd70aced1461030d575b600080fd5b34801561007e57600080fd5b506100876103c1565b6040518082815260200191505060405180910390f35b3480156100a957600080fd5b506100d6600480360360208110156100c057600080fd5b81019080803590602001909291905050506103cd565b6040518082815260200191505060405180910390f35b6101386004803603604081101561010257600080fd5b81019080803573ffffffffffffffffffffffffffffffffffffffff169060200190929190803590602001909291905050506103ea565b604051808273ffffffffffffffffffffffffffffffffffffffff1673ffffffffffffffffffffffffffffffffffffffff16815260200191505060405180910390f35b34801561018657600080fd5b506101b36004803603602081101561019d57600080fd5b8101908080359060200190929190505050610504565b60405180806020018060200180602001858152602001848103845288818151815260200191508051906020019080838360005b838110156102015780820151818401526020810190506101e6565b50505050905090810190601f16801561022e5780820380516001836020036101000a031916815260200191505b50848103835287818151815260200191508051906020019080838360005b8381101561026757808201518184015260208101905061024c565b50505050905090810190601f1680156102945780820380516001836020036101000a031916815260200191505b50848103825286818151815260200191508051906020019080838360005b838110156102cd5780820151818401526020810190506102b2565b50505050905090810190601f1680156102fa5780820380516001836020036101000a031916815260200191505b5097505050505050505060405180910390f35b34801561031957600080fd5b506103466004803603602081101561033057600080fd5b8101908080359060200190929190505050610765565b6040518080602001828103825283818151815260200191508051906020019080838360005b8381101561038657808201518184015260208101905061036b565b50505050905090810190601f1680156103b35780820380516001836020036101000a031916815260200191505b509250505060405180910390f35b60008080549050905090565b600060016000838152602001908152602001600020549050919050565b600082600073ffffffffffffffffffffffffffffffffffffffff168173ffffffffffffffffffffffffffffffffffffffff1614151515610492576040517f08c379a00000000000000000000000000000000000000000000000000000000081526004018080602001828103825260108152602001807f696e76616c696420616464726573732e0000000000000000000000000000000081525060200191505060405180910390fd5b8373ffffffffffffffffffffffffffffffffffffffff166108fc349081150290604051600060405180830381858888f193505050501580156104d8573d6000803e3d6000fd5b503460016000858152602001908152602001600020600082825401925050819055503391505092915050565b60608060606000610513610827565b60008681548110151561052257fe5b906000526020600020906005020160a0604051908101604052908160008201548152602001600182018054600181600116156101000203166002900480601f0160208091040260200160405190810160405280929190818152602001828054600181600116156101000203166002900480156105df5780601f106105b4576101008083540402835291602001916105df565b820191906000526020600020905b8154815290600101906020018083116105c257829003601f168201915b50505050508152602001600282018054600181600116156101000203166002900480601f0160208091040260200160405190810160405280929190818152602001828054600181600116156101000203166002900480156106815780601f1061065657610100808354040283529160200191610681565b820191906000526020600020905b81548152906001019060200180831161066457829003601f168201915b50505050508152602001600382018054600181600116156101000203166002900480601f0160208091040260200160405190810160405280929190818152602001828054600181600116156101000203166002900480156107235780601f106106f857610100808354040283529160200191610723565b820191906000526020600020905b81548152906001019060200180831161070657829003601f168201915b50505050508152602001600482015481525050905080602001518160400151826060015183608001518393508292508191509450945094509450509193509193565b606060008281548110151561077657fe5b90600052602060002090600502016001018054600181600116156101000203166002900480601f01602080910402602001604051908101604052809291908181526020018280546001816001161561010002031660029004801561081b5780601f106107f05761010080835404028352916020019161081b565b820191906000526020600020905b8154815290600101906020018083116107fe57829003601f168201915b50505050509050919050565b60a0604051908101604052806000815260200160608152602001606081526020016060815260200160008152509056fea165627a7a723058208739ad81f7ba77fdc6e84a7dce09940b830c2e08fd9b354e000bc02e2be0b2290029",
  "source": "pragma solidity ^0.5.0;\r\n\r\ncontract CommentManager {\r\n\r\n    struct Comment {\r\n\r\n        // required\r\n        uint id;\r\n        string name;    // the user who make this comment\r\n        string text;\r\n\r\n        // optional\r\n        string head_img;   // an image url\r\n        uint time;    // the unix time (seconds from 1970 to now)\r\n    }\r\n\r\n    Comment[] comments; // all the comments\r\n\r\n    mapping(uint => uint) commentIdToWei; // mapping a comment id to all the rewards it received so far\r\n\r\n    modifier commentCheck(string memory _comment) {\r\n\r\n        // the length of a comment must greater than 0\r\n        require(bytes(_comment).length > 0, \"the length of a comment must greater than 0\");\r\n\r\n        // all checks are ok\r\n        _;\r\n    }\r\n\r\n    function addComment(string memory _name, string memory _comment, string memory _head_img) internal commentCheck(_comment) returns(bool) {\r\n\r\n        // add a comment\r\n        uint id = comments.push(Comment(0, _name, _comment, _head_img, now)) - 1;\r\n\r\n        // set id\r\n        comments[id].id = id;\r\n\r\n        return true;\r\n    }\r\n\r\n    modifier validAddress(address _addr) {\r\n\r\n        // address cannot be 0x0\r\n        require(_addr != address(0), \"invalid address.\");\r\n\r\n        _;\r\n    }\r\n\r\n    function getNameByCommentId(uint _id) public view returns(string memory) {\r\n\r\n        // get a username by comment id\r\n        return comments[_id].name;\r\n    }\r\n\r\n    function rewardByAddr(address payable _to, uint _id) public validAddress(_to) payable returns(address) {\r\n\r\n        // reward a user directly\r\n        _to.transfer(msg.value);\r\n\r\n        // reward a comment by id\r\n        commentIdToWei[_id] += msg.value;\r\n\r\n        // for test\r\n        return msg.sender;\r\n    }\r\n\r\n    function getCommentByIndex(uint _index) public view returns(string memory, string memory, string memory, uint) {\r\n\r\n        \r\n        Comment memory comment = comments[_index];\r\n        return (comment.name, comment.text, comment.head_img, comment.time);\r\n    }\r\n\r\n    function getCommentCount() public view returns(uint) {\r\n\r\n        return comments.length;\r\n    }\r\n\r\n    function getCommentBalanceByIndex(uint _index) public view returns(uint) {\r\n\r\n        return commentIdToWei[_index];\r\n    }\r\n}",
  "sourcePath": "/home/tao/blockchain/privateChain/webpack/contracts/CommentManager.sol",
  "compiler": {
    "name": "solc",
    "version": "0.5.0+commit.1d4f565a.Emscripten.clang"
  },
  "schemaVersion": "3.0.0",
  "updatedAt": "2018-12-26T01:37:57.219Z",
  "devdoc": {
    "methods": {}
  },
  "userdoc": {
    "methods": {}
  }
}