{
  "contractName": "GameManager",
  "abi": [
    {
      "inputs": [],
      "payable": false,
      "stateMutability": "nonpayable",
      "type": "constructor"
    },
    {
      "constant": true,
      "inputs": [],
      "name": "secondsRemaining",
      "outputs": [
        {
          "name": "",
          "type": "uint256"
        }
      ],
      "payable": false,
      "stateMutability": "view",
      "type": "function"
    },
    {
      "constant": false,
      "inputs": [],
      "name": "endGame",
      "outputs": [],
      "payable": false,
      "stateMutability": "nonpayable",
      "type": "function"
    },
    {
      "constant": false,
      "inputs": [
        {
          "name": "_rand",
          "type": "uint256"
        }
      ],
      "name": "guess",
      "outputs": [],
      "payable": true,
      "stateMutability": "payable",
      "type": "function"
    },
    {
      "constant": true,
      "inputs": [],
      "name": "getGameBalance",
      "outputs": [
        {
          "name": "",
          "type": "uint256"
        }
      ],
      "payable": false,
      "stateMutability": "view",
      "type": "function"
    },
    {
      "constant": true,
      "inputs": [],
      "name": "getRand",
      "outputs": [
        {
          "name": "",
          "type": "uint256"
        }
      ],
      "payable": false,
      "stateMutability": "view",
      "type": "function"
    }
  ],
  "bytecode": "0x608060405234801561001057600080fd5b5060144201600181905550610032610037640100000000026401000000009004565b610156565b60146001540160018190555061005a610104640100000000026401000000009004565b6000819055507fffffffffffffffffffffffffffffffffffffffffffffffffffffffffffffffff6005600060038110151561009157fe5b01819055507fffffffffffffffffffffffffffffffffffffffffffffffffffffffffffffffff600560016003811015156100c757fe5b01819055507fffffffffffffffffffffffffffffffffffffffffffffffffffffffffffffffff600560026003811015156100fd57fe5b0181905550565b60008060109050600081600a0a90506000426040516020018082815260200191505060405160208183030381529060405280519060200120600190049050818181151561014d57fe5b06935050505090565b610975806101656000396000f3fe60806040526004361061006d576000357c0100000000000000000000000000000000000000000000000000000000900463ffffffff168063600bc4ea146100725780636cbc2ded1461009d5780639189fec1146100b4578063940ebef7146100e2578063c574d1561461010d575b600080fd5b34801561007e57600080fd5b50610087610138565b6040518082815260200191505060405180910390f35b3480156100a957600080fd5b506100b2610141565b005b6100e0600480360360208110156100ca57600080fd5b81019080803590602001909291905050506101cd565b005b3480156100ee57600080fd5b506100f761066a565b6040518082815260200191505060405180910390f35b34801561011957600080fd5b5061012261068b565b6040518082815260200191505060405180910390f35b60008054905090565b60015442101515156101bb576040517f08c379a000000000000000000000000000000000000000000000000000000000815260040180806020018281038252601a8152602001807f7468652067616d652063616e6e6f7420626520656e64206e6f7700000000000081525060200191505060405180910390fd5b6101c36106aa565b6101cb610819565b565b670de0b6b3a7640000341015151561024d576040517f08c379a00000000000000000000000000000000000000000000000000000000081526004018080602001828103825260208152602001807f6e65656420746f2070617920666f72206174206c65617374203120657468657281525060200191505060405180910390fd5b6000670de0b6b3a7640000340390503373ffffffffffffffffffffffffffffffffffffffff166108fc829081150290604051600060405180830381858888f193505050501580156102a2573d6000803e3d6000fd5b5060006102b1600054846108d7565b905060008190507fffffffffffffffffffffffffffffffffffffffffffffffffffffffffffffffff600560006003811015156102e957fe5b0154148061030757506005600060038110151561030257fe5b015481125b1561047c576005600160038110151561031c57fe5b01546005600260038110151561032e57fe5b01819055506005600060038110151561034357fe5b01546005600160038110151561035557fe5b0181905550806005600060038110151561036b57fe5b0181905550600360009054906101000a900473ffffffffffffffffffffffffffffffffffffffff16600460006101000a81548173ffffffffffffffffffffffffffffffffffffffff021916908373ffffffffffffffffffffffffffffffffffffffff160217905550600260009054906101000a900473ffffffffffffffffffffffffffffffffffffffff16600360006101000a81548173ffffffffffffffffffffffffffffffffffffffff021916908373ffffffffffffffffffffffffffffffffffffffff16021790555033600260006101000a81548173ffffffffffffffffffffffffffffffffffffffff021916908373ffffffffffffffffffffffffffffffffffffffff160217905550610664565b7fffffffffffffffffffffffffffffffffffffffffffffffffffffffffffffffff600560016003811015156104ad57fe5b015414806104cb5750600560016003811015156104c657fe5b015481125b156105b657600560016003811015156104e057fe5b0154600560026003811015156104f257fe5b0181905550806005600160038110151561050857fe5b0181905550600360009054906101000a900473ffffffffffffffffffffffffffffffffffffffff16600460006101000a81548173ffffffffffffffffffffffffffffffffffffffff021916908373ffffffffffffffffffffffffffffffffffffffff16021790555033600360006101000a81548173ffffffffffffffffffffffffffffffffffffffff021916908373ffffffffffffffffffffffffffffffffffffffff160217905550610663565b7fffffffffffffffffffffffffffffffffffffffffffffffffffffffffffffffff600560026003811015156105e757fe5b0154148061060557506005600260038110151561060057fe5b015481125b1561066257806005600260038110151561061b57fe5b018190555033600460006101000a81548173ffffffffffffffffffffffffffffffffffffffff021916908373ffffffffffffffffffffffffffffffffffffffff1602179055505b5b5b50505050565b6000426001541115156106805760009050610688565b426001540390505b90565b60003073ffffffffffffffffffffffffffffffffffffffff1631905090565b600060063073ffffffffffffffffffffffffffffffffffffffff16318115156106cf57fe5b049050600260009054906101000a900473ffffffffffffffffffffffffffffffffffffffff1673ffffffffffffffffffffffffffffffffffffffff166108fc600383029081150290604051600060405180830381858888f1935050505015801561073d573d6000803e3d6000fd5b50600360009054906101000a900473ffffffffffffffffffffffffffffffffffffffff1673ffffffffffffffffffffffffffffffffffffffff166108fc600283029081150290604051600060405180830381858888f193505050501580156107a9573d6000803e3d6000fd5b50600460009054906101000a900473ffffffffffffffffffffffffffffffffffffffff1673ffffffffffffffffffffffffffffffffffffffff166108fc600183029081150290604051600060405180830381858888f19350505050158015610815573d6000803e3d6000fd5b5050565b60146001540160018190555061082d6108f7565b6000819055507fffffffffffffffffffffffffffffffffffffffffffffffffffffffffffffffff6005600060038110151561086457fe5b01819055507fffffffffffffffffffffffffffffffffffffffffffffffffffffffffffffffff6005600160038110151561089a57fe5b01819055507fffffffffffffffffffffffffffffffffffffffffffffffffffffffffffffffff600560026003811015156108d057fe5b0181905550565b6000818311156108eb5781830390506108f1565b82820390505b92915050565b60008060109050600081600a0a90506000426040516020018082815260200191505060405160208183030381529060405280519060200120600190049050818181151561094057fe5b0693505050509056fea165627a7a72305820ab2e82dd0220ca42ff297faad26d9065e37f4a446d4ffbc4870169aebd36c7480029",
  "source": "pragma solidity ^0.5.0;\r\n\r\ncontract GameManager {\r\n    \r\n    // one simple gamble game\r\n\r\n    uint rand; // a number to guess\r\n    uint constant ticket = 1 ether; // the gamble fee\r\n\r\n    uint constant duration = 20 seconds; // duration of the game\r\n    uint endTime;\r\n\r\n    // top three participants, who guess most closely\r\n    // if more than two players guess the same num, the first win.\r\n    address payable firstPrize;\r\n    address payable secondPrize;\r\n    address payable thirdPrize;\r\n    // address[] successfullyParticipation; // others\r\n\r\n    int[3] topThree; // the top three small distances, default -1 (need to be set to positive)\r\n\r\n    constructor() public {\r\n        endTime = now + duration;\r\n        startGame();\r\n    }\r\n\r\n    function generateRand() private view returns (uint) {\r\n        uint digits = 16;\r\n        uint modulus = uint(10) ** digits;\r\n        uint num = uint(keccak256(abi.encodePacked(now)));\r\n        return num % modulus;\r\n    }\r\n\r\n    function startGame() private {\r\n        \r\n        // set end time\r\n        endTime = endTime + duration;\r\n\r\n        // generate a new random number\r\n        rand = generateRand();\r\n\r\n        // set the top three to -1\r\n        topThree[0] = -1;\r\n        topThree[1] = -1;\r\n        topThree[2] = -1;\r\n\r\n    }\r\n\r\n    function secondsRemaining() public view returns (uint) {\r\n\r\n        // frequently called by frontend， need to be view to save gas\r\n        if (endTime <= now) {\r\n            return 0;  // can end game\r\n        } else {\r\n            return endTime - now;\r\n        }\r\n    }\r\n\r\n    function endGame() public {\r\n\r\n        require(now >= endTime, \"the game cannot be end now\");\r\n\r\n        // reward\r\n        rewardWinner();\r\n\r\n        // restart game\r\n        startGame();\r\n    }\r\n\r\n    function rewardWinner() private {\r\n        \r\n        // three winner get reward by 3:2:1\r\n        uint unit = address(this).balance / 6;\r\n        firstPrize.transfer(unit * 3);\r\n        secondPrize.transfer(unit * 2);\r\n        thirdPrize.transfer(unit * 1);\r\n    }\r\n\r\n    function distance(uint _num1, uint _num2) private pure returns(uint) {\r\n\r\n        // return the positive distance between _num1 and _num2\r\n        if (_num1 > _num2) {\r\n            return _num1 - _num2;\r\n        }\r\n        else {\r\n            return _num2 - _num1;\r\n        }\r\n    }\r\n\r\n    function guess(uint _rand) public payable {\r\n        \r\n        // pay for gamble\r\n        require(msg.value >= ticket, \"need to pay for at least 1 ether\");\r\n\r\n        // return some extra money to sender\r\n        uint changes = msg.value - ticket;\r\n        msg.sender.transfer(changes);\r\n\r\n        uint udist = distance(rand, _rand);\r\n        int dist = int(udist);\r\n        \r\n        // compare\r\n        if (topThree[0] == -1 || dist < topThree[0]) {\r\n            topThree[2] = topThree[1];\r\n            topThree[1] = topThree[0];\r\n            topThree[0] = dist;\r\n            thirdPrize = secondPrize;\r\n            secondPrize = firstPrize;\r\n            firstPrize = msg.sender;\r\n        }\r\n        else if (topThree[1] == -1 || dist < topThree[1]) {\r\n            topThree[2] = topThree[1];\r\n            topThree[1] = dist;\r\n            thirdPrize = secondPrize;\r\n            secondPrize = msg.sender;\r\n        }\r\n        else if (topThree[2] == -1 || dist < topThree[2]) {\r\n            topThree[2] = dist;\r\n            thirdPrize = msg.sender;\r\n        }\r\n    }\r\n\r\n    function getWinner() internal view returns(address, address, address) {\r\n\r\n        // return the winners\r\n        return (firstPrize, secondPrize, thirdPrize);\r\n    }\r\n\r\n    function getGameBalance() public view returns(uint) {\r\n\r\n        return address(this).balance;\r\n    }\r\n\r\n    function getRand() public view returns(uint) {\r\n\r\n        // for test\r\n        return rand;\r\n    }\r\n}",
  "sourcePath": "/home/tao/blockchain/privateChain/webpack/contracts/GameManager.sol",
  "compiler": {
    "name": "solc",
    "version": "0.5.0+commit.1d4f565a.Emscripten.clang"
  },
  "schemaVersion": "3.0.0",
  "updatedAt": "2018-12-28T12:51:53.441Z",
  "devdoc": {
    "methods": {}
  },
  "userdoc": {
    "methods": {}
  }
}