{
  "contractName": "GameManager",
  "abi": [
    {
      "inputs": [],
      "payable": false,
      "stateMutability": "nonpayable",
      "type": "constructor"
    },
    {
      "constant": true,
      "inputs": [],
      "name": "secondsRemaining",
      "outputs": [
        {
          "name": "",
          "type": "uint256"
        }
      ],
      "payable": false,
      "stateMutability": "view",
      "type": "function"
    },
    {
      "constant": false,
      "inputs": [],
      "name": "endGame",
      "outputs": [],
      "payable": false,
      "stateMutability": "nonpayable",
      "type": "function"
    },
    {
      "constant": false,
      "inputs": [
        {
          "name": "_rand",
          "type": "uint256"
        }
      ],
      "name": "guess",
      "outputs": [],
      "payable": true,
      "stateMutability": "payable",
      "type": "function"
    },
    {
      "constant": true,
      "inputs": [],
      "name": "getGameBalance",
      "outputs": [
        {
          "name": "",
          "type": "uint256"
        }
      ],
      "payable": false,
      "stateMutability": "view",
      "type": "function"
    },
    {
      "constant": true,
      "inputs": [],
      "name": "getRand",
      "outputs": [
        {
          "name": "",
          "type": "uint32"
        }
      ],
      "payable": false,
      "stateMutability": "view",
      "type": "function"
    }
  ],
  "bytecode": "0x608060405234801561001057600080fd5b5060144201600181905550610032610037640100000000026401000000009004565b6101d5565b60146001540160018190555061005a61011d640100000000026401000000009004565b6000806101000a81548163ffffffff021916908363ffffffff1602179055507fffffffffffffffffffffffffffffffffffffffffffffffffffffffffffffffff600560006003811015156100aa57fe5b01819055507fffffffffffffffffffffffffffffffffffffffffffffffffffffffffffffffff600560016003811015156100e057fe5b01819055507fffffffffffffffffffffffffffffffffffffffffffffffffffffffffffffffff6005600260038110151561011657fe5b0181905550565b6000806000806010925082600a0a915042604051602001808281526020019150506040516020818303038152906040526040518082805190602001908083835b602083101515610182578051825260208201915060208101905060208303925061015d565b6001836020036101000a03801982511681845116808217855250505050505090500191505060405180910390206001900490508163ffffffff168163ffffffff168115156101cc57fe5b06935050505090565b610a16806101e46000396000f30060806040526004361061006d576000357c0100000000000000000000000000000000000000000000000000000000900463ffffffff168063600bc4ea146100725780636cbc2ded146100a95780639189fec1146100c0578063940ebef7146100e0578063c574d1561461010b575b600080fd5b34801561007e57600080fd5b50610087610136565b604051808263ffffffff1663ffffffff16815260200191505060405180910390f35b3480156100b557600080fd5b506100be61014f565b005b6100de600480360381019080803590602001909291905050506101db565b005b3480156100ec57600080fd5b506100f561068c565b6040518082815260200191505060405180910390f35b34801561011757600080fd5b506101206106ad565b6040518082815260200191505060405180910390f35b60008060009054906101000a900463ffffffff16905090565b60015442101515156101c9576040517f08c379a000000000000000000000000000000000000000000000000000000000815260040180806020018281038252601a8152602001807f7468652067616d652063616e6e6f7420626520656e64206e6f7700000000000081525060200191505060405180910390fd5b6101d16106cc565b6101d961083b565b565b60008060006753444835ec5800003410151515610260576040517f08c379a00000000000000000000000000000000000000000000000000000000081526004018080602001828103825260208152602001807f6e65656420746f2070617920666f72206174206c65617374203620657468657281525060200191505060405180910390fd5b6753444835ec580000340392503373ffffffffffffffffffffffffffffffffffffffff166108fc849081150290604051600060405180830381858888f193505050501580156102b3573d6000803e3d6000fd5b506102d56000809054906101000a900463ffffffff1663ffffffff1685610912565b91508190507fffffffffffffffffffffffffffffffffffffffffffffffffffffffffffffffff6005600060038110151561030b57fe5b0154148061032957506005600060038110151561032457fe5b015481125b1561049e576005600160038110151561033e57fe5b01546005600260038110151561035057fe5b01819055506005600060038110151561036557fe5b01546005600160038110151561037757fe5b0181905550806005600060038110151561038d57fe5b0181905550600360009054906101000a900473ffffffffffffffffffffffffffffffffffffffff16600460006101000a81548173ffffffffffffffffffffffffffffffffffffffff021916908373ffffffffffffffffffffffffffffffffffffffff160217905550600260009054906101000a900473ffffffffffffffffffffffffffffffffffffffff16600360006101000a81548173ffffffffffffffffffffffffffffffffffffffff021916908373ffffffffffffffffffffffffffffffffffffffff16021790555033600260006101000a81548173ffffffffffffffffffffffffffffffffffffffff021916908373ffffffffffffffffffffffffffffffffffffffff160217905550610686565b7fffffffffffffffffffffffffffffffffffffffffffffffffffffffffffffffff600560016003811015156104cf57fe5b015414806104ed5750600560016003811015156104e857fe5b015481125b156105d8576005600160038110151561050257fe5b01546005600260038110151561051457fe5b0181905550806005600160038110151561052a57fe5b0181905550600360009054906101000a900473ffffffffffffffffffffffffffffffffffffffff16600460006101000a81548173ffffffffffffffffffffffffffffffffffffffff021916908373ffffffffffffffffffffffffffffffffffffffff16021790555033600360006101000a81548173ffffffffffffffffffffffffffffffffffffffff021916908373ffffffffffffffffffffffffffffffffffffffff160217905550610685565b7fffffffffffffffffffffffffffffffffffffffffffffffffffffffffffffffff6005600260038110151561060957fe5b0154148061062757506005600260038110151561062257fe5b015481125b1561068457806005600260038110151561063d57fe5b018190555033600460006101000a81548173ffffffffffffffffffffffffffffffffffffffff021916908373ffffffffffffffffffffffffffffffffffffffff1602179055505b5b5b50505050565b6000426001541115156106a257600090506106aa565b426001540390505b90565b60003073ffffffffffffffffffffffffffffffffffffffff1631905090565b600060063073ffffffffffffffffffffffffffffffffffffffff16318115156106f157fe5b049050600260009054906101000a900473ffffffffffffffffffffffffffffffffffffffff1673ffffffffffffffffffffffffffffffffffffffff166108fc600383029081150290604051600060405180830381858888f1935050505015801561075f573d6000803e3d6000fd5b50600360009054906101000a900473ffffffffffffffffffffffffffffffffffffffff1673ffffffffffffffffffffffffffffffffffffffff166108fc600283029081150290604051600060405180830381858888f193505050501580156107cb573d6000803e3d6000fd5b50600460009054906101000a900473ffffffffffffffffffffffffffffffffffffffff1673ffffffffffffffffffffffffffffffffffffffff166108fc600183029081150290604051600060405180830381858888f19350505050158015610837573d6000803e3d6000fd5b5050565b60146001540160018190555061084f610932565b6000806101000a81548163ffffffff021916908363ffffffff1602179055507fffffffffffffffffffffffffffffffffffffffffffffffffffffffffffffffff6005600060038110151561089f57fe5b01819055507fffffffffffffffffffffffffffffffffffffffffffffffffffffffffffffffff600560016003811015156108d557fe5b01819055507fffffffffffffffffffffffffffffffffffffffffffffffffffffffffffffffff6005600260038110151561090b57fe5b0181905550565b60008183111561092657818303905061092c565b82820390505b92915050565b6000806000806010925082600a0a915042604051602001808281526020019150506040516020818303038152906040526040518082805190602001908083835b6020831015156109975780518252602082019150602081019050602083039250610972565b6001836020036101000a03801982511681845116808217855250505050505090500191505060405180910390206001900490508163ffffffff168163ffffffff168115156109e157fe5b069350505050905600a165627a7a72305820bd3a8e210351ab326c9dc74590b5805c64e91e77d0e58ed4e8cd55687baa86fa0029",
  "source": "pragma solidity ^0.4.24;\r\n\r\ncontract GameManager {\r\n    \r\n    // one simple gamble game\r\n\r\n    uint32 rand; // a number to guess\r\n    uint constant ticket = 6 ether; // the gamble fee\r\n\r\n    uint constant duration = 20 seconds; // duration of the game\r\n    uint endTime;\r\n\r\n    // top three participants, who guess most closely\r\n    // if more than two players guess the same num, the first win.\r\n    address firstPrize;\r\n    address secondPrize;\r\n    address thirdPrize;\r\n    // address[] successfullyParticipation; // others\r\n\r\n    int[3] topThree; // the top three small distances, default -1 (need to be set to positive)\r\n\r\n    constructor() public {\r\n        endTime = now + duration;\r\n        startGame();\r\n    }\r\n\r\n    function generateRand() private view returns (uint32) {\r\n        uint32 digits = 16;\r\n        uint32 modulus = uint32(10) ** digits;\r\n        uint32 num = uint32(keccak256(abi.encodePacked(now)));\r\n        return num % modulus;\r\n    }\r\n\r\n    function startGame() private {\r\n        \r\n        // set end time\r\n        endTime = endTime + duration;\r\n\r\n        // generate a new random number\r\n        rand = generateRand();\r\n\r\n        // set the top three to -1\r\n        topThree[0] = -1;\r\n        topThree[1] = -1;\r\n        topThree[2] = -1;\r\n\r\n    }\r\n\r\n    function secondsRemaining() public view returns (uint) {\r\n\r\n        // frequently called by frontend， need to be view to save gas\r\n        if (endTime <= now) {\r\n            return 0;  // can end game\r\n        } else {\r\n            return endTime - now;\r\n        }\r\n    }\r\n\r\n    function endGame() public {\r\n\r\n        require(now >= endTime, \"the game cannot be end now\");\r\n\r\n        // reward\r\n        rewardWinner();\r\n\r\n        // restart game\r\n        startGame();\r\n    }\r\n\r\n    function rewardWinner() private {\r\n        \r\n        // three winner get reward by 3:2:1\r\n        uint unit = address(this).balance / 6;\r\n        firstPrize.transfer(unit * 3);\r\n        secondPrize.transfer(unit * 2);\r\n        thirdPrize.transfer(unit * 1);\r\n    }\r\n\r\n    function distance(uint _num1, uint _num2) private pure returns(uint) {\r\n\r\n        // return the positive distance between _num1 and _num2\r\n        if (_num1 > _num2) {\r\n            return _num1 - _num2;\r\n        }\r\n        else {\r\n            return _num2 - _num1;\r\n        }\r\n    }\r\n\r\n    function guess(uint _rand) public payable {\r\n        \r\n        // pay for gamble\r\n        require(msg.value >= ticket, \"need to pay for at least 6 ether\");\r\n\r\n        // return some extra money to sender\r\n        uint changes = msg.value - ticket;\r\n        msg.sender.transfer(changes);\r\n\r\n        uint udist = distance(rand, _rand);\r\n        int dist = int(udist);\r\n\r\n        // initialize\r\n        // if (topThree[0] == -1) {\r\n        //     topThree[0] = dist;\r\n        //     firstPrize = msg.sender;\r\n        //     return;\r\n        // }\r\n        // if (topThree[1] == -1) {\r\n        //     topThree[1] = dist;\r\n        //     secondPrize = msg.sender;\r\n        //     return;\r\n        // }\r\n        // if (topThree[2] == -1) {\r\n        //     topThree[2] = dist;\r\n        //     thirdPrize = msg.sender;\r\n        //     return;\r\n        // }\r\n        \r\n        // compare\r\n        if (topThree[0] == -1 || dist < topThree[0]) {\r\n            topThree[2] = topThree[1];\r\n            topThree[1] = topThree[0];\r\n            topThree[0] = dist;\r\n            thirdPrize = secondPrize;\r\n            secondPrize = firstPrize;\r\n            firstPrize = msg.sender;\r\n        }\r\n        else if (topThree[1] == -1 || dist < topThree[1]) {\r\n            topThree[2] = topThree[1];\r\n            topThree[1] = dist;\r\n            thirdPrize = secondPrize;\r\n            secondPrize = msg.sender;\r\n        }\r\n        else if (topThree[2] == -1 || dist < topThree[2]) {\r\n            topThree[2] = dist;\r\n            thirdPrize = msg.sender;\r\n        }\r\n    }\r\n\r\n    function getWinner() internal view returns(address, address, address) {\r\n\r\n        // return the winners\r\n        return (firstPrize, secondPrize, thirdPrize);\r\n    }\r\n\r\n    function getGameBalance() public view returns(uint) {\r\n\r\n        return address(this).balance;\r\n    }\r\n\r\n    function getRand() public view returns(uint32) {\r\n\r\n        // for test\r\n        return rand;\r\n    }\r\n}",
  "sourcePath": "/home/tao/blockchain/privateChain/Solidity-SuperCommunity/contracts/GameManager.sol",
  "compiler": {
    "name": "solc",
    "version": "0.4.24+commit.e67f0147.Emscripten.clang"
  },
  "schemaVersion": "2.0.1",
  "updatedAt": "2018-11-23T17:01:13.888Z"
}