{
  "contractName": "GameManager",
  "abi": [
    {
      "inputs": [],
      "payable": false,
      "stateMutability": "nonpayable",
      "type": "constructor"
    },
    {
      "constant": true,
      "inputs": [],
      "name": "secondsRemaining",
      "outputs": [
        {
          "name": "",
          "type": "uint256"
        }
      ],
      "payable": false,
      "stateMutability": "view",
      "type": "function"
    },
    {
      "constant": false,
      "inputs": [],
      "name": "endGame",
      "outputs": [],
      "payable": false,
      "stateMutability": "nonpayable",
      "type": "function"
    },
    {
      "constant": false,
      "inputs": [
        {
          "name": "_rand",
          "type": "uint256"
        }
      ],
      "name": "guess",
      "outputs": [],
      "payable": true,
      "stateMutability": "payable",
      "type": "function"
    }
  ],
  "bytecode": "0x608060405234801561001057600080fd5b50620151804201600181905550610034610039640100000000026401000000009004565b6101d9565b620151806001540160018190555061005e610121640100000000026401000000009004565b6000806101000a81548163ffffffff021916908363ffffffff1602179055507fffffffffffffffffffffffffffffffffffffffffffffffffffffffffffffffff600560006003811015156100ae57fe5b01819055507fffffffffffffffffffffffffffffffffffffffffffffffffffffffffffffffff600560016003811015156100e457fe5b01819055507fffffffffffffffffffffffffffffffffffffffffffffffffffffffffffffffff6005600260038110151561011a57fe5b0181905550565b6000806000806010925082600a0a915042604051602001808281526020019150506040516020818303038152906040526040518082805190602001908083835b6020831015156101865780518252602082019150602081019050602083039250610161565b6001836020036101000a03801982511681845116808217855250505050505090500191505060405180910390206001900490508163ffffffff168163ffffffff168115156101d057fe5b06935050505090565b6108e5806101e86000396000f300608060405260043610610057576000357c0100000000000000000000000000000000000000000000000000000000900463ffffffff1680636cbc2ded1461005c5780639189fec114610073578063940ebef714610093575b600080fd5b34801561006857600080fd5b506100716100be565b005b6100916004803603810190808035906020019092919050505061014a565b005b34801561009f57600080fd5b506100a8610578565b6040518082815260200191505060405180910390f35b6001544210151515610138576040517f08c379a000000000000000000000000000000000000000000000000000000000815260040180806020018281038252601a8152602001807f7468652067616d652063616e6e6f7420626520656e64206e6f7700000000000081525060200191505060405180910390fd5b610140610599565b610148610708565b565b60008060006753444835ec580000341015151561016657600080fd5b6753444835ec580000340392503373ffffffffffffffffffffffffffffffffffffffff166108fc849081150290604051600060405180830381858888f193505050501580156101b9573d6000803e3d6000fd5b506101db6000809054906101000a900463ffffffff1663ffffffff16856107e1565b91508190507fffffffffffffffffffffffffffffffffffffffffffffffffffffffffffffffff6005600060038110151561021157fe5b0154141561027557806005600060038110151561022a57fe5b018190555033600260006101000a81548173ffffffffffffffffffffffffffffffffffffffff021916908373ffffffffffffffffffffffffffffffffffffffff160217905550610572565b7fffffffffffffffffffffffffffffffffffffffffffffffffffffffffffffffff600560016003811015156102a657fe5b0154141561030a5780600560016003811015156102bf57fe5b018190555033600360006101000a81548173ffffffffffffffffffffffffffffffffffffffff021916908373ffffffffffffffffffffffffffffffffffffffff160217905550610572565b7fffffffffffffffffffffffffffffffffffffffffffffffffffffffffffffffff6005600260038110151561033b57fe5b0154141561039f57806005600260038110151561035457fe5b018190555033600460006101000a81548173ffffffffffffffffffffffffffffffffffffffff021916908373ffffffffffffffffffffffffffffffffffffffff160217905550610572565b600560006003811015156103af57fe5b015481121561046257600560016003811015156103c857fe5b0154600560026003811015156103da57fe5b0181905550600560006003811015156103ef57fe5b01546005600160038110151561040157fe5b0181905550806005600060038110151561041757fe5b018190555033600260006101000a81548173ffffffffffffffffffffffffffffffffffffffff021916908373ffffffffffffffffffffffffffffffffffffffff160217905550610571565b6005600160038110151561047257fe5b01548112156104fe576005600160038110151561048b57fe5b01546005600260038110151561049d57fe5b018190555080600560016003811015156104b357fe5b018190555033600360006101000a81548173ffffffffffffffffffffffffffffffffffffffff021916908373ffffffffffffffffffffffffffffffffffffffff160217905550610570565b6005600260038110151561050e57fe5b015481121561056f57806005600260038110151561052857fe5b018190555033600460006101000a81548173ffffffffffffffffffffffffffffffffffffffff021916908373ffffffffffffffffffffffffffffffffffffffff1602179055505b5b5b5b50505050565b60004260015411151561058e5760009050610596565b426001540390505b90565b600060063073ffffffffffffffffffffffffffffffffffffffff16318115156105be57fe5b049050600260009054906101000a900473ffffffffffffffffffffffffffffffffffffffff1673ffffffffffffffffffffffffffffffffffffffff166108fc600383029081150290604051600060405180830381858888f1935050505015801561062c573d6000803e3d6000fd5b50600360009054906101000a900473ffffffffffffffffffffffffffffffffffffffff1673ffffffffffffffffffffffffffffffffffffffff166108fc600283029081150290604051600060405180830381858888f19350505050158015610698573d6000803e3d6000fd5b50600460009054906101000a900473ffffffffffffffffffffffffffffffffffffffff1673ffffffffffffffffffffffffffffffffffffffff166108fc600183029081150290604051600060405180830381858888f19350505050158015610704573d6000803e3d6000fd5b5050565b620151806001540160018190555061071e610801565b6000806101000a81548163ffffffff021916908363ffffffff1602179055507fffffffffffffffffffffffffffffffffffffffffffffffffffffffffffffffff6005600060038110151561076e57fe5b01819055507fffffffffffffffffffffffffffffffffffffffffffffffffffffffffffffffff600560016003811015156107a457fe5b01819055507fffffffffffffffffffffffffffffffffffffffffffffffffffffffffffffffff600560026003811015156107da57fe5b0181905550565b6000818311156107f55781830390506107fb565b82820390505b92915050565b6000806000806010925082600a0a915042604051602001808281526020019150506040516020818303038152906040526040518082805190602001908083835b6020831015156108665780518252602082019150602081019050602083039250610841565b6001836020036101000a03801982511681845116808217855250505050505090500191505060405180910390206001900490508163ffffffff168163ffffffff168115156108b057fe5b069350505050905600a165627a7a72305820f015095cd6c80b0088943459789c4107e61817ca19ae27049d7f9f77f6948b190029",
  "source": "pragma solidity ^0.4.24;\r\n\r\ncontract GameManager {\r\n    \r\n    // one simple gamble game\r\n\r\n    uint32 rand; // a number to guess\r\n    uint constant ticket = 6 ether; // the gamble fee\r\n\r\n    uint constant duration = 1 days; // duration of the game\r\n    uint endTime;\r\n\r\n    // top three participants, who guess most closely\r\n    // if more than two players guess the same num, the first win.\r\n    address firstPrize;\r\n    address secondPrize;\r\n    address thirdPrize;\r\n    // address[] successfullyParticipation; // others\r\n\r\n    int[3] topThree; // the top three small distances, default -1 (need to be set to positive)\r\n\r\n    constructor() public {\r\n        endTime = now + duration;\r\n        startGame();\r\n    }\r\n\r\n    function generateRand() private view returns (uint32) {\r\n        uint32 digits = 16;\r\n        uint32 modulus = uint32(10) ** digits;\r\n        uint32 num = uint32(keccak256(abi.encodePacked(now)));\r\n        return num % modulus;\r\n    }\r\n\r\n    function startGame() private {\r\n        \r\n        // set end time\r\n        endTime = endTime + duration;\r\n\r\n        // generate a new random number\r\n        rand = generateRand();\r\n\r\n        // set the top three to -1\r\n        topThree[0] = -1;\r\n        topThree[1] = -1;\r\n        topThree[2] = -1;\r\n\r\n    }\r\n\r\n    function secondsRemaining() public view returns (uint) {\r\n\r\n        // frequently called by frontend， need to be view to save gas\r\n        if (endTime <= now) {\r\n            return 0;  // can end game\r\n        } else {\r\n            return endTime - now;\r\n        }\r\n    }\r\n\r\n    function endGame() public {\r\n\r\n        require(now >= endTime, \"the game cannot be end now\");\r\n\r\n        // reward\r\n        rewardWinner();\r\n\r\n        // restart game\r\n        startGame();\r\n    }\r\n\r\n    function rewardWinner() private {\r\n        \r\n        // three winner get reward by 3:2:1\r\n        uint unit = address(this).balance / 6;\r\n        firstPrize.transfer(unit * 3);\r\n        secondPrize.transfer(unit * 2);\r\n        thirdPrize.transfer(unit * 1);\r\n    }\r\n\r\n    function distance(uint _num1, uint _num2) private pure returns(uint) {\r\n\r\n        // return the positive distance between _num1 and _num2\r\n        if (_num1 > _num2) {\r\n            return _num1 - _num2;\r\n        }\r\n        else {\r\n            return _num2 - _num1;\r\n        }\r\n    }\r\n\r\n    function guess(uint _rand) public payable {\r\n        \r\n        // pay for gamble\r\n        require(msg.value >= ticket);\r\n\r\n        // return some extra money to sender\r\n        uint changes = msg.value - ticket;\r\n        msg.sender.transfer(changes);\r\n\r\n        uint udist = distance(rand, _rand);\r\n        int dist = int(udist);\r\n\r\n        // initialize\r\n        if (topThree[0] == -1) {\r\n            topThree[0] = dist;\r\n            firstPrize = msg.sender;\r\n            return;\r\n        }\r\n        if (topThree[1] == -1) {\r\n            topThree[1] = dist;\r\n            secondPrize = msg.sender;\r\n            return;\r\n        }\r\n        if (topThree[2] == -1) {\r\n            topThree[2] = dist;\r\n            thirdPrize = msg.sender;\r\n            return;\r\n        }\r\n        \r\n        // compare\r\n        if (dist < topThree[0]) {\r\n            topThree[2] = topThree[1];\r\n            topThree[1] = topThree[0];\r\n            topThree[0] = dist;\r\n            firstPrize = msg.sender;\r\n        }\r\n        else if (dist < topThree[1]) {\r\n            topThree[2] = topThree[1];\r\n            topThree[1] = dist;\r\n            secondPrize = msg.sender;\r\n        }\r\n        else if (dist < topThree[2]) {\r\n            topThree[2] = dist;\r\n            thirdPrize = msg.sender;\r\n        }\r\n    }\r\n\r\n    function getWinner() internal view returns(address, address, address) {\r\n\r\n        // return the winners\r\n        return (firstPrize, secondPrize, thirdPrize);\r\n    }\r\n\r\n}",
  "sourcePath": "/home/tao/blockchain/privateChain/Solidity-SuperCommunity/contracts/GameManager.sol",
  "compiler": {
    "name": "solc",
    "version": "0.4.24+commit.e67f0147.Emscripten.clang"
  },
  "schemaVersion": "2.0.1",
  "updatedAt": "2018-11-21T15:27:38.447Z"
}