{
  "contractName": "MailManager",
  "abi": [
    {
      "constant": true,
      "inputs": [
        {
          "name": "",
          "type": "address"
        },
        {
          "name": "",
          "type": "uint256"
        }
      ],
      "name": "addrToMailBox",
      "outputs": [
        {
          "name": "id",
          "type": "uint256"
        },
        {
          "name": "from",
          "type": "string"
        },
        {
          "name": "to",
          "type": "string"
        },
        {
          "name": "title",
          "type": "string"
        },
        {
          "name": "text",
          "type": "string"
        },
        {
          "name": "attachment",
          "type": "string"
        }
      ],
      "payable": false,
      "stateMutability": "view",
      "type": "function"
    },
    {
      "constant": false,
      "inputs": [
        {
          "name": "_id",
          "type": "uint256"
        },
        {
          "name": "_attachment",
          "type": "string"
        }
      ],
      "name": "setAttachment",
      "outputs": [],
      "payable": false,
      "stateMutability": "nonpayable",
      "type": "function"
    },
    {
      "constant": true,
      "inputs": [
        {
          "name": "_index",
          "type": "uint256"
        }
      ],
      "name": "getMailByIndex",
      "outputs": [
        {
          "name": "",
          "type": "string"
        },
        {
          "name": "",
          "type": "string"
        },
        {
          "name": "",
          "type": "string"
        },
        {
          "name": "",
          "type": "string"
        },
        {
          "name": "",
          "type": "string"
        }
      ],
      "payable": false,
      "stateMutability": "view",
      "type": "function"
    },
    {
      "constant": true,
      "inputs": [],
      "name": "getMailCount",
      "outputs": [
        {
          "name": "",
          "type": "uint256"
        }
      ],
      "payable": false,
      "stateMutability": "view",
      "type": "function"
    }
  ],
  "bytecode": "0x608060405234801561001057600080fd5b50610ed5806100206000396000f300608060405260043610610062576000357c0100000000000000000000000000000000000000000000000000000000900463ffffffff168063106205421461006757806362d2fd1214610092578063810a006a1461030f578063f5394ca514610382575b600080fd5b34801561007357600080fd5b5061007c6105d8565b6040518082815260200191505060405180910390f35b34801561009e57600080fd5b506100dd600480360381019080803573ffffffffffffffffffffffffffffffffffffffff16906020019092919080359060200190929190505050610621565b60405180878152602001806020018060200180602001806020018060200186810386528b818151815260200191508051906020019080838360005b83811015610133578082015181840152602081019050610118565b50505050905090810190601f1680156101605780820380516001836020036101000a031916815260200191505b5086810385528a818151815260200191508051906020019080838360005b8381101561019957808201518184015260208101905061017e565b50505050905090810190601f1680156101c65780820380516001836020036101000a031916815260200191505b50868103845289818151815260200191508051906020019080838360005b838110156101ff5780820151818401526020810190506101e4565b50505050905090810190601f16801561022c5780820380516001836020036101000a031916815260200191505b50868103835288818151815260200191508051906020019080838360005b8381101561026557808201518184015260208101905061024a565b50505050905090810190601f1680156102925780820380516001836020036101000a031916815260200191505b50868103825287818151815260200191508051906020019080838360005b838110156102cb5780820151818401526020810190506102b0565b50505050905090810190601f1680156102f85780820380516001836020036101000a031916815260200191505b509b50505050505050505050505060405180910390f35b34801561031b57600080fd5b5061038060048036038101908080359060200190929190803590602001908201803590602001908080601f0160208091040260200160405190810160405280939291908181526020018383808284378201915050505050509192919290505050610971565b005b34801561038e57600080fd5b506103ad600480360381019080803590602001909291905050506109e6565b60405180806020018060200180602001806020018060200186810386528b818151815260200191508051906020019080838360005b838110156103fd5780820151818401526020810190506103e2565b50505050905090810190601f16801561042a5780820380516001836020036101000a031916815260200191505b5086810385528a818151815260200191508051906020019080838360005b83811015610463578082015181840152602081019050610448565b50505050905090810190601f1680156104905780820380516001836020036101000a031916815260200191505b50868103845289818151815260200191508051906020019080838360005b838110156104c95780820151818401526020810190506104ae565b50505050905090810190601f1680156104f65780820380516001836020036101000a031916815260200191505b50868103835288818151815260200191508051906020019080838360005b8381101561052f578082015181840152602081019050610514565b50505050905090810190601f16801561055c5780820380516001836020036101000a031916815260200191505b50868103825287818151815260200191508051906020019080838360005b8381101561059557808201518184015260208101905061057a565b50505050905090810190601f1680156105c25780820380516001836020036101000a031916815260200191505b509a505050505050505050505060405180910390f35b60008060003373ffffffffffffffffffffffffffffffffffffffff1673ffffffffffffffffffffffffffffffffffffffff16815260200190815260200160002080549050905090565b60006020528160005260406000208181548110151561063c57fe5b906000526020600020906006020160009150915050806000015490806001018054600181600116156101000203166002900480601f0160208091040260200160405190810160405280929190818152602001828054600181600116156101000203166002900480156106ef5780601f106106c4576101008083540402835291602001916106ef565b820191906000526020600020905b8154815290600101906020018083116106d257829003601f168201915b505050505090806002018054600181600116156101000203166002900480601f01602080910402602001604051908101604052809291908181526020018280546001816001161561010002031660029004801561078d5780601f106107625761010080835404028352916020019161078d565b820191906000526020600020905b81548152906001019060200180831161077057829003601f168201915b505050505090806003018054600181600116156101000203166002900480601f01602080910402602001604051908101604052809291908181526020018280546001816001161561010002031660029004801561082b5780601f106108005761010080835404028352916020019161082b565b820191906000526020600020905b81548152906001019060200180831161080e57829003601f168201915b505050505090806004018054600181600116156101000203166002900480601f0160208091040260200160405190810160405280929190818152602001828054600181600116156101000203166002900480156108c95780601f1061089e576101008083540402835291602001916108c9565b820191906000526020600020905b8154815290600101906020018083116108ac57829003601f168201915b505050505090806005018054600181600116156101000203166002900480601f0160208091040260200160405190810160405280929190818152602001828054600181600116156101000203166002900480156109675780601f1061093c57610100808354040283529160200191610967565b820191906000526020600020905b81548152906001019060200180831161094a57829003601f168201915b5050505050905086565b806000803373ffffffffffffffffffffffffffffffffffffffff1673ffffffffffffffffffffffffffffffffffffffff168152602001908152602001600020838154811015156109bd57fe5b906000526020600020906006020160050190805190602001906109e1929190610dcd565b505050565b60608060608060606109f6610e4d565b6000803373ffffffffffffffffffffffffffffffffffffffff1673ffffffffffffffffffffffffffffffffffffffff16815260200190815260200160002087815481101515610a4157fe5b906000526020600020906006020160c0604051908101604052908160008201548152602001600182018054600181600116156101000203166002900480601f016020809104026020016040519081016040528092919081815260200182805460018160011615610100020316600290048015610afe5780601f10610ad357610100808354040283529160200191610afe565b820191906000526020600020905b815481529060010190602001808311610ae157829003601f168201915b50505050508152602001600282018054600181600116156101000203166002900480601f016020809104026020016040519081016040528092919081815260200182805460018160011615610100020316600290048015610ba05780601f10610b7557610100808354040283529160200191610ba0565b820191906000526020600020905b815481529060010190602001808311610b8357829003601f168201915b50505050508152602001600382018054600181600116156101000203166002900480601f016020809104026020016040519081016040528092919081815260200182805460018160011615610100020316600290048015610c425780601f10610c1757610100808354040283529160200191610c42565b820191906000526020600020905b815481529060010190602001808311610c2557829003601f168201915b50505050508152602001600482018054600181600116156101000203166002900480601f016020809104026020016040519081016040528092919081815260200182805460018160011615610100020316600290048015610ce45780601f10610cb957610100808354040283529160200191610ce4565b820191906000526020600020905b815481529060010190602001808311610cc757829003601f168201915b50505050508152602001600582018054600181600116156101000203166002900480601f016020809104026020016040519081016040528092919081815260200182805460018160011615610100020316600290048015610d865780601f10610d5b57610100808354040283529160200191610d86565b820191906000526020600020905b815481529060010190602001808311610d6957829003601f168201915b505050505081525050905080602001518160400151826060015183608001518460a00151849450839350829250819150809050955095509550955095505091939590929450565b828054600181600116156101000203166002900490600052602060002090601f016020900481019282601f10610e0e57805160ff1916838001178555610e3c565b82800160010185558215610e3c579182015b82811115610e3b578251825591602001919060010190610e20565b5b509050610e499190610e84565b5090565b60c0604051908101604052806000815260200160608152602001606081526020016060815260200160608152602001606081525090565b610ea691905b80821115610ea2576000816000905550600101610e8a565b5090565b905600a165627a7a723058209d212cd09d8c724b234e31b36d9d6a3e4d2113ffb80cb5154dac097e93bdeafe0029",
  "source": "pragma solidity ^0.4.24;\r\n\r\ncontract MailManager {\r\n    \r\n    struct Mail {\r\n        // required\r\n        uint id;\r\n        string from;\r\n        string to;\r\n        string title;\r\n        string text;\r\n\r\n        // optional\r\n        string attachment;\r\n    }\r\n\r\n    // since mail box is private, there is no global mail box\r\n\r\n    mapping(address => Mail[]) public addrToMailBox; // mapping a address to a mail box;\r\n\r\n    function addMail(string memory _from, string memory _to, string memory _title, string memory _text) internal {\r\n\r\n        // add a mail to the mail box\r\n        uint id = addrToMailBox[msg.sender].push(Mail(0, _from, _to, _title, _text, \"null\")) - 1;\r\n\r\n        // set id\r\n        addrToMailBox[msg.sender][id].id = id;\r\n    }\r\n\r\n    function setAttachment(uint _id, string memory _attachment) public {\r\n        \r\n        // set attachment\r\n        addrToMailBox[msg.sender][_id].attachment = _attachment;\r\n    }\r\n\r\n    function getMailByIndex(uint _index) public view returns(string memory, string memory, string memory, string memory, string memory) {\r\n\r\n        Mail memory mail = addrToMailBox[msg.sender][_index];\r\n        return (mail.from, mail.to, mail.title, mail.text, mail.attachment);\r\n    }\r\n\r\n    function getMailCount() public view returns(uint) {\r\n\r\n        return addrToMailBox[msg.sender].length;\r\n    }\r\n}",
  "sourcePath": "/home/tao/blockchain/privateChain/Solidity-SuperCommunity/contracts/MailManager.sol",
  "compiler": {
    "name": "solc",
    "version": "0.4.24+commit.e67f0147.Emscripten.clang"
  },
  "schemaVersion": "2.0.1",
  "updatedAt": "2018-11-23T14:38:38.608Z"
}