{
  "contractName": "MailManager",
  "abi": [
    {
      "constant": true,
      "inputs": [
        {
          "name": "",
          "type": "address"
        },
        {
          "name": "",
          "type": "uint256"
        }
      ],
      "name": "addrToMailBox",
      "outputs": [
        {
          "name": "id",
          "type": "uint256"
        },
        {
          "name": "from",
          "type": "string"
        },
        {
          "name": "to",
          "type": "string"
        },
        {
          "name": "title",
          "type": "string"
        },
        {
          "name": "text",
          "type": "string"
        },
        {
          "name": "attachment",
          "type": "string"
        }
      ],
      "payable": false,
      "stateMutability": "view",
      "type": "function"
    },
    {
      "constant": false,
      "inputs": [
        {
          "name": "_id",
          "type": "uint256"
        },
        {
          "name": "_attachment",
          "type": "string"
        }
      ],
      "name": "setAttachment",
      "outputs": [],
      "payable": false,
      "stateMutability": "nonpayable",
      "type": "function"
    },
    {
      "constant": true,
      "inputs": [
        {
          "name": "_index",
          "type": "uint256"
        }
      ],
      "name": "getMailByIndex",
      "outputs": [
        {
          "name": "",
          "type": "string"
        },
        {
          "name": "",
          "type": "string"
        },
        {
          "name": "",
          "type": "string"
        },
        {
          "name": "",
          "type": "string"
        },
        {
          "name": "",
          "type": "string"
        }
      ],
      "payable": false,
      "stateMutability": "view",
      "type": "function"
    },
    {
      "constant": true,
      "inputs": [],
      "name": "getMailCount",
      "outputs": [
        {
          "name": "",
          "type": "uint256"
        }
      ],
      "payable": false,
      "stateMutability": "view",
      "type": "function"
    }
  ],
  "bytecode": "0x608060405234801561001057600080fd5b50610f50806100206000396000f3fe608060405260043610610062576000357c0100000000000000000000000000000000000000000000000000000000900463ffffffff168063106205421461006757806362d2fd1214610092578063810a006a1461031d578063f5394ca5146103ef575b600080fd5b34801561007357600080fd5b5061007c610653565b6040518082815260200191505060405180910390f35b34801561009e57600080fd5b506100eb600480360360408110156100b557600080fd5b81019080803573ffffffffffffffffffffffffffffffffffffffff1690602001909291908035906020019092919050505061069c565b60405180878152602001806020018060200180602001806020018060200186810386528b818151815260200191508051906020019080838360005b83811015610141578082015181840152602081019050610126565b50505050905090810190601f16801561016e5780820380516001836020036101000a031916815260200191505b5086810385528a818151815260200191508051906020019080838360005b838110156101a757808201518184015260208101905061018c565b50505050905090810190601f1680156101d45780820380516001836020036101000a031916815260200191505b50868103845289818151815260200191508051906020019080838360005b8381101561020d5780820151818401526020810190506101f2565b50505050905090810190601f16801561023a5780820380516001836020036101000a031916815260200191505b50868103835288818151815260200191508051906020019080838360005b83811015610273578082015181840152602081019050610258565b50505050905090810190601f1680156102a05780820380516001836020036101000a031916815260200191505b50868103825287818151815260200191508051906020019080838360005b838110156102d95780820151818401526020810190506102be565b50505050905090810190601f1680156103065780820380516001836020036101000a031916815260200191505b509b50505050505050505050505060405180910390f35b34801561032957600080fd5b506103ed6004803603604081101561034057600080fd5b81019080803590602001909291908035906020019064010000000081111561036757600080fd5b82018360208201111561037957600080fd5b8035906020019184600183028401116401000000008311171561039b57600080fd5b91908080601f016020809104026020016040519081016040528093929190818152602001838380828437600081840152601f19601f8201169050808301925050505050505091929192905050506109ec565b005b3480156103fb57600080fd5b506104286004803603602081101561041257600080fd5b8101908080359060200190929190505050610a61565b60405180806020018060200180602001806020018060200186810386528b818151815260200191508051906020019080838360005b8381101561047857808201518184015260208101905061045d565b50505050905090810190601f1680156104a55780820380516001836020036101000a031916815260200191505b5086810385528a818151815260200191508051906020019080838360005b838110156104de5780820151818401526020810190506104c3565b50505050905090810190601f16801561050b5780820380516001836020036101000a031916815260200191505b50868103845289818151815260200191508051906020019080838360005b83811015610544578082015181840152602081019050610529565b50505050905090810190601f1680156105715780820380516001836020036101000a031916815260200191505b50868103835288818151815260200191508051906020019080838360005b838110156105aa57808201518184015260208101905061058f565b50505050905090810190601f1680156105d75780820380516001836020036101000a031916815260200191505b50868103825287818151815260200191508051906020019080838360005b838110156106105780820151818401526020810190506105f5565b50505050905090810190601f16801561063d5780820380516001836020036101000a031916815260200191505b509a505050505050505050505060405180910390f35b60008060003373ffffffffffffffffffffffffffffffffffffffff1673ffffffffffffffffffffffffffffffffffffffff16815260200190815260200160002080549050905090565b6000602052816000526040600020818154811015156106b757fe5b906000526020600020906006020160009150915050806000015490806001018054600181600116156101000203166002900480601f01602080910402602001604051908101604052809291908181526020018280546001816001161561010002031660029004801561076a5780601f1061073f5761010080835404028352916020019161076a565b820191906000526020600020905b81548152906001019060200180831161074d57829003601f168201915b505050505090806002018054600181600116156101000203166002900480601f0160208091040260200160405190810160405280929190818152602001828054600181600116156101000203166002900480156108085780601f106107dd57610100808354040283529160200191610808565b820191906000526020600020905b8154815290600101906020018083116107eb57829003601f168201915b505050505090806003018054600181600116156101000203166002900480601f0160208091040260200160405190810160405280929190818152602001828054600181600116156101000203166002900480156108a65780601f1061087b576101008083540402835291602001916108a6565b820191906000526020600020905b81548152906001019060200180831161088957829003601f168201915b505050505090806004018054600181600116156101000203166002900480601f0160208091040260200160405190810160405280929190818152602001828054600181600116156101000203166002900480156109445780601f1061091957610100808354040283529160200191610944565b820191906000526020600020905b81548152906001019060200180831161092757829003601f168201915b505050505090806005018054600181600116156101000203166002900480601f0160208091040260200160405190810160405280929190818152602001828054600181600116156101000203166002900480156109e25780601f106109b7576101008083540402835291602001916109e2565b820191906000526020600020905b8154815290600101906020018083116109c557829003601f168201915b5050505050905086565b806000803373ffffffffffffffffffffffffffffffffffffffff1673ffffffffffffffffffffffffffffffffffffffff16815260200190815260200160002083815481101515610a3857fe5b90600052602060002090600602016005019080519060200190610a5c929190610e48565b505050565b6060806060806060610a71610ec8565b6000803373ffffffffffffffffffffffffffffffffffffffff1673ffffffffffffffffffffffffffffffffffffffff16815260200190815260200160002087815481101515610abc57fe5b906000526020600020906006020160c0604051908101604052908160008201548152602001600182018054600181600116156101000203166002900480601f016020809104026020016040519081016040528092919081815260200182805460018160011615610100020316600290048015610b795780601f10610b4e57610100808354040283529160200191610b79565b820191906000526020600020905b815481529060010190602001808311610b5c57829003601f168201915b50505050508152602001600282018054600181600116156101000203166002900480601f016020809104026020016040519081016040528092919081815260200182805460018160011615610100020316600290048015610c1b5780601f10610bf057610100808354040283529160200191610c1b565b820191906000526020600020905b815481529060010190602001808311610bfe57829003601f168201915b50505050508152602001600382018054600181600116156101000203166002900480601f016020809104026020016040519081016040528092919081815260200182805460018160011615610100020316600290048015610cbd5780601f10610c9257610100808354040283529160200191610cbd565b820191906000526020600020905b815481529060010190602001808311610ca057829003601f168201915b50505050508152602001600482018054600181600116156101000203166002900480601f016020809104026020016040519081016040528092919081815260200182805460018160011615610100020316600290048015610d5f5780601f10610d3457610100808354040283529160200191610d5f565b820191906000526020600020905b815481529060010190602001808311610d4257829003601f168201915b50505050508152602001600582018054600181600116156101000203166002900480601f016020809104026020016040519081016040528092919081815260200182805460018160011615610100020316600290048015610e015780601f10610dd657610100808354040283529160200191610e01565b820191906000526020600020905b815481529060010190602001808311610de457829003601f168201915b505050505081525050905080602001518160400151826060015183608001518460a00151849450839350829250819150809050955095509550955095505091939590929450565b828054600181600116156101000203166002900490600052602060002090601f016020900481019282601f10610e8957805160ff1916838001178555610eb7565b82800160010185558215610eb7579182015b82811115610eb6578251825591602001919060010190610e9b565b5b509050610ec49190610eff565b5090565b60c0604051908101604052806000815260200160608152602001606081526020016060815260200160608152602001606081525090565b610f2191905b80821115610f1d576000816000905550600101610f05565b5090565b9056fea165627a7a72305820b24a788888d49a5bea45f5377739aa2f5d7d24bd45ba8a93fd4aabba94f055e60029",
  "source": "pragma solidity ^0.5.0;\r\n\r\ncontract MailManager {\r\n    \r\n    struct Mail {\r\n        // required\r\n        uint id;\r\n        string from;\r\n        string to;\r\n        string title;\r\n        string text;\r\n\r\n        // optional\r\n        string attachment;\r\n    }\r\n\r\n    // since mail box is private, there is no global mail box\r\n\r\n    mapping(address => Mail[]) public addrToMailBox; // mapping a address to a mail box;\r\n\r\n    function addMail(string memory _from, string memory _to, string memory _title, string memory _text) internal {\r\n\r\n        // add a mail to the mail box\r\n        uint id = addrToMailBox[msg.sender].push(Mail(0, _from, _to, _title, _text, \"null\")) - 1;\r\n\r\n        // set id\r\n        addrToMailBox[msg.sender][id].id = id;\r\n    }\r\n\r\n    function setAttachment(uint _id, string memory _attachment) public {\r\n        \r\n        // set attachment\r\n        addrToMailBox[msg.sender][_id].attachment = _attachment;\r\n    }\r\n\r\n    function getMailByIndex(uint _index) public view returns(string memory, string memory, string memory, string memory, string memory) {\r\n\r\n        Mail memory mail = addrToMailBox[msg.sender][_index];\r\n        return (mail.from, mail.to, mail.title, mail.text, mail.attachment);\r\n    }\r\n\r\n    function getMailCount() public view returns(uint) {\r\n\r\n        return addrToMailBox[msg.sender].length;\r\n    }\r\n}",
  "sourcePath": "/home/tao/blockchain/privateChain/webpack/contracts/MailManager.sol",
  "compiler": {
    "name": "solc",
    "version": "0.5.0+commit.1d4f565a.Emscripten.clang"
  },
  "schemaVersion": "3.0.0",
  "updatedAt": "2018-12-26T01:37:57.222Z",
  "devdoc": {
    "methods": {}
  },
  "userdoc": {
    "methods": {}
  }
}