{
  "contractName": "SuperCommunity",
  "abi": [
    {
      "constant": false,
      "inputs": [
        {
          "name": "_name",
          "type": "string"
        }
      ],
      "name": "watch",
      "outputs": [],
      "payable": false,
      "stateMutability": "nonpayable",
      "type": "function"
    },
    {
      "constant": true,
      "inputs": [],
      "name": "getCommentCount",
      "outputs": [
        {
          "name": "",
          "type": "uint256"
        }
      ],
      "payable": false,
      "stateMutability": "view",
      "type": "function"
    },
    {
      "constant": true,
      "inputs": [
        {
          "name": "",
          "type": "address"
        },
        {
          "name": "",
          "type": "uint256"
        }
      ],
      "name": "nameToMailBox",
      "outputs": [
        {
          "name": "id",
          "type": "uint256"
        },
        {
          "name": "from",
          "type": "string"
        },
        {
          "name": "to",
          "type": "string"
        },
        {
          "name": "title",
          "type": "string"
        },
        {
          "name": "text",
          "type": "string"
        },
        {
          "name": "attachment",
          "type": "bytes"
        }
      ],
      "payable": false,
      "stateMutability": "view",
      "type": "function"
    },
    {
      "constant": false,
      "inputs": [
        {
          "name": "_to",
          "type": "address"
        },
        {
          "name": "_amout",
          "type": "uint256"
        }
      ],
      "name": "donateFromCharity",
      "outputs": [],
      "payable": false,
      "stateMutability": "nonpayable",
      "type": "function"
    },
    {
      "constant": false,
      "inputs": [
        {
          "name": "_name",
          "type": "string"
        },
        {
          "name": "_comment",
          "type": "string"
        },
        {
          "name": "_head_img",
          "type": "string"
        }
      ],
      "name": "addComment",
      "outputs": [
        {
          "name": "",
          "type": "bool"
        }
      ],
      "payable": false,
      "stateMutability": "nonpayable",
      "type": "function"
    },
    {
      "constant": false,
      "inputs": [
        {
          "name": "to",
          "type": "address"
        },
        {
          "name": "_id",
          "type": "uint256"
        }
      ],
      "name": "rewardByAddr",
      "outputs": [
        {
          "name": "",
          "type": "bool"
        }
      ],
      "payable": true,
      "stateMutability": "payable",
      "type": "function"
    },
    {
      "constant": false,
      "inputs": [
        {
          "name": "_name",
          "type": "string"
        }
      ],
      "name": "unwatch",
      "outputs": [],
      "payable": false,
      "stateMutability": "nonpayable",
      "type": "function"
    },
    {
      "constant": false,
      "inputs": [],
      "name": "donateToCharity",
      "outputs": [],
      "payable": true,
      "stateMutability": "payable",
      "type": "function"
    },
    {
      "constant": false,
      "inputs": [],
      "name": "renounceOwnership",
      "outputs": [],
      "payable": false,
      "stateMutability": "nonpayable",
      "type": "function"
    },
    {
      "constant": false,
      "inputs": [
        {
          "name": "_id",
          "type": "uint256"
        },
        {
          "name": "_attachment",
          "type": "bytes"
        }
      ],
      "name": "setAttachment",
      "outputs": [],
      "payable": false,
      "stateMutability": "nonpayable",
      "type": "function"
    },
    {
      "constant": true,
      "inputs": [],
      "name": "owner",
      "outputs": [
        {
          "name": "",
          "type": "address"
        }
      ],
      "payable": false,
      "stateMutability": "view",
      "type": "function"
    },
    {
      "constant": true,
      "inputs": [],
      "name": "isOwner",
      "outputs": [
        {
          "name": "",
          "type": "bool"
        }
      ],
      "payable": false,
      "stateMutability": "view",
      "type": "function"
    },
    {
      "constant": true,
      "inputs": [
        {
          "name": "_index",
          "type": "uint256"
        }
      ],
      "name": "getCommentByIndex",
      "outputs": [
        {
          "name": "",
          "type": "string"
        },
        {
          "name": "",
          "type": "string"
        },
        {
          "name": "",
          "type": "string"
        },
        {
          "name": "",
          "type": "uint256"
        }
      ],
      "payable": false,
      "stateMutability": "view",
      "type": "function"
    },
    {
      "constant": true,
      "inputs": [],
      "name": "getUserCount",
      "outputs": [
        {
          "name": "",
          "type": "uint256"
        }
      ],
      "payable": false,
      "stateMutability": "view",
      "type": "function"
    },
    {
      "constant": true,
      "inputs": [
        {
          "name": "_id",
          "type": "uint256"
        }
      ],
      "name": "getNameByCommentId",
      "outputs": [
        {
          "name": "",
          "type": "string"
        }
      ],
      "payable": false,
      "stateMutability": "view",
      "type": "function"
    },
    {
      "constant": false,
      "inputs": [
        {
          "name": "_name",
          "type": "string"
        }
      ],
      "name": "register",
      "outputs": [
        {
          "name": "",
          "type": "bool"
        }
      ],
      "payable": false,
      "stateMutability": "nonpayable",
      "type": "function"
    },
    {
      "constant": false,
      "inputs": [
        {
          "name": "newOwner",
          "type": "address"
        }
      ],
      "name": "transferOwnership",
      "outputs": [],
      "payable": false,
      "stateMutability": "nonpayable",
      "type": "function"
    },
    {
      "constant": true,
      "inputs": [
        {
          "name": "_index",
          "type": "uint256"
        }
      ],
      "name": "getUserByIndex",
      "outputs": [
        {
          "name": "",
          "type": "string"
        },
        {
          "name": "",
          "type": "string"
        },
        {
          "name": "",
          "type": "string"
        },
        {
          "name": "",
          "type": "string"
        },
        {
          "name": "",
          "type": "string"
        }
      ],
      "payable": false,
      "stateMutability": "view",
      "type": "function"
    },
    {
      "anonymous": false,
      "inputs": [
        {
          "indexed": true,
          "name": "previousOwner",
          "type": "address"
        },
        {
          "indexed": true,
          "name": "newOwner",
          "type": "address"
        }
      ],
      "name": "OwnershipTransferred",
      "type": "event"
    },
    {
      "constant": false,
      "inputs": [
        {
          "name": "_comment",
          "type": "string"
        }
      ],
      "name": "sendComment",
      "outputs": [],
      "payable": false,
      "stateMutability": "nonpayable",
      "type": "function"
    },
    {
      "constant": false,
      "inputs": [
        {
          "name": "_id",
          "type": "uint256"
        }
      ],
      "name": "rewardComment",
      "outputs": [],
      "payable": false,
      "stateMutability": "nonpayable",
      "type": "function"
    },
    {
      "constant": false,
      "inputs": [
        {
          "name": "_to",
          "type": "string"
        },
        {
          "name": "_title",
          "type": "string"
        },
        {
          "name": "_text",
          "type": "string"
        }
      ],
      "name": "sendMail",
      "outputs": [],
      "payable": false,
      "stateMutability": "nonpayable",
      "type": "function"
    }
  ],
  "bytecode": "0x6080604052670de0b6b3a764000060085533600760006101000a81548173ffffffffffffffffffffffffffffffffffffffff021916908373ffffffffffffffffffffffffffffffffffffffff160217905550600760009054906101000a900473ffffffffffffffffffffffffffffffffffffffff1673ffffffffffffffffffffffffffffffffffffffff16600073ffffffffffffffffffffffffffffffffffffffff167f8be0079c531659141344cd1fd0a4f28419497f9722a3daafe3b4186f6b6457e060405160405180910390a36140ae806100dd6000396000f30060806040526004361061011d576000357c0100000000000000000000000000000000000000000000000000000000900463ffffffff16806307574d7f1461012257806316e31ea31461018b57806325765e2b146101b65780632aa085b01461043357806339b92d17146104805780633c128e131461058d57806351737757146105e55780635fc2b3b01461064e5780636df063ff146107435780636e87be2014610770578063715018a61461077a57806373821f62146107915780638da5cb5b146108045780638f32d59b1461085b578063ac2c88371461088a578063b5cb15f714610a0f578063b741aa5114610a3a578063cd70aced14610aa3578063f2c298be14610b49578063f2fde38b14610bca578063ff5d32fe14610c0d575b600080fd5b34801561012e57600080fd5b50610189600480360381019080803590602001908201803590602001908080601f0160208091040260200160405190810160405280939291908181526020018383808284378201915050505050509192919290505050610e63565b005b34801561019757600080fd5b506101a06111f0565b6040518082815260200191505060405180910390f35b3480156101c257600080fd5b50610201600480360381019080803573ffffffffffffffffffffffffffffffffffffffff169060200190929190803590602001909291905050506111fd565b60405180878152602001806020018060200180602001806020018060200186810386528b818151815260200191508051906020019080838360005b8381101561025757808201518184015260208101905061023c565b50505050905090810190601f1680156102845780820380516001836020036101000a031916815260200191505b5086810385528a818151815260200191508051906020019080838360005b838110156102bd5780820151818401526020810190506102a2565b50505050905090810190601f1680156102ea5780820380516001836020036101000a031916815260200191505b50868103845289818151815260200191508051906020019080838360005b83811015610323578082015181840152602081019050610308565b50505050905090810190601f1680156103505780820380516001836020036101000a031916815260200191505b50868103835288818151815260200191508051906020019080838360005b8381101561038957808201518184015260208101905061036e565b50505050905090810190601f1680156103b65780820380516001836020036101000a031916815260200191505b50868103825287818151815260200191508051906020019080838360005b838110156103ef5780820151818401526020810190506103d4565b50505050905090810190601f16801561041c5780820380516001836020036101000a031916815260200191505b509b50505050505050505050505060405180910390f35b34801561043f57600080fd5b5061047e600480360381019080803573ffffffffffffffffffffffffffffffffffffffff1690602001909291908035906020019092919050505061154d565b005b34801561048c57600080fd5b50610573600480360381019080803590602001908201803590602001908080601f0160208091040260200160405190810160405280939291908181526020018383808284378201915050505050509192919290803590602001908201803590602001908080601f0160208091040260200160405190810160405280939291908181526020018383808284378201915050505050509192919290803590602001908201803590602001908080601f0160208091040260200160405190810160405280939291908181526020018383808284378201915050505050509192919290505050611664565b604051808215151515815260200191505060405180910390f35b6105cb600480360381019080803573ffffffffffffffffffffffffffffffffffffffff16906020019092919080359060200190929190505050611801565b604051808215151515815260200191505060405180910390f35b3480156105f157600080fd5b5061064c600480360381019080803590602001908201803590602001908080601f016020809104026020016040519081016040528093929190818152602001838380828437820191505050505050919291929050505061191c565b005b34801561065a57600080fd5b50610741600480360381019080803590602001908201803590602001908080601f0160208091040260200160405190810160405280939291908181526020018383808284378201915050505050509192919290803590602001908201803590602001908080601f0160208091040260200160405190810160405280939291908181526020018383808284378201915050505050509192919290803590602001908201803590602001908080601f0160208091040260200160405190810160405280939291908181526020018383808284378201915050505050509192919290505050611ff7565b005b34801561074f57600080fd5b5061076e6004803603810190808035906020019092919050505061258e565b005b610778612775565b005b34801561078657600080fd5b5061078f6127ed565b005b34801561079d57600080fd5b5061080260048036038101908080359060200190929190803590602001908201803590602001908080601f0160208091040260200160405190810160405280939291908181526020018383808284378201915050505050509192919290505050612976565b005b34801561081057600080fd5b506108196129ec565b604051808273ffffffffffffffffffffffffffffffffffffffff1673ffffffffffffffffffffffffffffffffffffffff16815260200191505060405180910390f35b34801561086757600080fd5b50610870612a16565b604051808215151515815260200191505060405180910390f35b34801561089657600080fd5b506108b560048036038101908080359060200190929190505050612a6e565b60405180806020018060200180602001858152602001848103845288818151815260200191508051906020019080838360005b838110156109035780820151818401526020810190506108e8565b50505050905090810190601f1680156109305780820380516001836020036101000a031916815260200191505b50848103835287818151815260200191508051906020019080838360005b8381101561096957808201518184015260208101905061094e565b50505050905090810190601f1680156109965780820380516001836020036101000a031916815260200191505b50848103825286818151815260200191508051906020019080838360005b838110156109cf5780820151818401526020810190506109b4565b50505050905090810190601f1680156109fc5780820380516001836020036101000a031916815260200191505b5097505050505050505060405180910390f35b348015610a1b57600080fd5b50610a24612ccf565b6040518082815260200191505060405180910390f35b348015610a4657600080fd5b50610aa1600480360381019080803590602001908201803590602001908080601f0160208091040260200160405190810160405280939291908181526020018383808284378201915050505050509192919290505050612cdb565b005b348015610aaf57600080fd5b50610ace60048036038101908080359060200190929190505050613142565b6040518080602001828103825283818151815260200191508051906020019080838360005b83811015610b0e578082015181840152602081019050610af3565b50505050905090810190601f168015610b3b5780820380516001836020036101000a031916815260200191505b509250505060405180910390f35b348015610b5557600080fd5b50610bb0600480360381019080803590602001908201803590602001908080601f0160208091040260200160405190810160405280939291908181526020018383808284378201915050505050509192919290505050613204565b604051808215151515815260200191505060405180910390f35b348015610bd657600080fd5b50610c0b600480360381019080803573ffffffffffffffffffffffffffffffffffffffff1690602001909291905050506135da565b005b348015610c1957600080fd5b50610c38600480360381019080803590602001909291905050506136ae565b60405180806020018060200180602001806020018060200186810386528b818151815260200191508051906020019080838360005b83811015610c88578082015181840152602081019050610c6d565b50505050905090810190601f168015610cb55780820380516001836020036101000a031916815260200191505b5086810385528a818151815260200191508051906020019080838360005b83811015610cee578082015181840152602081019050610cd3565b50505050905090810190601f168015610d1b5780820380516001836020036101000a031916815260200191505b50868103845289818151815260200191508051906020019080838360005b83811015610d54578082015181840152602081019050610d39565b50505050905090810190601f168015610d815780820380516001836020036101000a031916815260200191505b50868103835288818151815260200191508051906020019080838360005b83811015610dba578082015181840152602081019050610d9f565b50505050905090810190601f168015610de75780820380516001836020036101000a031916815260200191505b50868103825287818151815260200191508051906020019080838360005b83811015610e20578082015181840152602081019050610e05565b50505050905090810190601f168015610e4d5780820380516001836020036101000a031916815260200191505b509a505050505050505050505060405180910390f35b6060336000600160008373ffffffffffffffffffffffffffffffffffffffff1673ffffffffffffffffffffffffffffffffffffffff168152602001908152602001600020600001805460018160011615610100020316600290049050111515610f34576040517f08c379a00000000000000000000000000000000000000000000000000000000081526004018080602001828103825260198152602001807f74686973206e616d65206973206e6f7420657869737465642e0000000000000081525060200191505060405180910390fd5b82600073ffffffffffffffffffffffffffffffffffffffff166002826040518082805190602001908083835b602083101515610f855780518252602082019150602081019050602083039250610f60565b6001836020036101000a038019825116818451168082178552505050505050905001915050908152602001604051809103902060009054906101000a900473ffffffffffffffffffffffffffffffffffffffff1673ffffffffffffffffffffffffffffffffffffffff1614151515611065576040517f08c379a00000000000000000000000000000000000000000000000000000000081526004018080602001828103825260198152602001807f74686973206e616d65206973206e6f7420657869737465642e0000000000000081525060200191505060405180910390fd5b600160003373ffffffffffffffffffffffffffffffffffffffff1673ffffffffffffffffffffffffffffffffffffffff1681526020019081526020016000206000018054600181600116156101000203166002900480601f01602080910402602001604051908101604052809291908181526020018280546001816001161561010002031660029004801561113b5780601f106111105761010080835404028352916020019161113b565b820191906000526020600020905b81548152906001019060200180831161111e57829003601f168201915b505050505092506003836040518082805190602001908083835b60208310151561117a5780518252602082019150602081019050602083039250611155565b6001836020036101000a03801982511681845116808217855250505050505090500191505090815260200160405180910390208390806001815401808255809150509060018203906000526020600020016000909192909190915090805190602001906111e8929190613db5565b505050505050565b6000600480549050905090565b60066020528160005260406000208181548110151561121857fe5b906000526020600020906006020160009150915050806000015490806001018054600181600116156101000203166002900480601f0160208091040260200160405190810160405280929190818152602001828054600181600116156101000203166002900480156112cb5780601f106112a0576101008083540402835291602001916112cb565b820191906000526020600020905b8154815290600101906020018083116112ae57829003601f168201915b505050505090806002018054600181600116156101000203166002900480601f0160208091040260200160405190810160405280929190818152602001828054600181600116156101000203166002900480156113695780601f1061133e57610100808354040283529160200191611369565b820191906000526020600020905b81548152906001019060200180831161134c57829003601f168201915b505050505090806003018054600181600116156101000203166002900480601f0160208091040260200160405190810160405280929190818152602001828054600181600116156101000203166002900480156114075780601f106113dc57610100808354040283529160200191611407565b820191906000526020600020905b8154815290600101906020018083116113ea57829003601f168201915b505050505090806004018054600181600116156101000203166002900480601f0160208091040260200160405190810160405280929190818152602001828054600181600116156101000203166002900480156114a55780601f1061147a576101008083540402835291602001916114a5565b820191906000526020600020905b81548152906001019060200180831161148857829003601f168201915b505050505090806005018054600181600116156101000203166002900480601f0160208091040260200160405190810160405280929190818152602001828054600181600116156101000203166002900480156115435780601f1061151857610100808354040283529160200191611543565b820191906000526020600020905b81548152906001019060200180831161152657829003601f168201915b5050505050905086565b611555612a16565b1515611615576040517f08c379a00000000000000000000000000000000000000000000000000000000081526004018080602001828103825260428152602001807f7065726d697373696f6e2064656e6965642c206f6e6c79206f776e6572206f6681526020017f207468697320636f6e74726163742068617320746865207065726d697373696f81526020017f6e2e00000000000000000000000000000000000000000000000000000000000081525060600191505060405180910390fd5b8173ffffffffffffffffffffffffffffffffffffffff166108fc60085483029081150290604051600060405180830381858888f1935050505015801561165f573d6000803e3d6000fd5b505050565b6000808360008151111515611707576040517f08c379a000000000000000000000000000000000000000000000000000000000815260040180806020018281038252602b8152602001807f746865206c656e677468206f66206120636f6d6d656e74206d7573742067726581526020017f61746572207468616e203000000000000000000000000000000000000000000081525060400191505060405180910390fd5b6001600460a060405190810160405280600081526020018981526020018881526020018781526020014281525090806001815401808255809150509060018203906000526020600020906005020160009091929091909150600082015181600001556020820151816001019080519060200190611785929190613e35565b5060408201518160020190805190602001906117a2929190613e35565b5060608201518160030190805190602001906117bf929190613e35565b50608082015181600401555050039150816004838154811015156117df57fe5b9060005260206000209060050201600001819055506001925050509392505050565b600082600073ffffffffffffffffffffffffffffffffffffffff168173ffffffffffffffffffffffffffffffffffffffff16141515156118a9576040517f08c379a00000000000000000000000000000000000000000000000000000000081526004018080602001828103825260108152602001807f696e76616c696420616464726573732e0000000000000000000000000000000081525060200191505060405180910390fd5b8373ffffffffffffffffffffffffffffffffffffffff166108fc349081150290604051600060405180830381858888f193505050501580156118ef573d6000803e3d6000fd5b50346005600085815260200190815260200160002060008282540192505081905550600191505092915050565b60606000336000600160008373ffffffffffffffffffffffffffffffffffffffff1673ffffffffffffffffffffffffffffffffffffffff1681526020019081526020016000206000018054600181600116156101000203166002900490501115156119ef576040517f08c379a00000000000000000000000000000000000000000000000000000000081526004018080602001828103825260198152602001807f74686973206e616d65206973206e6f7420657869737465642e0000000000000081525060200191505060405180910390fd5b83600073ffffffffffffffffffffffffffffffffffffffff166002826040518082805190602001908083835b602083101515611a405780518252602082019150602081019050602083039250611a1b565b6001836020036101000a038019825116818451168082178552505050505050905001915050908152602001604051809103902060009054906101000a900473ffffffffffffffffffffffffffffffffffffffff1673ffffffffffffffffffffffffffffffffffffffff1614151515611b20576040517f08c379a00000000000000000000000000000000000000000000000000000000081526004018080602001828103825260198152602001807f74686973206e616d65206973206e6f7420657869737465642e0000000000000081525060200191505060405180910390fd5b600160003373ffffffffffffffffffffffffffffffffffffffff1673ffffffffffffffffffffffffffffffffffffffff1681526020019081526020016000206000018054600181600116156101000203166002900480601f016020809104026020016040519081016040528092919081815260200182805460018160011615610100020316600290048015611bf65780601f10611bcb57610100808354040283529160200191611bf6565b820191906000526020600020905b815481529060010190602001808311611bd957829003601f168201915b50505050509350600092505b6003846040518082805190602001908083835b602083101515611c3a5780518252602082019150602081019050602083039250611c15565b6001836020036101000a038019825116818451168082178552505050505050905001915050908152602001604051809103902080549050831015611ff05760006003856040518082805190602001908083835b602083101515611cb25780518252602082019150602081019050602083039250611c8d565b6001836020036101000a038019825116818451168082178552505050505050905001915050908152602001604051809103902084815481101515611cf257fe5b906000526020600020018054600181600116156101000203166002900490501415611d1c57611fe3565b6003846040518082805190602001908083835b602083101515611d545780518252602082019150602081019050602083039250611d2f565b6001836020036101000a038019825116818451168082178552505050505050905001915050908152602001604051809103902083815481101515611d9457fe5b906000526020600020016040516020018082805460018160011615610100020316600290048015611dfc5780601f10611dda576101008083540402835291820191611dfc565b820191906000526020600020905b815481529060010190602001808311611de8575b50509150506040516020818303038152906040526040518082805190602001908083835b602083101515611e455780518252602082019150602081019050602083039250611e20565b6001836020036101000a038019825116818451168082178552505050505050905001915050604051809103902060001916856040516020018082805190602001908083835b602083101515611eaf5780518252602082019150602081019050602083039250611e8a565b6001836020036101000a0380198251168184511680821785525050505050509050019150506040516020818303038152906040526040518082805190602001908083835b602083101515611f185780518252602082019150602081019050602083039250611ef3565b6001836020036101000a0380198251168184511680821785525050505050509050019150506040518091039020600019161415611fe2576003846040518082805190602001908083835b602083101515611f875780518252602082019150602081019050602083039250611f62565b6001836020036101000a038019825116818451168082178552505050505050905001915050908152602001604051809103902083815481101515611fc757fe5b906000526020600020016000611fdd9190613eb5565b611ff0565b5b8280600101935050611c02565b5050505050565b611fff613efd565b336000600160008373ffffffffffffffffffffffffffffffffffffffff1673ffffffffffffffffffffffffffffffffffffffff1681526020019081526020016000206000018054600181600116156101000203166002900490501115156120ce576040517f08c379a00000000000000000000000000000000000000000000000000000000081526004018080602001828103825260198152602001807f74686973206e616d65206973206e6f7420657869737465642e0000000000000081525060200191505060405180910390fd5b84600073ffffffffffffffffffffffffffffffffffffffff166002826040518082805190602001908083835b60208310151561211f57805182526020820191506020810190506020830392506120fa565b6001836020036101000a038019825116818451168082178552505050505050905001915050908152602001604051809103902060009054906101000a900473ffffffffffffffffffffffffffffffffffffffff1673ffffffffffffffffffffffffffffffffffffffff16141515156121ff576040517f08c379a00000000000000000000000000000000000000000000000000000000081526004018080602001828103825260198152602001807f74686973206e616d65206973206e6f7420657869737465642e0000000000000081525060200191505060405180910390fd5b600160003373ffffffffffffffffffffffffffffffffffffffff1673ffffffffffffffffffffffffffffffffffffffff16815260200190815260200160002060a06040519081016040529081600082018054600181600116156101000203166002900480601f0160208091040260200160405190810160405280929190818152602001828054600181600116156101000203166002900480156122e35780601f106122b8576101008083540402835291602001916122e3565b820191906000526020600020905b8154815290600101906020018083116122c657829003601f168201915b50505050508152602001600182018054600181600116156101000203166002900480601f0160208091040260200160405190810160405280929190818152602001828054600181600116156101000203166002900480156123855780601f1061235a57610100808354040283529160200191612385565b820191906000526020600020905b81548152906001019060200180831161236857829003601f168201915b50505050508152602001600282018054600181600116156101000203166002900480601f0160208091040260200160405190810160405280929190818152602001828054600181600116156101000203166002900480156124275780601f106123fc57610100808354040283529160200191612427565b820191906000526020600020905b81548152906001019060200180831161240a57829003601f168201915b50505050508152602001600382018054600181600116156101000203166002900480601f0160208091040260200160405190810160405280929190818152602001828054600181600116156101000203166002900480156124c95780601f1061249e576101008083540402835291602001916124c9565b820191906000526020600020905b8154815290600101906020018083116124ac57829003601f168201915b50505050508152602001600482018054600181600116156101000203166002900480601f01602080910402602001604051908101604052809291908181526020018280546001816001161561010002031660029004801561256b5780601f106125405761010080835404028352916020019161256b565b820191906000526020600020905b81548152906001019060200180831161254e57829003601f168201915b50505050508152505092506125868360000151878787613a4f565b505050505050565b6060600061259b83613142565b600073ffffffffffffffffffffffffffffffffffffffff166002826040518082805190602001908083835b6020831015156125eb57805182526020820191506020810190506020830392506125c6565b6001836020036101000a038019825116818451168082178552505050505050905001915050908152602001604051809103902060009054906101000a900473ffffffffffffffffffffffffffffffffffffffff1673ffffffffffffffffffffffffffffffffffffffff16141515156126cb576040517f08c379a00000000000000000000000000000000000000000000000000000000081526004018080602001828103825260198152602001807f74686973206e616d65206973206e6f7420657869737465642e0000000000000081525060200191505060405180910390fd5b6126d484613142565b92506002836040518082805190602001908083835b60208310151561270e57805182526020820191506020810190506020830392506126e9565b6001836020036101000a038019825116818451168082178552505050505050905001915050908152602001604051809103902060009054906101000a900473ffffffffffffffffffffffffffffffffffffffff16915061276e8285611801565b5050505050565b600080600854341015151561278957600080fd5b6008543481151561279657fe5b0491506008548202340390503373ffffffffffffffffffffffffffffffffffffffff166108fc829081150290604051600060405180830381858888f193505050501580156127e8573d6000803e3d6000fd5b505050565b6127f5612a16565b15156128b5576040517f08c379a00000000000000000000000000000000000000000000000000000000081526004018080602001828103825260428152602001807f7065726d697373696f6e2064656e6965642c206f6e6c79206f776e6572206f6681526020017f207468697320636f6e74726163742068617320746865207065726d697373696f81526020017f6e2e00000000000000000000000000000000000000000000000000000000000081525060600191505060405180910390fd5b600073ffffffffffffffffffffffffffffffffffffffff16600760009054906101000a900473ffffffffffffffffffffffffffffffffffffffff1673ffffffffffffffffffffffffffffffffffffffff167f8be0079c531659141344cd1fd0a4f28419497f9722a3daafe3b4186f6b6457e060405160405180910390a36000600760006101000a81548173ffffffffffffffffffffffffffffffffffffffff021916908373ffffffffffffffffffffffffffffffffffffffff160217905550565b80600660003373ffffffffffffffffffffffffffffffffffffffff1673ffffffffffffffffffffffffffffffffffffffff168152602001908152602001600020838154811015156129c357fe5b906000526020600020906006020160050190805190602001906129e7929190613f2d565b505050565b6000600760009054906101000a900473ffffffffffffffffffffffffffffffffffffffff16905090565b6000600760009054906101000a900473ffffffffffffffffffffffffffffffffffffffff1673ffffffffffffffffffffffffffffffffffffffff163373ffffffffffffffffffffffffffffffffffffffff1614905090565b60608060606000612a7d613fad565b600486815481101515612a8c57fe5b906000526020600020906005020160a0604051908101604052908160008201548152602001600182018054600181600116156101000203166002900480601f016020809104026020016040519081016040528092919081815260200182805460018160011615610100020316600290048015612b495780601f10612b1e57610100808354040283529160200191612b49565b820191906000526020600020905b815481529060010190602001808311612b2c57829003601f168201915b50505050508152602001600282018054600181600116156101000203166002900480601f016020809104026020016040519081016040528092919081815260200182805460018160011615610100020316600290048015612beb5780601f10612bc057610100808354040283529160200191612beb565b820191906000526020600020905b815481529060010190602001808311612bce57829003601f168201915b50505050508152602001600382018054600181600116156101000203166002900480601f016020809104026020016040519081016040528092919081815260200182805460018160011615610100020316600290048015612c8d5780601f10612c6257610100808354040283529160200191612c8d565b820191906000526020600020905b815481529060010190602001808311612c7057829003601f168201915b50505050508152602001600482015481525050905080602001518160400151826060015183608001518393508292508191509450945094509450509193509193565b60008080549050905090565b612ce3613efd565b336000600160008373ffffffffffffffffffffffffffffffffffffffff1673ffffffffffffffffffffffffffffffffffffffff168152602001908152602001600020600001805460018160011615610100020316600290049050111515612db2576040517f08c379a00000000000000000000000000000000000000000000000000000000081526004018080602001828103825260198152602001807f74686973206e616d65206973206e6f7420657869737465642e0000000000000081525060200191505060405180910390fd5b600160003373ffffffffffffffffffffffffffffffffffffffff1673ffffffffffffffffffffffffffffffffffffffff16815260200190815260200160002060a06040519081016040529081600082018054600181600116156101000203166002900480601f016020809104026020016040519081016040528092919081815260200182805460018160011615610100020316600290048015612e965780601f10612e6b57610100808354040283529160200191612e96565b820191906000526020600020905b815481529060010190602001808311612e7957829003601f168201915b50505050508152602001600182018054600181600116156101000203166002900480601f016020809104026020016040519081016040528092919081815260200182805460018160011615610100020316600290048015612f385780601f10612f0d57610100808354040283529160200191612f38565b820191906000526020600020905b815481529060010190602001808311612f1b57829003601f168201915b50505050508152602001600282018054600181600116156101000203166002900480601f016020809104026020016040519081016040528092919081815260200182805460018160011615610100020316600290048015612fda5780601f10612faf57610100808354040283529160200191612fda565b820191906000526020600020905b815481529060010190602001808311612fbd57829003601f168201915b50505050508152602001600382018054600181600116156101000203166002900480601f01602080910402602001604051908101604052809291908181526020018280546001816001161561010002031660029004801561307c5780601f106130515761010080835404028352916020019161307c565b820191906000526020600020905b81548152906001019060200180831161305f57829003601f168201915b50505050508152602001600482018054600181600116156101000203166002900480601f01602080910402602001604051908101604052809291908181526020018280546001816001161561010002031660029004801561311e5780601f106130f35761010080835404028352916020019161311e565b820191906000526020600020905b81548152906001019060200180831161310157829003601f168201915b505050505081525050915061313c8260000151848460200151611664565b50505050565b606060048281548110151561315357fe5b90600052602060002090600502016001018054600181600116156101000203166002900480601f0160208091040260200160405190810160405280929190818152602001828054600181600116156101000203166002900480156131f85780601f106131cd576101008083540402835291602001916131f8565b820191906000526020600020905b8154815290600101906020018083116131db57829003601f168201915b50505050509050919050565b600081600281511115156132a6576040517f08c379a00000000000000000000000000000000000000000000000000000000081526004018080602001828103825260288152602001807f746865206c656e677468206f662061206e616d65206d7573742067726561746581526020017f72207468616e203200000000000000000000000000000000000000000000000081525060400191505060405180910390fd5b82600073ffffffffffffffffffffffffffffffffffffffff166002826040518082805190602001908083835b6020831015156132f757805182526020820191506020810190506020830392506132d2565b6001836020036101000a038019825116818451168082178552505050505050905001915050908152602001604051809103902060009054906101000a900473ffffffffffffffffffffffffffffffffffffffff1673ffffffffffffffffffffffffffffffffffffffff161415156133d6576040517f08c379a00000000000000000000000000000000000000000000000000000000081526004018080602001828103825260188152602001807f74686973206e616d6520686173206265656e20757365642e000000000000000081525060200191505060405180910390fd5b336000600160008373ffffffffffffffffffffffffffffffffffffffff1673ffffffffffffffffffffffffffffffffffffffff1681526020019081526020016000206000018054600181600116156101000203166002900490501415156134a5576040517f08c379a000000000000000000000000000000000000000000000000000000000815260040180806020018281038252601b8152602001807f796f7520686176652072656769737465726564206265666f72652e000000000081525060200191505060405180910390fd5b600060a0604051908101604052808781526020016020604051908101604052806000815250815260200160206040519081016040528060008152508152602001602060405190810160405280600081525081526020016020604051908101604052806000815250815250908060018154018082558091505090600182039060005260206000209060050201600090919290919091506000820151816000019080519060200190613556929190613e35565b506020820151816001019080519060200190613573929190613e35565b506040820151816002019080519060200190613590929190613e35565b5060608201518160030190805190602001906135ad929190613e35565b5060808201518160040190805190602001906135ca929190613e35565b5050505060019350505050919050565b6135e2612a16565b15156136a2576040517f08c379a00000000000000000000000000000000000000000000000000000000081526004018080602001828103825260428152602001807f7065726d697373696f6e2064656e6965642c206f6e6c79206f776e6572206f6681526020017f207468697320636f6e74726163742068617320746865207065726d697373696f81526020017f6e2e00000000000000000000000000000000000000000000000000000000000081525060600191505060405180910390fd5b6136ab81613c2a565b50565b60608060608060606136be613efd565b6000878154811015156136cd57fe5b906000526020600020906005020160a06040519081016040529081600082018054600181600116156101000203166002900480601f0160208091040260200160405190810160405280929190818152602001828054600181600116156101000203166002900480156137805780601f1061375557610100808354040283529160200191613780565b820191906000526020600020905b81548152906001019060200180831161376357829003601f168201915b50505050508152602001600182018054600181600116156101000203166002900480601f0160208091040260200160405190810160405280929190818152602001828054600181600116156101000203166002900480156138225780601f106137f757610100808354040283529160200191613822565b820191906000526020600020905b81548152906001019060200180831161380557829003601f168201915b50505050508152602001600282018054600181600116156101000203166002900480601f0160208091040260200160405190810160405280929190818152602001828054600181600116156101000203166002900480156138c45780601f10613899576101008083540402835291602001916138c4565b820191906000526020600020905b8154815290600101906020018083116138a757829003601f168201915b50505050508152602001600382018054600181600116156101000203166002900480601f0160208091040260200160405190810160405280929190818152602001828054600181600116156101000203166002900480156139665780601f1061393b57610100808354040283529160200191613966565b820191906000526020600020905b81548152906001019060200180831161394957829003601f168201915b50505050508152602001600482018054600181600116156101000203166002900480601f016020809104026020016040519081016040528092919081815260200182805460018160011615610100020316600290048015613a085780601f106139dd57610100808354040283529160200191613a08565b820191906000526020600020905b8154815290600101906020018083116139eb57829003601f168201915b505050505081525050905080600001518160200151826040015183606001518460800151849450839350829250819150809050955095509550955095505091939590929450565b60006001600660003373ffffffffffffffffffffffffffffffffffffffff1673ffffffffffffffffffffffffffffffffffffffff16815260200190815260200160002060c060405190810160405280600081526020018881526020018781526020018681526020018581526020016040805190810160405280600481526020017f6e756c6c0000000000000000000000000000000000000000000000000000000081525081525090806001815401808255809150509060018203906000526020600020906006020160009091929091909150600082015181600001556020820151816001019080519060200190613b47929190613e35565b506040820151816002019080519060200190613b64929190613e35565b506060820151816003019080519060200190613b81929190613e35565b506080820151816004019080519060200190613b9e929190613e35565b5060a0820151816005019080519060200190613bbb929190613fdd565b50505003905080600660003373ffffffffffffffffffffffffffffffffffffffff1673ffffffffffffffffffffffffffffffffffffffff16815260200190815260200160002082815481101515613c0e57fe5b9060005260206000209060060201600001819055505050505050565b600073ffffffffffffffffffffffffffffffffffffffff168173ffffffffffffffffffffffffffffffffffffffff1614151515613cf5576040517f08c379a00000000000000000000000000000000000000000000000000000000081526004018080602001828103825260288152602001807f746865206e65774f776e6572277320616464726573732073686f756c64206e6f81526020017f742062652030783000000000000000000000000000000000000000000000000081525060400191505060405180910390fd5b8073ffffffffffffffffffffffffffffffffffffffff16600760009054906101000a900473ffffffffffffffffffffffffffffffffffffffff1673ffffffffffffffffffffffffffffffffffffffff167f8be0079c531659141344cd1fd0a4f28419497f9722a3daafe3b4186f6b6457e060405160405180910390a380600760006101000a81548173ffffffffffffffffffffffffffffffffffffffff021916908373ffffffffffffffffffffffffffffffffffffffff16021790555050565b828054600181600116156101000203166002900490600052602060002090601f016020900481019282601f10613df657805160ff1916838001178555613e24565b82800160010185558215613e24579182015b82811115613e23578251825591602001919060010190613e08565b5b509050613e31919061405d565b5090565b828054600181600116156101000203166002900490600052602060002090601f016020900481019282601f10613e7657805160ff1916838001178555613ea4565b82800160010185558215613ea4579182015b82811115613ea3578251825591602001919060010190613e88565b5b509050613eb1919061405d565b5090565b50805460018160011615610100020316600290046000825580601f10613edb5750613efa565b601f016020900490600052602060002090810190613ef9919061405d565b5b50565b60a06040519081016040528060608152602001606081526020016060815260200160608152602001606081525090565b828054600181600116156101000203166002900490600052602060002090601f016020900481019282601f10613f6e57805160ff1916838001178555613f9c565b82800160010185558215613f9c579182015b82811115613f9b578251825591602001919060010190613f80565b5b509050613fa9919061405d565b5090565b60a06040519081016040528060008152602001606081526020016060815260200160608152602001600081525090565b828054600181600116156101000203166002900490600052602060002090601f016020900481019282601f1061401e57805160ff191683800117855561404c565b8280016001018555821561404c579182015b8281111561404b578251825591602001919060010190614030565b5b509050614059919061405d565b5090565b61407f91905b8082111561407b576000816000905550600101614063565b5090565b905600a165627a7a723058208a485c61bb12ef49ba0f288605a374ae280025b187960bfcdd921fe00a4ad6e50029",
  "source": "pragma solidity ^0.4.24;\r\n\r\nimport \"./UserManager.sol\";\r\nimport \"./CommentManager.sol\";\r\nimport \"./MailManager.sol\";\r\nimport \"./CharityManager.sol\";\r\n\r\ncontract SuperCommunity is UserManager, CommentManager, MailManager, CharityManager {\r\n    \r\n    function sendComment(string _comment) public registered(msg.sender) {\r\n\r\n        // the sender should have registered\r\n        User memory user = addrToUser[msg.sender];\r\n        addComment(user.name, _comment, user.head_img);\r\n    }\r\n\r\n    function rewardComment(uint _id) public existName(getNameByCommentId(_id)) {\r\n\r\n        // the name should exist\r\n        string memory name = getNameByCommentId(_id);\r\n        address to = nameToAddr[name];\r\n        rewardByAddr(to, _id);\r\n    }\r\n\r\n    function sendMail(string _to, string _title, string _text) public\r\n        registered(msg.sender)\r\n        existName(_to) {\r\n\r\n        // the sender should have registered and so do the receiver\r\n        User memory user = addrToUser[msg.sender];\r\n        addMail(user.name, _to, _title, _text);\r\n    }\r\n}",
  "sourcePath": "/home/tao/blockchain/privateChain/Solidity-SuperCommunity/contracts/SuperCommunity.sol",
  "compiler": {
    "name": "solc",
    "version": "0.4.24+commit.e67f0147.Emscripten.clang"
  },
  "schemaVersion": "2.0.1",
  "updatedAt": "2018-11-21T16:36:53.536Z"
}