{
  "contractName": "SuperCommunity",
  "abi": [
    {
      "constant": false,
      "inputs": [
        {
          "name": "_name",
          "type": "string"
        }
      ],
      "name": "watch",
      "outputs": [],
      "payable": false,
      "stateMutability": "nonpayable",
      "type": "function"
    },
    {
      "constant": true,
      "inputs": [],
      "name": "getMailCount",
      "outputs": [
        {
          "name": "",
          "type": "uint256"
        }
      ],
      "payable": false,
      "stateMutability": "view",
      "type": "function"
    },
    {
      "constant": true,
      "inputs": [
        {
          "name": "_index",
          "type": "uint256"
        }
      ],
      "name": "getWatchesByIndex",
      "outputs": [
        {
          "name": "",
          "type": "address"
        }
      ],
      "payable": false,
      "stateMutability": "view",
      "type": "function"
    },
    {
      "constant": true,
      "inputs": [],
      "name": "getCommentCount",
      "outputs": [
        {
          "name": "",
          "type": "uint256"
        }
      ],
      "payable": false,
      "stateMutability": "view",
      "type": "function"
    },
    {
      "constant": false,
      "inputs": [
        {
          "name": "_to",
          "type": "address"
        },
        {
          "name": "_amout",
          "type": "uint256"
        }
      ],
      "name": "donateFromCharity",
      "outputs": [],
      "payable": false,
      "stateMutability": "nonpayable",
      "type": "function"
    },
    {
      "constant": true,
      "inputs": [
        {
          "name": "_index",
          "type": "uint256"
        }
      ],
      "name": "getCommentBalanceByIndex",
      "outputs": [
        {
          "name": "",
          "type": "uint256"
        }
      ],
      "payable": false,
      "stateMutability": "view",
      "type": "function"
    },
    {
      "constant": false,
      "inputs": [
        {
          "name": "_to",
          "type": "address"
        },
        {
          "name": "_id",
          "type": "uint256"
        }
      ],
      "name": "rewardByAddr",
      "outputs": [
        {
          "name": "",
          "type": "address"
        }
      ],
      "payable": true,
      "stateMutability": "payable",
      "type": "function"
    },
    {
      "constant": true,
      "inputs": [],
      "name": "getCharityBalance",
      "outputs": [
        {
          "name": "",
          "type": "uint256"
        }
      ],
      "payable": false,
      "stateMutability": "view",
      "type": "function"
    },
    {
      "constant": false,
      "inputs": [
        {
          "name": "_name",
          "type": "string"
        }
      ],
      "name": "unwatch",
      "outputs": [],
      "payable": false,
      "stateMutability": "nonpayable",
      "type": "function"
    },
    {
      "constant": true,
      "inputs": [],
      "name": "getRand",
      "outputs": [
        {
          "name": "",
          "type": "uint32"
        }
      ],
      "payable": false,
      "stateMutability": "view",
      "type": "function"
    },
    {
      "constant": true,
      "inputs": [
        {
          "name": "",
          "type": "address"
        },
        {
          "name": "",
          "type": "uint256"
        }
      ],
      "name": "addrToMailBox",
      "outputs": [
        {
          "name": "id",
          "type": "uint256"
        },
        {
          "name": "from",
          "type": "string"
        },
        {
          "name": "to",
          "type": "string"
        },
        {
          "name": "title",
          "type": "string"
        },
        {
          "name": "text",
          "type": "string"
        },
        {
          "name": "attachment",
          "type": "string"
        }
      ],
      "payable": false,
      "stateMutability": "view",
      "type": "function"
    },
    {
      "constant": false,
      "inputs": [],
      "name": "endGame",
      "outputs": [],
      "payable": false,
      "stateMutability": "nonpayable",
      "type": "function"
    },
    {
      "constant": false,
      "inputs": [],
      "name": "donateToCharity",
      "outputs": [],
      "payable": true,
      "stateMutability": "payable",
      "type": "function"
    },
    {
      "constant": false,
      "inputs": [],
      "name": "renounceOwnership",
      "outputs": [],
      "payable": false,
      "stateMutability": "nonpayable",
      "type": "function"
    },
    {
      "constant": true,
      "inputs": [
        {
          "name": "_addr",
          "type": "address"
        }
      ],
      "name": "getNameByAddr",
      "outputs": [
        {
          "name": "",
          "type": "string"
        }
      ],
      "payable": false,
      "stateMutability": "view",
      "type": "function"
    },
    {
      "constant": false,
      "inputs": [
        {
          "name": "_id",
          "type": "uint256"
        },
        {
          "name": "_attachment",
          "type": "string"
        }
      ],
      "name": "setAttachment",
      "outputs": [],
      "payable": false,
      "stateMutability": "nonpayable",
      "type": "function"
    },
    {
      "constant": true,
      "inputs": [],
      "name": "owner",
      "outputs": [
        {
          "name": "",
          "type": "address"
        }
      ],
      "payable": false,
      "stateMutability": "view",
      "type": "function"
    },
    {
      "constant": true,
      "inputs": [
        {
          "name": "_name",
          "type": "string"
        }
      ],
      "name": "getAddrByName",
      "outputs": [
        {
          "name": "",
          "type": "address"
        }
      ],
      "payable": false,
      "stateMutability": "view",
      "type": "function"
    },
    {
      "constant": true,
      "inputs": [],
      "name": "isOwner",
      "outputs": [
        {
          "name": "",
          "type": "bool"
        }
      ],
      "payable": false,
      "stateMutability": "view",
      "type": "function"
    },
    {
      "constant": false,
      "inputs": [
        {
          "name": "_rand",
          "type": "uint256"
        }
      ],
      "name": "guess",
      "outputs": [],
      "payable": true,
      "stateMutability": "payable",
      "type": "function"
    },
    {
      "constant": true,
      "inputs": [],
      "name": "secondsRemaining",
      "outputs": [
        {
          "name": "",
          "type": "uint256"
        }
      ],
      "payable": false,
      "stateMutability": "view",
      "type": "function"
    },
    {
      "constant": true,
      "inputs": [
        {
          "name": "_index",
          "type": "uint256"
        }
      ],
      "name": "getCommentByIndex",
      "outputs": [
        {
          "name": "",
          "type": "string"
        },
        {
          "name": "",
          "type": "string"
        },
        {
          "name": "",
          "type": "string"
        },
        {
          "name": "",
          "type": "uint256"
        }
      ],
      "payable": false,
      "stateMutability": "view",
      "type": "function"
    },
    {
      "constant": true,
      "inputs": [],
      "name": "getUserCount",
      "outputs": [
        {
          "name": "",
          "type": "uint256"
        }
      ],
      "payable": false,
      "stateMutability": "view",
      "type": "function"
    },
    {
      "constant": true,
      "inputs": [],
      "name": "getGameBalance",
      "outputs": [
        {
          "name": "",
          "type": "uint256"
        }
      ],
      "payable": false,
      "stateMutability": "view",
      "type": "function"
    },
    {
      "constant": true,
      "inputs": [],
      "name": "getWatchesCount",
      "outputs": [
        {
          "name": "",
          "type": "uint256"
        }
      ],
      "payable": false,
      "stateMutability": "view",
      "type": "function"
    },
    {
      "constant": true,
      "inputs": [
        {
          "name": "_id",
          "type": "uint256"
        }
      ],
      "name": "getNameByCommentId",
      "outputs": [
        {
          "name": "",
          "type": "string"
        }
      ],
      "payable": false,
      "stateMutability": "view",
      "type": "function"
    },
    {
      "constant": false,
      "inputs": [
        {
          "name": "_name",
          "type": "string"
        }
      ],
      "name": "register",
      "outputs": [
        {
          "name": "",
          "type": "bool"
        }
      ],
      "payable": false,
      "stateMutability": "nonpayable",
      "type": "function"
    },
    {
      "constant": false,
      "inputs": [
        {
          "name": "newOwner",
          "type": "address"
        }
      ],
      "name": "transferOwnership",
      "outputs": [],
      "payable": false,
      "stateMutability": "nonpayable",
      "type": "function"
    },
    {
      "constant": true,
      "inputs": [
        {
          "name": "_index",
          "type": "uint256"
        }
      ],
      "name": "getMailByIndex",
      "outputs": [
        {
          "name": "",
          "type": "string"
        },
        {
          "name": "",
          "type": "string"
        },
        {
          "name": "",
          "type": "string"
        },
        {
          "name": "",
          "type": "string"
        },
        {
          "name": "",
          "type": "string"
        }
      ],
      "payable": false,
      "stateMutability": "view",
      "type": "function"
    },
    {
      "constant": true,
      "inputs": [
        {
          "name": "_index",
          "type": "uint256"
        }
      ],
      "name": "getUserByIndex",
      "outputs": [
        {
          "name": "",
          "type": "string"
        },
        {
          "name": "",
          "type": "string"
        },
        {
          "name": "",
          "type": "string"
        },
        {
          "name": "",
          "type": "string"
        },
        {
          "name": "",
          "type": "string"
        }
      ],
      "payable": false,
      "stateMutability": "view",
      "type": "function"
    },
    {
      "anonymous": false,
      "inputs": [
        {
          "indexed": true,
          "name": "previousOwner",
          "type": "address"
        },
        {
          "indexed": true,
          "name": "newOwner",
          "type": "address"
        }
      ],
      "name": "OwnershipTransferred",
      "type": "event"
    },
    {
      "constant": false,
      "inputs": [
        {
          "name": "_comment",
          "type": "string"
        }
      ],
      "name": "sendComment",
      "outputs": [],
      "payable": false,
      "stateMutability": "nonpayable",
      "type": "function"
    },
    {
      "constant": false,
      "inputs": [
        {
          "name": "_id",
          "type": "uint256"
        }
      ],
      "name": "rewardComment",
      "outputs": [
        {
          "name": "",
          "type": "address"
        }
      ],
      "payable": true,
      "stateMutability": "payable",
      "type": "function"
    },
    {
      "constant": false,
      "inputs": [
        {
          "name": "_to",
          "type": "string"
        },
        {
          "name": "_title",
          "type": "string"
        },
        {
          "name": "_text",
          "type": "string"
        }
      ],
      "name": "sendMail",
      "outputs": [],
      "payable": false,
      "stateMutability": "nonpayable",
      "type": "function"
    },
    {
      "constant": true,
      "inputs": [],
      "name": "getWinnerName",
      "outputs": [
        {
          "name": "",
          "type": "string"
        },
        {
          "name": "",
          "type": "string"
        },
        {
          "name": "",
          "type": "string"
        }
      ],
      "payable": false,
      "stateMutability": "view",
      "type": "function"
    }
  ],
  "bytecode": "0x6080604052670de0b6b3a764000060085533600760006101000a81548173ffffffffffffffffffffffffffffffffffffffff021916908373ffffffffffffffffffffffffffffffffffffffff160217905550600760009054906101000a900473ffffffffffffffffffffffffffffffffffffffff1673ffffffffffffffffffffffffffffffffffffffff16600073ffffffffffffffffffffffffffffffffffffffff167f8be0079c531659141344cd1fd0a4f28419497f9722a3daafe3b4186f6b6457e060405160405180910390a360144201600a81905550620000f1620000f7640100000000026401000000009004565b6200029e565b6014600a5401600a819055506200011c620001e3640100000000026401000000009004565b600960006101000a81548163ffffffff021916908363ffffffff1602179055507fffffffffffffffffffffffffffffffffffffffffffffffffffffffffffffffff600e60006003811015156200016e57fe5b01819055507fffffffffffffffffffffffffffffffffffffffffffffffffffffffffffffffff600e6001600381101515620001a557fe5b01819055507fffffffffffffffffffffffffffffffffffffffffffffffffffffffffffffffff600e6002600381101515620001dc57fe5b0181905550565b6000806000806010925082600a0a915042604051602001808281526020019150506040516020818303038152906040526040518082805190602001908083835b6020831015156200024a578051825260208201915060208101905060208303925062000223565b6001836020036101000a03801982511681845116808217855250505050505090500191505060405180910390206001900490508163ffffffff168163ffffffff168115156200029557fe5b06935050505090565b615a8180620002ae6000396000f3006080604052600436106101ac576000357c0100000000000000000000000000000000000000000000000000000000900463ffffffff16806307574d7f146101b1578063106205421461021a578063166e99851461024557806316e31ea3146102b25780632aa085b0146102dd5780632bfda5151461032a578063381d0db3146104925780633c128e13146104d357806344b7eda114610553578063517377571461057e5780635fc2b3b0146105e7578063600bc4ea146106dc57806362d2fd12146107135780636cbc2ded146109905780636df063ff146109a75780636e87be2014610a07578063715018a614610a115780637e6aead214610a28578063810a006a14610ae45780638da5cb5b14610b575780638dc3f87314610bae5780638f32d59b14610c575780639189fec114610c86578063940ebef714610ca6578063ac2c883714610cd1578063b5cb15f714610e56578063b741aa5114610e81578063c574d15614610eea578063c9bf65b414610f15578063cd70aced14610f40578063f2c298be14610fe6578063f2fde38b14611067578063f5394ca5146110aa578063ff5d32fe14611300575b600080fd5b3480156101bd57600080fd5b50610218600480360381019080803590602001908201803590602001908080601f0160208091040260200160405190810160405280939291908181526020018383808284378201915050505050509192919290505050611556565b005b34801561022657600080fd5b5061022f61188f565b6040518082815260200191505060405180910390f35b34801561025157600080fd5b50610270600480360381019080803590602001909291905050506118d9565b604051808273ffffffffffffffffffffffffffffffffffffffff1673ffffffffffffffffffffffffffffffffffffffff16815260200191505060405180910390f35b3480156102be57600080fd5b506102c76119d7565b6040518082815260200191505060405180910390f35b3480156102e957600080fd5b50610328600480360381019080803573ffffffffffffffffffffffffffffffffffffffff169060200190929190803590602001909291905050506119e4565b005b34801561033657600080fd5b5061033f611b94565b60405180806020018060200180602001848103845287818151815260200191508051906020019080838360005b8381101561038757808201518184015260208101905061036c565b50505050905090810190601f1680156103b45780820380516001836020036101000a031916815260200191505b50848103835286818151815260200191508051906020019080838360005b838110156103ed5780820151818401526020810190506103d2565b50505050905090810190601f16801561041a5780820380516001836020036101000a031916815260200191505b50848103825285818151815260200191508051906020019080838360005b83811015610453578082015181840152602081019050610438565b50505050905090810190601f1680156104805780820380516001836020036101000a031916815260200191505b50965050505050505060405180910390f35b34801561049e57600080fd5b506104bd60048036038101908080359060200190929190505050611bdb565b6040518082815260200191505060405180910390f35b610511600480360381019080803573ffffffffffffffffffffffffffffffffffffffff16906020019092919080359060200190929190505050611bf8565b604051808273ffffffffffffffffffffffffffffffffffffffff1673ffffffffffffffffffffffffffffffffffffffff16815260200191505060405180910390f35b34801561055f57600080fd5b50610568611d12565b6040518082815260200191505060405180910390f35b34801561058a57600080fd5b506105e5600480360381019080803590602001908201803590602001908080601f0160208091040260200160405190810160405280939291908181526020018383808284378201915050505050509192919290505050611d31565b005b3480156105f357600080fd5b506106da600480360381019080803590602001908201803590602001908080601f0160208091040260200160405190810160405280939291908181526020018383808284378201915050505050509192919290803590602001908201803590602001908080601f0160208091040260200160405190810160405280939291908181526020018383808284378201915050505050509192919290803590602001908201803590602001908080601f0160208091040260200160405190810160405280939291908181526020018383808284378201915050505050509192919290505050612193565b005b3480156106e857600080fd5b506106f161272a565b604051808263ffffffff1663ffffffff16815260200191505060405180910390f35b34801561071f57600080fd5b5061075e600480360381019080803573ffffffffffffffffffffffffffffffffffffffff16906020019092919080359060200190929190505050612744565b60405180878152602001806020018060200180602001806020018060200186810386528b818151815260200191508051906020019080838360005b838110156107b4578082015181840152602081019050610799565b50505050905090810190601f1680156107e15780820380516001836020036101000a031916815260200191505b5086810385528a818151815260200191508051906020019080838360005b8381101561081a5780820151818401526020810190506107ff565b50505050905090810190601f1680156108475780820380516001836020036101000a031916815260200191505b50868103845289818151815260200191508051906020019080838360005b83811015610880578082015181840152602081019050610865565b50505050905090810190601f1680156108ad5780820380516001836020036101000a031916815260200191505b50868103835288818151815260200191508051906020019080838360005b838110156108e65780820151818401526020810190506108cb565b50505050905090810190601f1680156109135780820380516001836020036101000a031916815260200191505b50868103825287818151815260200191508051906020019080838360005b8381101561094c578082015181840152602081019050610931565b50505050905090810190601f1680156109795780820380516001836020036101000a031916815260200191505b509b50505050505050505050505060405180910390f35b34801561099c57600080fd5b506109a5612a94565b005b6109c560048036038101908080359060200190929190505050612b20565b604051808273ffffffffffffffffffffffffffffffffffffffff1673ffffffffffffffffffffffffffffffffffffffff16815260200191505060405180910390f35b610a0f612d11565b005b348015610a1d57600080fd5b50610a26612df2565b005b348015610a3457600080fd5b50610a69600480360381019080803573ffffffffffffffffffffffffffffffffffffffff169060200190929190505050612f7b565b6040518080602001828103825283818151815260200191508051906020019080838360005b83811015610aa9578082015181840152602081019050610a8e565b50505050905090810190601f168015610ad65780820380516001836020036101000a031916815260200191505b509250505060405180910390f35b348015610af057600080fd5b50610b5560048036038101908080359060200190929190803590602001908201803590602001908080601f0160208091040260200160405190810160405280939291908181526020018383808284378201915050505050509192919290505050613309565b005b348015610b6357600080fd5b50610b6c61337f565b604051808273ffffffffffffffffffffffffffffffffffffffff1673ffffffffffffffffffffffffffffffffffffffff16815260200191505060405180910390f35b348015610bba57600080fd5b50610c15600480360381019080803590602001908201803590602001908080601f01602080910402602001604051908101604052809392919081815260200183838082843782019150505050505091929192905050506133a9565b604051808273ffffffffffffffffffffffffffffffffffffffff1673ffffffffffffffffffffffffffffffffffffffff16815260200191505060405180910390f35b348015610c6357600080fd5b50610c6c61343e565b604051808215151515815260200191505060405180910390f35b610ca460048036038101908080359060200190929190505050613496565b005b348015610cb257600080fd5b50610cbb613948565b6040518082815260200191505060405180910390f35b348015610cdd57600080fd5b50610cfc60048036038101908080359060200190929190505050613969565b60405180806020018060200180602001858152602001848103845288818151815260200191508051906020019080838360005b83811015610d4a578082015181840152602081019050610d2f565b50505050905090810190601f168015610d775780820380516001836020036101000a031916815260200191505b50848103835287818151815260200191508051906020019080838360005b83811015610db0578082015181840152602081019050610d95565b50505050905090810190601f168015610ddd5780820380516001836020036101000a031916815260200191505b50848103825286818151815260200191508051906020019080838360005b83811015610e16578082015181840152602081019050610dfb565b50505050905090810190601f168015610e435780820380516001836020036101000a031916815260200191505b5097505050505050505060405180910390f35b348015610e6257600080fd5b50610e6b613bca565b6040518082815260200191505060405180910390f35b348015610e8d57600080fd5b50610ee8600480360381019080803590602001908201803590602001908080601f0160208091040260200160405190810160405280939291908181526020018383808284378201915050505050509192919290505050613bd6565b005b348015610ef657600080fd5b50610eff61403d565b6040518082815260200191505060405180910390f35b348015610f2157600080fd5b50610f2a61405c565b6040518082815260200191505060405180910390f35b348015610f4c57600080fd5b50610f6b600480360381019080803590602001909291905050506140a6565b6040518080602001828103825283818151815260200191508051906020019080838360005b83811015610fab578082015181840152602081019050610f90565b50505050905090810190601f168015610fd85780820380516001836020036101000a031916815260200191505b509250505060405180910390f35b348015610ff257600080fd5b5061104d600480360381019080803590602001908201803590602001908080601f0160208091040260200160405190810160405280939291908181526020018383808284378201915050505050509192919290505050614168565b604051808215151515815260200191505060405180910390f35b34801561107357600080fd5b506110a8600480360381019080803573ffffffffffffffffffffffffffffffffffffffff169060200190929190505050614723565b005b3480156110b657600080fd5b506110d5600480360381019080803590602001909291905050506147f7565b60405180806020018060200180602001806020018060200186810386528b818151815260200191508051906020019080838360005b8381101561112557808201518184015260208101905061110a565b50505050905090810190601f1680156111525780820380516001836020036101000a031916815260200191505b5086810385528a818151815260200191508051906020019080838360005b8381101561118b578082015181840152602081019050611170565b50505050905090810190601f1680156111b85780820380516001836020036101000a031916815260200191505b50868103845289818151815260200191508051906020019080838360005b838110156111f15780820151818401526020810190506111d6565b50505050905090810190601f16801561121e5780820380516001836020036101000a031916815260200191505b50868103835288818151815260200191508051906020019080838360005b8381101561125757808201518184015260208101905061123c565b50505050905090810190601f1680156112845780820380516001836020036101000a031916815260200191505b50868103825287818151815260200191508051906020019080838360005b838110156112bd5780820151818401526020810190506112a2565b50505050905090810190601f1680156112ea5780820380516001836020036101000a031916815260200191505b509a505050505050505050505060405180910390f35b34801561130c57600080fd5b5061132b60048036038101908080359060200190929190505050614bdf565b60405180806020018060200180602001806020018060200186810386528b818151815260200191508051906020019080838360005b8381101561137b578082015181840152602081019050611360565b50505050905090810190601f1680156113a85780820380516001836020036101000a031916815260200191505b5086810385528a818151815260200191508051906020019080838360005b838110156113e15780820151818401526020810190506113c6565b50505050905090810190601f16801561140e5780820380516001836020036101000a031916815260200191505b50868103845289818151815260200191508051906020019080838360005b8381101561144757808201518184015260208101905061142c565b50505050905090810190601f1680156114745780820380516001836020036101000a031916815260200191505b50868103835288818151815260200191508051906020019080838360005b838110156114ad578082015181840152602081019050611492565b50505050905090810190601f1680156114da5780820380516001836020036101000a031916815260200191505b50868103825287818151815260200191508051906020019080838360005b838110156115135780820151818401526020810190506114f8565b50505050905090810190601f1680156115405780820380516001836020036101000a031916815260200191505b509a505050505050505050505060405180910390f35b6000336000600160008373ffffffffffffffffffffffffffffffffffffffff1673ffffffffffffffffffffffffffffffffffffffff168152602001908152602001600020600001805460018160011615610100020316600290049050111515611627576040517f08c379a00000000000000000000000000000000000000000000000000000000081526004018080602001828103825260198152602001807f74686973206e616d65206973206e6f7420657869737465642e0000000000000081525060200191505060405180910390fd5b82600073ffffffffffffffffffffffffffffffffffffffff166002826040518082805190602001908083835b6020831015156116785780518252602082019150602081019050602083039250611653565b6001836020036101000a038019825116818451168082178552505050505050905001915050908152602001604051809103902060009054906101000a900473ffffffffffffffffffffffffffffffffffffffff1673ffffffffffffffffffffffffffffffffffffffff1614151515611758576040517f08c379a00000000000000000000000000000000000000000000000000000000081526004018080602001828103825260198152602001807f74686973206e616d65206973206e6f7420657869737465642e0000000000000081525060200191505060405180910390fd5b6002846040518082805190602001908083835b602083101515611790578051825260208201915060208101905060208303925061176b565b6001836020036101000a038019825116818451168082178552505050505050905001915050908152602001604051809103902060009054906101000a900473ffffffffffffffffffffffffffffffffffffffff169250600360003373ffffffffffffffffffffffffffffffffffffffff1673ffffffffffffffffffffffffffffffffffffffff1681526020019081526020016000208390806001815401808255809150509060018203906000526020600020016000909192909190916101000a81548173ffffffffffffffffffffffffffffffffffffffff021916908373ffffffffffffffffffffffffffffffffffffffff1602179055505050505050565b6000600660003373ffffffffffffffffffffffffffffffffffffffff1673ffffffffffffffffffffffffffffffffffffffff16815260200190815260200160002080549050905090565b60006118e361405c565b82101515611959576040517f08c379a00000000000000000000000000000000000000000000000000000000081526004018080602001828103825260128152602001807f696e646578206f7574206f6620626f756e64000000000000000000000000000081525060200191505060405180910390fd5b600360003373ffffffffffffffffffffffffffffffffffffffff1673ffffffffffffffffffffffffffffffffffffffff168152602001908152602001600020828154811015156119a557fe5b9060005260206000200160009054906101000a900473ffffffffffffffffffffffffffffffffffffffff169050919050565b6000600480549050905090565b6119ec61343e565b1515611aac576040517f08c379a00000000000000000000000000000000000000000000000000000000081526004018080602001828103825260428152602001807f7065726d697373696f6e2064656e6965642c206f6e6c79206f776e6572206f6681526020017f207468697320636f6e74726163742068617320746865207065726d697373696f81526020017f6e2e00000000000000000000000000000000000000000000000000000000000081525060600191505060405180910390fd5b670de0b6b3a764000081023073ffffffffffffffffffffffffffffffffffffffff163110151515611b45576040517f08c379a000000000000000000000000000000000000000000000000000000000815260040180806020018281038252601b8152602001807f636f6e74726163742062616c616e6365206e6f7420656e6f756768000000000081525060200191505060405180910390fd5b8173ffffffffffffffffffffffffffffffffffffffff166108fc60085483029081150290604051600060405180830381858888f19350505050158015611b8f573d6000803e3d6000fd5b505050565b60608060606000806000611ba6614ffe565b809350819450829550505050611bbb83612f7b565b611bc483612f7b565b611bcd83612f7b565b955095509550505050909192565b600060056000838152602001908152602001600020549050919050565b600082600073ffffffffffffffffffffffffffffffffffffffff168173ffffffffffffffffffffffffffffffffffffffff1614151515611ca0576040517f08c379a00000000000000000000000000000000000000000000000000000000081526004018080602001828103825260108152602001807f696e76616c696420616464726573732e0000000000000000000000000000000081525060200191505060405180910390fd5b8373ffffffffffffffffffffffffffffffffffffffff166108fc349081150290604051600060405180830381858888f19350505050158015611ce6573d6000803e3d6000fd5b503460056000858152602001908152602001600020600082825401925050819055503391505092915050565b60003073ffffffffffffffffffffffffffffffffffffffff1631905090565b600080600080336000600160008373ffffffffffffffffffffffffffffffffffffffff1673ffffffffffffffffffffffffffffffffffffffff168152602001908152602001600020600001805460018160011615610100020316600290049050111515611e06576040517f08c379a00000000000000000000000000000000000000000000000000000000081526004018080602001828103825260198152602001807f74686973206e616d65206973206e6f7420657869737465642e0000000000000081525060200191505060405180910390fd5b85600073ffffffffffffffffffffffffffffffffffffffff166002826040518082805190602001908083835b602083101515611e575780518252602082019150602081019050602083039250611e32565b6001836020036101000a038019825116818451168082178552505050505050905001915050908152602001604051809103902060009054906101000a900473ffffffffffffffffffffffffffffffffffffffff1673ffffffffffffffffffffffffffffffffffffffff1614151515611f37576040517f08c379a00000000000000000000000000000000000000000000000000000000081526004018080602001828103825260198152602001807f74686973206e616d65206973206e6f7420657869737465642e0000000000000081525060200191505060405180910390fd5b6002876040518082805190602001908083835b602083101515611f6f5780518252602082019150602081019050602083039250611f4a565b6001836020036101000a038019825116818451168082178552505050505050905001915050908152602001604051809103902060009054906101000a900473ffffffffffffffffffffffffffffffffffffffff169550600360003373ffffffffffffffffffffffffffffffffffffffff1673ffffffffffffffffffffffffffffffffffffffff168152602001908152602001600020805490509450600093505b8484101561218a57600360003373ffffffffffffffffffffffffffffffffffffffff1673ffffffffffffffffffffffffffffffffffffffff1681526020019081526020016000208481548110151561206357fe5b9060005260206000200160009054906101000a900473ffffffffffffffffffffffffffffffffffffffff169250600073ffffffffffffffffffffffffffffffffffffffff168373ffffffffffffffffffffffffffffffffffffffff1614156120ca5761217d565b8273ffffffffffffffffffffffffffffffffffffffff168673ffffffffffffffffffffffffffffffffffffffff16141561217c57600360003373ffffffffffffffffffffffffffffffffffffffff1673ffffffffffffffffffffffffffffffffffffffff1681526020019081526020016000208481548110151561214a57fe5b9060005260206000200160006101000a81549073ffffffffffffffffffffffffffffffffffffffff021916905561218a565b5b838060010194505061200f565b50505050505050565b61219b615899565b336000600160008373ffffffffffffffffffffffffffffffffffffffff1673ffffffffffffffffffffffffffffffffffffffff16815260200190815260200160002060000180546001816001161561010002031660029004905011151561226a576040517f08c379a00000000000000000000000000000000000000000000000000000000081526004018080602001828103825260198152602001807f74686973206e616d65206973206e6f7420657869737465642e0000000000000081525060200191505060405180910390fd5b84600073ffffffffffffffffffffffffffffffffffffffff166002826040518082805190602001908083835b6020831015156122bb5780518252602082019150602081019050602083039250612296565b6001836020036101000a038019825116818451168082178552505050505050905001915050908152602001604051809103902060009054906101000a900473ffffffffffffffffffffffffffffffffffffffff1673ffffffffffffffffffffffffffffffffffffffff161415151561239b576040517f08c379a00000000000000000000000000000000000000000000000000000000081526004018080602001828103825260198152602001807f74686973206e616d65206973206e6f7420657869737465642e0000000000000081525060200191505060405180910390fd5b600160003373ffffffffffffffffffffffffffffffffffffffff1673ffffffffffffffffffffffffffffffffffffffff16815260200190815260200160002060a06040519081016040529081600082018054600181600116156101000203166002900480601f01602080910402602001604051908101604052809291908181526020018280546001816001161561010002031660029004801561247f5780601f106124545761010080835404028352916020019161247f565b820191906000526020600020905b81548152906001019060200180831161246257829003601f168201915b50505050508152602001600182018054600181600116156101000203166002900480601f0160208091040260200160405190810160405280929190818152602001828054600181600116156101000203166002900480156125215780601f106124f657610100808354040283529160200191612521565b820191906000526020600020905b81548152906001019060200180831161250457829003601f168201915b50505050508152602001600282018054600181600116156101000203166002900480601f0160208091040260200160405190810160405280929190818152602001828054600181600116156101000203166002900480156125c35780601f10612598576101008083540402835291602001916125c3565b820191906000526020600020905b8154815290600101906020018083116125a657829003601f168201915b50505050508152602001600382018054600181600116156101000203166002900480601f0160208091040260200160405190810160405280929190818152602001828054600181600116156101000203166002900480156126655780601f1061263a57610100808354040283529160200191612665565b820191906000526020600020905b81548152906001019060200180831161264857829003601f168201915b50505050508152602001600482018054600181600116156101000203166002900480601f0160208091040260200160405190810160405280929190818152602001828054600181600116156101000203166002900480156127075780601f106126dc57610100808354040283529160200191612707565b820191906000526020600020905b8154815290600101906020018083116126ea57829003601f168201915b50505050508152505092506127228360000151878787615077565b505050505050565b6000600960009054906101000a900463ffffffff16905090565b60066020528160005260406000208181548110151561275f57fe5b906000526020600020906006020160009150915050806000015490806001018054600181600116156101000203166002900480601f0160208091040260200160405190810160405280929190818152602001828054600181600116156101000203166002900480156128125780601f106127e757610100808354040283529160200191612812565b820191906000526020600020905b8154815290600101906020018083116127f557829003601f168201915b505050505090806002018054600181600116156101000203166002900480601f0160208091040260200160405190810160405280929190818152602001828054600181600116156101000203166002900480156128b05780601f10612885576101008083540402835291602001916128b0565b820191906000526020600020905b81548152906001019060200180831161289357829003601f168201915b505050505090806003018054600181600116156101000203166002900480601f01602080910402602001604051908101604052809291908181526020018280546001816001161561010002031660029004801561294e5780601f106129235761010080835404028352916020019161294e565b820191906000526020600020905b81548152906001019060200180831161293157829003601f168201915b505050505090806004018054600181600116156101000203166002900480601f0160208091040260200160405190810160405280929190818152602001828054600181600116156101000203166002900480156129ec5780601f106129c1576101008083540402835291602001916129ec565b820191906000526020600020905b8154815290600101906020018083116129cf57829003601f168201915b505050505090806005018054600181600116156101000203166002900480601f016020809104026020016040519081016040528092919081815260200182805460018160011615610100020316600290048015612a8a5780601f10612a5f57610100808354040283529160200191612a8a565b820191906000526020600020905b815481529060010190602001808311612a6d57829003601f168201915b5050505050905086565b600a544210151515612b0e576040517f08c379a000000000000000000000000000000000000000000000000000000000815260040180806020018281038252601a8152602001807f7468652067616d652063616e6e6f7420626520656e64206e6f7700000000000081525060200191505060405180910390fd5b612b16615252565b612b1e6153c1565b565b60006060600080612b30856140a6565b600073ffffffffffffffffffffffffffffffffffffffff166002826040518082805190602001908083835b602083101515612b805780518252602082019150602081019050602083039250612b5b565b6001836020036101000a038019825116818451168082178552505050505050905001915050908152602001604051809103902060009054906101000a900473ffffffffffffffffffffffffffffffffffffffff1673ffffffffffffffffffffffffffffffffffffffff1614151515612c60576040517f08c379a00000000000000000000000000000000000000000000000000000000081526004018080602001828103825260198152602001807f74686973206e616d65206973206e6f7420657869737465642e0000000000000081525060200191505060405180910390fd5b612c69866140a6565b93506002846040518082805190602001908083835b602083101515612ca35780518252602082019150602081019050602083039250612c7e565b6001836020036101000a038019825116818451168082178552505050505050905001915050908152602001604051809103902060009054906101000a900473ffffffffffffffffffffffffffffffffffffffff169250612d038387611bf8565b915081945050505050919050565b6000806008543410151515612d8e576040517f08c379a000000000000000000000000000000000000000000000000000000000815260040180806020018281038252601c8152602001807f73686f756c6420706179206d6f7265207468616e20312065746865720000000081525060200191505060405180910390fd5b60085434811515612d9b57fe5b0491506008548202340390503373ffffffffffffffffffffffffffffffffffffffff166108fc829081150290604051600060405180830381858888f19350505050158015612ded573d6000803e3d6000fd5b505050565b612dfa61343e565b1515612eba576040517f08c379a00000000000000000000000000000000000000000000000000000000081526004018080602001828103825260428152602001807f7065726d697373696f6e2064656e6965642c206f6e6c79206f776e6572206f6681526020017f207468697320636f6e74726163742068617320746865207065726d697373696f81526020017f6e2e00000000000000000000000000000000000000000000000000000000000081525060600191505060405180910390fd5b600073ffffffffffffffffffffffffffffffffffffffff16600760009054906101000a900473ffffffffffffffffffffffffffffffffffffffff1673ffffffffffffffffffffffffffffffffffffffff167f8be0079c531659141344cd1fd0a4f28419497f9722a3daafe3b4186f6b6457e060405160405180910390a36000600760006101000a81548173ffffffffffffffffffffffffffffffffffffffff021916908373ffffffffffffffffffffffffffffffffffffffff160217905550565b6060612f85615899565b600160008473ffffffffffffffffffffffffffffffffffffffff1673ffffffffffffffffffffffffffffffffffffffff16815260200190815260200160002060a06040519081016040529081600082018054600181600116156101000203166002900480601f0160208091040260200160405190810160405280929190818152602001828054600181600116156101000203166002900480156130695780601f1061303e57610100808354040283529160200191613069565b820191906000526020600020905b81548152906001019060200180831161304c57829003601f168201915b50505050508152602001600182018054600181600116156101000203166002900480601f01602080910402602001604051908101604052809291908181526020018280546001816001161561010002031660029004801561310b5780601f106130e05761010080835404028352916020019161310b565b820191906000526020600020905b8154815290600101906020018083116130ee57829003601f168201915b50505050508152602001600282018054600181600116156101000203166002900480601f0160208091040260200160405190810160405280929190818152602001828054600181600116156101000203166002900480156131ad5780601f10613182576101008083540402835291602001916131ad565b820191906000526020600020905b81548152906001019060200180831161319057829003601f168201915b50505050508152602001600382018054600181600116156101000203166002900480601f01602080910402602001604051908101604052809291908181526020018280546001816001161561010002031660029004801561324f5780601f106132245761010080835404028352916020019161324f565b820191906000526020600020905b81548152906001019060200180831161323257829003601f168201915b50505050508152602001600482018054600181600116156101000203166002900480601f0160208091040260200160405190810160405280929190818152602001828054600181600116156101000203166002900480156132f15780601f106132c6576101008083540402835291602001916132f1565b820191906000526020600020905b8154815290600101906020018083116132d457829003601f168201915b50505050508152505090508060000151915050919050565b80600660003373ffffffffffffffffffffffffffffffffffffffff1673ffffffffffffffffffffffffffffffffffffffff1681526020019081526020016000208381548110151561335657fe5b9060005260206000209060060201600501908051906020019061337a9291906158c9565b505050565b6000600760009054906101000a900473ffffffffffffffffffffffffffffffffffffffff16905090565b60006002826040518082805190602001908083835b6020831015156133e357805182526020820191506020810190506020830392506133be565b6001836020036101000a038019825116818451168082178552505050505050905001915050908152602001604051809103902060009054906101000a900473ffffffffffffffffffffffffffffffffffffffff169050919050565b6000600760009054906101000a900473ffffffffffffffffffffffffffffffffffffffff1673ffffffffffffffffffffffffffffffffffffffff163373ffffffffffffffffffffffffffffffffffffffff1614905090565b60008060006753444835ec580000341015151561351b576040517f08c379a00000000000000000000000000000000000000000000000000000000081526004018080602001828103825260208152602001807f6e65656420746f2070617920666f72206174206c65617374203620657468657281525060200191505060405180910390fd5b6753444835ec580000340392503373ffffffffffffffffffffffffffffffffffffffff166108fc849081150290604051600060405180830381858888f1935050505015801561356e573d6000803e3d6000fd5b50613591600960009054906101000a900463ffffffff1663ffffffff1685615499565b91508190507fffffffffffffffffffffffffffffffffffffffffffffffffffffffffffffffff600e60006003811015156135c757fe5b015414806135e55750600e60006003811015156135e057fe5b015481125b1561375a57600e60016003811015156135fa57fe5b0154600e600260038110151561360c57fe5b0181905550600e600060038110151561362157fe5b0154600e600160038110151561363357fe5b018190555080600e600060038110151561364957fe5b0181905550600c60009054906101000a900473ffffffffffffffffffffffffffffffffffffffff16600d60006101000a81548173ffffffffffffffffffffffffffffffffffffffff021916908373ffffffffffffffffffffffffffffffffffffffff160217905550600b60009054906101000a900473ffffffffffffffffffffffffffffffffffffffff16600c60006101000a81548173ffffffffffffffffffffffffffffffffffffffff021916908373ffffffffffffffffffffffffffffffffffffffff16021790555033600b60006101000a81548173ffffffffffffffffffffffffffffffffffffffff021916908373ffffffffffffffffffffffffffffffffffffffff160217905550613942565b7fffffffffffffffffffffffffffffffffffffffffffffffffffffffffffffffff600e600160038110151561378b57fe5b015414806137a95750600e60016003811015156137a457fe5b015481125b1561389457600e60016003811015156137be57fe5b0154600e60026003811015156137d057fe5b018190555080600e60016003811015156137e657fe5b0181905550600c60009054906101000a900473ffffffffffffffffffffffffffffffffffffffff16600d60006101000a81548173ffffffffffffffffffffffffffffffffffffffff021916908373ffffffffffffffffffffffffffffffffffffffff16021790555033600c60006101000a81548173ffffffffffffffffffffffffffffffffffffffff021916908373ffffffffffffffffffffffffffffffffffffffff160217905550613941565b7fffffffffffffffffffffffffffffffffffffffffffffffffffffffffffffffff600e60026003811015156138c557fe5b015414806138e35750600e60026003811015156138de57fe5b015481125b156139405780600e60026003811015156138f957fe5b018190555033600d60006101000a81548173ffffffffffffffffffffffffffffffffffffffff021916908373ffffffffffffffffffffffffffffffffffffffff1602179055505b5b5b50505050565b600042600a5411151561395e5760009050613966565b42600a540390505b90565b60608060606000613978615949565b60048681548110151561398757fe5b906000526020600020906005020160a0604051908101604052908160008201548152602001600182018054600181600116156101000203166002900480601f016020809104026020016040519081016040528092919081815260200182805460018160011615610100020316600290048015613a445780601f10613a1957610100808354040283529160200191613a44565b820191906000526020600020905b815481529060010190602001808311613a2757829003601f168201915b50505050508152602001600282018054600181600116156101000203166002900480601f016020809104026020016040519081016040528092919081815260200182805460018160011615610100020316600290048015613ae65780601f10613abb57610100808354040283529160200191613ae6565b820191906000526020600020905b815481529060010190602001808311613ac957829003601f168201915b50505050508152602001600382018054600181600116156101000203166002900480601f016020809104026020016040519081016040528092919081815260200182805460018160011615610100020316600290048015613b885780601f10613b5d57610100808354040283529160200191613b88565b820191906000526020600020905b815481529060010190602001808311613b6b57829003601f168201915b50505050508152602001600482015481525050905080602001518160400151826060015183608001518393508292508191509450945094509450509193509193565b60008080549050905090565b613bde615899565b336000600160008373ffffffffffffffffffffffffffffffffffffffff1673ffffffffffffffffffffffffffffffffffffffff168152602001908152602001600020600001805460018160011615610100020316600290049050111515613cad576040517f08c379a00000000000000000000000000000000000000000000000000000000081526004018080602001828103825260198152602001807f74686973206e616d65206973206e6f7420657869737465642e0000000000000081525060200191505060405180910390fd5b600160003373ffffffffffffffffffffffffffffffffffffffff1673ffffffffffffffffffffffffffffffffffffffff16815260200190815260200160002060a06040519081016040529081600082018054600181600116156101000203166002900480601f016020809104026020016040519081016040528092919081815260200182805460018160011615610100020316600290048015613d915780601f10613d6657610100808354040283529160200191613d91565b820191906000526020600020905b815481529060010190602001808311613d7457829003601f168201915b50505050508152602001600182018054600181600116156101000203166002900480601f016020809104026020016040519081016040528092919081815260200182805460018160011615610100020316600290048015613e335780601f10613e0857610100808354040283529160200191613e33565b820191906000526020600020905b815481529060010190602001808311613e1657829003601f168201915b50505050508152602001600282018054600181600116156101000203166002900480601f016020809104026020016040519081016040528092919081815260200182805460018160011615610100020316600290048015613ed55780601f10613eaa57610100808354040283529160200191613ed5565b820191906000526020600020905b815481529060010190602001808311613eb857829003601f168201915b50505050508152602001600382018054600181600116156101000203166002900480601f016020809104026020016040519081016040528092919081815260200182805460018160011615610100020316600290048015613f775780601f10613f4c57610100808354040283529160200191613f77565b820191906000526020600020905b815481529060010190602001808311613f5a57829003601f168201915b50505050508152602001600482018054600181600116156101000203166002900480601f0160208091040260200160405190810160405280929190818152602001828054600181600116156101000203166002900480156140195780601f10613fee57610100808354040283529160200191614019565b820191906000526020600020905b815481529060010190602001808311613ffc57829003601f168201915b505050505081525050915061403782600001518484602001516154b9565b50505050565b60003073ffffffffffffffffffffffffffffffffffffffff1631905090565b6000600360003373ffffffffffffffffffffffffffffffffffffffff1673ffffffffffffffffffffffffffffffffffffffff16815260200190815260200160002080549050905090565b60606004828154811015156140b757fe5b90600052602060002090600502016001018054600181600116156101000203166002900480601f01602080910402602001604051908101604052809291908181526020018280546001816001161561010002031660029004801561415c5780601f106141315761010080835404028352916020019161415c565b820191906000526020600020905b81548152906001019060200180831161413f57829003601f168201915b50505050509050919050565b6000816002815111151561420a576040517f08c379a00000000000000000000000000000000000000000000000000000000081526004018080602001828103825260288152602001807f746865206c656e677468206f662061206e616d65206d7573742067726561746581526020017f72207468616e203200000000000000000000000000000000000000000000000081525060400191505060405180910390fd5b82600073ffffffffffffffffffffffffffffffffffffffff166002826040518082805190602001908083835b60208310151561425b5780518252602082019150602081019050602083039250614236565b6001836020036101000a038019825116818451168082178552505050505050905001915050908152602001604051809103902060009054906101000a900473ffffffffffffffffffffffffffffffffffffffff1673ffffffffffffffffffffffffffffffffffffffff1614151561433a576040517f08c379a00000000000000000000000000000000000000000000000000000000081526004018080602001828103825260188152602001807f74686973206e616d6520686173206265656e20757365642e000000000000000081525060200191505060405180910390fd5b336000600160008373ffffffffffffffffffffffffffffffffffffffff1673ffffffffffffffffffffffffffffffffffffffff168152602001908152602001600020600001805460018160011615610100020316600290049050141515614409576040517f08c379a000000000000000000000000000000000000000000000000000000000815260040180806020018281038252601b8152602001807f796f7520686176652072656769737465726564206265666f72652e000000000081525060200191505060405180910390fd5b600060a06040519081016040528087815260200160206040519081016040528060008152508152602001602060405190810160405280600081525081526020016020604051908101604052806000815250815260200160206040519081016040528060008152508152509080600181540180825580915050906001820390600052602060002090600502016000909192909190915060008201518160000190805190602001906144ba929190615979565b5060208201518160010190805190602001906144d7929190615979565b5060408201518160020190805190602001906144f4929190615979565b506060820151816003019080519060200190614511929190615979565b50608082015181600401908051906020019061452e929190615979565b50505050336002866040518082805190602001908083835b60208310151561456b5780518252602082019150602081019050602083039250614546565b6001836020036101000a038019825116818451168082178552505050505050905001915050908152602001604051809103902060006101000a81548173ffffffffffffffffffffffffffffffffffffffff021916908373ffffffffffffffffffffffffffffffffffffffff16021790555060a0604051908101604052808681526020016020604051908101604052806000815250815260200160206040519081016040528060008152508152602001602060405190810160405280600081525081526020016020604051908101604052806000815250815250600160003373ffffffffffffffffffffffffffffffffffffffff1673ffffffffffffffffffffffffffffffffffffffff168152602001908152602001600020600082015181600001908051906020019061469f929190615979565b5060208201518160010190805190602001906146bc929190615979565b5060408201518160020190805190602001906146d9929190615979565b5060608201518160030190805190602001906146f6929190615979565b506080820151816004019080519060200190614713929190615979565b5090505060019350505050919050565b61472b61343e565b15156147eb576040517f08c379a00000000000000000000000000000000000000000000000000000000081526004018080602001828103825260428152602001807f7065726d697373696f6e2064656e6965642c206f6e6c79206f776e6572206f6681526020017f207468697320636f6e74726163742068617320746865207065726d697373696f81526020017f6e2e00000000000000000000000000000000000000000000000000000000000081525060600191505060405180910390fd5b6147f481615656565b50565b60608060608060606148076159f9565b600660003373ffffffffffffffffffffffffffffffffffffffff1673ffffffffffffffffffffffffffffffffffffffff1681526020019081526020016000208781548110151561485357fe5b906000526020600020906006020160c0604051908101604052908160008201548152602001600182018054600181600116156101000203166002900480601f0160208091040260200160405190810160405280929190818152602001828054600181600116156101000203166002900480156149105780601f106148e557610100808354040283529160200191614910565b820191906000526020600020905b8154815290600101906020018083116148f357829003601f168201915b50505050508152602001600282018054600181600116156101000203166002900480601f0160208091040260200160405190810160405280929190818152602001828054600181600116156101000203166002900480156149b25780601f10614987576101008083540402835291602001916149b2565b820191906000526020600020905b81548152906001019060200180831161499557829003601f168201915b50505050508152602001600382018054600181600116156101000203166002900480601f016020809104026020016040519081016040528092919081815260200182805460018160011615610100020316600290048015614a545780601f10614a2957610100808354040283529160200191614a54565b820191906000526020600020905b815481529060010190602001808311614a3757829003601f168201915b50505050508152602001600482018054600181600116156101000203166002900480601f016020809104026020016040519081016040528092919081815260200182805460018160011615610100020316600290048015614af65780601f10614acb57610100808354040283529160200191614af6565b820191906000526020600020905b815481529060010190602001808311614ad957829003601f168201915b50505050508152602001600582018054600181600116156101000203166002900480601f016020809104026020016040519081016040528092919081815260200182805460018160011615610100020316600290048015614b985780601f10614b6d57610100808354040283529160200191614b98565b820191906000526020600020905b815481529060010190602001808311614b7b57829003601f168201915b505050505081525050905080602001518160400151826060015183608001518460a00151849450839350829250819150809050955095509550955095505091939590929450565b6060806060806060614bef615899565b614bf7613bca565b87101515614c6d576040517f08c379a00000000000000000000000000000000000000000000000000000000081526004018080602001828103825260128152602001807f696e646578206f7574206f6620626f756e64000000000000000000000000000081525060200191505060405180910390fd5b600087815481101515614c7c57fe5b906000526020600020906005020160a06040519081016040529081600082018054600181600116156101000203166002900480601f016020809104026020016040519081016040528092919081815260200182805460018160011615610100020316600290048015614d2f5780601f10614d0457610100808354040283529160200191614d2f565b820191906000526020600020905b815481529060010190602001808311614d1257829003601f168201915b50505050508152602001600182018054600181600116156101000203166002900480601f016020809104026020016040519081016040528092919081815260200182805460018160011615610100020316600290048015614dd15780601f10614da657610100808354040283529160200191614dd1565b820191906000526020600020905b815481529060010190602001808311614db457829003601f168201915b50505050508152602001600282018054600181600116156101000203166002900480601f016020809104026020016040519081016040528092919081815260200182805460018160011615610100020316600290048015614e735780601f10614e4857610100808354040283529160200191614e73565b820191906000526020600020905b815481529060010190602001808311614e5657829003601f168201915b50505050508152602001600382018054600181600116156101000203166002900480601f016020809104026020016040519081016040528092919081815260200182805460018160011615610100020316600290048015614f155780601f10614eea57610100808354040283529160200191614f15565b820191906000526020600020905b815481529060010190602001808311614ef857829003601f168201915b50505050508152602001600482018054600181600116156101000203166002900480601f016020809104026020016040519081016040528092919081815260200182805460018160011615610100020316600290048015614fb75780601f10614f8c57610100808354040283529160200191614fb7565b820191906000526020600020905b815481529060010190602001808311614f9a57829003601f168201915b505050505081525050905080600001518160200151826040015183606001518460800151849450839350829250819150809050955095509550955095505091939590929450565b6000806000600b60009054906101000a900473ffffffffffffffffffffffffffffffffffffffff16600c60009054906101000a900473ffffffffffffffffffffffffffffffffffffffff16600d60009054906101000a900473ffffffffffffffffffffffffffffffffffffffff16925092509250909192565b60006001600660003373ffffffffffffffffffffffffffffffffffffffff1673ffffffffffffffffffffffffffffffffffffffff16815260200190815260200160002060c060405190810160405280600081526020018881526020018781526020018681526020018581526020016040805190810160405280600481526020017f6e756c6c000000000000000000000000000000000000000000000000000000008152508152509080600181540180825580915050906001820390600052602060002090600602016000909192909190915060008201518160000155602082015181600101908051906020019061516f929190615979565b50604082015181600201908051906020019061518c929190615979565b5060608201518160030190805190602001906151a9929190615979565b5060808201518160040190805190602001906151c6929190615979565b5060a08201518160050190805190602001906151e3929190615979565b50505003905080600660003373ffffffffffffffffffffffffffffffffffffffff1673ffffffffffffffffffffffffffffffffffffffff1681526020019081526020016000208281548110151561523657fe5b9060005260206000209060060201600001819055505050505050565b600060063073ffffffffffffffffffffffffffffffffffffffff163181151561527757fe5b049050600b60009054906101000a900473ffffffffffffffffffffffffffffffffffffffff1673ffffffffffffffffffffffffffffffffffffffff166108fc600383029081150290604051600060405180830381858888f193505050501580156152e5573d6000803e3d6000fd5b50600c60009054906101000a900473ffffffffffffffffffffffffffffffffffffffff1673ffffffffffffffffffffffffffffffffffffffff166108fc600283029081150290604051600060405180830381858888f19350505050158015615351573d6000803e3d6000fd5b50600d60009054906101000a900473ffffffffffffffffffffffffffffffffffffffff1673ffffffffffffffffffffffffffffffffffffffff166108fc600183029081150290604051600060405180830381858888f193505050501580156153bd573d6000803e3d6000fd5b5050565b6014600a5401600a819055506153d56157e1565b600960006101000a81548163ffffffff021916908363ffffffff1602179055507fffffffffffffffffffffffffffffffffffffffffffffffffffffffffffffffff600e600060038110151561542657fe5b01819055507fffffffffffffffffffffffffffffffffffffffffffffffffffffffffffffffff600e600160038110151561545c57fe5b01819055507fffffffffffffffffffffffffffffffffffffffffffffffffffffffffffffffff600e600260038110151561549257fe5b0181905550565b6000818311156154ad5781830390506154b3565b82820390505b92915050565b600080836000815111151561555c576040517f08c379a000000000000000000000000000000000000000000000000000000000815260040180806020018281038252602b8152602001807f746865206c656e677468206f66206120636f6d6d656e74206d7573742067726581526020017f61746572207468616e203000000000000000000000000000000000000000000081525060400191505060405180910390fd5b6001600460a0604051908101604052806000815260200189815260200188815260200187815260200142815250908060018154018082558091505090600182039060005260206000209060050201600090919290919091506000820151816000015560208201518160010190805190602001906155da929190615979565b5060408201518160020190805190602001906155f7929190615979565b506060820151816003019080519060200190615614929190615979565b506080820151816004015550500391508160048381548110151561563457fe5b9060005260206000209060050201600001819055506001925050509392505050565b600073ffffffffffffffffffffffffffffffffffffffff168173ffffffffffffffffffffffffffffffffffffffff1614151515615721576040517f08c379a00000000000000000000000000000000000000000000000000000000081526004018080602001828103825260288152602001807f746865206e65774f776e6572277320616464726573732073686f756c64206e6f81526020017f742062652030783000000000000000000000000000000000000000000000000081525060400191505060405180910390fd5b8073ffffffffffffffffffffffffffffffffffffffff16600760009054906101000a900473ffffffffffffffffffffffffffffffffffffffff1673ffffffffffffffffffffffffffffffffffffffff167f8be0079c531659141344cd1fd0a4f28419497f9722a3daafe3b4186f6b6457e060405160405180910390a380600760006101000a81548173ffffffffffffffffffffffffffffffffffffffff021916908373ffffffffffffffffffffffffffffffffffffffff16021790555050565b6000806000806010925082600a0a915042604051602001808281526020019150506040516020818303038152906040526040518082805190602001908083835b6020831015156158465780518252602082019150602081019050602083039250615821565b6001836020036101000a03801982511681845116808217855250505050505090500191505060405180910390206001900490508163ffffffff168163ffffffff1681151561589057fe5b06935050505090565b60a06040519081016040528060608152602001606081526020016060815260200160608152602001606081525090565b828054600181600116156101000203166002900490600052602060002090601f016020900481019282601f1061590a57805160ff1916838001178555615938565b82800160010185558215615938579182015b8281111561593757825182559160200191906001019061591c565b5b5090506159459190615a30565b5090565b60a06040519081016040528060008152602001606081526020016060815260200160608152602001600081525090565b828054600181600116156101000203166002900490600052602060002090601f016020900481019282601f106159ba57805160ff19168380011785556159e8565b828001600101855582156159e8579182015b828111156159e75782518255916020019190600101906159cc565b5b5090506159f59190615a30565b5090565b60c0604051908101604052806000815260200160608152602001606081526020016060815260200160608152602001606081525090565b615a5291905b80821115615a4e576000816000905550600101615a36565b5090565b905600a165627a7a72305820209ffef1a2264c982b53e79048f8e5e13f76217cf180ae795e756bd46986c65c0029",
  "source": "pragma solidity ^0.4.24;\r\n\r\nimport \"./UserManager.sol\";\r\nimport \"./CommentManager.sol\";\r\nimport \"./MailManager.sol\";\r\nimport \"./CharityManager.sol\";\r\nimport \"./GameManager.sol\";\r\n\r\ncontract SuperCommunity is UserManager, CommentManager, MailManager, CharityManager, GameManager {\r\n    \r\n    function sendComment(string memory _comment) public registered(msg.sender) {\r\n\r\n        // the sender should have registered\r\n        User memory user = addrToUser[msg.sender];\r\n        addComment(user.name, _comment, user.head_img);\r\n    }\r\n\r\n    function rewardComment(uint _id) public payable existName(getNameByCommentId(_id)) returns(address) {\r\n\r\n        // the name should exist\r\n        string memory name = getNameByCommentId(_id);\r\n        address to = nameToAddr[name];\r\n        address sender = rewardByAddr(to, _id);\r\n        return sender;\r\n    }\r\n\r\n    function sendMail(string memory _to, string memory _title, string memory _text) public\r\n        registered(msg.sender)\r\n        existName(_to) {\r\n\r\n        // the sender should have registered and so do the receiver\r\n        User memory user = addrToUser[msg.sender];\r\n        addMail(user.name, _to, _title, _text);\r\n    }\r\n\r\n    function getWinnerName() public view returns(string memory, string memory, string memory) {\r\n\r\n        address addr1;\r\n        address addr2;\r\n        address addr3;\r\n        (addr1, addr2, addr3) = getWinner();\r\n        return (getNameByAddr(addr1), getNameByAddr(addr2), getNameByAddr(addr3));\r\n    }\r\n}",
  "sourcePath": "/home/tao/blockchain/privateChain/Solidity-SuperCommunity/contracts/SuperCommunity.sol",
  "compiler": {
    "name": "solc",
    "version": "0.4.24+commit.e67f0147.Emscripten.clang"
  },
  "schemaVersion": "2.0.1",
  "updatedAt": "2018-11-23T17:07:10.762Z"
}