{
  "contractName": "SuperCommunity",
  "abi": [
    {
      "constant": false,
      "inputs": [
        {
          "name": "_name",
          "type": "string"
        }
      ],
      "name": "watch",
      "outputs": [],
      "payable": false,
      "stateMutability": "nonpayable",
      "type": "function",
      "signature": "0x07574d7f"
    },
    {
      "constant": true,
      "inputs": [],
      "name": "getMailCount",
      "outputs": [
        {
          "name": "",
          "type": "uint256"
        }
      ],
      "payable": false,
      "stateMutability": "view",
      "type": "function",
      "signature": "0x10620542"
    },
    {
      "constant": true,
      "inputs": [
        {
          "name": "_index",
          "type": "uint256"
        }
      ],
      "name": "getWatchesByIndex",
      "outputs": [
        {
          "name": "",
          "type": "address"
        }
      ],
      "payable": false,
      "stateMutability": "view",
      "type": "function",
      "signature": "0x166e9985"
    },
    {
      "constant": true,
      "inputs": [],
      "name": "getCommentCount",
      "outputs": [
        {
          "name": "",
          "type": "uint256"
        }
      ],
      "payable": false,
      "stateMutability": "view",
      "type": "function",
      "signature": "0x16e31ea3"
    },
    {
      "constant": false,
      "inputs": [
        {
          "name": "_to",
          "type": "address"
        },
        {
          "name": "_amout",
          "type": "uint256"
        }
      ],
      "name": "donateFromCharity",
      "outputs": [],
      "payable": true,
      "stateMutability": "payable",
      "type": "function",
      "signature": "0x2aa085b0"
    },
    {
      "constant": true,
      "inputs": [
        {
          "name": "_index",
          "type": "uint256"
        }
      ],
      "name": "getCommentBalanceByIndex",
      "outputs": [
        {
          "name": "",
          "type": "uint256"
        }
      ],
      "payable": false,
      "stateMutability": "view",
      "type": "function",
      "signature": "0x381d0db3"
    },
    {
      "constant": false,
      "inputs": [
        {
          "name": "_to",
          "type": "address"
        },
        {
          "name": "_id",
          "type": "uint256"
        }
      ],
      "name": "rewardByAddr",
      "outputs": [
        {
          "name": "",
          "type": "address"
        }
      ],
      "payable": true,
      "stateMutability": "payable",
      "type": "function",
      "signature": "0x3c128e13"
    },
    {
      "constant": true,
      "inputs": [],
      "name": "getCharityBalance",
      "outputs": [
        {
          "name": "",
          "type": "uint256"
        }
      ],
      "payable": false,
      "stateMutability": "view",
      "type": "function",
      "signature": "0x44b7eda1"
    },
    {
      "constant": false,
      "inputs": [
        {
          "name": "_name",
          "type": "string"
        }
      ],
      "name": "unwatch",
      "outputs": [],
      "payable": false,
      "stateMutability": "nonpayable",
      "type": "function",
      "signature": "0x51737757"
    },
    {
      "constant": true,
      "inputs": [],
      "name": "getRand",
      "outputs": [
        {
          "name": "",
          "type": "uint256"
        }
      ],
      "payable": false,
      "stateMutability": "view",
      "type": "function",
      "signature": "0x600bc4ea"
    },
    {
      "constant": true,
      "inputs": [
        {
          "name": "",
          "type": "address"
        },
        {
          "name": "",
          "type": "uint256"
        }
      ],
      "name": "addrToMailBox",
      "outputs": [
        {
          "name": "id",
          "type": "uint256"
        },
        {
          "name": "from",
          "type": "string"
        },
        {
          "name": "to",
          "type": "string"
        },
        {
          "name": "title",
          "type": "string"
        },
        {
          "name": "text",
          "type": "string"
        },
        {
          "name": "attachment",
          "type": "string"
        }
      ],
      "payable": false,
      "stateMutability": "view",
      "type": "function",
      "signature": "0x62d2fd12"
    },
    {
      "constant": false,
      "inputs": [],
      "name": "endGame",
      "outputs": [],
      "payable": false,
      "stateMutability": "nonpayable",
      "type": "function",
      "signature": "0x6cbc2ded"
    },
    {
      "constant": false,
      "inputs": [],
      "name": "donateToCharity",
      "outputs": [],
      "payable": true,
      "stateMutability": "payable",
      "type": "function",
      "signature": "0x6e87be20"
    },
    {
      "constant": false,
      "inputs": [],
      "name": "renounceOwnership",
      "outputs": [],
      "payable": false,
      "stateMutability": "nonpayable",
      "type": "function",
      "signature": "0x715018a6"
    },
    {
      "constant": true,
      "inputs": [
        {
          "name": "_addr",
          "type": "address"
        }
      ],
      "name": "getNameByAddr",
      "outputs": [
        {
          "name": "",
          "type": "string"
        }
      ],
      "payable": false,
      "stateMutability": "view",
      "type": "function",
      "signature": "0x7e6aead2"
    },
    {
      "constant": false,
      "inputs": [
        {
          "name": "_id",
          "type": "uint256"
        },
        {
          "name": "_attachment",
          "type": "string"
        }
      ],
      "name": "setAttachment",
      "outputs": [],
      "payable": false,
      "stateMutability": "nonpayable",
      "type": "function",
      "signature": "0x810a006a"
    },
    {
      "constant": true,
      "inputs": [],
      "name": "owner",
      "outputs": [
        {
          "name": "",
          "type": "address"
        }
      ],
      "payable": false,
      "stateMutability": "view",
      "type": "function",
      "signature": "0x8da5cb5b"
    },
    {
      "constant": true,
      "inputs": [
        {
          "name": "_name",
          "type": "string"
        }
      ],
      "name": "getAddrByName",
      "outputs": [
        {
          "name": "",
          "type": "address"
        }
      ],
      "payable": false,
      "stateMutability": "view",
      "type": "function",
      "signature": "0x8dc3f873"
    },
    {
      "constant": true,
      "inputs": [],
      "name": "isOwner",
      "outputs": [
        {
          "name": "",
          "type": "bool"
        }
      ],
      "payable": false,
      "stateMutability": "view",
      "type": "function",
      "signature": "0x8f32d59b"
    },
    {
      "constant": false,
      "inputs": [
        {
          "name": "_rand",
          "type": "uint256"
        }
      ],
      "name": "guess",
      "outputs": [],
      "payable": true,
      "stateMutability": "payable",
      "type": "function",
      "signature": "0x9189fec1"
    },
    {
      "constant": true,
      "inputs": [],
      "name": "secondsRemaining",
      "outputs": [
        {
          "name": "",
          "type": "uint256"
        }
      ],
      "payable": false,
      "stateMutability": "view",
      "type": "function",
      "signature": "0x940ebef7"
    },
    {
      "constant": true,
      "inputs": [
        {
          "name": "_index",
          "type": "uint256"
        }
      ],
      "name": "getCommentByIndex",
      "outputs": [
        {
          "name": "",
          "type": "string"
        },
        {
          "name": "",
          "type": "string"
        },
        {
          "name": "",
          "type": "string"
        },
        {
          "name": "",
          "type": "uint256"
        }
      ],
      "payable": false,
      "stateMutability": "view",
      "type": "function",
      "signature": "0xac2c8837"
    },
    {
      "constant": true,
      "inputs": [],
      "name": "getUserCount",
      "outputs": [
        {
          "name": "",
          "type": "uint256"
        }
      ],
      "payable": false,
      "stateMutability": "view",
      "type": "function",
      "signature": "0xb5cb15f7"
    },
    {
      "constant": true,
      "inputs": [],
      "name": "getGameBalance",
      "outputs": [
        {
          "name": "",
          "type": "uint256"
        }
      ],
      "payable": false,
      "stateMutability": "view",
      "type": "function",
      "signature": "0xc574d156"
    },
    {
      "constant": true,
      "inputs": [],
      "name": "getWatchesCount",
      "outputs": [
        {
          "name": "",
          "type": "uint256"
        }
      ],
      "payable": false,
      "stateMutability": "view",
      "type": "function",
      "signature": "0xc9bf65b4"
    },
    {
      "constant": true,
      "inputs": [
        {
          "name": "_id",
          "type": "uint256"
        }
      ],
      "name": "getNameByCommentId",
      "outputs": [
        {
          "name": "",
          "type": "string"
        }
      ],
      "payable": false,
      "stateMutability": "view",
      "type": "function",
      "signature": "0xcd70aced"
    },
    {
      "constant": false,
      "inputs": [
        {
          "name": "_name",
          "type": "string"
        }
      ],
      "name": "register",
      "outputs": [
        {
          "name": "",
          "type": "bool"
        }
      ],
      "payable": false,
      "stateMutability": "nonpayable",
      "type": "function",
      "signature": "0xf2c298be"
    },
    {
      "constant": false,
      "inputs": [
        {
          "name": "newOwner",
          "type": "address"
        }
      ],
      "name": "transferOwnership",
      "outputs": [],
      "payable": false,
      "stateMutability": "nonpayable",
      "type": "function",
      "signature": "0xf2fde38b"
    },
    {
      "constant": true,
      "inputs": [
        {
          "name": "_index",
          "type": "uint256"
        }
      ],
      "name": "getMailByIndex",
      "outputs": [
        {
          "name": "",
          "type": "string"
        },
        {
          "name": "",
          "type": "string"
        },
        {
          "name": "",
          "type": "string"
        },
        {
          "name": "",
          "type": "string"
        },
        {
          "name": "",
          "type": "string"
        }
      ],
      "payable": false,
      "stateMutability": "view",
      "type": "function",
      "signature": "0xf5394ca5"
    },
    {
      "constant": true,
      "inputs": [
        {
          "name": "_index",
          "type": "uint256"
        }
      ],
      "name": "getUserByIndex",
      "outputs": [
        {
          "name": "",
          "type": "string"
        },
        {
          "name": "",
          "type": "string"
        },
        {
          "name": "",
          "type": "string"
        },
        {
          "name": "",
          "type": "string"
        },
        {
          "name": "",
          "type": "string"
        }
      ],
      "payable": false,
      "stateMutability": "view",
      "type": "function",
      "signature": "0xff5d32fe"
    },
    {
      "anonymous": false,
      "inputs": [
        {
          "indexed": true,
          "name": "previousOwner",
          "type": "address"
        },
        {
          "indexed": true,
          "name": "newOwner",
          "type": "address"
        }
      ],
      "name": "OwnershipTransferred",
      "type": "event",
      "signature": "0x8be0079c531659141344cd1fd0a4f28419497f9722a3daafe3b4186f6b6457e0"
    },
    {
      "constant": false,
      "inputs": [
        {
          "name": "_comment",
          "type": "string"
        }
      ],
      "name": "sendComment",
      "outputs": [],
      "payable": false,
      "stateMutability": "nonpayable",
      "type": "function",
      "signature": "0xb741aa51"
    },
    {
      "constant": false,
      "inputs": [
        {
          "name": "_id",
          "type": "uint256"
        }
      ],
      "name": "rewardComment",
      "outputs": [
        {
          "name": "",
          "type": "address"
        }
      ],
      "payable": true,
      "stateMutability": "payable",
      "type": "function",
      "signature": "0x6df063ff"
    },
    {
      "constant": false,
      "inputs": [
        {
          "name": "_to",
          "type": "string"
        },
        {
          "name": "_title",
          "type": "string"
        },
        {
          "name": "_text",
          "type": "string"
        }
      ],
      "name": "sendMail",
      "outputs": [],
      "payable": false,
      "stateMutability": "nonpayable",
      "type": "function",
      "signature": "0x5fc2b3b0"
    },
    {
      "constant": true,
      "inputs": [],
      "name": "getWinnerName",
      "outputs": [
        {
          "name": "",
          "type": "string"
        },
        {
          "name": "",
          "type": "string"
        },
        {
          "name": "",
          "type": "string"
        }
      ],
      "payable": false,
      "stateMutability": "view",
      "type": "function",
      "signature": "0x2bfda515"
    }
  ],
  "bytecode": "0x6080604052670de0b6b3a764000060085533600760006101000a81548173ffffffffffffffffffffffffffffffffffffffff021916908373ffffffffffffffffffffffffffffffffffffffff160217905550600760009054906101000a900473ffffffffffffffffffffffffffffffffffffffff1673ffffffffffffffffffffffffffffffffffffffff16600073ffffffffffffffffffffffffffffffffffffffff167f8be0079c531659141344cd1fd0a4f28419497f9722a3daafe3b4186f6b6457e060405160405180910390a360144201600a81905550620000f1620000f7640100000000026401000000009004565b6200021c565b6014600a5401600a819055506200011c620001c9640100000000026401000000009004565b6009819055507fffffffffffffffffffffffffffffffffffffffffffffffffffffffffffffffff600e60006003811015156200015457fe5b01819055507fffffffffffffffffffffffffffffffffffffffffffffffffffffffffffffffff600e60016003811015156200018b57fe5b01819055507fffffffffffffffffffffffffffffffffffffffffffffffffffffffffffffffff600e6002600381101515620001c257fe5b0181905550565b60008060109050600081600a0a9050600042604051602001808281526020019150506040516020818303038152906040528051906020012060019004905081818115156200021357fe5b06935050505090565b615dc3806200022c6000396000f3fe6080604052600436106101ac576000357c0100000000000000000000000000000000000000000000000000000000900463ffffffff16806307574d7f146101b15780631062054214610279578063166e9985146102a457806316e31ea31461031f5780632aa085b01461034a5780632bfda51514610398578063381d0db3146105005780633c128e131461054f57806344b7eda1146105dd57806351737757146106085780635fc2b3b0146106d0578063600bc4ea146108c657806362d2fd12146108f15780636cbc2ded14610b7c5780636df063ff14610b935780636e87be2014610c01578063715018a614610c0b5780637e6aead214610c22578063810a006a14610cec5780638da5cb5b14610dbe5780638dc3f87314610e155780638f32d59b14610f1d5780639189fec114610f4c578063940ebef714610f7a578063ac2c883714610fa5578063b5cb15f714611138578063b741aa5114611163578063c574d1561461122b578063c9bf65b414611256578063cd70aced14611281578063f2c298be14611335578063f2fde38b14611415578063f5394ca514611466578063ff5d32fe146116ca575b600080fd5b3480156101bd57600080fd5b50610277600480360360208110156101d457600080fd5b81019080803590602001906401000000008111156101f157600080fd5b82018360208201111561020357600080fd5b8035906020019184600183028401116401000000008311171561022557600080fd5b91908080601f016020809104026020016040519081016040528093929190818152602001838380828437600081840152601f19601f82011690508083019250505050505050919291929050505061192e565b005b34801561028557600080fd5b5061028e611c67565b6040518082815260200191505060405180910390f35b3480156102b057600080fd5b506102dd600480360360208110156102c757600080fd5b8101908080359060200190929190505050611cb1565b604051808273ffffffffffffffffffffffffffffffffffffffff1673ffffffffffffffffffffffffffffffffffffffff16815260200191505060405180910390f35b34801561032b57600080fd5b50610334611daf565b6040518082815260200191505060405180910390f35b6103966004803603604081101561036057600080fd5b81019080803573ffffffffffffffffffffffffffffffffffffffff16906020019092919080359060200190929190505050611dbc565b005b3480156103a457600080fd5b506103ad611f6c565b60405180806020018060200180602001848103845287818151815260200191508051906020019080838360005b838110156103f55780820151818401526020810190506103da565b50505050905090810190601f1680156104225780820380516001836020036101000a031916815260200191505b50848103835286818151815260200191508051906020019080838360005b8381101561045b578082015181840152602081019050610440565b50505050905090810190601f1680156104885780820380516001836020036101000a031916815260200191505b50848103825285818151815260200191508051906020019080838360005b838110156104c15780820151818401526020810190506104a6565b50505050905090810190601f1680156104ee5780820380516001836020036101000a031916815260200191505b50965050505050505060405180910390f35b34801561050c57600080fd5b506105396004803603602081101561052357600080fd5b8101908080359060200190929190505050611fb3565b6040518082815260200191505060405180910390f35b61059b6004803603604081101561056557600080fd5b81019080803573ffffffffffffffffffffffffffffffffffffffff16906020019092919080359060200190929190505050611fd0565b604051808273ffffffffffffffffffffffffffffffffffffffff1673ffffffffffffffffffffffffffffffffffffffff16815260200191505060405180910390f35b3480156105e957600080fd5b506105f26120ea565b6040518082815260200191505060405180910390f35b34801561061457600080fd5b506106ce6004803603602081101561062b57600080fd5b810190808035906020019064010000000081111561064857600080fd5b82018360208201111561065a57600080fd5b8035906020019184600183028401116401000000008311171561067c57600080fd5b91908080601f016020809104026020016040519081016040528093929190818152602001838380828437600081840152601f19601f820116905080830192505050505050509192919290505050612109565b005b3480156106dc57600080fd5b506108c4600480360360608110156106f357600080fd5b810190808035906020019064010000000081111561071057600080fd5b82018360208201111561072257600080fd5b8035906020019184600183028401116401000000008311171561074457600080fd5b91908080601f016020809104026020016040519081016040528093929190818152602001838380828437600081840152601f19601f820116905080830192505050505050509192919290803590602001906401000000008111156107a757600080fd5b8201836020820111156107b957600080fd5b803590602001918460018302840111640100000000831117156107db57600080fd5b91908080601f016020809104026020016040519081016040528093929190818152602001838380828437600081840152601f19601f8201169050808301925050505050505091929192908035906020019064010000000081111561083e57600080fd5b82018360208201111561085057600080fd5b8035906020019184600183028401116401000000008311171561087257600080fd5b91908080601f016020809104026020016040519081016040528093929190818152602001838380828437600081840152601f19601f82011690508083019250505050505050919291929050505061256e565b005b3480156108d257600080fd5b506108db612b05565b6040518082815260200191505060405180910390f35b3480156108fd57600080fd5b5061094a6004803603604081101561091457600080fd5b81019080803573ffffffffffffffffffffffffffffffffffffffff16906020019092919080359060200190929190505050612b0f565b60405180878152602001806020018060200180602001806020018060200186810386528b818151815260200191508051906020019080838360005b838110156109a0578082015181840152602081019050610985565b50505050905090810190601f1680156109cd5780820380516001836020036101000a031916815260200191505b5086810385528a818151815260200191508051906020019080838360005b83811015610a065780820151818401526020810190506109eb565b50505050905090810190601f168015610a335780820380516001836020036101000a031916815260200191505b50868103845289818151815260200191508051906020019080838360005b83811015610a6c578082015181840152602081019050610a51565b50505050905090810190601f168015610a995780820380516001836020036101000a031916815260200191505b50868103835288818151815260200191508051906020019080838360005b83811015610ad2578082015181840152602081019050610ab7565b50505050905090810190601f168015610aff5780820380516001836020036101000a031916815260200191505b50868103825287818151815260200191508051906020019080838360005b83811015610b38578082015181840152602081019050610b1d565b50505050905090810190601f168015610b655780820380516001836020036101000a031916815260200191505b509b50505050505050505050505060405180910390f35b348015610b8857600080fd5b50610b91612e5f565b005b610bbf60048036036020811015610ba957600080fd5b8101908080359060200190929190505050612eeb565b604051808273ffffffffffffffffffffffffffffffffffffffff1673ffffffffffffffffffffffffffffffffffffffff16815260200191505060405180910390f35b610c096130dd565b005b348015610c1757600080fd5b50610c206131bf565b005b348015610c2e57600080fd5b50610c7160048036036020811015610c4557600080fd5b81019080803573ffffffffffffffffffffffffffffffffffffffff169060200190929190505050613348565b6040518080602001828103825283818151815260200191508051906020019080838360005b83811015610cb1578082015181840152602081019050610c96565b50505050905090810190601f168015610cde5780820380516001836020036101000a031916815260200191505b509250505060405180910390f35b348015610cf857600080fd5b50610dbc60048036036040811015610d0f57600080fd5b810190808035906020019092919080359060200190640100000000811115610d3657600080fd5b820183602082011115610d4857600080fd5b80359060200191846001830284011164010000000083111715610d6a57600080fd5b91908080601f016020809104026020016040519081016040528093929190818152602001838380828437600081840152601f19601f8201169050808301925050505050505091929192905050506136d6565b005b348015610dca57600080fd5b50610dd361374c565b604051808273ffffffffffffffffffffffffffffffffffffffff1673ffffffffffffffffffffffffffffffffffffffff16815260200191505060405180910390f35b348015610e2157600080fd5b50610edb60048036036020811015610e3857600080fd5b8101908080359060200190640100000000811115610e5557600080fd5b820183602082011115610e6757600080fd5b80359060200191846001830284011164010000000083111715610e8957600080fd5b91908080601f016020809104026020016040519081016040528093929190818152602001838380828437600081840152601f19601f820116905080830192505050505050509192919290505050613776565b604051808273ffffffffffffffffffffffffffffffffffffffff1673ffffffffffffffffffffffffffffffffffffffff16815260200191505060405180910390f35b348015610f2957600080fd5b50610f3261380b565b604051808215151515815260200191505060405180910390f35b610f7860048036036020811015610f6257600080fd5b8101908080359060200190929190505050613863565b005b348015610f8657600080fd5b50610f8f613d00565b6040518082815260200191505060405180910390f35b348015610fb157600080fd5b50610fde60048036036020811015610fc857600080fd5b8101908080359060200190929190505050613d21565b60405180806020018060200180602001858152602001848103845288818151815260200191508051906020019080838360005b8381101561102c578082015181840152602081019050611011565b50505050905090810190601f1680156110595780820380516001836020036101000a031916815260200191505b50848103835287818151815260200191508051906020019080838360005b83811015611092578082015181840152602081019050611077565b50505050905090810190601f1680156110bf5780820380516001836020036101000a031916815260200191505b50848103825286818151815260200191508051906020019080838360005b838110156110f85780820151818401526020810190506110dd565b50505050905090810190601f1680156111255780820380516001836020036101000a031916815260200191505b5097505050505050505060405180910390f35b34801561114457600080fd5b5061114d613f82565b6040518082815260200191505060405180910390f35b34801561116f57600080fd5b506112296004803603602081101561118657600080fd5b81019080803590602001906401000000008111156111a357600080fd5b8201836020820111156111b557600080fd5b803590602001918460018302840111640100000000831117156111d757600080fd5b91908080601f016020809104026020016040519081016040528093929190818152602001838380828437600081840152601f19601f820116905080830192505050505050509192919290505050613f8e565b005b34801561123757600080fd5b506112406143f5565b6040518082815260200191505060405180910390f35b34801561126257600080fd5b5061126b614414565b6040518082815260200191505060405180910390f35b34801561128d57600080fd5b506112ba600480360360208110156112a457600080fd5b810190808035906020019092919050505061445e565b6040518080602001828103825283818151815260200191508051906020019080838360005b838110156112fa5780820151818401526020810190506112df565b50505050905090810190601f1680156113275780820380516001836020036101000a031916815260200191505b509250505060405180910390f35b34801561134157600080fd5b506113fb6004803603602081101561135857600080fd5b810190808035906020019064010000000081111561137557600080fd5b82018360208201111561138757600080fd5b803590602001918460018302840111640100000000831117156113a957600080fd5b91908080601f016020809104026020016040519081016040528093929190818152602001838380828437600081840152601f19601f820116905080830192505050505050509192919290505050614520565b604051808215151515815260200191505060405180910390f35b34801561142157600080fd5b506114646004803603602081101561143857600080fd5b81019080803573ffffffffffffffffffffffffffffffffffffffff169060200190929190505050614adb565b005b34801561147257600080fd5b5061149f6004803603602081101561148957600080fd5b8101908080359060200190929190505050614baf565b60405180806020018060200180602001806020018060200186810386528b818151815260200191508051906020019080838360005b838110156114ef5780820151818401526020810190506114d4565b50505050905090810190601f16801561151c5780820380516001836020036101000a031916815260200191505b5086810385528a818151815260200191508051906020019080838360005b8381101561155557808201518184015260208101905061153a565b50505050905090810190601f1680156115825780820380516001836020036101000a031916815260200191505b50868103845289818151815260200191508051906020019080838360005b838110156115bb5780820151818401526020810190506115a0565b50505050905090810190601f1680156115e85780820380516001836020036101000a031916815260200191505b50868103835288818151815260200191508051906020019080838360005b83811015611621578082015181840152602081019050611606565b50505050905090810190601f16801561164e5780820380516001836020036101000a031916815260200191505b50868103825287818151815260200191508051906020019080838360005b8381101561168757808201518184015260208101905061166c565b50505050905090810190601f1680156116b45780820380516001836020036101000a031916815260200191505b509a505050505050505050505060405180910390f35b3480156116d657600080fd5b50611703600480360360208110156116ed57600080fd5b8101908080359060200190929190505050614f97565b60405180806020018060200180602001806020018060200186810386528b818151815260200191508051906020019080838360005b83811015611753578082015181840152602081019050611738565b50505050905090810190601f1680156117805780820380516001836020036101000a031916815260200191505b5086810385528a818151815260200191508051906020019080838360005b838110156117b957808201518184015260208101905061179e565b50505050905090810190601f1680156117e65780820380516001836020036101000a031916815260200191505b50868103845289818151815260200191508051906020019080838360005b8381101561181f578082015181840152602081019050611804565b50505050905090810190601f16801561184c5780820380516001836020036101000a031916815260200191505b50868103835288818151815260200191508051906020019080838360005b8381101561188557808201518184015260208101905061186a565b50505050905090810190601f1680156118b25780820380516001836020036101000a031916815260200191505b50868103825287818151815260200191508051906020019080838360005b838110156118eb5780820151818401526020810190506118d0565b50505050905090810190601f1680156119185780820380516001836020036101000a031916815260200191505b509a505050505050505050505060405180910390f35b336000600160008373ffffffffffffffffffffffffffffffffffffffff1673ffffffffffffffffffffffffffffffffffffffff1681526020019081526020016000206000018054600181600116156101000203166002900490501115156119fd576040517f08c379a00000000000000000000000000000000000000000000000000000000081526004018080602001828103825260198152602001807f74686973206e616d65206973206e6f7420657869737465642e0000000000000081525060200191505060405180910390fd5b81600073ffffffffffffffffffffffffffffffffffffffff166002826040518082805190602001908083835b602083101515611a4e5780518252602082019150602081019050602083039250611a29565b6001836020036101000a038019825116818451168082178552505050505050905001915050908152602001604051809103902060009054906101000a900473ffffffffffffffffffffffffffffffffffffffff1673ffffffffffffffffffffffffffffffffffffffff1614151515611b2e576040517f08c379a00000000000000000000000000000000000000000000000000000000081526004018080602001828103825260198152602001807f74686973206e616d65206973206e6f7420657869737465642e0000000000000081525060200191505060405180910390fd5b60006002846040518082805190602001908083835b602083101515611b685780518252602082019150602081019050602083039250611b43565b6001836020036101000a038019825116818451168082178552505050505050905001915050908152602001604051809103902060009054906101000a900473ffffffffffffffffffffffffffffffffffffffff169050600360003373ffffffffffffffffffffffffffffffffffffffff1673ffffffffffffffffffffffffffffffffffffffff1681526020019081526020016000208190806001815401808255809150509060018203906000526020600020016000909192909190916101000a81548173ffffffffffffffffffffffffffffffffffffffff021916908373ffffffffffffffffffffffffffffffffffffffff1602179055505050505050565b6000600660003373ffffffffffffffffffffffffffffffffffffffff1673ffffffffffffffffffffffffffffffffffffffff16815260200190815260200160002080549050905090565b6000611cbb614414565b82101515611d31576040517f08c379a00000000000000000000000000000000000000000000000000000000081526004018080602001828103825260128152602001807f696e646578206f7574206f6620626f756e64000000000000000000000000000081525060200191505060405180910390fd5b600360003373ffffffffffffffffffffffffffffffffffffffff1673ffffffffffffffffffffffffffffffffffffffff16815260200190815260200160002082815481101515611d7d57fe5b9060005260206000200160009054906101000a900473ffffffffffffffffffffffffffffffffffffffff169050919050565b6000600480549050905090565b611dc461380b565b1515611e84576040517f08c379a00000000000000000000000000000000000000000000000000000000081526004018080602001828103825260428152602001807f7065726d697373696f6e2064656e6965642c206f6e6c79206f776e6572206f6681526020017f207468697320636f6e74726163742068617320746865207065726d697373696f81526020017f6e2e00000000000000000000000000000000000000000000000000000000000081525060600191505060405180910390fd5b670de0b6b3a764000081023073ffffffffffffffffffffffffffffffffffffffff163110151515611f1d576040517f08c379a000000000000000000000000000000000000000000000000000000000815260040180806020018281038252601b8152602001807f636f6e74726163742062616c616e6365206e6f7420656e6f756768000000000081525060200191505060405180910390fd5b8173ffffffffffffffffffffffffffffffffffffffff166108fc60085483029081150290604051600060405180830381858888f19350505050158015611f67573d6000803e3d6000fd5b505050565b60608060606000806000611f7e6153b6565b809350819450829550505050611f9383613348565b611f9c83613348565b611fa583613348565b955095509550505050909192565b600060056000838152602001908152602001600020549050919050565b600082600073ffffffffffffffffffffffffffffffffffffffff168173ffffffffffffffffffffffffffffffffffffffff1614151515612078576040517f08c379a00000000000000000000000000000000000000000000000000000000081526004018080602001828103825260108152602001807f696e76616c696420616464726573732e0000000000000000000000000000000081525060200191505060405180910390fd5b8373ffffffffffffffffffffffffffffffffffffffff166108fc349081150290604051600060405180830381858888f193505050501580156120be573d6000803e3d6000fd5b503460056000858152602001908152602001600020600082825401925050819055503391505092915050565b60003073ffffffffffffffffffffffffffffffffffffffff1631905090565b336000600160008373ffffffffffffffffffffffffffffffffffffffff1673ffffffffffffffffffffffffffffffffffffffff1681526020019081526020016000206000018054600181600116156101000203166002900490501115156121d8576040517f08c379a00000000000000000000000000000000000000000000000000000000081526004018080602001828103825260198152602001807f74686973206e616d65206973206e6f7420657869737465642e0000000000000081525060200191505060405180910390fd5b81600073ffffffffffffffffffffffffffffffffffffffff166002826040518082805190602001908083835b6020831015156122295780518252602082019150602081019050602083039250612204565b6001836020036101000a038019825116818451168082178552505050505050905001915050908152602001604051809103902060009054906101000a900473ffffffffffffffffffffffffffffffffffffffff1673ffffffffffffffffffffffffffffffffffffffff1614151515612309576040517f08c379a00000000000000000000000000000000000000000000000000000000081526004018080602001828103825260198152602001807f74686973206e616d65206973206e6f7420657869737465642e0000000000000081525060200191505060405180910390fd5b60006002846040518082805190602001908083835b602083101515612343578051825260208201915060208101905060208303925061231e565b6001836020036101000a038019825116818451168082178552505050505050905001915050908152602001604051809103902060009054906101000a900473ffffffffffffffffffffffffffffffffffffffff1690506000600360003373ffffffffffffffffffffffffffffffffffffffff1673ffffffffffffffffffffffffffffffffffffffff16815260200190815260200160002080549050905060008090505b81811015612566576000600360003373ffffffffffffffffffffffffffffffffffffffff1673ffffffffffffffffffffffffffffffffffffffff1681526020019081526020016000208281548110151561243c57fe5b9060005260206000200160009054906101000a900473ffffffffffffffffffffffffffffffffffffffff169050600073ffffffffffffffffffffffffffffffffffffffff168173ffffffffffffffffffffffffffffffffffffffff1614156124a45750612559565b8073ffffffffffffffffffffffffffffffffffffffff168473ffffffffffffffffffffffffffffffffffffffff16141561255757600360003373ffffffffffffffffffffffffffffffffffffffff1673ffffffffffffffffffffffffffffffffffffffff1681526020019081526020016000208281548110151561252457fe5b9060005260206000200160006101000a81549073ffffffffffffffffffffffffffffffffffffffff021916905550612566565b505b80806001019150506123e6565b505050505050565b336000600160008373ffffffffffffffffffffffffffffffffffffffff1673ffffffffffffffffffffffffffffffffffffffff16815260200190815260200160002060000180546001816001161561010002031660029004905011151561263d576040517f08c379a00000000000000000000000000000000000000000000000000000000081526004018080602001828103825260198152602001807f74686973206e616d65206973206e6f7420657869737465642e0000000000000081525060200191505060405180910390fd5b83600073ffffffffffffffffffffffffffffffffffffffff166002826040518082805190602001908083835b60208310151561268e5780518252602082019150602081019050602083039250612669565b6001836020036101000a038019825116818451168082178552505050505050905001915050908152602001604051809103902060009054906101000a900473ffffffffffffffffffffffffffffffffffffffff1673ffffffffffffffffffffffffffffffffffffffff161415151561276e576040517f08c379a00000000000000000000000000000000000000000000000000000000081526004018080602001828103825260198152602001807f74686973206e616d65206973206e6f7420657869737465642e0000000000000081525060200191505060405180910390fd5b612776615bdb565b600160003373ffffffffffffffffffffffffffffffffffffffff1673ffffffffffffffffffffffffffffffffffffffff16815260200190815260200160002060a06040519081016040529081600082018054600181600116156101000203166002900480601f01602080910402602001604051908101604052809291908181526020018280546001816001161561010002031660029004801561285a5780601f1061282f5761010080835404028352916020019161285a565b820191906000526020600020905b81548152906001019060200180831161283d57829003601f168201915b50505050508152602001600182018054600181600116156101000203166002900480601f0160208091040260200160405190810160405280929190818152602001828054600181600116156101000203166002900480156128fc5780601f106128d1576101008083540402835291602001916128fc565b820191906000526020600020905b8154815290600101906020018083116128df57829003601f168201915b50505050508152602001600282018054600181600116156101000203166002900480601f01602080910402602001604051908101604052809291908181526020018280546001816001161561010002031660029004801561299e5780601f106129735761010080835404028352916020019161299e565b820191906000526020600020905b81548152906001019060200180831161298157829003601f168201915b50505050508152602001600382018054600181600116156101000203166002900480601f016020809104026020016040519081016040528092919081815260200182805460018160011615610100020316600290048015612a405780601f10612a1557610100808354040283529160200191612a40565b820191906000526020600020905b815481529060010190602001808311612a2357829003601f168201915b50505050508152602001600482018054600181600116156101000203166002900480601f016020809104026020016040519081016040528092919081815260200182805460018160011615610100020316600290048015612ae25780601f10612ab757610100808354040283529160200191612ae2565b820191906000526020600020905b815481529060010190602001808311612ac557829003601f168201915b5050505050815250509050612afd8160000151878787615438565b505050505050565b6000600954905090565b600660205281600052604060002081815481101515612b2a57fe5b906000526020600020906006020160009150915050806000015490806001018054600181600116156101000203166002900480601f016020809104026020016040519081016040528092919081815260200182805460018160011615610100020316600290048015612bdd5780601f10612bb257610100808354040283529160200191612bdd565b820191906000526020600020905b815481529060010190602001808311612bc057829003601f168201915b505050505090806002018054600181600116156101000203166002900480601f016020809104026020016040519081016040528092919081815260200182805460018160011615610100020316600290048015612c7b5780601f10612c5057610100808354040283529160200191612c7b565b820191906000526020600020905b815481529060010190602001808311612c5e57829003601f168201915b505050505090806003018054600181600116156101000203166002900480601f016020809104026020016040519081016040528092919081815260200182805460018160011615610100020316600290048015612d195780601f10612cee57610100808354040283529160200191612d19565b820191906000526020600020905b815481529060010190602001808311612cfc57829003601f168201915b505050505090806004018054600181600116156101000203166002900480601f016020809104026020016040519081016040528092919081815260200182805460018160011615610100020316600290048015612db75780601f10612d8c57610100808354040283529160200191612db7565b820191906000526020600020905b815481529060010190602001808311612d9a57829003601f168201915b505050505090806005018054600181600116156101000203166002900480601f016020809104026020016040519081016040528092919081815260200182805460018160011615610100020316600290048015612e555780601f10612e2a57610100808354040283529160200191612e55565b820191906000526020600020905b815481529060010190602001808311612e3857829003601f168201915b5050505050905086565b600a544210151515612ed9576040517f08c379a000000000000000000000000000000000000000000000000000000000815260040180806020018281038252601a8152602001807f7468652067616d652063616e6e6f7420626520656e64206e6f7700000000000081525060200191505060405180910390fd5b612ee1615613565b612ee9615782565b565b6000612ef68261445e565b600073ffffffffffffffffffffffffffffffffffffffff166002826040518082805190602001908083835b602083101515612f465780518252602082019150602081019050602083039250612f21565b6001836020036101000a038019825116818451168082178552505050505050905001915050908152602001604051809103902060009054906101000a900473ffffffffffffffffffffffffffffffffffffffff1673ffffffffffffffffffffffffffffffffffffffff1614151515613026576040517f08c379a00000000000000000000000000000000000000000000000000000000081526004018080602001828103825260198152602001807f74686973206e616d65206973206e6f7420657869737465642e0000000000000081525060200191505060405180910390fd5b60606130318461445e565b905060006002826040518082805190602001908083835b60208310151561306d5780518252602082019150602081019050602083039250613048565b6001836020036101000a038019825116818451168082178552505050505050905001915050908152602001604051809103902060009054906101000a900473ffffffffffffffffffffffffffffffffffffffff16905060006130cf8287611fd0565b905080945050505050919050565b6008543410151515613157576040517f08c379a000000000000000000000000000000000000000000000000000000000815260040180806020018281038252601c8152602001807f73686f756c6420706179206d6f7265207468616e20312065746865720000000081525060200191505060405180910390fd5b60006008543481151561316657fe5b04905060006008548202340390503373ffffffffffffffffffffffffffffffffffffffff166108fc829081150290604051600060405180830381858888f193505050501580156131ba573d6000803e3d6000fd5b505050565b6131c761380b565b1515613287576040517f08c379a00000000000000000000000000000000000000000000000000000000081526004018080602001828103825260428152602001807f7065726d697373696f6e2064656e6965642c206f6e6c79206f776e6572206f6681526020017f207468697320636f6e74726163742068617320746865207065726d697373696f81526020017f6e2e00000000000000000000000000000000000000000000000000000000000081525060600191505060405180910390fd5b600073ffffffffffffffffffffffffffffffffffffffff16600760009054906101000a900473ffffffffffffffffffffffffffffffffffffffff1673ffffffffffffffffffffffffffffffffffffffff167f8be0079c531659141344cd1fd0a4f28419497f9722a3daafe3b4186f6b6457e060405160405180910390a36000600760006101000a81548173ffffffffffffffffffffffffffffffffffffffff021916908373ffffffffffffffffffffffffffffffffffffffff160217905550565b6060613352615bdb565b600160008473ffffffffffffffffffffffffffffffffffffffff1673ffffffffffffffffffffffffffffffffffffffff16815260200190815260200160002060a06040519081016040529081600082018054600181600116156101000203166002900480601f0160208091040260200160405190810160405280929190818152602001828054600181600116156101000203166002900480156134365780601f1061340b57610100808354040283529160200191613436565b820191906000526020600020905b81548152906001019060200180831161341957829003601f168201915b50505050508152602001600182018054600181600116156101000203166002900480601f0160208091040260200160405190810160405280929190818152602001828054600181600116156101000203166002900480156134d85780601f106134ad576101008083540402835291602001916134d8565b820191906000526020600020905b8154815290600101906020018083116134bb57829003601f168201915b50505050508152602001600282018054600181600116156101000203166002900480601f01602080910402602001604051908101604052809291908181526020018280546001816001161561010002031660029004801561357a5780601f1061354f5761010080835404028352916020019161357a565b820191906000526020600020905b81548152906001019060200180831161355d57829003601f168201915b50505050508152602001600382018054600181600116156101000203166002900480601f01602080910402602001604051908101604052809291908181526020018280546001816001161561010002031660029004801561361c5780601f106135f15761010080835404028352916020019161361c565b820191906000526020600020905b8154815290600101906020018083116135ff57829003601f168201915b50505050508152602001600482018054600181600116156101000203166002900480601f0160208091040260200160405190810160405280929190818152602001828054600181600116156101000203166002900480156136be5780601f10613693576101008083540402835291602001916136be565b820191906000526020600020905b8154815290600101906020018083116136a157829003601f168201915b50505050508152505090508060000151915050919050565b80600660003373ffffffffffffffffffffffffffffffffffffffff1673ffffffffffffffffffffffffffffffffffffffff1681526020019081526020016000208381548110151561372357fe5b90600052602060002090600602016005019080519060200190613747929190615c0b565b505050565b6000600760009054906101000a900473ffffffffffffffffffffffffffffffffffffffff16905090565b60006002826040518082805190602001908083835b6020831015156137b0578051825260208201915060208101905060208303925061378b565b6001836020036101000a038019825116818451168082178552505050505050905001915050908152602001604051809103902060009054906101000a900473ffffffffffffffffffffffffffffffffffffffff169050919050565b6000600760009054906101000a900473ffffffffffffffffffffffffffffffffffffffff1673ffffffffffffffffffffffffffffffffffffffff163373ffffffffffffffffffffffffffffffffffffffff1614905090565b670de0b6b3a764000034101515156138e3576040517f08c379a00000000000000000000000000000000000000000000000000000000081526004018080602001828103825260208152602001807f6e65656420746f2070617920666f72206174206c65617374203120657468657281525060200191505060405180910390fd5b6000670de0b6b3a7640000340390503373ffffffffffffffffffffffffffffffffffffffff166108fc829081150290604051600060405180830381858888f19350505050158015613938573d6000803e3d6000fd5b50600061394760095484615840565b905060008190507fffffffffffffffffffffffffffffffffffffffffffffffffffffffffffffffff600e600060038110151561397f57fe5b0154148061399d5750600e600060038110151561399857fe5b015481125b15613b1257600e60016003811015156139b257fe5b0154600e60026003811015156139c457fe5b0181905550600e60006003811015156139d957fe5b0154600e60016003811015156139eb57fe5b018190555080600e6000600381101515613a0157fe5b0181905550600c60009054906101000a900473ffffffffffffffffffffffffffffffffffffffff16600d60006101000a81548173ffffffffffffffffffffffffffffffffffffffff021916908373ffffffffffffffffffffffffffffffffffffffff160217905550600b60009054906101000a900473ffffffffffffffffffffffffffffffffffffffff16600c60006101000a81548173ffffffffffffffffffffffffffffffffffffffff021916908373ffffffffffffffffffffffffffffffffffffffff16021790555033600b60006101000a81548173ffffffffffffffffffffffffffffffffffffffff021916908373ffffffffffffffffffffffffffffffffffffffff160217905550613cfa565b7fffffffffffffffffffffffffffffffffffffffffffffffffffffffffffffffff600e6001600381101515613b4357fe5b01541480613b615750600e6001600381101515613b5c57fe5b015481125b15613c4c57600e6001600381101515613b7657fe5b0154600e6002600381101515613b8857fe5b018190555080600e6001600381101515613b9e57fe5b0181905550600c60009054906101000a900473ffffffffffffffffffffffffffffffffffffffff16600d60006101000a81548173ffffffffffffffffffffffffffffffffffffffff021916908373ffffffffffffffffffffffffffffffffffffffff16021790555033600c60006101000a81548173ffffffffffffffffffffffffffffffffffffffff021916908373ffffffffffffffffffffffffffffffffffffffff160217905550613cf9565b7fffffffffffffffffffffffffffffffffffffffffffffffffffffffffffffffff600e6002600381101515613c7d57fe5b01541480613c9b5750600e6002600381101515613c9657fe5b015481125b15613cf85780600e6002600381101515613cb157fe5b018190555033600d60006101000a81548173ffffffffffffffffffffffffffffffffffffffff021916908373ffffffffffffffffffffffffffffffffffffffff1602179055505b5b5b50505050565b600042600a54111515613d165760009050613d1e565b42600a540390505b90565b60608060606000613d30615c8b565b600486815481101515613d3f57fe5b906000526020600020906005020160a0604051908101604052908160008201548152602001600182018054600181600116156101000203166002900480601f016020809104026020016040519081016040528092919081815260200182805460018160011615610100020316600290048015613dfc5780601f10613dd157610100808354040283529160200191613dfc565b820191906000526020600020905b815481529060010190602001808311613ddf57829003601f168201915b50505050508152602001600282018054600181600116156101000203166002900480601f016020809104026020016040519081016040528092919081815260200182805460018160011615610100020316600290048015613e9e5780601f10613e7357610100808354040283529160200191613e9e565b820191906000526020600020905b815481529060010190602001808311613e8157829003601f168201915b50505050508152602001600382018054600181600116156101000203166002900480601f016020809104026020016040519081016040528092919081815260200182805460018160011615610100020316600290048015613f405780601f10613f1557610100808354040283529160200191613f40565b820191906000526020600020905b815481529060010190602001808311613f2357829003601f168201915b50505050508152602001600482015481525050905080602001518160400151826060015183608001518393508292508191509450945094509450509193509193565b60008080549050905090565b336000600160008373ffffffffffffffffffffffffffffffffffffffff1673ffffffffffffffffffffffffffffffffffffffff16815260200190815260200160002060000180546001816001161561010002031660029004905011151561405d576040517f08c379a00000000000000000000000000000000000000000000000000000000081526004018080602001828103825260198152602001807f74686973206e616d65206973206e6f7420657869737465642e0000000000000081525060200191505060405180910390fd5b614065615bdb565b600160003373ffffffffffffffffffffffffffffffffffffffff1673ffffffffffffffffffffffffffffffffffffffff16815260200190815260200160002060a06040519081016040529081600082018054600181600116156101000203166002900480601f0160208091040260200160405190810160405280929190818152602001828054600181600116156101000203166002900480156141495780601f1061411e57610100808354040283529160200191614149565b820191906000526020600020905b81548152906001019060200180831161412c57829003601f168201915b50505050508152602001600182018054600181600116156101000203166002900480601f0160208091040260200160405190810160405280929190818152602001828054600181600116156101000203166002900480156141eb5780601f106141c0576101008083540402835291602001916141eb565b820191906000526020600020905b8154815290600101906020018083116141ce57829003601f168201915b50505050508152602001600282018054600181600116156101000203166002900480601f01602080910402602001604051908101604052809291908181526020018280546001816001161561010002031660029004801561428d5780601f106142625761010080835404028352916020019161428d565b820191906000526020600020905b81548152906001019060200180831161427057829003601f168201915b50505050508152602001600382018054600181600116156101000203166002900480601f01602080910402602001604051908101604052809291908181526020018280546001816001161561010002031660029004801561432f5780601f106143045761010080835404028352916020019161432f565b820191906000526020600020905b81548152906001019060200180831161431257829003601f168201915b50505050508152602001600482018054600181600116156101000203166002900480601f0160208091040260200160405190810160405280929190818152602001828054600181600116156101000203166002900480156143d15780601f106143a6576101008083540402835291602001916143d1565b820191906000526020600020905b8154815290600101906020018083116143b457829003601f168201915b50505050508152505090506143ef8160000151848360200151615860565b50505050565b60003073ffffffffffffffffffffffffffffffffffffffff1631905090565b6000600360003373ffffffffffffffffffffffffffffffffffffffff1673ffffffffffffffffffffffffffffffffffffffff16815260200190815260200160002080549050905090565b606060048281548110151561446f57fe5b90600052602060002090600502016001018054600181600116156101000203166002900480601f0160208091040260200160405190810160405280929190818152602001828054600181600116156101000203166002900480156145145780601f106144e957610100808354040283529160200191614514565b820191906000526020600020905b8154815290600101906020018083116144f757829003601f168201915b50505050509050919050565b600081600281511115156145c2576040517f08c379a00000000000000000000000000000000000000000000000000000000081526004018080602001828103825260288152602001807f746865206c656e677468206f662061206e616d65206d7573742067726561746581526020017f72207468616e203200000000000000000000000000000000000000000000000081525060400191505060405180910390fd5b82600073ffffffffffffffffffffffffffffffffffffffff166002826040518082805190602001908083835b60208310151561461357805182526020820191506020810190506020830392506145ee565b6001836020036101000a038019825116818451168082178552505050505050905001915050908152602001604051809103902060009054906101000a900473ffffffffffffffffffffffffffffffffffffffff1673ffffffffffffffffffffffffffffffffffffffff161415156146f2576040517f08c379a00000000000000000000000000000000000000000000000000000000081526004018080602001828103825260188152602001807f74686973206e616d6520686173206265656e20757365642e000000000000000081525060200191505060405180910390fd5b336000600160008373ffffffffffffffffffffffffffffffffffffffff1673ffffffffffffffffffffffffffffffffffffffff1681526020019081526020016000206000018054600181600116156101000203166002900490501415156147c1576040517f08c379a000000000000000000000000000000000000000000000000000000000815260040180806020018281038252601b8152602001807f796f7520686176652072656769737465726564206265666f72652e000000000081525060200191505060405180910390fd5b600060a0604051908101604052808781526020016020604051908101604052806000815250815260200160206040519081016040528060008152508152602001602060405190810160405280600081525081526020016020604051908101604052806000815250815250908060018154018082558091505090600182039060005260206000209060050201600090919290919091506000820151816000019080519060200190614872929190615cbb565b50602082015181600101908051906020019061488f929190615cbb565b5060408201518160020190805190602001906148ac929190615cbb565b5060608201518160030190805190602001906148c9929190615cbb565b5060808201518160040190805190602001906148e6929190615cbb565b50505050336002866040518082805190602001908083835b60208310151561492357805182526020820191506020810190506020830392506148fe565b6001836020036101000a038019825116818451168082178552505050505050905001915050908152602001604051809103902060006101000a81548173ffffffffffffffffffffffffffffffffffffffff021916908373ffffffffffffffffffffffffffffffffffffffff16021790555060a0604051908101604052808681526020016020604051908101604052806000815250815260200160206040519081016040528060008152508152602001602060405190810160405280600081525081526020016020604051908101604052806000815250815250600160003373ffffffffffffffffffffffffffffffffffffffff1673ffffffffffffffffffffffffffffffffffffffff1681526020019081526020016000206000820151816000019080519060200190614a57929190615cbb565b506020820151816001019080519060200190614a74929190615cbb565b506040820151816002019080519060200190614a91929190615cbb565b506060820151816003019080519060200190614aae929190615cbb565b506080820151816004019080519060200190614acb929190615cbb565b5090505060019350505050919050565b614ae361380b565b1515614ba3576040517f08c379a00000000000000000000000000000000000000000000000000000000081526004018080602001828103825260428152602001807f7065726d697373696f6e2064656e6965642c206f6e6c79206f776e6572206f6681526020017f207468697320636f6e74726163742068617320746865207065726d697373696f81526020017f6e2e00000000000000000000000000000000000000000000000000000000000081525060600191505060405180910390fd5b614bac816159fe565b50565b6060806060806060614bbf615d3b565b600660003373ffffffffffffffffffffffffffffffffffffffff1673ffffffffffffffffffffffffffffffffffffffff16815260200190815260200160002087815481101515614c0b57fe5b906000526020600020906006020160c0604051908101604052908160008201548152602001600182018054600181600116156101000203166002900480601f016020809104026020016040519081016040528092919081815260200182805460018160011615610100020316600290048015614cc85780601f10614c9d57610100808354040283529160200191614cc8565b820191906000526020600020905b815481529060010190602001808311614cab57829003601f168201915b50505050508152602001600282018054600181600116156101000203166002900480601f016020809104026020016040519081016040528092919081815260200182805460018160011615610100020316600290048015614d6a5780601f10614d3f57610100808354040283529160200191614d6a565b820191906000526020600020905b815481529060010190602001808311614d4d57829003601f168201915b50505050508152602001600382018054600181600116156101000203166002900480601f016020809104026020016040519081016040528092919081815260200182805460018160011615610100020316600290048015614e0c5780601f10614de157610100808354040283529160200191614e0c565b820191906000526020600020905b815481529060010190602001808311614def57829003601f168201915b50505050508152602001600482018054600181600116156101000203166002900480601f016020809104026020016040519081016040528092919081815260200182805460018160011615610100020316600290048015614eae5780601f10614e8357610100808354040283529160200191614eae565b820191906000526020600020905b815481529060010190602001808311614e9157829003601f168201915b50505050508152602001600582018054600181600116156101000203166002900480601f016020809104026020016040519081016040528092919081815260200182805460018160011615610100020316600290048015614f505780601f10614f2557610100808354040283529160200191614f50565b820191906000526020600020905b815481529060010190602001808311614f3357829003601f168201915b505050505081525050905080602001518160400151826060015183608001518460a00151849450839350829250819150809050955095509550955095505091939590929450565b6060806060806060614fa7613f82565b8610151561501d576040517f08c379a00000000000000000000000000000000000000000000000000000000081526004018080602001828103825260128152602001807f696e646578206f7574206f6620626f756e64000000000000000000000000000081525060200191505060405180910390fd5b615025615bdb565b60008781548110151561503457fe5b906000526020600020906005020160a06040519081016040529081600082018054600181600116156101000203166002900480601f0160208091040260200160405190810160405280929190818152602001828054600181600116156101000203166002900480156150e75780601f106150bc576101008083540402835291602001916150e7565b820191906000526020600020905b8154815290600101906020018083116150ca57829003601f168201915b50505050508152602001600182018054600181600116156101000203166002900480601f0160208091040260200160405190810160405280929190818152602001828054600181600116156101000203166002900480156151895780601f1061515e57610100808354040283529160200191615189565b820191906000526020600020905b81548152906001019060200180831161516c57829003601f168201915b50505050508152602001600282018054600181600116156101000203166002900480601f01602080910402602001604051908101604052809291908181526020018280546001816001161561010002031660029004801561522b5780601f106152005761010080835404028352916020019161522b565b820191906000526020600020905b81548152906001019060200180831161520e57829003601f168201915b50505050508152602001600382018054600181600116156101000203166002900480601f0160208091040260200160405190810160405280929190818152602001828054600181600116156101000203166002900480156152cd5780601f106152a2576101008083540402835291602001916152cd565b820191906000526020600020905b8154815290600101906020018083116152b057829003601f168201915b50505050508152602001600482018054600181600116156101000203166002900480601f01602080910402602001604051908101604052809291908181526020018280546001816001161561010002031660029004801561536f5780601f106153445761010080835404028352916020019161536f565b820191906000526020600020905b81548152906001019060200180831161535257829003601f168201915b505050505081525050905080600001518160200151826040015183606001518460800151849450839350829250819150809050955095509550955095505091939590929450565b6000806000600b60009054906101000a900473ffffffffffffffffffffffffffffffffffffffff16600c60009054906101000a900473ffffffffffffffffffffffffffffffffffffffff16600d60009054906101000a900473ffffffffffffffffffffffffffffffffffffffff16829250819150809050925092509250909192565b60006001600660003373ffffffffffffffffffffffffffffffffffffffff1673ffffffffffffffffffffffffffffffffffffffff16815260200190815260200160002060c060405190810160405280600081526020018881526020018781526020018681526020018581526020016040805190810160405280600481526020017f6e756c6c0000000000000000000000000000000000000000000000000000000081525081525090806001815401808255809150509060018203906000526020600020906006020160009091929091909150600082015181600001556020820151816001019080519060200190615530929190615cbb565b50604082015181600201908051906020019061554d929190615cbb565b50606082015181600301908051906020019061556a929190615cbb565b506080820151816004019080519060200190615587929190615cbb565b5060a08201518160050190805190602001906155a4929190615cbb565b50505003905080600660003373ffffffffffffffffffffffffffffffffffffffff1673ffffffffffffffffffffffffffffffffffffffff168152602001908152602001600020828154811015156155f757fe5b9060005260206000209060060201600001819055505050505050565b600060063073ffffffffffffffffffffffffffffffffffffffff163181151561563857fe5b049050600b60009054906101000a900473ffffffffffffffffffffffffffffffffffffffff1673ffffffffffffffffffffffffffffffffffffffff166108fc600383029081150290604051600060405180830381858888f193505050501580156156a6573d6000803e3d6000fd5b50600c60009054906101000a900473ffffffffffffffffffffffffffffffffffffffff1673ffffffffffffffffffffffffffffffffffffffff166108fc600283029081150290604051600060405180830381858888f19350505050158015615712573d6000803e3d6000fd5b50600d60009054906101000a900473ffffffffffffffffffffffffffffffffffffffff1673ffffffffffffffffffffffffffffffffffffffff166108fc600183029081150290604051600060405180830381858888f1935050505015801561577e573d6000803e3d6000fd5b5050565b6014600a5401600a81905550615796615b89565b6009819055507fffffffffffffffffffffffffffffffffffffffffffffffffffffffffffffffff600e60006003811015156157cd57fe5b01819055507fffffffffffffffffffffffffffffffffffffffffffffffffffffffffffffffff600e600160038110151561580357fe5b01819055507fffffffffffffffffffffffffffffffffffffffffffffffffffffffffffffffff600e600260038110151561583957fe5b0181905550565b60008183111561585457818303905061585a565b82820390505b92915050565b60008260008151111515615902576040517f08c379a000000000000000000000000000000000000000000000000000000000815260040180806020018281038252602b8152602001807f746865206c656e677468206f66206120636f6d6d656e74206d7573742067726581526020017f61746572207468616e203000000000000000000000000000000000000000000081525060400191505060405180910390fd5b60006001600460a060405190810160405280600081526020018981526020018881526020018781526020014281525090806001815401808255809150509060018203906000526020600020906005020160009091929091909150600082015181600001556020820151816001019080519060200190615982929190615cbb565b50604082015181600201908051906020019061599f929190615cbb565b5060608201518160030190805190602001906159bc929190615cbb565b50608082015181600401555050039050806004828154811015156159dc57fe5b9060005260206000209060050201600001819055506001925050509392505050565b600073ffffffffffffffffffffffffffffffffffffffff168173ffffffffffffffffffffffffffffffffffffffff1614151515615ac9576040517f08c379a00000000000000000000000000000000000000000000000000000000081526004018080602001828103825260288152602001807f746865206e65774f776e6572277320616464726573732073686f756c64206e6f81526020017f742062652030783000000000000000000000000000000000000000000000000081525060400191505060405180910390fd5b8073ffffffffffffffffffffffffffffffffffffffff16600760009054906101000a900473ffffffffffffffffffffffffffffffffffffffff1673ffffffffffffffffffffffffffffffffffffffff167f8be0079c531659141344cd1fd0a4f28419497f9722a3daafe3b4186f6b6457e060405160405180910390a380600760006101000a81548173ffffffffffffffffffffffffffffffffffffffff021916908373ffffffffffffffffffffffffffffffffffffffff16021790555050565b60008060109050600081600a0a905060004260405160200180828152602001915050604051602081830303815290604052805190602001206001900490508181811515615bd257fe5b06935050505090565b60a06040519081016040528060608152602001606081526020016060815260200160608152602001606081525090565b828054600181600116156101000203166002900490600052602060002090601f016020900481019282601f10615c4c57805160ff1916838001178555615c7a565b82800160010185558215615c7a579182015b82811115615c79578251825591602001919060010190615c5e565b5b509050615c879190615d72565b5090565b60a06040519081016040528060008152602001606081526020016060815260200160608152602001600081525090565b828054600181600116156101000203166002900490600052602060002090601f016020900481019282601f10615cfc57805160ff1916838001178555615d2a565b82800160010185558215615d2a579182015b82811115615d29578251825591602001919060010190615d0e565b5b509050615d379190615d72565b5090565b60c0604051908101604052806000815260200160608152602001606081526020016060815260200160608152602001606081525090565b615d9491905b80821115615d90576000816000905550600101615d78565b5090565b9056fea165627a7a723058207295f26fdad4ac8d98974a7519e53efb74686643c3ed398765353e22cda39cd20029",
  "source": "pragma solidity ^0.5.0;\r\n\r\nimport \"./UserManager.sol\";\r\nimport \"./CommentManager.sol\";\r\nimport \"./MailManager.sol\";\r\nimport \"./CharityManager.sol\";\r\nimport \"./GameManager.sol\";\r\n\r\ncontract SuperCommunity is UserManager, CommentManager, MailManager, CharityManager, GameManager {\r\n    \r\n    function sendComment(string memory _comment) public registered(msg.sender) {\r\n\r\n        // the sender should have registered\r\n        User memory user = addrToUser[msg.sender];\r\n        addComment(user.name, _comment, user.head_img);\r\n    }\r\n\r\n    function rewardComment(uint _id) public payable existName(getNameByCommentId(_id)) returns(address) {\r\n\r\n        // the name should exist\r\n        string memory name = getNameByCommentId(_id);\r\n        address payable to = nameToAddr[name];\r\n        address sender = rewardByAddr(to, _id);\r\n        return sender;\r\n    }\r\n\r\n    function sendMail(string memory _to, string memory _title, string memory _text) public\r\n        registered(msg.sender)\r\n        existName(_to) {\r\n\r\n        // the sender should have registered and so do the receiver\r\n        User memory user = addrToUser[msg.sender];\r\n        addMail(user.name, _to, _title, _text);\r\n    }\r\n\r\n    function getWinnerName() public view returns(string memory, string memory, string memory) {\r\n\r\n        address addr1;\r\n        address addr2;\r\n        address addr3;\r\n        (addr1, addr2, addr3) = getWinner();\r\n        return (getNameByAddr(addr1), getNameByAddr(addr2), getNameByAddr(addr3));\r\n    }\r\n}",
  "sourcePath": "/home/tao/blockchain/privateChain/webpack/contracts/SuperCommunity.sol",
  "compiler": {
    "name": "solc",
    "version": "0.5.0+commit.1d4f565a.Emscripten.clang"
  },
  "schemaVersion": "3.0.0",
  "updatedAt": "2018-12-28T12:54:08.416Z",
  "devdoc": {
    "methods": {
      "isOwner()": {
        "return": "true if `msg.sender` is the owner of the contract.\r"
      },
      "owner()": {
        "return": "the address of the owner.\r"
      },
      "renounceOwnership()": {
        "details": "Allows the current owner to relinquish control of the contract.\r"
      },
      "transferOwnership(address)": {
        "details": "Allows the current owner to transfer control of the contract to a newOwner.\r",
        "params": {
          "newOwner": "The address to transfer ownership to.\r"
        }
      }
    }
  },
  "userdoc": {
    "methods": {
      "renounceOwnership()": {
        "notice": "Renouncing to ownership will leave the contract without an owner.\r It will not be possible to call the functions with the `onlyOwner`\r modifier anymore.\r"
      }
    }
  }
}