{
  "contractName": "SuperCommunity",
  "abi": [
    {
      "constant": false,
      "inputs": [
        {
          "name": "_name",
          "type": "string"
        }
      ],
      "name": "watch",
      "outputs": [],
      "payable": false,
      "stateMutability": "nonpayable",
      "type": "function"
    },
    {
      "constant": true,
      "inputs": [],
      "name": "getMailCount",
      "outputs": [
        {
          "name": "",
          "type": "uint256"
        }
      ],
      "payable": false,
      "stateMutability": "view",
      "type": "function"
    },
    {
      "constant": true,
      "inputs": [
        {
          "name": "_index",
          "type": "uint256"
        }
      ],
      "name": "getWatchesByIndex",
      "outputs": [
        {
          "name": "",
          "type": "address"
        }
      ],
      "payable": false,
      "stateMutability": "view",
      "type": "function"
    },
    {
      "constant": true,
      "inputs": [],
      "name": "getCommentCount",
      "outputs": [
        {
          "name": "",
          "type": "uint256"
        }
      ],
      "payable": false,
      "stateMutability": "view",
      "type": "function"
    },
    {
      "constant": false,
      "inputs": [
        {
          "name": "_to",
          "type": "address"
        },
        {
          "name": "_amout",
          "type": "uint256"
        }
      ],
      "name": "donateFromCharity",
      "outputs": [],
      "payable": false,
      "stateMutability": "nonpayable",
      "type": "function"
    },
    {
      "constant": false,
      "inputs": [
        {
          "name": "_to",
          "type": "address"
        },
        {
          "name": "_id",
          "type": "uint256"
        }
      ],
      "name": "rewardByAddr",
      "outputs": [
        {
          "name": "",
          "type": "address"
        }
      ],
      "payable": true,
      "stateMutability": "payable",
      "type": "function"
    },
    {
      "constant": true,
      "inputs": [],
      "name": "getCharityBalance",
      "outputs": [
        {
          "name": "",
          "type": "uint256"
        }
      ],
      "payable": false,
      "stateMutability": "view",
      "type": "function"
    },
    {
      "constant": false,
      "inputs": [
        {
          "name": "_name",
          "type": "string"
        }
      ],
      "name": "unwatch",
      "outputs": [],
      "payable": false,
      "stateMutability": "nonpayable",
      "type": "function"
    },
    {
      "constant": true,
      "inputs": [
        {
          "name": "",
          "type": "address"
        },
        {
          "name": "",
          "type": "uint256"
        }
      ],
      "name": "addrToMailBox",
      "outputs": [
        {
          "name": "id",
          "type": "uint256"
        },
        {
          "name": "from",
          "type": "string"
        },
        {
          "name": "to",
          "type": "string"
        },
        {
          "name": "title",
          "type": "string"
        },
        {
          "name": "text",
          "type": "string"
        },
        {
          "name": "attachment",
          "type": "string"
        }
      ],
      "payable": false,
      "stateMutability": "view",
      "type": "function"
    },
    {
      "constant": false,
      "inputs": [],
      "name": "donateToCharity",
      "outputs": [],
      "payable": true,
      "stateMutability": "payable",
      "type": "function"
    },
    {
      "constant": false,
      "inputs": [],
      "name": "renounceOwnership",
      "outputs": [],
      "payable": false,
      "stateMutability": "nonpayable",
      "type": "function"
    },
    {
      "constant": true,
      "inputs": [
        {
          "name": "addr",
          "type": "address"
        }
      ],
      "name": "getNameByAddr",
      "outputs": [
        {
          "name": "",
          "type": "string"
        }
      ],
      "payable": false,
      "stateMutability": "view",
      "type": "function"
    },
    {
      "constant": false,
      "inputs": [
        {
          "name": "_id",
          "type": "uint256"
        },
        {
          "name": "_attachment",
          "type": "string"
        }
      ],
      "name": "setAttachment",
      "outputs": [],
      "payable": false,
      "stateMutability": "nonpayable",
      "type": "function"
    },
    {
      "constant": true,
      "inputs": [],
      "name": "owner",
      "outputs": [
        {
          "name": "",
          "type": "address"
        }
      ],
      "payable": false,
      "stateMutability": "view",
      "type": "function"
    },
    {
      "constant": true,
      "inputs": [
        {
          "name": "_name",
          "type": "string"
        }
      ],
      "name": "getAddrByName",
      "outputs": [
        {
          "name": "",
          "type": "address"
        }
      ],
      "payable": false,
      "stateMutability": "view",
      "type": "function"
    },
    {
      "constant": true,
      "inputs": [],
      "name": "isOwner",
      "outputs": [
        {
          "name": "",
          "type": "bool"
        }
      ],
      "payable": false,
      "stateMutability": "view",
      "type": "function"
    },
    {
      "constant": true,
      "inputs": [
        {
          "name": "_index",
          "type": "uint256"
        }
      ],
      "name": "getCommentByIndex",
      "outputs": [
        {
          "name": "",
          "type": "string"
        },
        {
          "name": "",
          "type": "string"
        },
        {
          "name": "",
          "type": "string"
        },
        {
          "name": "",
          "type": "uint256"
        }
      ],
      "payable": false,
      "stateMutability": "view",
      "type": "function"
    },
    {
      "constant": true,
      "inputs": [],
      "name": "getUserCount",
      "outputs": [
        {
          "name": "",
          "type": "uint256"
        }
      ],
      "payable": false,
      "stateMutability": "view",
      "type": "function"
    },
    {
      "constant": true,
      "inputs": [],
      "name": "getWatchesCount",
      "outputs": [
        {
          "name": "",
          "type": "uint256"
        }
      ],
      "payable": false,
      "stateMutability": "view",
      "type": "function"
    },
    {
      "constant": true,
      "inputs": [
        {
          "name": "_id",
          "type": "uint256"
        }
      ],
      "name": "getNameByCommentId",
      "outputs": [
        {
          "name": "",
          "type": "string"
        }
      ],
      "payable": false,
      "stateMutability": "view",
      "type": "function"
    },
    {
      "constant": false,
      "inputs": [
        {
          "name": "_name",
          "type": "string"
        }
      ],
      "name": "register",
      "outputs": [
        {
          "name": "",
          "type": "bool"
        }
      ],
      "payable": false,
      "stateMutability": "nonpayable",
      "type": "function"
    },
    {
      "constant": false,
      "inputs": [
        {
          "name": "newOwner",
          "type": "address"
        }
      ],
      "name": "transferOwnership",
      "outputs": [],
      "payable": false,
      "stateMutability": "nonpayable",
      "type": "function"
    },
    {
      "constant": true,
      "inputs": [
        {
          "name": "_index",
          "type": "uint256"
        }
      ],
      "name": "getMailByIndex",
      "outputs": [
        {
          "name": "",
          "type": "string"
        },
        {
          "name": "",
          "type": "string"
        },
        {
          "name": "",
          "type": "string"
        },
        {
          "name": "",
          "type": "string"
        },
        {
          "name": "",
          "type": "string"
        }
      ],
      "payable": false,
      "stateMutability": "view",
      "type": "function"
    },
    {
      "constant": true,
      "inputs": [
        {
          "name": "_index",
          "type": "uint256"
        }
      ],
      "name": "getUserByIndex",
      "outputs": [
        {
          "name": "",
          "type": "string"
        },
        {
          "name": "",
          "type": "string"
        },
        {
          "name": "",
          "type": "string"
        },
        {
          "name": "",
          "type": "string"
        },
        {
          "name": "",
          "type": "string"
        }
      ],
      "payable": false,
      "stateMutability": "view",
      "type": "function"
    },
    {
      "anonymous": false,
      "inputs": [
        {
          "indexed": true,
          "name": "previousOwner",
          "type": "address"
        },
        {
          "indexed": true,
          "name": "newOwner",
          "type": "address"
        }
      ],
      "name": "OwnershipTransferred",
      "type": "event"
    },
    {
      "constant": false,
      "inputs": [
        {
          "name": "_comment",
          "type": "string"
        }
      ],
      "name": "sendComment",
      "outputs": [],
      "payable": false,
      "stateMutability": "nonpayable",
      "type": "function"
    },
    {
      "constant": false,
      "inputs": [
        {
          "name": "_id",
          "type": "uint256"
        }
      ],
      "name": "rewardComment",
      "outputs": [
        {
          "name": "",
          "type": "address"
        }
      ],
      "payable": true,
      "stateMutability": "payable",
      "type": "function"
    },
    {
      "constant": false,
      "inputs": [
        {
          "name": "_to",
          "type": "string"
        },
        {
          "name": "_title",
          "type": "string"
        },
        {
          "name": "_text",
          "type": "string"
        }
      ],
      "name": "sendMail",
      "outputs": [],
      "payable": false,
      "stateMutability": "nonpayable",
      "type": "function"
    }
  ],
  "bytecode": "0x6080604052670de0b6b3a764000060085533600760006101000a81548173ffffffffffffffffffffffffffffffffffffffff021916908373ffffffffffffffffffffffffffffffffffffffff160217905550600760009054906101000a900473ffffffffffffffffffffffffffffffffffffffff1673ffffffffffffffffffffffffffffffffffffffff16600073ffffffffffffffffffffffffffffffffffffffff167f8be0079c531659141344cd1fd0a4f28419497f9722a3daafe3b4186f6b6457e060405160405180910390a3614e33806100dd6000396000f30060806040526004361061015f576000357c0100000000000000000000000000000000000000000000000000000000900463ffffffff16806307574d7f1461016457806310620542146101cd578063166e9985146101f857806316e31ea3146102655780632aa085b0146102905780633c128e13146102dd57806344b7eda11461035d57806351737757146103885780635fc2b3b0146103f157806362d2fd12146104e65780636df063ff146107635780636e87be20146107c3578063715018a6146107cd5780637e6aead2146107e4578063810a006a146108a05780638da5cb5b146109135780638dc3f8731461096a5780638f32d59b14610a13578063ac2c883714610a42578063b5cb15f714610bc7578063b741aa5114610bf2578063c9bf65b414610c5b578063cd70aced14610c86578063f2c298be14610d2c578063f2fde38b14610dad578063f5394ca514610df0578063ff5d32fe14611046575b600080fd5b34801561017057600080fd5b506101cb600480360381019080803590602001908201803590602001908080601f016020809104026020016040519081016040528093929190818152602001838380828437820191505050505050919291929050505061129c565b005b3480156101d957600080fd5b506101e26115d5565b6040518082815260200191505060405180910390f35b34801561020457600080fd5b506102236004803603810190808035906020019092919050505061161f565b604051808273ffffffffffffffffffffffffffffffffffffffff1673ffffffffffffffffffffffffffffffffffffffff16815260200191505060405180910390f35b34801561027157600080fd5b5061027a61171d565b6040518082815260200191505060405180910390f35b34801561029c57600080fd5b506102db600480360381019080803573ffffffffffffffffffffffffffffffffffffffff1690602001909291908035906020019092919050505061172a565b005b61031b600480360381019080803573ffffffffffffffffffffffffffffffffffffffff169060200190929190803590602001909291905050506118da565b604051808273ffffffffffffffffffffffffffffffffffffffff1673ffffffffffffffffffffffffffffffffffffffff16815260200191505060405180910390f35b34801561036957600080fd5b506103726119f4565b6040518082815260200191505060405180910390f35b34801561039457600080fd5b506103ef600480360381019080803590602001908201803590602001908080601f0160208091040260200160405190810160405280939291908181526020018383808284378201915050505050509192919290505050611a13565b005b3480156103fd57600080fd5b506104e4600480360381019080803590602001908201803590602001908080601f0160208091040260200160405190810160405280939291908181526020018383808284378201915050505050509192919290803590602001908201803590602001908080601f0160208091040260200160405190810160405280939291908181526020018383808284378201915050505050509192919290803590602001908201803590602001908080601f0160208091040260200160405190810160405280939291908181526020018383808284378201915050505050509192919290505050611e75565b005b3480156104f257600080fd5b50610531600480360381019080803573ffffffffffffffffffffffffffffffffffffffff1690602001909291908035906020019092919050505061240c565b60405180878152602001806020018060200180602001806020018060200186810386528b818151815260200191508051906020019080838360005b8381101561058757808201518184015260208101905061056c565b50505050905090810190601f1680156105b45780820380516001836020036101000a031916815260200191505b5086810385528a818151815260200191508051906020019080838360005b838110156105ed5780820151818401526020810190506105d2565b50505050905090810190601f16801561061a5780820380516001836020036101000a031916815260200191505b50868103845289818151815260200191508051906020019080838360005b83811015610653578082015181840152602081019050610638565b50505050905090810190601f1680156106805780820380516001836020036101000a031916815260200191505b50868103835288818151815260200191508051906020019080838360005b838110156106b957808201518184015260208101905061069e565b50505050905090810190601f1680156106e65780820380516001836020036101000a031916815260200191505b50868103825287818151815260200191508051906020019080838360005b8381101561071f578082015181840152602081019050610704565b50505050905090810190601f16801561074c5780820380516001836020036101000a031916815260200191505b509b50505050505050505050505060405180910390f35b6107816004803603810190808035906020019092919050505061275c565b604051808273ffffffffffffffffffffffffffffffffffffffff1673ffffffffffffffffffffffffffffffffffffffff16815260200191505060405180910390f35b6107cb61294d565b005b3480156107d957600080fd5b506107e2612a2e565b005b3480156107f057600080fd5b50610825600480360381019080803573ffffffffffffffffffffffffffffffffffffffff169060200190929190505050612bb7565b6040518080602001828103825283818151815260200191508051906020019080838360005b8381101561086557808201518184015260208101905061084a565b50505050905090810190601f1680156108925780820380516001836020036101000a031916815260200191505b509250505060405180910390f35b3480156108ac57600080fd5b5061091160048036038101908080359060200190929190803590602001908201803590602001908080601f0160208091040260200160405190810160405280939291908181526020018383808284378201915050505050509192919290505050612f45565b005b34801561091f57600080fd5b50610928612fbb565b604051808273ffffffffffffffffffffffffffffffffffffffff1673ffffffffffffffffffffffffffffffffffffffff16815260200191505060405180910390f35b34801561097657600080fd5b506109d1600480360381019080803590602001908201803590602001908080601f0160208091040260200160405190810160405280939291908181526020018383808284378201915050505050509192919290505050612fe5565b604051808273ffffffffffffffffffffffffffffffffffffffff1673ffffffffffffffffffffffffffffffffffffffff16815260200191505060405180910390f35b348015610a1f57600080fd5b50610a2861307a565b604051808215151515815260200191505060405180910390f35b348015610a4e57600080fd5b50610a6d600480360381019080803590602001909291905050506130d2565b60405180806020018060200180602001858152602001848103845288818151815260200191508051906020019080838360005b83811015610abb578082015181840152602081019050610aa0565b50505050905090810190601f168015610ae85780820380516001836020036101000a031916815260200191505b50848103835287818151815260200191508051906020019080838360005b83811015610b21578082015181840152602081019050610b06565b50505050905090810190601f168015610b4e5780820380516001836020036101000a031916815260200191505b50848103825286818151815260200191508051906020019080838360005b83811015610b87578082015181840152602081019050610b6c565b50505050905090810190601f168015610bb45780820380516001836020036101000a031916815260200191505b5097505050505050505060405180910390f35b348015610bd357600080fd5b50610bdc613333565b6040518082815260200191505060405180910390f35b348015610bfe57600080fd5b50610c59600480360381019080803590602001908201803590602001908080601f016020809104026020016040519081016040528093929190818152602001838380828437820191505050505050919291929050505061333f565b005b348015610c6757600080fd5b50610c706137a6565b6040518082815260200191505060405180910390f35b348015610c9257600080fd5b50610cb1600480360381019080803590602001909291905050506137f0565b6040518080602001828103825283818151815260200191508051906020019080838360005b83811015610cf1578082015181840152602081019050610cd6565b50505050905090810190601f168015610d1e5780820380516001836020036101000a031916815260200191505b509250505060405180910390f35b348015610d3857600080fd5b50610d93600480360381019080803590602001908201803590602001908080601f01602080910402602001604051908101604052809392919081815260200183838082843782019150505050505091929192905050506138b2565b604051808215151515815260200191505060405180910390f35b348015610db957600080fd5b50610dee600480360381019080803573ffffffffffffffffffffffffffffffffffffffff169060200190929190505050613e6d565b005b348015610dfc57600080fd5b50610e1b60048036038101908080359060200190929190505050613f41565b60405180806020018060200180602001806020018060200186810386528b818151815260200191508051906020019080838360005b83811015610e6b578082015181840152602081019050610e50565b50505050905090810190601f168015610e985780820380516001836020036101000a031916815260200191505b5086810385528a818151815260200191508051906020019080838360005b83811015610ed1578082015181840152602081019050610eb6565b50505050905090810190601f168015610efe5780820380516001836020036101000a031916815260200191505b50868103845289818151815260200191508051906020019080838360005b83811015610f37578082015181840152602081019050610f1c565b50505050905090810190601f168015610f645780820380516001836020036101000a031916815260200191505b50868103835288818151815260200191508051906020019080838360005b83811015610f9d578082015181840152602081019050610f82565b50505050905090810190601f168015610fca5780820380516001836020036101000a031916815260200191505b50868103825287818151815260200191508051906020019080838360005b83811015611003578082015181840152602081019050610fe8565b50505050905090810190601f1680156110305780820380516001836020036101000a031916815260200191505b509a505050505050505050505060405180910390f35b34801561105257600080fd5b5061107160048036038101908080359060200190929190505050614329565b60405180806020018060200180602001806020018060200186810386528b818151815260200191508051906020019080838360005b838110156110c15780820151818401526020810190506110a6565b50505050905090810190601f1680156110ee5780820380516001836020036101000a031916815260200191505b5086810385528a818151815260200191508051906020019080838360005b8381101561112757808201518184015260208101905061110c565b50505050905090810190601f1680156111545780820380516001836020036101000a031916815260200191505b50868103845289818151815260200191508051906020019080838360005b8381101561118d578082015181840152602081019050611172565b50505050905090810190601f1680156111ba5780820380516001836020036101000a031916815260200191505b50868103835288818151815260200191508051906020019080838360005b838110156111f35780820151818401526020810190506111d8565b50505050905090810190601f1680156112205780820380516001836020036101000a031916815260200191505b50868103825287818151815260200191508051906020019080838360005b8381101561125957808201518184015260208101905061123e565b50505050905090810190601f1680156112865780820380516001836020036101000a031916815260200191505b509a505050505050505050505060405180910390f35b6000336000600160008373ffffffffffffffffffffffffffffffffffffffff1673ffffffffffffffffffffffffffffffffffffffff16815260200190815260200160002060000180546001816001161561010002031660029004905011151561136d576040517f08c379a00000000000000000000000000000000000000000000000000000000081526004018080602001828103825260198152602001807f74686973206e616d65206973206e6f7420657869737465642e0000000000000081525060200191505060405180910390fd5b82600073ffffffffffffffffffffffffffffffffffffffff166002826040518082805190602001908083835b6020831015156113be5780518252602082019150602081019050602083039250611399565b6001836020036101000a038019825116818451168082178552505050505050905001915050908152602001604051809103902060009054906101000a900473ffffffffffffffffffffffffffffffffffffffff1673ffffffffffffffffffffffffffffffffffffffff161415151561149e576040517f08c379a00000000000000000000000000000000000000000000000000000000081526004018080602001828103825260198152602001807f74686973206e616d65206973206e6f7420657869737465642e0000000000000081525060200191505060405180910390fd5b6002846040518082805190602001908083835b6020831015156114d657805182526020820191506020810190506020830392506114b1565b6001836020036101000a038019825116818451168082178552505050505050905001915050908152602001604051809103902060009054906101000a900473ffffffffffffffffffffffffffffffffffffffff169250600360003373ffffffffffffffffffffffffffffffffffffffff1673ffffffffffffffffffffffffffffffffffffffff1681526020019081526020016000208390806001815401808255809150509060018203906000526020600020016000909192909190916101000a81548173ffffffffffffffffffffffffffffffffffffffff021916908373ffffffffffffffffffffffffffffffffffffffff1602179055505050505050565b6000600660003373ffffffffffffffffffffffffffffffffffffffff1673ffffffffffffffffffffffffffffffffffffffff16815260200190815260200160002080549050905090565b60006116296137a6565b8210151561169f576040517f08c379a00000000000000000000000000000000000000000000000000000000081526004018080602001828103825260128152602001807f696e646578206f7574206f6620626f756e64000000000000000000000000000081525060200191505060405180910390fd5b600360003373ffffffffffffffffffffffffffffffffffffffff1673ffffffffffffffffffffffffffffffffffffffff168152602001908152602001600020828154811015156116eb57fe5b9060005260206000200160009054906101000a900473ffffffffffffffffffffffffffffffffffffffff169050919050565b6000600480549050905090565b61173261307a565b15156117f2576040517f08c379a00000000000000000000000000000000000000000000000000000000081526004018080602001828103825260428152602001807f7065726d697373696f6e2064656e6965642c206f6e6c79206f776e6572206f6681526020017f207468697320636f6e74726163742068617320746865207065726d697373696f81526020017f6e2e00000000000000000000000000000000000000000000000000000000000081525060600191505060405180910390fd5b670de0b6b3a764000081023073ffffffffffffffffffffffffffffffffffffffff16311015151561188b576040517f08c379a000000000000000000000000000000000000000000000000000000000815260040180806020018281038252601b8152602001807f636f6e74726163742062616c616e6365206e6f7420656e6f756768000000000081525060200191505060405180910390fd5b8173ffffffffffffffffffffffffffffffffffffffff166108fc60085483029081150290604051600060405180830381858888f193505050501580156118d5573d6000803e3d6000fd5b505050565b600082600073ffffffffffffffffffffffffffffffffffffffff168173ffffffffffffffffffffffffffffffffffffffff1614151515611982576040517f08c379a00000000000000000000000000000000000000000000000000000000081526004018080602001828103825260108152602001807f696e76616c696420616464726573732e0000000000000000000000000000000081525060200191505060405180910390fd5b8373ffffffffffffffffffffffffffffffffffffffff166108fc349081150290604051600060405180830381858888f193505050501580156119c8573d6000803e3d6000fd5b503460056000858152602001908152602001600020600082825401925050819055503391505092915050565b60003073ffffffffffffffffffffffffffffffffffffffff1631905090565b600080600080336000600160008373ffffffffffffffffffffffffffffffffffffffff1673ffffffffffffffffffffffffffffffffffffffff168152602001908152602001600020600001805460018160011615610100020316600290049050111515611ae8576040517f08c379a00000000000000000000000000000000000000000000000000000000081526004018080602001828103825260198152602001807f74686973206e616d65206973206e6f7420657869737465642e0000000000000081525060200191505060405180910390fd5b85600073ffffffffffffffffffffffffffffffffffffffff166002826040518082805190602001908083835b602083101515611b395780518252602082019150602081019050602083039250611b14565b6001836020036101000a038019825116818451168082178552505050505050905001915050908152602001604051809103902060009054906101000a900473ffffffffffffffffffffffffffffffffffffffff1673ffffffffffffffffffffffffffffffffffffffff1614151515611c19576040517f08c379a00000000000000000000000000000000000000000000000000000000081526004018080602001828103825260198152602001807f74686973206e616d65206973206e6f7420657869737465642e0000000000000081525060200191505060405180910390fd5b6002876040518082805190602001908083835b602083101515611c515780518252602082019150602081019050602083039250611c2c565b6001836020036101000a038019825116818451168082178552505050505050905001915050908152602001604051809103902060009054906101000a900473ffffffffffffffffffffffffffffffffffffffff169550600360003373ffffffffffffffffffffffffffffffffffffffff1673ffffffffffffffffffffffffffffffffffffffff168152602001908152602001600020805490509450600093505b84841015611e6c57600360003373ffffffffffffffffffffffffffffffffffffffff1673ffffffffffffffffffffffffffffffffffffffff16815260200190815260200160002084815481101515611d4557fe5b9060005260206000200160009054906101000a900473ffffffffffffffffffffffffffffffffffffffff169250600073ffffffffffffffffffffffffffffffffffffffff168373ffffffffffffffffffffffffffffffffffffffff161415611dac57611e5f565b8273ffffffffffffffffffffffffffffffffffffffff168673ffffffffffffffffffffffffffffffffffffffff161415611e5e57600360003373ffffffffffffffffffffffffffffffffffffffff1673ffffffffffffffffffffffffffffffffffffffff16815260200190815260200160002084815481101515611e2c57fe5b9060005260206000200160006101000a81549073ffffffffffffffffffffffffffffffffffffffff0219169055611e6c565b5b8380600101945050611cf1565b50505050505050565b611e7d614c4b565b336000600160008373ffffffffffffffffffffffffffffffffffffffff1673ffffffffffffffffffffffffffffffffffffffff168152602001908152602001600020600001805460018160011615610100020316600290049050111515611f4c576040517f08c379a00000000000000000000000000000000000000000000000000000000081526004018080602001828103825260198152602001807f74686973206e616d65206973206e6f7420657869737465642e0000000000000081525060200191505060405180910390fd5b84600073ffffffffffffffffffffffffffffffffffffffff166002826040518082805190602001908083835b602083101515611f9d5780518252602082019150602081019050602083039250611f78565b6001836020036101000a038019825116818451168082178552505050505050905001915050908152602001604051809103902060009054906101000a900473ffffffffffffffffffffffffffffffffffffffff1673ffffffffffffffffffffffffffffffffffffffff161415151561207d576040517f08c379a00000000000000000000000000000000000000000000000000000000081526004018080602001828103825260198152602001807f74686973206e616d65206973206e6f7420657869737465642e0000000000000081525060200191505060405180910390fd5b600160003373ffffffffffffffffffffffffffffffffffffffff1673ffffffffffffffffffffffffffffffffffffffff16815260200190815260200160002060a06040519081016040529081600082018054600181600116156101000203166002900480601f0160208091040260200160405190810160405280929190818152602001828054600181600116156101000203166002900480156121615780601f1061213657610100808354040283529160200191612161565b820191906000526020600020905b81548152906001019060200180831161214457829003601f168201915b50505050508152602001600182018054600181600116156101000203166002900480601f0160208091040260200160405190810160405280929190818152602001828054600181600116156101000203166002900480156122035780601f106121d857610100808354040283529160200191612203565b820191906000526020600020905b8154815290600101906020018083116121e657829003601f168201915b50505050508152602001600282018054600181600116156101000203166002900480601f0160208091040260200160405190810160405280929190818152602001828054600181600116156101000203166002900480156122a55780601f1061227a576101008083540402835291602001916122a5565b820191906000526020600020905b81548152906001019060200180831161228857829003601f168201915b50505050508152602001600382018054600181600116156101000203166002900480601f0160208091040260200160405190810160405280929190818152602001828054600181600116156101000203166002900480156123475780601f1061231c57610100808354040283529160200191612347565b820191906000526020600020905b81548152906001019060200180831161232a57829003601f168201915b50505050508152602001600482018054600181600116156101000203166002900480601f0160208091040260200160405190810160405280929190818152602001828054600181600116156101000203166002900480156123e95780601f106123be576101008083540402835291602001916123e9565b820191906000526020600020905b8154815290600101906020018083116123cc57829003601f168201915b50505050508152505092506124048360000151878787614748565b505050505050565b60066020528160005260406000208181548110151561242757fe5b906000526020600020906006020160009150915050806000015490806001018054600181600116156101000203166002900480601f0160208091040260200160405190810160405280929190818152602001828054600181600116156101000203166002900480156124da5780601f106124af576101008083540402835291602001916124da565b820191906000526020600020905b8154815290600101906020018083116124bd57829003601f168201915b505050505090806002018054600181600116156101000203166002900480601f0160208091040260200160405190810160405280929190818152602001828054600181600116156101000203166002900480156125785780601f1061254d57610100808354040283529160200191612578565b820191906000526020600020905b81548152906001019060200180831161255b57829003601f168201915b505050505090806003018054600181600116156101000203166002900480601f0160208091040260200160405190810160405280929190818152602001828054600181600116156101000203166002900480156126165780601f106125eb57610100808354040283529160200191612616565b820191906000526020600020905b8154815290600101906020018083116125f957829003601f168201915b505050505090806004018054600181600116156101000203166002900480601f0160208091040260200160405190810160405280929190818152602001828054600181600116156101000203166002900480156126b45780601f10612689576101008083540402835291602001916126b4565b820191906000526020600020905b81548152906001019060200180831161269757829003601f168201915b505050505090806005018054600181600116156101000203166002900480601f0160208091040260200160405190810160405280929190818152602001828054600181600116156101000203166002900480156127525780601f1061272757610100808354040283529160200191612752565b820191906000526020600020905b81548152906001019060200180831161273557829003601f168201915b5050505050905086565b6000606060008061276c856137f0565b600073ffffffffffffffffffffffffffffffffffffffff166002826040518082805190602001908083835b6020831015156127bc5780518252602082019150602081019050602083039250612797565b6001836020036101000a038019825116818451168082178552505050505050905001915050908152602001604051809103902060009054906101000a900473ffffffffffffffffffffffffffffffffffffffff1673ffffffffffffffffffffffffffffffffffffffff161415151561289c576040517f08c379a00000000000000000000000000000000000000000000000000000000081526004018080602001828103825260198152602001807f74686973206e616d65206973206e6f7420657869737465642e0000000000000081525060200191505060405180910390fd5b6128a5866137f0565b93506002846040518082805190602001908083835b6020831015156128df57805182526020820191506020810190506020830392506128ba565b6001836020036101000a038019825116818451168082178552505050505050905001915050908152602001604051809103902060009054906101000a900473ffffffffffffffffffffffffffffffffffffffff16925061293f83876118da565b915081945050505050919050565b60008060085434101515156129ca576040517f08c379a000000000000000000000000000000000000000000000000000000000815260040180806020018281038252601c8152602001807f73686f756c6420706179206d6f7265207468616e20312065746865720000000081525060200191505060405180910390fd5b600854348115156129d757fe5b0491506008548202340390503373ffffffffffffffffffffffffffffffffffffffff166108fc829081150290604051600060405180830381858888f19350505050158015612a29573d6000803e3d6000fd5b505050565b612a3661307a565b1515612af6576040517f08c379a00000000000000000000000000000000000000000000000000000000081526004018080602001828103825260428152602001807f7065726d697373696f6e2064656e6965642c206f6e6c79206f776e6572206f6681526020017f207468697320636f6e74726163742068617320746865207065726d697373696f81526020017f6e2e00000000000000000000000000000000000000000000000000000000000081525060600191505060405180910390fd5b600073ffffffffffffffffffffffffffffffffffffffff16600760009054906101000a900473ffffffffffffffffffffffffffffffffffffffff1673ffffffffffffffffffffffffffffffffffffffff167f8be0079c531659141344cd1fd0a4f28419497f9722a3daafe3b4186f6b6457e060405160405180910390a36000600760006101000a81548173ffffffffffffffffffffffffffffffffffffffff021916908373ffffffffffffffffffffffffffffffffffffffff160217905550565b6060612bc1614c4b565b600160008473ffffffffffffffffffffffffffffffffffffffff1673ffffffffffffffffffffffffffffffffffffffff16815260200190815260200160002060a06040519081016040529081600082018054600181600116156101000203166002900480601f016020809104026020016040519081016040528092919081815260200182805460018160011615610100020316600290048015612ca55780601f10612c7a57610100808354040283529160200191612ca5565b820191906000526020600020905b815481529060010190602001808311612c8857829003601f168201915b50505050508152602001600182018054600181600116156101000203166002900480601f016020809104026020016040519081016040528092919081815260200182805460018160011615610100020316600290048015612d475780601f10612d1c57610100808354040283529160200191612d47565b820191906000526020600020905b815481529060010190602001808311612d2a57829003601f168201915b50505050508152602001600282018054600181600116156101000203166002900480601f016020809104026020016040519081016040528092919081815260200182805460018160011615610100020316600290048015612de95780601f10612dbe57610100808354040283529160200191612de9565b820191906000526020600020905b815481529060010190602001808311612dcc57829003601f168201915b50505050508152602001600382018054600181600116156101000203166002900480601f016020809104026020016040519081016040528092919081815260200182805460018160011615610100020316600290048015612e8b5780601f10612e6057610100808354040283529160200191612e8b565b820191906000526020600020905b815481529060010190602001808311612e6e57829003601f168201915b50505050508152602001600482018054600181600116156101000203166002900480601f016020809104026020016040519081016040528092919081815260200182805460018160011615610100020316600290048015612f2d5780601f10612f0257610100808354040283529160200191612f2d565b820191906000526020600020905b815481529060010190602001808311612f1057829003601f168201915b50505050508152505090508060000151915050919050565b80600660003373ffffffffffffffffffffffffffffffffffffffff1673ffffffffffffffffffffffffffffffffffffffff16815260200190815260200160002083815481101515612f9257fe5b90600052602060002090600602016005019080519060200190612fb6929190614c7b565b505050565b6000600760009054906101000a900473ffffffffffffffffffffffffffffffffffffffff16905090565b60006002826040518082805190602001908083835b60208310151561301f5780518252602082019150602081019050602083039250612ffa565b6001836020036101000a038019825116818451168082178552505050505050905001915050908152602001604051809103902060009054906101000a900473ffffffffffffffffffffffffffffffffffffffff169050919050565b6000600760009054906101000a900473ffffffffffffffffffffffffffffffffffffffff1673ffffffffffffffffffffffffffffffffffffffff163373ffffffffffffffffffffffffffffffffffffffff1614905090565b606080606060006130e1614cfb565b6004868154811015156130f057fe5b906000526020600020906005020160a0604051908101604052908160008201548152602001600182018054600181600116156101000203166002900480601f0160208091040260200160405190810160405280929190818152602001828054600181600116156101000203166002900480156131ad5780601f10613182576101008083540402835291602001916131ad565b820191906000526020600020905b81548152906001019060200180831161319057829003601f168201915b50505050508152602001600282018054600181600116156101000203166002900480601f01602080910402602001604051908101604052809291908181526020018280546001816001161561010002031660029004801561324f5780601f106132245761010080835404028352916020019161324f565b820191906000526020600020905b81548152906001019060200180831161323257829003601f168201915b50505050508152602001600382018054600181600116156101000203166002900480601f0160208091040260200160405190810160405280929190818152602001828054600181600116156101000203166002900480156132f15780601f106132c6576101008083540402835291602001916132f1565b820191906000526020600020905b8154815290600101906020018083116132d457829003601f168201915b50505050508152602001600482015481525050905080602001518160400151826060015183608001518393508292508191509450945094509450509193509193565b60008080549050905090565b613347614c4b565b336000600160008373ffffffffffffffffffffffffffffffffffffffff1673ffffffffffffffffffffffffffffffffffffffff168152602001908152602001600020600001805460018160011615610100020316600290049050111515613416576040517f08c379a00000000000000000000000000000000000000000000000000000000081526004018080602001828103825260198152602001807f74686973206e616d65206973206e6f7420657869737465642e0000000000000081525060200191505060405180910390fd5b600160003373ffffffffffffffffffffffffffffffffffffffff1673ffffffffffffffffffffffffffffffffffffffff16815260200190815260200160002060a06040519081016040529081600082018054600181600116156101000203166002900480601f0160208091040260200160405190810160405280929190818152602001828054600181600116156101000203166002900480156134fa5780601f106134cf576101008083540402835291602001916134fa565b820191906000526020600020905b8154815290600101906020018083116134dd57829003601f168201915b50505050508152602001600182018054600181600116156101000203166002900480601f01602080910402602001604051908101604052809291908181526020018280546001816001161561010002031660029004801561359c5780601f106135715761010080835404028352916020019161359c565b820191906000526020600020905b81548152906001019060200180831161357f57829003601f168201915b50505050508152602001600282018054600181600116156101000203166002900480601f01602080910402602001604051908101604052809291908181526020018280546001816001161561010002031660029004801561363e5780601f106136135761010080835404028352916020019161363e565b820191906000526020600020905b81548152906001019060200180831161362157829003601f168201915b50505050508152602001600382018054600181600116156101000203166002900480601f0160208091040260200160405190810160405280929190818152602001828054600181600116156101000203166002900480156136e05780601f106136b5576101008083540402835291602001916136e0565b820191906000526020600020905b8154815290600101906020018083116136c357829003601f168201915b50505050508152602001600482018054600181600116156101000203166002900480601f0160208091040260200160405190810160405280929190818152602001828054600181600116156101000203166002900480156137825780601f1061375757610100808354040283529160200191613782565b820191906000526020600020905b81548152906001019060200180831161376557829003601f168201915b50505050508152505091506137a08260000151848460200151614923565b50505050565b6000600360003373ffffffffffffffffffffffffffffffffffffffff1673ffffffffffffffffffffffffffffffffffffffff16815260200190815260200160002080549050905090565b606060048281548110151561380157fe5b90600052602060002090600502016001018054600181600116156101000203166002900480601f0160208091040260200160405190810160405280929190818152602001828054600181600116156101000203166002900480156138a65780601f1061387b576101008083540402835291602001916138a6565b820191906000526020600020905b81548152906001019060200180831161388957829003601f168201915b50505050509050919050565b60008160028151111515613954576040517f08c379a00000000000000000000000000000000000000000000000000000000081526004018080602001828103825260288152602001807f746865206c656e677468206f662061206e616d65206d7573742067726561746581526020017f72207468616e203200000000000000000000000000000000000000000000000081525060400191505060405180910390fd5b82600073ffffffffffffffffffffffffffffffffffffffff166002826040518082805190602001908083835b6020831015156139a55780518252602082019150602081019050602083039250613980565b6001836020036101000a038019825116818451168082178552505050505050905001915050908152602001604051809103902060009054906101000a900473ffffffffffffffffffffffffffffffffffffffff1673ffffffffffffffffffffffffffffffffffffffff16141515613a84576040517f08c379a00000000000000000000000000000000000000000000000000000000081526004018080602001828103825260188152602001807f74686973206e616d6520686173206265656e20757365642e000000000000000081525060200191505060405180910390fd5b336000600160008373ffffffffffffffffffffffffffffffffffffffff1673ffffffffffffffffffffffffffffffffffffffff168152602001908152602001600020600001805460018160011615610100020316600290049050141515613b53576040517f08c379a000000000000000000000000000000000000000000000000000000000815260040180806020018281038252601b8152602001807f796f7520686176652072656769737465726564206265666f72652e000000000081525060200191505060405180910390fd5b600060a0604051908101604052808781526020016020604051908101604052806000815250815260200160206040519081016040528060008152508152602001602060405190810160405280600081525081526020016020604051908101604052806000815250815250908060018154018082558091505090600182039060005260206000209060050201600090919290919091506000820151816000019080519060200190613c04929190614d2b565b506020820151816001019080519060200190613c21929190614d2b565b506040820151816002019080519060200190613c3e929190614d2b565b506060820151816003019080519060200190613c5b929190614d2b565b506080820151816004019080519060200190613c78929190614d2b565b50505050336002866040518082805190602001908083835b602083101515613cb55780518252602082019150602081019050602083039250613c90565b6001836020036101000a038019825116818451168082178552505050505050905001915050908152602001604051809103902060006101000a81548173ffffffffffffffffffffffffffffffffffffffff021916908373ffffffffffffffffffffffffffffffffffffffff16021790555060a0604051908101604052808681526020016020604051908101604052806000815250815260200160206040519081016040528060008152508152602001602060405190810160405280600081525081526020016020604051908101604052806000815250815250600160003373ffffffffffffffffffffffffffffffffffffffff1673ffffffffffffffffffffffffffffffffffffffff1681526020019081526020016000206000820151816000019080519060200190613de9929190614d2b565b506020820151816001019080519060200190613e06929190614d2b565b506040820151816002019080519060200190613e23929190614d2b565b506060820151816003019080519060200190613e40929190614d2b565b506080820151816004019080519060200190613e5d929190614d2b565b5090505060019350505050919050565b613e7561307a565b1515613f35576040517f08c379a00000000000000000000000000000000000000000000000000000000081526004018080602001828103825260428152602001807f7065726d697373696f6e2064656e6965642c206f6e6c79206f776e6572206f6681526020017f207468697320636f6e74726163742068617320746865207065726d697373696f81526020017f6e2e00000000000000000000000000000000000000000000000000000000000081525060600191505060405180910390fd5b613f3e81614ac0565b50565b6060806060806060613f51614dab565b600660003373ffffffffffffffffffffffffffffffffffffffff1673ffffffffffffffffffffffffffffffffffffffff16815260200190815260200160002087815481101515613f9d57fe5b906000526020600020906006020160c0604051908101604052908160008201548152602001600182018054600181600116156101000203166002900480601f01602080910402602001604051908101604052809291908181526020018280546001816001161561010002031660029004801561405a5780601f1061402f5761010080835404028352916020019161405a565b820191906000526020600020905b81548152906001019060200180831161403d57829003601f168201915b50505050508152602001600282018054600181600116156101000203166002900480601f0160208091040260200160405190810160405280929190818152602001828054600181600116156101000203166002900480156140fc5780601f106140d1576101008083540402835291602001916140fc565b820191906000526020600020905b8154815290600101906020018083116140df57829003601f168201915b50505050508152602001600382018054600181600116156101000203166002900480601f01602080910402602001604051908101604052809291908181526020018280546001816001161561010002031660029004801561419e5780601f106141735761010080835404028352916020019161419e565b820191906000526020600020905b81548152906001019060200180831161418157829003601f168201915b50505050508152602001600482018054600181600116156101000203166002900480601f0160208091040260200160405190810160405280929190818152602001828054600181600116156101000203166002900480156142405780601f1061421557610100808354040283529160200191614240565b820191906000526020600020905b81548152906001019060200180831161422357829003601f168201915b50505050508152602001600582018054600181600116156101000203166002900480601f0160208091040260200160405190810160405280929190818152602001828054600181600116156101000203166002900480156142e25780601f106142b7576101008083540402835291602001916142e2565b820191906000526020600020905b8154815290600101906020018083116142c557829003601f168201915b505050505081525050905080602001518160400151826060015183608001518460a00151849450839350829250819150809050955095509550955095505091939590929450565b6060806060806060614339614c4b565b614341613333565b871015156143b7576040517f08c379a00000000000000000000000000000000000000000000000000000000081526004018080602001828103825260128152602001807f696e646578206f7574206f6620626f756e64000000000000000000000000000081525060200191505060405180910390fd5b6000878154811015156143c657fe5b906000526020600020906005020160a06040519081016040529081600082018054600181600116156101000203166002900480601f0160208091040260200160405190810160405280929190818152602001828054600181600116156101000203166002900480156144795780601f1061444e57610100808354040283529160200191614479565b820191906000526020600020905b81548152906001019060200180831161445c57829003601f168201915b50505050508152602001600182018054600181600116156101000203166002900480601f01602080910402602001604051908101604052809291908181526020018280546001816001161561010002031660029004801561451b5780601f106144f05761010080835404028352916020019161451b565b820191906000526020600020905b8154815290600101906020018083116144fe57829003601f168201915b50505050508152602001600282018054600181600116156101000203166002900480601f0160208091040260200160405190810160405280929190818152602001828054600181600116156101000203166002900480156145bd5780601f10614592576101008083540402835291602001916145bd565b820191906000526020600020905b8154815290600101906020018083116145a057829003601f168201915b50505050508152602001600382018054600181600116156101000203166002900480601f01602080910402602001604051908101604052809291908181526020018280546001816001161561010002031660029004801561465f5780601f106146345761010080835404028352916020019161465f565b820191906000526020600020905b81548152906001019060200180831161464257829003601f168201915b50505050508152602001600482018054600181600116156101000203166002900480601f0160208091040260200160405190810160405280929190818152602001828054600181600116156101000203166002900480156147015780601f106146d657610100808354040283529160200191614701565b820191906000526020600020905b8154815290600101906020018083116146e457829003601f168201915b505050505081525050905080600001518160200151826040015183606001518460800151849450839350829250819150809050955095509550955095505091939590929450565b60006001600660003373ffffffffffffffffffffffffffffffffffffffff1673ffffffffffffffffffffffffffffffffffffffff16815260200190815260200160002060c060405190810160405280600081526020018881526020018781526020018681526020018581526020016040805190810160405280600481526020017f6e756c6c0000000000000000000000000000000000000000000000000000000081525081525090806001815401808255809150509060018203906000526020600020906006020160009091929091909150600082015181600001556020820151816001019080519060200190614840929190614d2b565b50604082015181600201908051906020019061485d929190614d2b565b50606082015181600301908051906020019061487a929190614d2b565b506080820151816004019080519060200190614897929190614d2b565b5060a08201518160050190805190602001906148b4929190614d2b565b50505003905080600660003373ffffffffffffffffffffffffffffffffffffffff1673ffffffffffffffffffffffffffffffffffffffff1681526020019081526020016000208281548110151561490757fe5b9060005260206000209060060201600001819055505050505050565b60008083600081511115156149c6576040517f08c379a000000000000000000000000000000000000000000000000000000000815260040180806020018281038252602b8152602001807f746865206c656e677468206f66206120636f6d6d656e74206d7573742067726581526020017f61746572207468616e203000000000000000000000000000000000000000000081525060400191505060405180910390fd5b6001600460a060405190810160405280600081526020018981526020018881526020018781526020014281525090806001815401808255809150509060018203906000526020600020906005020160009091929091909150600082015181600001556020820151816001019080519060200190614a44929190614d2b565b506040820151816002019080519060200190614a61929190614d2b565b506060820151816003019080519060200190614a7e929190614d2b565b5060808201518160040155505003915081600483815481101515614a9e57fe5b9060005260206000209060050201600001819055506001925050509392505050565b600073ffffffffffffffffffffffffffffffffffffffff168173ffffffffffffffffffffffffffffffffffffffff1614151515614b8b576040517f08c379a00000000000000000000000000000000000000000000000000000000081526004018080602001828103825260288152602001807f746865206e65774f776e6572277320616464726573732073686f756c64206e6f81526020017f742062652030783000000000000000000000000000000000000000000000000081525060400191505060405180910390fd5b8073ffffffffffffffffffffffffffffffffffffffff16600760009054906101000a900473ffffffffffffffffffffffffffffffffffffffff1673ffffffffffffffffffffffffffffffffffffffff167f8be0079c531659141344cd1fd0a4f28419497f9722a3daafe3b4186f6b6457e060405160405180910390a380600760006101000a81548173ffffffffffffffffffffffffffffffffffffffff021916908373ffffffffffffffffffffffffffffffffffffffff16021790555050565b60a06040519081016040528060608152602001606081526020016060815260200160608152602001606081525090565b828054600181600116156101000203166002900490600052602060002090601f016020900481019282601f10614cbc57805160ff1916838001178555614cea565b82800160010185558215614cea579182015b82811115614ce9578251825591602001919060010190614cce565b5b509050614cf79190614de2565b5090565b60a06040519081016040528060008152602001606081526020016060815260200160608152602001600081525090565b828054600181600116156101000203166002900490600052602060002090601f016020900481019282601f10614d6c57805160ff1916838001178555614d9a565b82800160010185558215614d9a579182015b82811115614d99578251825591602001919060010190614d7e565b5b509050614da79190614de2565b5090565b60c0604051908101604052806000815260200160608152602001606081526020016060815260200160608152602001606081525090565b614e0491905b80821115614e00576000816000905550600101614de8565b5090565b905600a165627a7a7230582059f1bd9179370e96e3a18a0ca46548c9a5ebd42aa3a3749a2ceaad8e1ea399570029",
  "source": "pragma solidity ^0.4.24;\r\n\r\nimport \"./UserManager.sol\";\r\nimport \"./CommentManager.sol\";\r\nimport \"./MailManager.sol\";\r\nimport \"./CharityManager.sol\";\r\n\r\ncontract SuperCommunity is UserManager, CommentManager, MailManager, CharityManager {\r\n    \r\n    function sendComment(string memory _comment) public registered(msg.sender) {\r\n\r\n        // the sender should have registered\r\n        User memory user = addrToUser[msg.sender];\r\n        addComment(user.name, _comment, user.head_img);\r\n    }\r\n\r\n    function rewardComment(uint _id) public payable existName(getNameByCommentId(_id)) returns(address) {\r\n\r\n        // the name should exist\r\n        string memory name = getNameByCommentId(_id);\r\n        address to = nameToAddr[name];\r\n        address sender = rewardByAddr(to, _id);\r\n        return sender;\r\n    }\r\n\r\n    function sendMail(string memory _to, string memory _title, string memory _text) public\r\n        registered(msg.sender)\r\n        existName(_to) {\r\n\r\n        // the sender should have registered and so do the receiver\r\n        User memory user = addrToUser[msg.sender];\r\n        addMail(user.name, _to, _title, _text);\r\n    }\r\n}",
  "sourcePath": "/home/tao/blockchain/privateChain/Solidity-SuperCommunity/contracts/SuperCommunity.sol",
  "compiler": {
    "name": "solc",
    "version": "0.4.24+commit.e67f0147.Emscripten.clang"
  },
  "schemaVersion": "2.0.1",
  "updatedAt": "2018-11-23T14:38:42.665Z"
}