{
  "contractName": "SuperCommunity",
  "abi": [
    {
      "constant": false,
      "inputs": [
        {
          "name": "_name",
          "type": "string"
        }
      ],
      "name": "watch",
      "outputs": [],
      "payable": false,
      "stateMutability": "nonpayable",
      "type": "function"
    },
    {
      "constant": true,
      "inputs": [],
      "name": "getMailCount",
      "outputs": [
        {
          "name": "",
          "type": "uint256"
        }
      ],
      "payable": false,
      "stateMutability": "view",
      "type": "function"
    },
    {
      "constant": true,
      "inputs": [
        {
          "name": "_index",
          "type": "uint256"
        }
      ],
      "name": "getWatchesByIndex",
      "outputs": [
        {
          "name": "",
          "type": "string"
        }
      ],
      "payable": false,
      "stateMutability": "view",
      "type": "function"
    },
    {
      "constant": true,
      "inputs": [],
      "name": "getCommentCount",
      "outputs": [
        {
          "name": "",
          "type": "uint256"
        }
      ],
      "payable": false,
      "stateMutability": "view",
      "type": "function"
    },
    {
      "constant": false,
      "inputs": [
        {
          "name": "_to",
          "type": "address"
        },
        {
          "name": "_amout",
          "type": "uint256"
        }
      ],
      "name": "donateFromCharity",
      "outputs": [],
      "payable": false,
      "stateMutability": "nonpayable",
      "type": "function"
    },
    {
      "constant": false,
      "inputs": [
        {
          "name": "_name",
          "type": "string"
        },
        {
          "name": "_comment",
          "type": "string"
        },
        {
          "name": "_head_img",
          "type": "string"
        }
      ],
      "name": "addComment",
      "outputs": [
        {
          "name": "",
          "type": "bool"
        }
      ],
      "payable": false,
      "stateMutability": "nonpayable",
      "type": "function"
    },
    {
      "constant": false,
      "inputs": [
        {
          "name": "to",
          "type": "address"
        },
        {
          "name": "_id",
          "type": "uint256"
        }
      ],
      "name": "rewardByAddr",
      "outputs": [
        {
          "name": "",
          "type": "bool"
        }
      ],
      "payable": true,
      "stateMutability": "payable",
      "type": "function"
    },
    {
      "constant": false,
      "inputs": [
        {
          "name": "_name",
          "type": "string"
        }
      ],
      "name": "unwatch",
      "outputs": [],
      "payable": false,
      "stateMutability": "nonpayable",
      "type": "function"
    },
    {
      "constant": true,
      "inputs": [],
      "name": "getSender",
      "outputs": [
        {
          "name": "",
          "type": "address"
        }
      ],
      "payable": false,
      "stateMutability": "view",
      "type": "function"
    },
    {
      "constant": true,
      "inputs": [
        {
          "name": "",
          "type": "address"
        },
        {
          "name": "",
          "type": "uint256"
        }
      ],
      "name": "addrToMailBox",
      "outputs": [
        {
          "name": "id",
          "type": "uint256"
        },
        {
          "name": "from",
          "type": "string"
        },
        {
          "name": "to",
          "type": "string"
        },
        {
          "name": "title",
          "type": "string"
        },
        {
          "name": "text",
          "type": "string"
        },
        {
          "name": "attachment",
          "type": "string"
        }
      ],
      "payable": false,
      "stateMutability": "view",
      "type": "function"
    },
    {
      "constant": false,
      "inputs": [],
      "name": "donateToCharity",
      "outputs": [],
      "payable": true,
      "stateMutability": "payable",
      "type": "function"
    },
    {
      "constant": false,
      "inputs": [],
      "name": "renounceOwnership",
      "outputs": [],
      "payable": false,
      "stateMutability": "nonpayable",
      "type": "function"
    },
    {
      "constant": false,
      "inputs": [
        {
          "name": "_id",
          "type": "uint256"
        },
        {
          "name": "_attachment",
          "type": "string"
        }
      ],
      "name": "setAttachment",
      "outputs": [],
      "payable": false,
      "stateMutability": "nonpayable",
      "type": "function"
    },
    {
      "constant": true,
      "inputs": [],
      "name": "owner",
      "outputs": [
        {
          "name": "",
          "type": "address"
        }
      ],
      "payable": false,
      "stateMutability": "view",
      "type": "function"
    },
    {
      "constant": true,
      "inputs": [
        {
          "name": "_name",
          "type": "string"
        }
      ],
      "name": "getAddrByName",
      "outputs": [
        {
          "name": "",
          "type": "address"
        }
      ],
      "payable": false,
      "stateMutability": "view",
      "type": "function"
    },
    {
      "constant": true,
      "inputs": [],
      "name": "isOwner",
      "outputs": [
        {
          "name": "",
          "type": "bool"
        }
      ],
      "payable": false,
      "stateMutability": "view",
      "type": "function"
    },
    {
      "constant": true,
      "inputs": [
        {
          "name": "_index",
          "type": "uint256"
        }
      ],
      "name": "getCommentByIndex",
      "outputs": [
        {
          "name": "",
          "type": "string"
        },
        {
          "name": "",
          "type": "string"
        },
        {
          "name": "",
          "type": "string"
        },
        {
          "name": "",
          "type": "uint256"
        }
      ],
      "payable": false,
      "stateMutability": "view",
      "type": "function"
    },
    {
      "constant": true,
      "inputs": [],
      "name": "getUserCount",
      "outputs": [
        {
          "name": "",
          "type": "uint256"
        }
      ],
      "payable": false,
      "stateMutability": "view",
      "type": "function"
    },
    {
      "constant": true,
      "inputs": [],
      "name": "getWatchesCount",
      "outputs": [
        {
          "name": "",
          "type": "uint256"
        }
      ],
      "payable": false,
      "stateMutability": "view",
      "type": "function"
    },
    {
      "constant": true,
      "inputs": [
        {
          "name": "_id",
          "type": "uint256"
        }
      ],
      "name": "getNameByCommentId",
      "outputs": [
        {
          "name": "",
          "type": "string"
        }
      ],
      "payable": false,
      "stateMutability": "view",
      "type": "function"
    },
    {
      "constant": false,
      "inputs": [
        {
          "name": "_name",
          "type": "string"
        }
      ],
      "name": "register",
      "outputs": [
        {
          "name": "",
          "type": "bool"
        }
      ],
      "payable": false,
      "stateMutability": "nonpayable",
      "type": "function"
    },
    {
      "constant": false,
      "inputs": [
        {
          "name": "newOwner",
          "type": "address"
        }
      ],
      "name": "transferOwnership",
      "outputs": [],
      "payable": false,
      "stateMutability": "nonpayable",
      "type": "function"
    },
    {
      "constant": true,
      "inputs": [
        {
          "name": "_index",
          "type": "uint256"
        }
      ],
      "name": "getMailByIndex",
      "outputs": [
        {
          "name": "",
          "type": "string"
        },
        {
          "name": "",
          "type": "string"
        },
        {
          "name": "",
          "type": "string"
        },
        {
          "name": "",
          "type": "string"
        },
        {
          "name": "",
          "type": "string"
        }
      ],
      "payable": false,
      "stateMutability": "view",
      "type": "function"
    },
    {
      "constant": true,
      "inputs": [
        {
          "name": "_index",
          "type": "uint256"
        }
      ],
      "name": "getUserByIndex",
      "outputs": [
        {
          "name": "",
          "type": "string"
        },
        {
          "name": "",
          "type": "string"
        },
        {
          "name": "",
          "type": "string"
        },
        {
          "name": "",
          "type": "string"
        },
        {
          "name": "",
          "type": "string"
        }
      ],
      "payable": false,
      "stateMutability": "view",
      "type": "function"
    },
    {
      "anonymous": false,
      "inputs": [
        {
          "indexed": true,
          "name": "previousOwner",
          "type": "address"
        },
        {
          "indexed": true,
          "name": "newOwner",
          "type": "address"
        }
      ],
      "name": "OwnershipTransferred",
      "type": "event"
    },
    {
      "constant": false,
      "inputs": [
        {
          "name": "_comment",
          "type": "string"
        }
      ],
      "name": "sendComment",
      "outputs": [],
      "payable": false,
      "stateMutability": "nonpayable",
      "type": "function"
    },
    {
      "constant": false,
      "inputs": [
        {
          "name": "_id",
          "type": "uint256"
        }
      ],
      "name": "rewardComment",
      "outputs": [],
      "payable": false,
      "stateMutability": "nonpayable",
      "type": "function"
    },
    {
      "constant": false,
      "inputs": [
        {
          "name": "_to",
          "type": "string"
        },
        {
          "name": "_title",
          "type": "string"
        },
        {
          "name": "_text",
          "type": "string"
        }
      ],
      "name": "sendMail",
      "outputs": [],
      "payable": false,
      "stateMutability": "nonpayable",
      "type": "function"
    }
  ],
  "bytecode": "0x6080604052670de0b6b3a764000060085533600760006101000a81548173ffffffffffffffffffffffffffffffffffffffff021916908373ffffffffffffffffffffffffffffffffffffffff160217905550600760009054906101000a900473ffffffffffffffffffffffffffffffffffffffff1673ffffffffffffffffffffffffffffffffffffffff16600073ffffffffffffffffffffffffffffffffffffffff167f8be0079c531659141344cd1fd0a4f28419497f9722a3daafe3b4186f6b6457e060405160405180910390a3614c0d806100dd6000396000f30060806040526004361061015f576000357c0100000000000000000000000000000000000000000000000000000000900463ffffffff16806307574d7f1461016457806310620542146101cd578063166e9985146101f857806316e31ea31461029e5780632aa085b0146102c957806339b92d17146103165780633c128e1314610423578063517377571461047b5780635e01eb5a146104e45780635fc2b3b01461053b57806362d2fd12146106305780636df063ff146108ad5780636e87be20146108da578063715018a6146108e4578063810a006a146108fb5780638da5cb5b1461096e5780638dc3f873146109c55780638f32d59b14610a6e578063ac2c883714610a9d578063b5cb15f714610c22578063b741aa5114610c4d578063c9bf65b414610cb6578063cd70aced14610ce1578063f2c298be14610d87578063f2fde38b14610e08578063f5394ca514610e4b578063ff5d32fe146110a1575b600080fd5b34801561017057600080fd5b506101cb600480360381019080803590602001908201803590602001908080601f01602080910402602001604051908101604052809392919081815260200183838082843782019150505050505091929192905050506112f7565b005b3480156101d957600080fd5b506101e2611710565b6040518082815260200191505060405180910390f35b34801561020457600080fd5b506102236004803603810190808035906020019092919050505061175a565b6040518080602001828103825283818151815260200191508051906020019080838360005b83811015610263578082015181840152602081019050610248565b50505050905090810190601f1680156102905780820380516001836020036101000a031916815260200191505b509250505060405180910390f35b3480156102aa57600080fd5b506102b361193e565b6040518082815260200191505060405180910390f35b3480156102d557600080fd5b50610314600480360381019080803573ffffffffffffffffffffffffffffffffffffffff1690602001909291908035906020019092919050505061194b565b005b34801561032257600080fd5b50610409600480360381019080803590602001908201803590602001908080601f0160208091040260200160405190810160405280939291908181526020018383808284378201915050505050509192919290803590602001908201803590602001908080601f0160208091040260200160405190810160405280939291908181526020018383808284378201915050505050509192919290803590602001908201803590602001908080601f0160208091040260200160405190810160405280939291908181526020018383808284378201915050505050509192919290505050611a62565b604051808215151515815260200191505060405180910390f35b610461600480360381019080803573ffffffffffffffffffffffffffffffffffffffff16906020019092919080359060200190929190505050611bff565b604051808215151515815260200191505060405180910390f35b34801561048757600080fd5b506104e2600480360381019080803590602001908201803590602001908080601f0160208091040260200160405190810160405280939291908181526020018383808284378201915050505050509192919290505050611d1a565b005b3480156104f057600080fd5b506104f961217c565b604051808273ffffffffffffffffffffffffffffffffffffffff1673ffffffffffffffffffffffffffffffffffffffff16815260200191505060405180910390f35b34801561054757600080fd5b5061062e600480360381019080803590602001908201803590602001908080601f0160208091040260200160405190810160405280939291908181526020018383808284378201915050505050509192919290803590602001908201803590602001908080601f0160208091040260200160405190810160405280939291908181526020018383808284378201915050505050509192919290803590602001908201803590602001908080601f0160208091040260200160405190810160405280939291908181526020018383808284378201915050505050509192919290505050612184565b005b34801561063c57600080fd5b5061067b600480360381019080803573ffffffffffffffffffffffffffffffffffffffff1690602001909291908035906020019092919050505061271b565b60405180878152602001806020018060200180602001806020018060200186810386528b818151815260200191508051906020019080838360005b838110156106d15780820151818401526020810190506106b6565b50505050905090810190601f1680156106fe5780820380516001836020036101000a031916815260200191505b5086810385528a818151815260200191508051906020019080838360005b8381101561073757808201518184015260208101905061071c565b50505050905090810190601f1680156107645780820380516001836020036101000a031916815260200191505b50868103845289818151815260200191508051906020019080838360005b8381101561079d578082015181840152602081019050610782565b50505050905090810190601f1680156107ca5780820380516001836020036101000a031916815260200191505b50868103835288818151815260200191508051906020019080838360005b838110156108035780820151818401526020810190506107e8565b50505050905090810190601f1680156108305780820380516001836020036101000a031916815260200191505b50868103825287818151815260200191508051906020019080838360005b8381101561086957808201518184015260208101905061084e565b50505050905090810190601f1680156108965780820380516001836020036101000a031916815260200191505b509b50505050505050505050505060405180910390f35b3480156108b957600080fd5b506108d860048036038101908080359060200190929190505050612a6b565b005b6108e2612c52565b005b3480156108f057600080fd5b506108f9612d33565b005b34801561090757600080fd5b5061096c60048036038101908080359060200190929190803590602001908201803590602001908080601f0160208091040260200160405190810160405280939291908181526020018383808284378201915050505050509192919290505050612ebc565b005b34801561097a57600080fd5b50610983612f32565b604051808273ffffffffffffffffffffffffffffffffffffffff1673ffffffffffffffffffffffffffffffffffffffff16815260200191505060405180910390f35b3480156109d157600080fd5b50610a2c600480360381019080803590602001908201803590602001908080601f0160208091040260200160405190810160405280939291908181526020018383808284378201915050505050509192919290505050612f5c565b604051808273ffffffffffffffffffffffffffffffffffffffff1673ffffffffffffffffffffffffffffffffffffffff16815260200191505060405180910390f35b348015610a7a57600080fd5b50610a83612ff1565b604051808215151515815260200191505060405180910390f35b348015610aa957600080fd5b50610ac860048036038101908080359060200190929190505050613049565b60405180806020018060200180602001858152602001848103845288818151815260200191508051906020019080838360005b83811015610b16578082015181840152602081019050610afb565b50505050905090810190601f168015610b435780820380516001836020036101000a031916815260200191505b50848103835287818151815260200191508051906020019080838360005b83811015610b7c578082015181840152602081019050610b61565b50505050905090810190601f168015610ba95780820380516001836020036101000a031916815260200191505b50848103825286818151815260200191508051906020019080838360005b83811015610be2578082015181840152602081019050610bc7565b50505050905090810190601f168015610c0f5780820380516001836020036101000a031916815260200191505b5097505050505050505060405180910390f35b348015610c2e57600080fd5b50610c376132aa565b6040518082815260200191505060405180910390f35b348015610c5957600080fd5b50610cb4600480360381019080803590602001908201803590602001908080601f01602080910402602001604051908101604052809392919081815260200183838082843782019150505050505091929192905050506132b6565b005b348015610cc257600080fd5b50610ccb61371d565b6040518082815260200191505060405180910390f35b348015610ced57600080fd5b50610d0c60048036038101908080359060200190929190505050613767565b6040518080602001828103825283818151815260200191508051906020019080838360005b83811015610d4c578082015181840152602081019050610d31565b50505050905090810190601f168015610d795780820380516001836020036101000a031916815260200191505b509250505060405180910390f35b348015610d9357600080fd5b50610dee600480360381019080803590602001908201803590602001908080601f0160208091040260200160405190810160405280939291908181526020018383808284378201915050505050509192919290505050613829565b604051808215151515815260200191505060405180910390f35b348015610e1457600080fd5b50610e49600480360381019080803573ffffffffffffffffffffffffffffffffffffffff169060200190929190505050613de4565b005b348015610e5757600080fd5b50610e7660048036038101908080359060200190929190505050613eb8565b60405180806020018060200180602001806020018060200186810386528b818151815260200191508051906020019080838360005b83811015610ec6578082015181840152602081019050610eab565b50505050905090810190601f168015610ef35780820380516001836020036101000a031916815260200191505b5086810385528a818151815260200191508051906020019080838360005b83811015610f2c578082015181840152602081019050610f11565b50505050905090810190601f168015610f595780820380516001836020036101000a031916815260200191505b50868103845289818151815260200191508051906020019080838360005b83811015610f92578082015181840152602081019050610f77565b50505050905090810190601f168015610fbf5780820380516001836020036101000a031916815260200191505b50868103835288818151815260200191508051906020019080838360005b83811015610ff8578082015181840152602081019050610fdd565b50505050905090810190601f1680156110255780820380516001836020036101000a031916815260200191505b50868103825287818151815260200191508051906020019080838360005b8381101561105e578082015181840152602081019050611043565b50505050905090810190601f16801561108b5780820380516001836020036101000a031916815260200191505b509a505050505050505050505060405180910390f35b3480156110ad57600080fd5b506110cc600480360381019080803590602001909291905050506142a0565b60405180806020018060200180602001806020018060200186810386528b818151815260200191508051906020019080838360005b8381101561111c578082015181840152602081019050611101565b50505050905090810190601f1680156111495780820380516001836020036101000a031916815260200191505b5086810385528a818151815260200191508051906020019080838360005b83811015611182578082015181840152602081019050611167565b50505050905090810190601f1680156111af5780820380516001836020036101000a031916815260200191505b50868103845289818151815260200191508051906020019080838360005b838110156111e85780820151818401526020810190506111cd565b50505050905090810190601f1680156112155780820380516001836020036101000a031916815260200191505b50868103835288818151815260200191508051906020019080838360005b8381101561124e578082015181840152602081019050611233565b50505050905090810190601f16801561127b5780820380516001836020036101000a031916815260200191505b50868103825287818151815260200191508051906020019080838360005b838110156112b4578082015181840152602081019050611299565b50505050905090810190601f1680156112e15780820380516001836020036101000a031916815260200191505b509a505050505050505050505060405180910390f35b60606000336000600160008373ffffffffffffffffffffffffffffffffffffffff1673ffffffffffffffffffffffffffffffffffffffff1681526020019081526020016000206000018054600181600116156101000203166002900490501115156113ca576040517f08c379a00000000000000000000000000000000000000000000000000000000081526004018080602001828103825260198152602001807f74686973206e616d65206973206e6f7420657869737465642e0000000000000081525060200191505060405180910390fd5b83600073ffffffffffffffffffffffffffffffffffffffff166002826040518082805190602001908083835b60208310151561141b57805182526020820191506020810190506020830392506113f6565b6001836020036101000a038019825116818451168082178552505050505050905001915050908152602001604051809103902060009054906101000a900473ffffffffffffffffffffffffffffffffffffffff1673ffffffffffffffffffffffffffffffffffffffff16141515156114fb576040517f08c379a00000000000000000000000000000000000000000000000000000000081526004018080602001828103825260198152602001807f74686973206e616d65206973206e6f7420657869737465642e0000000000000081525060200191505060405180910390fd5b600160003373ffffffffffffffffffffffffffffffffffffffff1673ffffffffffffffffffffffffffffffffffffffff1681526020019081526020016000206000018054600181600116156101000203166002900480601f0160208091040260200160405190810160405280929190818152602001828054600181600116156101000203166002900480156115d15780601f106115a6576101008083540402835291602001916115d1565b820191906000526020600020905b8154815290600101906020018083116115b457829003601f168201915b505050505093506002846040518082805190602001908083835b60208310151561161057805182526020820191506020810190506020830392506115eb565b6001836020036101000a038019825116818451168082178552505050505050905001915050908152602001604051809103902060009054906101000a900473ffffffffffffffffffffffffffffffffffffffff169250600360003373ffffffffffffffffffffffffffffffffffffffff1673ffffffffffffffffffffffffffffffffffffffff1681526020019081526020016000208390806001815401808255809150509060018203906000526020600020016000909192909190916101000a81548173ffffffffffffffffffffffffffffffffffffffff021916908373ffffffffffffffffffffffffffffffffffffffff160217905550505050505050565b6000600660003373ffffffffffffffffffffffffffffffffffffffff1673ffffffffffffffffffffffffffffffffffffffff16815260200190815260200160002080549050905090565b60606000606061176861371d565b841015156117de576040517f08c379a00000000000000000000000000000000000000000000000000000000081526004018080602001828103825260128152602001807f696e646578206f7574206f6620626f756e64000000000000000000000000000081525060200191505060405180910390fd5b600360003373ffffffffffffffffffffffffffffffffffffffff1673ffffffffffffffffffffffffffffffffffffffff1681526020019081526020016000208481548110151561182a57fe5b9060005260206000200160009054906101000a900473ffffffffffffffffffffffffffffffffffffffff169150600160008373ffffffffffffffffffffffffffffffffffffffff1673ffffffffffffffffffffffffffffffffffffffff1681526020019081526020016000206000018054600181600116156101000203166002900480601f01602080910402602001604051908101604052809291908181526020018280546001816001161561010002031660029004801561192d5780601f106119025761010080835404028352916020019161192d565b820191906000526020600020905b81548152906001019060200180831161191057829003601f168201915b505050505090508092505050919050565b6000600480549050905090565b611953612ff1565b1515611a13576040517f08c379a00000000000000000000000000000000000000000000000000000000081526004018080602001828103825260428152602001807f7065726d697373696f6e2064656e6965642c206f6e6c79206f776e6572206f6681526020017f207468697320636f6e74726163742068617320746865207065726d697373696f81526020017f6e2e00000000000000000000000000000000000000000000000000000000000081525060600191505060405180910390fd5b8173ffffffffffffffffffffffffffffffffffffffff166108fc60085483029081150290604051600060405180830381858888f19350505050158015611a5d573d6000803e3d6000fd5b505050565b6000808360008151111515611b05576040517f08c379a000000000000000000000000000000000000000000000000000000000815260040180806020018281038252602b8152602001807f746865206c656e677468206f66206120636f6d6d656e74206d7573742067726581526020017f61746572207468616e203000000000000000000000000000000000000000000081525060400191505060405180910390fd5b6001600460a060405190810160405280600081526020018981526020018881526020018781526020014281525090806001815401808255809150509060018203906000526020600020906005020160009091929091909150600082015181600001556020820151816001019080519060200190611b83929190614a25565b506040820151816002019080519060200190611ba0929190614a25565b506060820151816003019080519060200190611bbd929190614a25565b5060808201518160040155505003915081600483815481101515611bdd57fe5b9060005260206000209060050201600001819055506001925050509392505050565b600082600073ffffffffffffffffffffffffffffffffffffffff168173ffffffffffffffffffffffffffffffffffffffff1614151515611ca7576040517f08c379a00000000000000000000000000000000000000000000000000000000081526004018080602001828103825260108152602001807f696e76616c696420616464726573732e0000000000000000000000000000000081525060200191505060405180910390fd5b8373ffffffffffffffffffffffffffffffffffffffff166108fc349081150290604051600060405180830381858888f19350505050158015611ced573d6000803e3d6000fd5b50346005600085815260200190815260200160002060008282540192505081905550600191505092915050565b600080600080336000600160008373ffffffffffffffffffffffffffffffffffffffff1673ffffffffffffffffffffffffffffffffffffffff168152602001908152602001600020600001805460018160011615610100020316600290049050111515611def576040517f08c379a00000000000000000000000000000000000000000000000000000000081526004018080602001828103825260198152602001807f74686973206e616d65206973206e6f7420657869737465642e0000000000000081525060200191505060405180910390fd5b85600073ffffffffffffffffffffffffffffffffffffffff166002826040518082805190602001908083835b602083101515611e405780518252602082019150602081019050602083039250611e1b565b6001836020036101000a038019825116818451168082178552505050505050905001915050908152602001604051809103902060009054906101000a900473ffffffffffffffffffffffffffffffffffffffff1673ffffffffffffffffffffffffffffffffffffffff1614151515611f20576040517f08c379a00000000000000000000000000000000000000000000000000000000081526004018080602001828103825260198152602001807f74686973206e616d65206973206e6f7420657869737465642e0000000000000081525060200191505060405180910390fd5b6002876040518082805190602001908083835b602083101515611f585780518252602082019150602081019050602083039250611f33565b6001836020036101000a038019825116818451168082178552505050505050905001915050908152602001604051809103902060009054906101000a900473ffffffffffffffffffffffffffffffffffffffff169550600360003373ffffffffffffffffffffffffffffffffffffffff1673ffffffffffffffffffffffffffffffffffffffff168152602001908152602001600020805490509450600093505b8484101561217357600360003373ffffffffffffffffffffffffffffffffffffffff1673ffffffffffffffffffffffffffffffffffffffff1681526020019081526020016000208481548110151561204c57fe5b9060005260206000200160009054906101000a900473ffffffffffffffffffffffffffffffffffffffff169250600073ffffffffffffffffffffffffffffffffffffffff168373ffffffffffffffffffffffffffffffffffffffff1614156120b357612166565b8273ffffffffffffffffffffffffffffffffffffffff168673ffffffffffffffffffffffffffffffffffffffff16141561216557600360003373ffffffffffffffffffffffffffffffffffffffff1673ffffffffffffffffffffffffffffffffffffffff1681526020019081526020016000208481548110151561213357fe5b9060005260206000200160006101000a81549073ffffffffffffffffffffffffffffffffffffffff0219169055612173565b5b8380600101945050611ff8565b50505050505050565b600033905090565b61218c614aa5565b336000600160008373ffffffffffffffffffffffffffffffffffffffff1673ffffffffffffffffffffffffffffffffffffffff16815260200190815260200160002060000180546001816001161561010002031660029004905011151561225b576040517f08c379a00000000000000000000000000000000000000000000000000000000081526004018080602001828103825260198152602001807f74686973206e616d65206973206e6f7420657869737465642e0000000000000081525060200191505060405180910390fd5b84600073ffffffffffffffffffffffffffffffffffffffff166002826040518082805190602001908083835b6020831015156122ac5780518252602082019150602081019050602083039250612287565b6001836020036101000a038019825116818451168082178552505050505050905001915050908152602001604051809103902060009054906101000a900473ffffffffffffffffffffffffffffffffffffffff1673ffffffffffffffffffffffffffffffffffffffff161415151561238c576040517f08c379a00000000000000000000000000000000000000000000000000000000081526004018080602001828103825260198152602001807f74686973206e616d65206973206e6f7420657869737465642e0000000000000081525060200191505060405180910390fd5b600160003373ffffffffffffffffffffffffffffffffffffffff1673ffffffffffffffffffffffffffffffffffffffff16815260200190815260200160002060a06040519081016040529081600082018054600181600116156101000203166002900480601f0160208091040260200160405190810160405280929190818152602001828054600181600116156101000203166002900480156124705780601f1061244557610100808354040283529160200191612470565b820191906000526020600020905b81548152906001019060200180831161245357829003601f168201915b50505050508152602001600182018054600181600116156101000203166002900480601f0160208091040260200160405190810160405280929190818152602001828054600181600116156101000203166002900480156125125780601f106124e757610100808354040283529160200191612512565b820191906000526020600020905b8154815290600101906020018083116124f557829003601f168201915b50505050508152602001600282018054600181600116156101000203166002900480601f0160208091040260200160405190810160405280929190818152602001828054600181600116156101000203166002900480156125b45780601f10612589576101008083540402835291602001916125b4565b820191906000526020600020905b81548152906001019060200180831161259757829003601f168201915b50505050508152602001600382018054600181600116156101000203166002900480601f0160208091040260200160405190810160405280929190818152602001828054600181600116156101000203166002900480156126565780601f1061262b57610100808354040283529160200191612656565b820191906000526020600020905b81548152906001019060200180831161263957829003601f168201915b50505050508152602001600482018054600181600116156101000203166002900480601f0160208091040260200160405190810160405280929190818152602001828054600181600116156101000203166002900480156126f85780601f106126cd576101008083540402835291602001916126f8565b820191906000526020600020905b8154815290600101906020018083116126db57829003601f168201915b505050505081525050925061271383600001518787876146bf565b505050505050565b60066020528160005260406000208181548110151561273657fe5b906000526020600020906006020160009150915050806000015490806001018054600181600116156101000203166002900480601f0160208091040260200160405190810160405280929190818152602001828054600181600116156101000203166002900480156127e95780601f106127be576101008083540402835291602001916127e9565b820191906000526020600020905b8154815290600101906020018083116127cc57829003601f168201915b505050505090806002018054600181600116156101000203166002900480601f0160208091040260200160405190810160405280929190818152602001828054600181600116156101000203166002900480156128875780601f1061285c57610100808354040283529160200191612887565b820191906000526020600020905b81548152906001019060200180831161286a57829003601f168201915b505050505090806003018054600181600116156101000203166002900480601f0160208091040260200160405190810160405280929190818152602001828054600181600116156101000203166002900480156129255780601f106128fa57610100808354040283529160200191612925565b820191906000526020600020905b81548152906001019060200180831161290857829003601f168201915b505050505090806004018054600181600116156101000203166002900480601f0160208091040260200160405190810160405280929190818152602001828054600181600116156101000203166002900480156129c35780601f10612998576101008083540402835291602001916129c3565b820191906000526020600020905b8154815290600101906020018083116129a657829003601f168201915b505050505090806005018054600181600116156101000203166002900480601f016020809104026020016040519081016040528092919081815260200182805460018160011615610100020316600290048015612a615780601f10612a3657610100808354040283529160200191612a61565b820191906000526020600020905b815481529060010190602001808311612a4457829003601f168201915b5050505050905086565b60606000612a7883613767565b600073ffffffffffffffffffffffffffffffffffffffff166002826040518082805190602001908083835b602083101515612ac85780518252602082019150602081019050602083039250612aa3565b6001836020036101000a038019825116818451168082178552505050505050905001915050908152602001604051809103902060009054906101000a900473ffffffffffffffffffffffffffffffffffffffff1673ffffffffffffffffffffffffffffffffffffffff1614151515612ba8576040517f08c379a00000000000000000000000000000000000000000000000000000000081526004018080602001828103825260198152602001807f74686973206e616d65206973206e6f7420657869737465642e0000000000000081525060200191505060405180910390fd5b612bb184613767565b92506002836040518082805190602001908083835b602083101515612beb5780518252602082019150602081019050602083039250612bc6565b6001836020036101000a038019825116818451168082178552505050505050905001915050908152602001604051809103902060009054906101000a900473ffffffffffffffffffffffffffffffffffffffff169150612c4b8285611bff565b5050505050565b6000806008543410151515612ccf576040517f08c379a000000000000000000000000000000000000000000000000000000000815260040180806020018281038252601c8152602001807f73686f756c6420706179206d6f7265207468616e20312065746865720000000081525060200191505060405180910390fd5b60085434811515612cdc57fe5b0491506008548202340390503373ffffffffffffffffffffffffffffffffffffffff166108fc829081150290604051600060405180830381858888f19350505050158015612d2e573d6000803e3d6000fd5b505050565b612d3b612ff1565b1515612dfb576040517f08c379a00000000000000000000000000000000000000000000000000000000081526004018080602001828103825260428152602001807f7065726d697373696f6e2064656e6965642c206f6e6c79206f776e6572206f6681526020017f207468697320636f6e74726163742068617320746865207065726d697373696f81526020017f6e2e00000000000000000000000000000000000000000000000000000000000081525060600191505060405180910390fd5b600073ffffffffffffffffffffffffffffffffffffffff16600760009054906101000a900473ffffffffffffffffffffffffffffffffffffffff1673ffffffffffffffffffffffffffffffffffffffff167f8be0079c531659141344cd1fd0a4f28419497f9722a3daafe3b4186f6b6457e060405160405180910390a36000600760006101000a81548173ffffffffffffffffffffffffffffffffffffffff021916908373ffffffffffffffffffffffffffffffffffffffff160217905550565b80600660003373ffffffffffffffffffffffffffffffffffffffff1673ffffffffffffffffffffffffffffffffffffffff16815260200190815260200160002083815481101515612f0957fe5b90600052602060002090600602016005019080519060200190612f2d929190614ad5565b505050565b6000600760009054906101000a900473ffffffffffffffffffffffffffffffffffffffff16905090565b60006002826040518082805190602001908083835b602083101515612f965780518252602082019150602081019050602083039250612f71565b6001836020036101000a038019825116818451168082178552505050505050905001915050908152602001604051809103902060009054906101000a900473ffffffffffffffffffffffffffffffffffffffff169050919050565b6000600760009054906101000a900473ffffffffffffffffffffffffffffffffffffffff1673ffffffffffffffffffffffffffffffffffffffff163373ffffffffffffffffffffffffffffffffffffffff1614905090565b60608060606000613058614b55565b60048681548110151561306757fe5b906000526020600020906005020160a0604051908101604052908160008201548152602001600182018054600181600116156101000203166002900480601f0160208091040260200160405190810160405280929190818152602001828054600181600116156101000203166002900480156131245780601f106130f957610100808354040283529160200191613124565b820191906000526020600020905b81548152906001019060200180831161310757829003601f168201915b50505050508152602001600282018054600181600116156101000203166002900480601f0160208091040260200160405190810160405280929190818152602001828054600181600116156101000203166002900480156131c65780601f1061319b576101008083540402835291602001916131c6565b820191906000526020600020905b8154815290600101906020018083116131a957829003601f168201915b50505050508152602001600382018054600181600116156101000203166002900480601f0160208091040260200160405190810160405280929190818152602001828054600181600116156101000203166002900480156132685780601f1061323d57610100808354040283529160200191613268565b820191906000526020600020905b81548152906001019060200180831161324b57829003601f168201915b50505050508152602001600482015481525050905080602001518160400151826060015183608001518393508292508191509450945094509450509193509193565b60008080549050905090565b6132be614aa5565b336000600160008373ffffffffffffffffffffffffffffffffffffffff1673ffffffffffffffffffffffffffffffffffffffff16815260200190815260200160002060000180546001816001161561010002031660029004905011151561338d576040517f08c379a00000000000000000000000000000000000000000000000000000000081526004018080602001828103825260198152602001807f74686973206e616d65206973206e6f7420657869737465642e0000000000000081525060200191505060405180910390fd5b600160003373ffffffffffffffffffffffffffffffffffffffff1673ffffffffffffffffffffffffffffffffffffffff16815260200190815260200160002060a06040519081016040529081600082018054600181600116156101000203166002900480601f0160208091040260200160405190810160405280929190818152602001828054600181600116156101000203166002900480156134715780601f1061344657610100808354040283529160200191613471565b820191906000526020600020905b81548152906001019060200180831161345457829003601f168201915b50505050508152602001600182018054600181600116156101000203166002900480601f0160208091040260200160405190810160405280929190818152602001828054600181600116156101000203166002900480156135135780601f106134e857610100808354040283529160200191613513565b820191906000526020600020905b8154815290600101906020018083116134f657829003601f168201915b50505050508152602001600282018054600181600116156101000203166002900480601f0160208091040260200160405190810160405280929190818152602001828054600181600116156101000203166002900480156135b55780601f1061358a576101008083540402835291602001916135b5565b820191906000526020600020905b81548152906001019060200180831161359857829003601f168201915b50505050508152602001600382018054600181600116156101000203166002900480601f0160208091040260200160405190810160405280929190818152602001828054600181600116156101000203166002900480156136575780601f1061362c57610100808354040283529160200191613657565b820191906000526020600020905b81548152906001019060200180831161363a57829003601f168201915b50505050508152602001600482018054600181600116156101000203166002900480601f0160208091040260200160405190810160405280929190818152602001828054600181600116156101000203166002900480156136f95780601f106136ce576101008083540402835291602001916136f9565b820191906000526020600020905b8154815290600101906020018083116136dc57829003601f168201915b50505050508152505091506137178260000151848460200151611a62565b50505050565b6000600360003373ffffffffffffffffffffffffffffffffffffffff1673ffffffffffffffffffffffffffffffffffffffff16815260200190815260200160002080549050905090565b606060048281548110151561377857fe5b90600052602060002090600502016001018054600181600116156101000203166002900480601f01602080910402602001604051908101604052809291908181526020018280546001816001161561010002031660029004801561381d5780601f106137f25761010080835404028352916020019161381d565b820191906000526020600020905b81548152906001019060200180831161380057829003601f168201915b50505050509050919050565b600081600281511115156138cb576040517f08c379a00000000000000000000000000000000000000000000000000000000081526004018080602001828103825260288152602001807f746865206c656e677468206f662061206e616d65206d7573742067726561746581526020017f72207468616e203200000000000000000000000000000000000000000000000081525060400191505060405180910390fd5b82600073ffffffffffffffffffffffffffffffffffffffff166002826040518082805190602001908083835b60208310151561391c57805182526020820191506020810190506020830392506138f7565b6001836020036101000a038019825116818451168082178552505050505050905001915050908152602001604051809103902060009054906101000a900473ffffffffffffffffffffffffffffffffffffffff1673ffffffffffffffffffffffffffffffffffffffff161415156139fb576040517f08c379a00000000000000000000000000000000000000000000000000000000081526004018080602001828103825260188152602001807f74686973206e616d6520686173206265656e20757365642e000000000000000081525060200191505060405180910390fd5b336000600160008373ffffffffffffffffffffffffffffffffffffffff1673ffffffffffffffffffffffffffffffffffffffff168152602001908152602001600020600001805460018160011615610100020316600290049050141515613aca576040517f08c379a000000000000000000000000000000000000000000000000000000000815260040180806020018281038252601b8152602001807f796f7520686176652072656769737465726564206265666f72652e000000000081525060200191505060405180910390fd5b600060a0604051908101604052808781526020016020604051908101604052806000815250815260200160206040519081016040528060008152508152602001602060405190810160405280600081525081526020016020604051908101604052806000815250815250908060018154018082558091505090600182039060005260206000209060050201600090919290919091506000820151816000019080519060200190613b7b929190614a25565b506020820151816001019080519060200190613b98929190614a25565b506040820151816002019080519060200190613bb5929190614a25565b506060820151816003019080519060200190613bd2929190614a25565b506080820151816004019080519060200190613bef929190614a25565b50505050336002866040518082805190602001908083835b602083101515613c2c5780518252602082019150602081019050602083039250613c07565b6001836020036101000a038019825116818451168082178552505050505050905001915050908152602001604051809103902060006101000a81548173ffffffffffffffffffffffffffffffffffffffff021916908373ffffffffffffffffffffffffffffffffffffffff16021790555060a0604051908101604052808681526020016020604051908101604052806000815250815260200160206040519081016040528060008152508152602001602060405190810160405280600081525081526020016020604051908101604052806000815250815250600160003373ffffffffffffffffffffffffffffffffffffffff1673ffffffffffffffffffffffffffffffffffffffff1681526020019081526020016000206000820151816000019080519060200190613d60929190614a25565b506020820151816001019080519060200190613d7d929190614a25565b506040820151816002019080519060200190613d9a929190614a25565b506060820151816003019080519060200190613db7929190614a25565b506080820151816004019080519060200190613dd4929190614a25565b5090505060019350505050919050565b613dec612ff1565b1515613eac576040517f08c379a00000000000000000000000000000000000000000000000000000000081526004018080602001828103825260428152602001807f7065726d697373696f6e2064656e6965642c206f6e6c79206f776e6572206f6681526020017f207468697320636f6e74726163742068617320746865207065726d697373696f81526020017f6e2e00000000000000000000000000000000000000000000000000000000000081525060600191505060405180910390fd5b613eb58161489a565b50565b6060806060806060613ec8614b85565b600660003373ffffffffffffffffffffffffffffffffffffffff1673ffffffffffffffffffffffffffffffffffffffff16815260200190815260200160002087815481101515613f1457fe5b906000526020600020906006020160c0604051908101604052908160008201548152602001600182018054600181600116156101000203166002900480601f016020809104026020016040519081016040528092919081815260200182805460018160011615610100020316600290048015613fd15780601f10613fa657610100808354040283529160200191613fd1565b820191906000526020600020905b815481529060010190602001808311613fb457829003601f168201915b50505050508152602001600282018054600181600116156101000203166002900480601f0160208091040260200160405190810160405280929190818152602001828054600181600116156101000203166002900480156140735780601f1061404857610100808354040283529160200191614073565b820191906000526020600020905b81548152906001019060200180831161405657829003601f168201915b50505050508152602001600382018054600181600116156101000203166002900480601f0160208091040260200160405190810160405280929190818152602001828054600181600116156101000203166002900480156141155780601f106140ea57610100808354040283529160200191614115565b820191906000526020600020905b8154815290600101906020018083116140f857829003601f168201915b50505050508152602001600482018054600181600116156101000203166002900480601f0160208091040260200160405190810160405280929190818152602001828054600181600116156101000203166002900480156141b75780601f1061418c576101008083540402835291602001916141b7565b820191906000526020600020905b81548152906001019060200180831161419a57829003601f168201915b50505050508152602001600582018054600181600116156101000203166002900480601f0160208091040260200160405190810160405280929190818152602001828054600181600116156101000203166002900480156142595780601f1061422e57610100808354040283529160200191614259565b820191906000526020600020905b81548152906001019060200180831161423c57829003601f168201915b505050505081525050905080602001518160400151826060015183608001518460a00151849450839350829250819150809050955095509550955095505091939590929450565b60608060608060606142b0614aa5565b6142b86132aa565b8710151561432e576040517f08c379a00000000000000000000000000000000000000000000000000000000081526004018080602001828103825260128152602001807f696e646578206f7574206f6620626f756e64000000000000000000000000000081525060200191505060405180910390fd5b60008781548110151561433d57fe5b906000526020600020906005020160a06040519081016040529081600082018054600181600116156101000203166002900480601f0160208091040260200160405190810160405280929190818152602001828054600181600116156101000203166002900480156143f05780601f106143c5576101008083540402835291602001916143f0565b820191906000526020600020905b8154815290600101906020018083116143d357829003601f168201915b50505050508152602001600182018054600181600116156101000203166002900480601f0160208091040260200160405190810160405280929190818152602001828054600181600116156101000203166002900480156144925780601f1061446757610100808354040283529160200191614492565b820191906000526020600020905b81548152906001019060200180831161447557829003601f168201915b50505050508152602001600282018054600181600116156101000203166002900480601f0160208091040260200160405190810160405280929190818152602001828054600181600116156101000203166002900480156145345780601f1061450957610100808354040283529160200191614534565b820191906000526020600020905b81548152906001019060200180831161451757829003601f168201915b50505050508152602001600382018054600181600116156101000203166002900480601f0160208091040260200160405190810160405280929190818152602001828054600181600116156101000203166002900480156145d65780601f106145ab576101008083540402835291602001916145d6565b820191906000526020600020905b8154815290600101906020018083116145b957829003601f168201915b50505050508152602001600482018054600181600116156101000203166002900480601f0160208091040260200160405190810160405280929190818152602001828054600181600116156101000203166002900480156146785780601f1061464d57610100808354040283529160200191614678565b820191906000526020600020905b81548152906001019060200180831161465b57829003601f168201915b505050505081525050905080600001518160200151826040015183606001518460800151849450839350829250819150809050955095509550955095505091939590929450565b60006001600660003373ffffffffffffffffffffffffffffffffffffffff1673ffffffffffffffffffffffffffffffffffffffff16815260200190815260200160002060c060405190810160405280600081526020018881526020018781526020018681526020018581526020016040805190810160405280600481526020017f6e756c6c00000000000000000000000000000000000000000000000000000000815250815250908060018154018082558091505090600182039060005260206000209060060201600090919290919091506000820151816000015560208201518160010190805190602001906147b7929190614a25565b5060408201518160020190805190602001906147d4929190614a25565b5060608201518160030190805190602001906147f1929190614a25565b50608082015181600401908051906020019061480e929190614a25565b5060a082015181600501908051906020019061482b929190614a25565b50505003905080600660003373ffffffffffffffffffffffffffffffffffffffff1673ffffffffffffffffffffffffffffffffffffffff1681526020019081526020016000208281548110151561487e57fe5b9060005260206000209060060201600001819055505050505050565b600073ffffffffffffffffffffffffffffffffffffffff168173ffffffffffffffffffffffffffffffffffffffff1614151515614965576040517f08c379a00000000000000000000000000000000000000000000000000000000081526004018080602001828103825260288152602001807f746865206e65774f776e6572277320616464726573732073686f756c64206e6f81526020017f742062652030783000000000000000000000000000000000000000000000000081525060400191505060405180910390fd5b8073ffffffffffffffffffffffffffffffffffffffff16600760009054906101000a900473ffffffffffffffffffffffffffffffffffffffff1673ffffffffffffffffffffffffffffffffffffffff167f8be0079c531659141344cd1fd0a4f28419497f9722a3daafe3b4186f6b6457e060405160405180910390a380600760006101000a81548173ffffffffffffffffffffffffffffffffffffffff021916908373ffffffffffffffffffffffffffffffffffffffff16021790555050565b828054600181600116156101000203166002900490600052602060002090601f016020900481019282601f10614a6657805160ff1916838001178555614a94565b82800160010185558215614a94579182015b82811115614a93578251825591602001919060010190614a78565b5b509050614aa19190614bbc565b5090565b60a06040519081016040528060608152602001606081526020016060815260200160608152602001606081525090565b828054600181600116156101000203166002900490600052602060002090601f016020900481019282601f10614b1657805160ff1916838001178555614b44565b82800160010185558215614b44579182015b82811115614b43578251825591602001919060010190614b28565b5b509050614b519190614bbc565b5090565b60a06040519081016040528060008152602001606081526020016060815260200160608152602001600081525090565b60c0604051908101604052806000815260200160608152602001606081526020016060815260200160608152602001606081525090565b614bde91905b80821115614bda576000816000905550600101614bc2565b5090565b905600a165627a7a7230582058a57785f5ef3b3cb6bef319f399e0129361cb560fb86349ce81b83ffd8e1a640029",
  "source": "pragma solidity ^0.4.24;\r\n\r\nimport \"./UserManager.sol\";\r\nimport \"./CommentManager.sol\";\r\nimport \"./MailManager.sol\";\r\nimport \"./CharityManager.sol\";\r\n\r\ncontract SuperCommunity is UserManager, CommentManager, MailManager, CharityManager {\r\n    \r\n    function sendComment(string _comment) public registered(msg.sender) {\r\n\r\n        // the sender should have registered\r\n        User memory user = addrToUser[msg.sender];\r\n        addComment(user.name, _comment, user.head_img);\r\n    }\r\n\r\n    function rewardComment(uint _id) public existName(getNameByCommentId(_id)) {\r\n\r\n        // the name should exist\r\n        string memory name = getNameByCommentId(_id);\r\n        address to = nameToAddr[name];\r\n        rewardByAddr(to, _id);\r\n    }\r\n\r\n    function sendMail(string _to, string _title, string _text) public\r\n        registered(msg.sender)\r\n        existName(_to) {\r\n\r\n        // the sender should have registered and so do the receiver\r\n        User memory user = addrToUser[msg.sender];\r\n        addMail(user.name, _to, _title, _text);\r\n    }\r\n}",
  "sourcePath": "/home/tao/blockchain/privateChain/Solidity-SuperCommunity/contracts/SuperCommunity.sol",
  "compiler": {
    "name": "solc",
    "version": "0.4.24+commit.e67f0147.Emscripten.clang"
  },
  "schemaVersion": "2.0.1",
  "updatedAt": "2018-11-22T16:32:01.059Z"
}