{
  "contractName": "UserManager",
  "abi": [
    {
      "constant": false,
      "inputs": [
        {
          "name": "_name",
          "type": "string"
        }
      ],
      "name": "register",
      "outputs": [
        {
          "name": "",
          "type": "bool"
        }
      ],
      "payable": false,
      "stateMutability": "nonpayable",
      "type": "function"
    },
    {
      "constant": false,
      "inputs": [
        {
          "name": "_name",
          "type": "string"
        }
      ],
      "name": "watch",
      "outputs": [],
      "payable": false,
      "stateMutability": "nonpayable",
      "type": "function"
    },
    {
      "constant": false,
      "inputs": [
        {
          "name": "_name",
          "type": "string"
        }
      ],
      "name": "unwatch",
      "outputs": [],
      "payable": false,
      "stateMutability": "nonpayable",
      "type": "function"
    },
    {
      "constant": true,
      "inputs": [
        {
          "name": "_index",
          "type": "uint256"
        }
      ],
      "name": "getUserByIndex",
      "outputs": [
        {
          "name": "",
          "type": "string"
        },
        {
          "name": "",
          "type": "string"
        },
        {
          "name": "",
          "type": "string"
        },
        {
          "name": "",
          "type": "string"
        },
        {
          "name": "",
          "type": "string"
        }
      ],
      "payable": false,
      "stateMutability": "view",
      "type": "function"
    },
    {
      "constant": true,
      "inputs": [],
      "name": "getUserCount",
      "outputs": [
        {
          "name": "",
          "type": "uint256"
        }
      ],
      "payable": false,
      "stateMutability": "view",
      "type": "function"
    },
    {
      "constant": true,
      "inputs": [
        {
          "name": "_index",
          "type": "uint256"
        }
      ],
      "name": "getWatchesByIndex",
      "outputs": [
        {
          "name": "",
          "type": "string"
        }
      ],
      "payable": false,
      "stateMutability": "view",
      "type": "function"
    },
    {
      "constant": true,
      "inputs": [],
      "name": "getWatchesCount",
      "outputs": [
        {
          "name": "",
          "type": "uint256"
        }
      ],
      "payable": false,
      "stateMutability": "view",
      "type": "function"
    },
    {
      "constant": true,
      "inputs": [],
      "name": "getSender",
      "outputs": [
        {
          "name": "",
          "type": "address"
        }
      ],
      "payable": false,
      "stateMutability": "view",
      "type": "function"
    },
    {
      "constant": true,
      "inputs": [
        {
          "name": "_name",
          "type": "string"
        }
      ],
      "name": "getAddrByName",
      "outputs": [
        {
          "name": "",
          "type": "address"
        }
      ],
      "payable": false,
      "stateMutability": "view",
      "type": "function"
    }
  ],
  "bytecode": "0x608060405234801561001057600080fd5b50611c70806100206000396000f300608060405260043610610099576000357c0100000000000000000000000000000000000000000000000000000000900463ffffffff16806307574d7f1461009e578063166e99851461010757806351737757146101ad5780635e01eb5a146102165780638dc3f8731461026d578063b5cb15f714610316578063c9bf65b414610341578063f2c298be1461036c578063ff5d32fe146103ed575b600080fd5b3480156100aa57600080fd5b50610105600480360381019080803590602001908201803590602001908080601f0160208091040260200160405190810160405280939291908181526020018383808284378201915050505050509192919290505050610643565b005b34801561011357600080fd5b5061013260048036038101908080359060200190929190505050610a5c565b6040518080602001828103825283818151815260200191508051906020019080838360005b83811015610172578082015181840152602081019050610157565b50505050905090810190601f16801561019f5780820380516001836020036101000a031916815260200191505b509250505060405180910390f35b3480156101b957600080fd5b50610214600480360381019080803590602001908201803590602001908080601f0160208091040260200160405190810160405280939291908181526020018383808284378201915050505050509192919290505050610c40565b005b34801561022257600080fd5b5061022b6110a2565b604051808273ffffffffffffffffffffffffffffffffffffffff1673ffffffffffffffffffffffffffffffffffffffff16815260200191505060405180910390f35b34801561027957600080fd5b506102d4600480360381019080803590602001908201803590602001908080601f01602080910402602001604051908101604052809392919081815260200183838082843782019150505050505091929192905050506110aa565b604051808273ffffffffffffffffffffffffffffffffffffffff1673ffffffffffffffffffffffffffffffffffffffff16815260200191505060405180910390f35b34801561032257600080fd5b5061032b61113f565b6040518082815260200191505060405180910390f35b34801561034d57600080fd5b5061035661114b565b6040518082815260200191505060405180910390f35b34801561037857600080fd5b506103d3600480360381019080803590602001908201803590602001908080601f0160208091040260200160405190810160405280939291908181526020018383808284378201915050505050509192919290505050611195565b604051808215151515815260200191505060405180910390f35b3480156103f957600080fd5b5061041860048036038101908080359060200190929190505050611750565b60405180806020018060200180602001806020018060200186810386528b818151815260200191508051906020019080838360005b8381101561046857808201518184015260208101905061044d565b50505050905090810190601f1680156104955780820380516001836020036101000a031916815260200191505b5086810385528a818151815260200191508051906020019080838360005b838110156104ce5780820151818401526020810190506104b3565b50505050905090810190601f1680156104fb5780820380516001836020036101000a031916815260200191505b50868103845289818151815260200191508051906020019080838360005b83811015610534578082015181840152602081019050610519565b50505050905090810190601f1680156105615780820380516001836020036101000a031916815260200191505b50868103835288818151815260200191508051906020019080838360005b8381101561059a57808201518184015260208101905061057f565b50505050905090810190601f1680156105c75780820380516001836020036101000a031916815260200191505b50868103825287818151815260200191508051906020019080838360005b838110156106005780820151818401526020810190506105e5565b50505050905090810190601f16801561062d5780820380516001836020036101000a031916815260200191505b509a505050505050505050505060405180910390f35b60606000336000600160008373ffffffffffffffffffffffffffffffffffffffff1673ffffffffffffffffffffffffffffffffffffffff168152602001908152602001600020600001805460018160011615610100020316600290049050111515610716576040517f08c379a00000000000000000000000000000000000000000000000000000000081526004018080602001828103825260198152602001807f74686973206e616d65206973206e6f7420657869737465642e0000000000000081525060200191505060405180910390fd5b83600073ffffffffffffffffffffffffffffffffffffffff166002826040518082805190602001908083835b6020831015156107675780518252602082019150602081019050602083039250610742565b6001836020036101000a038019825116818451168082178552505050505050905001915050908152602001604051809103902060009054906101000a900473ffffffffffffffffffffffffffffffffffffffff1673ffffffffffffffffffffffffffffffffffffffff1614151515610847576040517f08c379a00000000000000000000000000000000000000000000000000000000081526004018080602001828103825260198152602001807f74686973206e616d65206973206e6f7420657869737465642e0000000000000081525060200191505060405180910390fd5b600160003373ffffffffffffffffffffffffffffffffffffffff1673ffffffffffffffffffffffffffffffffffffffff1681526020019081526020016000206000018054600181600116156101000203166002900480601f01602080910402602001604051908101604052809291908181526020018280546001816001161561010002031660029004801561091d5780601f106108f25761010080835404028352916020019161091d565b820191906000526020600020905b81548152906001019060200180831161090057829003601f168201915b505050505093506002846040518082805190602001908083835b60208310151561095c5780518252602082019150602081019050602083039250610937565b6001836020036101000a038019825116818451168082178552505050505050905001915050908152602001604051809103902060009054906101000a900473ffffffffffffffffffffffffffffffffffffffff169250600360003373ffffffffffffffffffffffffffffffffffffffff1673ffffffffffffffffffffffffffffffffffffffff1681526020019081526020016000208390806001815401808255809150509060018203906000526020600020016000909192909190916101000a81548173ffffffffffffffffffffffffffffffffffffffff021916908373ffffffffffffffffffffffffffffffffffffffff160217905550505050505050565b606060006060610a6a61114b565b84101515610ae0576040517f08c379a00000000000000000000000000000000000000000000000000000000081526004018080602001828103825260128152602001807f696e646578206f7574206f6620626f756e64000000000000000000000000000081525060200191505060405180910390fd5b600360003373ffffffffffffffffffffffffffffffffffffffff1673ffffffffffffffffffffffffffffffffffffffff16815260200190815260200160002084815481101515610b2c57fe5b9060005260206000200160009054906101000a900473ffffffffffffffffffffffffffffffffffffffff169150600160008373ffffffffffffffffffffffffffffffffffffffff1673ffffffffffffffffffffffffffffffffffffffff1681526020019081526020016000206000018054600181600116156101000203166002900480601f016020809104026020016040519081016040528092919081815260200182805460018160011615610100020316600290048015610c2f5780601f10610c0457610100808354040283529160200191610c2f565b820191906000526020600020905b815481529060010190602001808311610c1257829003601f168201915b505050505090508092505050919050565b600080600080336000600160008373ffffffffffffffffffffffffffffffffffffffff1673ffffffffffffffffffffffffffffffffffffffff168152602001908152602001600020600001805460018160011615610100020316600290049050111515610d15576040517f08c379a00000000000000000000000000000000000000000000000000000000081526004018080602001828103825260198152602001807f74686973206e616d65206973206e6f7420657869737465642e0000000000000081525060200191505060405180910390fd5b85600073ffffffffffffffffffffffffffffffffffffffff166002826040518082805190602001908083835b602083101515610d665780518252602082019150602081019050602083039250610d41565b6001836020036101000a038019825116818451168082178552505050505050905001915050908152602001604051809103902060009054906101000a900473ffffffffffffffffffffffffffffffffffffffff1673ffffffffffffffffffffffffffffffffffffffff1614151515610e46576040517f08c379a00000000000000000000000000000000000000000000000000000000081526004018080602001828103825260198152602001807f74686973206e616d65206973206e6f7420657869737465642e0000000000000081525060200191505060405180910390fd5b6002876040518082805190602001908083835b602083101515610e7e5780518252602082019150602081019050602083039250610e59565b6001836020036101000a038019825116818451168082178552505050505050905001915050908152602001604051809103902060009054906101000a900473ffffffffffffffffffffffffffffffffffffffff169550600360003373ffffffffffffffffffffffffffffffffffffffff1673ffffffffffffffffffffffffffffffffffffffff168152602001908152602001600020805490509450600093505b8484101561109957600360003373ffffffffffffffffffffffffffffffffffffffff1673ffffffffffffffffffffffffffffffffffffffff16815260200190815260200160002084815481101515610f7257fe5b9060005260206000200160009054906101000a900473ffffffffffffffffffffffffffffffffffffffff169250600073ffffffffffffffffffffffffffffffffffffffff168373ffffffffffffffffffffffffffffffffffffffff161415610fd95761108c565b8273ffffffffffffffffffffffffffffffffffffffff168673ffffffffffffffffffffffffffffffffffffffff16141561108b57600360003373ffffffffffffffffffffffffffffffffffffffff1673ffffffffffffffffffffffffffffffffffffffff1681526020019081526020016000208481548110151561105957fe5b9060005260206000200160006101000a81549073ffffffffffffffffffffffffffffffffffffffff0219169055611099565b5b8380600101945050610f1e565b50505050505050565b600033905090565b60006002826040518082805190602001908083835b6020831015156110e457805182526020820191506020810190506020830392506110bf565b6001836020036101000a038019825116818451168082178552505050505050905001915050908152602001604051809103902060009054906101000a900473ffffffffffffffffffffffffffffffffffffffff169050919050565b60008080549050905090565b6000600360003373ffffffffffffffffffffffffffffffffffffffff1673ffffffffffffffffffffffffffffffffffffffff16815260200190815260200160002080549050905090565b60008160028151111515611237576040517f08c379a00000000000000000000000000000000000000000000000000000000081526004018080602001828103825260288152602001807f746865206c656e677468206f662061206e616d65206d7573742067726561746581526020017f72207468616e203200000000000000000000000000000000000000000000000081525060400191505060405180910390fd5b82600073ffffffffffffffffffffffffffffffffffffffff166002826040518082805190602001908083835b6020831015156112885780518252602082019150602081019050602083039250611263565b6001836020036101000a038019825116818451168082178552505050505050905001915050908152602001604051809103902060009054906101000a900473ffffffffffffffffffffffffffffffffffffffff1673ffffffffffffffffffffffffffffffffffffffff16141515611367576040517f08c379a00000000000000000000000000000000000000000000000000000000081526004018080602001828103825260188152602001807f74686973206e616d6520686173206265656e20757365642e000000000000000081525060200191505060405180910390fd5b336000600160008373ffffffffffffffffffffffffffffffffffffffff1673ffffffffffffffffffffffffffffffffffffffff168152602001908152602001600020600001805460018160011615610100020316600290049050141515611436576040517f08c379a000000000000000000000000000000000000000000000000000000000815260040180806020018281038252601b8152602001807f796f7520686176652072656769737465726564206265666f72652e000000000081525060200191505060405180910390fd5b600060a06040519081016040528087815260200160206040519081016040528060008152508152602001602060405190810160405280600081525081526020016020604051908101604052806000815250815260200160206040519081016040528060008152508152509080600181540180825580915050906001820390600052602060002090600502016000909192909190915060008201518160000190805190602001906114e7929190611b6f565b506020820151816001019080519060200190611504929190611b6f565b506040820151816002019080519060200190611521929190611b6f565b50606082015181600301908051906020019061153e929190611b6f565b50608082015181600401908051906020019061155b929190611b6f565b50505050336002866040518082805190602001908083835b6020831015156115985780518252602082019150602081019050602083039250611573565b6001836020036101000a038019825116818451168082178552505050505050905001915050908152602001604051809103902060006101000a81548173ffffffffffffffffffffffffffffffffffffffff021916908373ffffffffffffffffffffffffffffffffffffffff16021790555060a0604051908101604052808681526020016020604051908101604052806000815250815260200160206040519081016040528060008152508152602001602060405190810160405280600081525081526020016020604051908101604052806000815250815250600160003373ffffffffffffffffffffffffffffffffffffffff1673ffffffffffffffffffffffffffffffffffffffff16815260200190815260200160002060008201518160000190805190602001906116cc929190611b6f565b5060208201518160010190805190602001906116e9929190611b6f565b506040820151816002019080519060200190611706929190611b6f565b506060820151816003019080519060200190611723929190611b6f565b506080820151816004019080519060200190611740929190611b6f565b5090505060019350505050919050565b6060806060806060611760611bef565b61176861113f565b871015156117de576040517f08c379a00000000000000000000000000000000000000000000000000000000081526004018080602001828103825260128152602001807f696e646578206f7574206f6620626f756e64000000000000000000000000000081525060200191505060405180910390fd5b6000878154811015156117ed57fe5b906000526020600020906005020160a06040519081016040529081600082018054600181600116156101000203166002900480601f0160208091040260200160405190810160405280929190818152602001828054600181600116156101000203166002900480156118a05780601f10611875576101008083540402835291602001916118a0565b820191906000526020600020905b81548152906001019060200180831161188357829003601f168201915b50505050508152602001600182018054600181600116156101000203166002900480601f0160208091040260200160405190810160405280929190818152602001828054600181600116156101000203166002900480156119425780601f1061191757610100808354040283529160200191611942565b820191906000526020600020905b81548152906001019060200180831161192557829003601f168201915b50505050508152602001600282018054600181600116156101000203166002900480601f0160208091040260200160405190810160405280929190818152602001828054600181600116156101000203166002900480156119e45780601f106119b9576101008083540402835291602001916119e4565b820191906000526020600020905b8154815290600101906020018083116119c757829003601f168201915b50505050508152602001600382018054600181600116156101000203166002900480601f016020809104026020016040519081016040528092919081815260200182805460018160011615610100020316600290048015611a865780601f10611a5b57610100808354040283529160200191611a86565b820191906000526020600020905b815481529060010190602001808311611a6957829003601f168201915b50505050508152602001600482018054600181600116156101000203166002900480601f016020809104026020016040519081016040528092919081815260200182805460018160011615610100020316600290048015611b285780601f10611afd57610100808354040283529160200191611b28565b820191906000526020600020905b815481529060010190602001808311611b0b57829003601f168201915b505050505081525050905080600001518160200151826040015183606001518460800151849450839350829250819150809050955095509550955095505091939590929450565b828054600181600116156101000203166002900490600052602060002090601f016020900481019282601f10611bb057805160ff1916838001178555611bde565b82800160010185558215611bde579182015b82811115611bdd578251825591602001919060010190611bc2565b5b509050611beb9190611c1f565b5090565b60a06040519081016040528060608152602001606081526020016060815260200160608152602001606081525090565b611c4191905b80821115611c3d576000816000905550600101611c25565b5090565b905600a165627a7a72305820b541f1c0a94475c066cb4eb113a5a90930c5cd4e414186a03e986d993c04d4090029",
  "source": "pragma solidity ^0.4.24;\r\n\r\ncontract UserManager {\r\n\r\n    struct User {\r\n        \r\n        // required\r\n        string name;   // one user one name, no password.\r\n\r\n        // belows are optional, a brief user profile\r\n        string head_img; // an image url\r\n        string moto;\r\n        string hobby;\r\n        string birthday;\r\n        // other attributes\r\n    }\r\n\r\n    User[] users;   // all the users\r\n\r\n    mapping(address => User) addrToUser;  // mapping account address to a user\r\n    mapping(string => address) nameToAddr;  // mapping a username to account address\r\n    mapping(address => address[]) addrToWatches; // mapping a user address to all the users' address he or she watched\r\n\r\n    modifier validName(string _name) {\r\n        \r\n        // require a valid name, the length of a name must greater than 2\r\n        require(bytes(_name).length > 2, \"the length of a name must greater than 2\");\r\n\r\n        // ok\r\n        _;\r\n    }\r\n\r\n    modifier newName(string _name) {\r\n\r\n        // require a new name, the address of the name must be 0x0 (otherwise, means duplicate name).\r\n        require(nameToAddr[_name] == address(0), \"this name has been used.\"); \r\n\r\n        // ok\r\n        _;\r\n    }\r\n\r\n    modifier existName(string _name) {\r\n        \r\n        // require a exist name, the address of the name must exist.\r\n        require(nameToAddr[_name] != address(0), \"this name is not existed.\"); \r\n\r\n        // ok\r\n        _;\r\n    }\r\n\r\n    modifier registered(address _addr) {\r\n        \r\n        // require _addr to be registered, the length of a name must greater than 0.\r\n        require(bytes(addrToUser[_addr].name).length > 0, \"this name is not existed.\"); \r\n\r\n        // ok\r\n        _;\r\n    }\r\n\r\n    modifier registerOnce(address _addr) {\r\n\r\n        // require _addr to be not registered, the length of a name must equal to 0.\r\n        require(bytes(addrToUser[_addr].name).length == 0, \"you have registered before.\");\r\n        \r\n        // ok\r\n        _;\r\n    }\r\n\r\n    function register(string _name) public \r\n        validName(_name)\r\n        newName(_name)\r\n        registerOnce(msg.sender) returns(bool) {\r\n\r\n        // add a new user        \r\n        users.push(User(_name, \"\", \"\", \"\", \"\"));\r\n        nameToAddr[_name] = msg.sender;\r\n        addrToUser[msg.sender] = User(_name, \"\", \"\", \"\", \"\");\r\n\r\n        return true;\r\n    }\r\n\r\n    // no need to login\r\n    // because using msg.sender to authenticate is enough, so we don' need password.\r\n\r\n    function watch(string _name) public \r\n        registered(msg.sender)\r\n        existName(_name) {\r\n\r\n        // to watch a user\r\n        string memory name = addrToUser[msg.sender].name;\r\n        address toWatch = nameToAddr[name];\r\n        addrToWatches[msg.sender].push(toWatch);\r\n    }\r\n\r\n    function unwatch(string _name) public\r\n        registered(msg.sender)\r\n        existName(_name) {\r\n\r\n        // to unwatch a user\r\n        address toUnwatch = nameToAddr[_name];\r\n        uint length = addrToWatches[msg.sender].length;\r\n        for (uint i = 0; i < length; i++) {\r\n\r\n            address watched = addrToWatches[msg.sender][i];\r\n            \r\n            if (watched == address(0)) {\r\n                // skip the invalid address\r\n                continue;\r\n            }\r\n\r\n            if (toUnwatch == watched) {\r\n                // remove the user who name _name from watched\r\n                delete addrToWatches[msg.sender][i];\r\n                break;\r\n            }\r\n        }\r\n    }\r\n\r\n    function getUserByIndex(uint _index) public view returns(string, string, string, string, string) {\r\n\r\n        require(_index < getUserCount(), \"index out of bound\");\r\n\r\n        User memory user = users[_index];\r\n        return (user.name, user.head_img, user.moto, user.hobby, user.birthday);\r\n    }\r\n\r\n    function getUserCount() public view returns(uint) {\r\n\r\n        return users.length;\r\n    }\r\n\r\n    function getWatchesByIndex(uint _index) public view returns(string) {\r\n        \r\n        require(_index < getWatchesCount(), \"index out of bound\");\r\n\r\n        address watched = addrToWatches[msg.sender][_index];\r\n        string memory name = addrToUser[watched].name;\r\n        return name;\r\n    }\r\n\r\n    function getWatchesCount() public view returns(uint) {\r\n\r\n        return addrToWatches[msg.sender].length;\r\n    }\r\n\r\n    function getSender() public view returns(address) {\r\n\r\n        // for test\r\n        return msg.sender;\r\n    }\r\n\r\n    function getAddrByName(string _name) public view returns(address) {\r\n\r\n        return nameToAddr[_name];\r\n    }\r\n}",
  "sourcePath": "/home/tao/blockchain/privateChain/Solidity-SuperCommunity/contracts/UserManager.sol",
  "compiler": {
    "name": "solc",
    "version": "0.4.24+commit.e67f0147.Emscripten.clang"
  },
  "schemaVersion": "2.0.1",
  "updatedAt": "2018-11-22T16:32:00.466Z"
}