{
  "contractName": "UserManager",
  "abi": [
    {
      "constant": false,
      "inputs": [
        {
          "name": "_name",
          "type": "string"
        }
      ],
      "name": "register",
      "outputs": [
        {
          "name": "",
          "type": "bool"
        }
      ],
      "payable": false,
      "stateMutability": "nonpayable",
      "type": "function"
    },
    {
      "constant": false,
      "inputs": [
        {
          "name": "_name",
          "type": "string"
        }
      ],
      "name": "watch",
      "outputs": [],
      "payable": false,
      "stateMutability": "nonpayable",
      "type": "function"
    },
    {
      "constant": false,
      "inputs": [
        {
          "name": "_name",
          "type": "string"
        }
      ],
      "name": "unwatch",
      "outputs": [],
      "payable": false,
      "stateMutability": "nonpayable",
      "type": "function"
    },
    {
      "constant": true,
      "inputs": [
        {
          "name": "_index",
          "type": "uint256"
        }
      ],
      "name": "getUserByIndex",
      "outputs": [
        {
          "name": "",
          "type": "string"
        },
        {
          "name": "",
          "type": "string"
        },
        {
          "name": "",
          "type": "string"
        },
        {
          "name": "",
          "type": "string"
        },
        {
          "name": "",
          "type": "string"
        }
      ],
      "payable": false,
      "stateMutability": "view",
      "type": "function"
    },
    {
      "constant": true,
      "inputs": [],
      "name": "getUserCount",
      "outputs": [
        {
          "name": "",
          "type": "uint256"
        }
      ],
      "payable": false,
      "stateMutability": "view",
      "type": "function"
    }
  ],
  "bytecode": "0x608060405234801561001057600080fd5b506117fa806100206000396000f30060806040526004361061006d576000357c0100000000000000000000000000000000000000000000000000000000900463ffffffff16806307574d7f1461007257806351737757146100db578063b5cb15f714610144578063f2c298be1461016f578063ff5d32fe146101f0575b600080fd5b34801561007e57600080fd5b506100d9600480360381019080803590602001908201803590602001908080601f0160208091040260200160405190810160405280939291908181526020018383808284378201915050505050509192919290505050610446565b005b3480156100e757600080fd5b50610142600480360381019080803590602001908201803590602001908080601f01602080910402602001604051908101604052809392919081815260200183838082843782019150505050505091929192905050506107d3565b005b34801561015057600080fd5b50610159610eae565b6040518082815260200191505060405180910390f35b34801561017b57600080fd5b506101d6600480360381019080803590602001908201803590602001908080601f0160208091040260200160405190810160405280939291908181526020018383808284378201915050505050509192919290505050610eba565b604051808215151515815260200191505060405180910390f35b3480156101fc57600080fd5b5061021b60048036038101908080359060200190929190505050611290565b60405180806020018060200180602001806020018060200186810386528b818151815260200191508051906020019080838360005b8381101561026b578082015181840152602081019050610250565b50505050905090810190601f1680156102985780820380516001836020036101000a031916815260200191505b5086810385528a818151815260200191508051906020019080838360005b838110156102d15780820151818401526020810190506102b6565b50505050905090810190601f1680156102fe5780820380516001836020036101000a031916815260200191505b50868103845289818151815260200191508051906020019080838360005b8381101561033757808201518184015260208101905061031c565b50505050905090810190601f1680156103645780820380516001836020036101000a031916815260200191505b50868103835288818151815260200191508051906020019080838360005b8381101561039d578082015181840152602081019050610382565b50505050905090810190601f1680156103ca5780820380516001836020036101000a031916815260200191505b50868103825287818151815260200191508051906020019080838360005b838110156104035780820151818401526020810190506103e8565b50505050905090810190601f1680156104305780820380516001836020036101000a031916815260200191505b509a505050505050505050505060405180910390f35b6060336000600160008373ffffffffffffffffffffffffffffffffffffffff1673ffffffffffffffffffffffffffffffffffffffff168152602001908152602001600020600001805460018160011615610100020316600290049050111515610517576040517f08c379a00000000000000000000000000000000000000000000000000000000081526004018080602001828103825260198152602001807f74686973206e616d65206973206e6f7420657869737465642e0000000000000081525060200191505060405180910390fd5b82600073ffffffffffffffffffffffffffffffffffffffff166002826040518082805190602001908083835b6020831015156105685780518252602082019150602081019050602083039250610543565b6001836020036101000a038019825116818451168082178552505050505050905001915050908152602001604051809103902060009054906101000a900473ffffffffffffffffffffffffffffffffffffffff1673ffffffffffffffffffffffffffffffffffffffff1614151515610648576040517f08c379a00000000000000000000000000000000000000000000000000000000081526004018080602001828103825260198152602001807f74686973206e616d65206973206e6f7420657869737465642e0000000000000081525060200191505060405180910390fd5b600160003373ffffffffffffffffffffffffffffffffffffffff1673ffffffffffffffffffffffffffffffffffffffff1681526020019081526020016000206000018054600181600116156101000203166002900480601f01602080910402602001604051908101604052809291908181526020018280546001816001161561010002031660029004801561071e5780601f106106f35761010080835404028352916020019161071e565b820191906000526020600020905b81548152906001019060200180831161070157829003601f168201915b505050505092506003836040518082805190602001908083835b60208310151561075d5780518252602082019150602081019050602083039250610738565b6001836020036101000a03801982511681845116808217855250505050505090500191505090815260200160405180910390208390806001815401808255809150509060018203906000526020600020016000909192909190915090805190602001906107cb929190611631565b505050505050565b60606000336000600160008373ffffffffffffffffffffffffffffffffffffffff1673ffffffffffffffffffffffffffffffffffffffff1681526020019081526020016000206000018054600181600116156101000203166002900490501115156108a6576040517f08c379a00000000000000000000000000000000000000000000000000000000081526004018080602001828103825260198152602001807f74686973206e616d65206973206e6f7420657869737465642e0000000000000081525060200191505060405180910390fd5b83600073ffffffffffffffffffffffffffffffffffffffff166002826040518082805190602001908083835b6020831015156108f757805182526020820191506020810190506020830392506108d2565b6001836020036101000a038019825116818451168082178552505050505050905001915050908152602001604051809103902060009054906101000a900473ffffffffffffffffffffffffffffffffffffffff1673ffffffffffffffffffffffffffffffffffffffff16141515156109d7576040517f08c379a00000000000000000000000000000000000000000000000000000000081526004018080602001828103825260198152602001807f74686973206e616d65206973206e6f7420657869737465642e0000000000000081525060200191505060405180910390fd5b600160003373ffffffffffffffffffffffffffffffffffffffff1673ffffffffffffffffffffffffffffffffffffffff1681526020019081526020016000206000018054600181600116156101000203166002900480601f016020809104026020016040519081016040528092919081815260200182805460018160011615610100020316600290048015610aad5780601f10610a8257610100808354040283529160200191610aad565b820191906000526020600020905b815481529060010190602001808311610a9057829003601f168201915b50505050509350600092505b6003846040518082805190602001908083835b602083101515610af15780518252602082019150602081019050602083039250610acc565b6001836020036101000a038019825116818451168082178552505050505050905001915050908152602001604051809103902080549050831015610ea75760006003856040518082805190602001908083835b602083101515610b695780518252602082019150602081019050602083039250610b44565b6001836020036101000a038019825116818451168082178552505050505050905001915050908152602001604051809103902084815481101515610ba957fe5b906000526020600020018054600181600116156101000203166002900490501415610bd357610e9a565b6003846040518082805190602001908083835b602083101515610c0b5780518252602082019150602081019050602083039250610be6565b6001836020036101000a038019825116818451168082178552505050505050905001915050908152602001604051809103902083815481101515610c4b57fe5b906000526020600020016040516020018082805460018160011615610100020316600290048015610cb35780601f10610c91576101008083540402835291820191610cb3565b820191906000526020600020905b815481529060010190602001808311610c9f575b50509150506040516020818303038152906040526040518082805190602001908083835b602083101515610cfc5780518252602082019150602081019050602083039250610cd7565b6001836020036101000a038019825116818451168082178552505050505050905001915050604051809103902060001916856040516020018082805190602001908083835b602083101515610d665780518252602082019150602081019050602083039250610d41565b6001836020036101000a0380198251168184511680821785525050505050509050019150506040516020818303038152906040526040518082805190602001908083835b602083101515610dcf5780518252602082019150602081019050602083039250610daa565b6001836020036101000a0380198251168184511680821785525050505050509050019150506040518091039020600019161415610e99576003846040518082805190602001908083835b602083101515610e3e5780518252602082019150602081019050602083039250610e19565b6001836020036101000a038019825116818451168082178552505050505050905001915050908152602001604051809103902083815481101515610e7e57fe5b906000526020600020016000610e9491906116b1565b610ea7565b5b8280600101935050610ab9565b5050505050565b60008080549050905090565b60008160028151111515610f5c576040517f08c379a00000000000000000000000000000000000000000000000000000000081526004018080602001828103825260288152602001807f746865206c656e677468206f662061206e616d65206d7573742067726561746581526020017f72207468616e203200000000000000000000000000000000000000000000000081525060400191505060405180910390fd5b82600073ffffffffffffffffffffffffffffffffffffffff166002826040518082805190602001908083835b602083101515610fad5780518252602082019150602081019050602083039250610f88565b6001836020036101000a038019825116818451168082178552505050505050905001915050908152602001604051809103902060009054906101000a900473ffffffffffffffffffffffffffffffffffffffff1673ffffffffffffffffffffffffffffffffffffffff1614151561108c576040517f08c379a00000000000000000000000000000000000000000000000000000000081526004018080602001828103825260188152602001807f74686973206e616d6520686173206265656e20757365642e000000000000000081525060200191505060405180910390fd5b336000600160008373ffffffffffffffffffffffffffffffffffffffff1673ffffffffffffffffffffffffffffffffffffffff16815260200190815260200160002060000180546001816001161561010002031660029004905014151561115b576040517f08c379a000000000000000000000000000000000000000000000000000000000815260040180806020018281038252601b8152602001807f796f7520686176652072656769737465726564206265666f72652e000000000081525060200191505060405180910390fd5b600060a060405190810160405280878152602001602060405190810160405280600081525081526020016020604051908101604052806000815250815260200160206040519081016040528060008152508152602001602060405190810160405280600081525081525090806001815401808255809150509060018203906000526020600020906005020160009091929091909150600082015181600001908051906020019061120c9291906116f9565b5060208201518160010190805190602001906112299291906116f9565b5060408201518160020190805190602001906112469291906116f9565b5060608201518160030190805190602001906112639291906116f9565b5060808201518160040190805190602001906112809291906116f9565b5050505060019350505050919050565b60608060608060606112a0611779565b6000878154811015156112af57fe5b906000526020600020906005020160a06040519081016040529081600082018054600181600116156101000203166002900480601f0160208091040260200160405190810160405280929190818152602001828054600181600116156101000203166002900480156113625780601f1061133757610100808354040283529160200191611362565b820191906000526020600020905b81548152906001019060200180831161134557829003601f168201915b50505050508152602001600182018054600181600116156101000203166002900480601f0160208091040260200160405190810160405280929190818152602001828054600181600116156101000203166002900480156114045780601f106113d957610100808354040283529160200191611404565b820191906000526020600020905b8154815290600101906020018083116113e757829003601f168201915b50505050508152602001600282018054600181600116156101000203166002900480601f0160208091040260200160405190810160405280929190818152602001828054600181600116156101000203166002900480156114a65780601f1061147b576101008083540402835291602001916114a6565b820191906000526020600020905b81548152906001019060200180831161148957829003601f168201915b50505050508152602001600382018054600181600116156101000203166002900480601f0160208091040260200160405190810160405280929190818152602001828054600181600116156101000203166002900480156115485780601f1061151d57610100808354040283529160200191611548565b820191906000526020600020905b81548152906001019060200180831161152b57829003601f168201915b50505050508152602001600482018054600181600116156101000203166002900480601f0160208091040260200160405190810160405280929190818152602001828054600181600116156101000203166002900480156115ea5780601f106115bf576101008083540402835291602001916115ea565b820191906000526020600020905b8154815290600101906020018083116115cd57829003601f168201915b505050505081525050905080600001518160200151826040015183606001518460800151849450839350829250819150809050955095509550955095505091939590929450565b828054600181600116156101000203166002900490600052602060002090601f016020900481019282601f1061167257805160ff19168380011785556116a0565b828001600101855582156116a0579182015b8281111561169f578251825591602001919060010190611684565b5b5090506116ad91906117a9565b5090565b50805460018160011615610100020316600290046000825580601f106116d757506116f6565b601f0160209004906000526020600020908101906116f591906117a9565b5b50565b828054600181600116156101000203166002900490600052602060002090601f016020900481019282601f1061173a57805160ff1916838001178555611768565b82800160010185558215611768579182015b8281111561176757825182559160200191906001019061174c565b5b50905061177591906117a9565b5090565b60a06040519081016040528060608152602001606081526020016060815260200160608152602001606081525090565b6117cb91905b808211156117c75760008160009055506001016117af565b5090565b905600a165627a7a723058203da5822861c537b89c3e45fafd11a5cb85b64fbc3b843210cfe6c16057731b440029",
  "source": "pragma solidity ^0.4.24;\r\n\r\ncontract UserManager {\r\n\r\n    struct User {\r\n        \r\n        // required\r\n        string name;   // one user one name, no password.\r\n\r\n        // belows are optional, a brief user profile\r\n        string head_img; // an image url\r\n        string moto;\r\n        string hobby;\r\n        string birthday;\r\n        // other attributes\r\n    }\r\n\r\n    User[] users;   // all the users\r\n\r\n    mapping(address => User) addrToUser;  // mapping account address to a user\r\n    mapping(string => address) nameToAddr;  // mapping a username to account address\r\n    mapping(string => string[]) nameToWatches; // mapping a username to all the users' name he or she watched\r\n\r\n    modifier validName(string _name) {\r\n        \r\n        // require a valid name, the length of a name must greater than 2\r\n        require(bytes(_name).length > 2, \"the length of a name must greater than 2\");\r\n\r\n        // ok\r\n        _;\r\n    }\r\n\r\n    modifier newName(string _name) {\r\n\r\n        // require a new name, the address of the name must be 0x0 (otherwise, means duplicate name).\r\n        require(nameToAddr[_name] == address(0), \"this name has been used.\"); \r\n\r\n        // ok\r\n        _;\r\n    }\r\n\r\n    modifier existName(string _name) {\r\n        \r\n        // require a exist name, the address of the name must exist.\r\n        require(nameToAddr[_name] != address(0), \"this name is not existed.\"); \r\n\r\n        // ok\r\n        _;\r\n    }\r\n\r\n    modifier registered(address _addr) {\r\n        \r\n        // require _addr to be registered, the length of a name must greater than 0.\r\n        require(bytes(addrToUser[_addr].name).length > 0, \"this name is not existed.\"); \r\n\r\n        // ok\r\n        _;\r\n    }\r\n\r\n    modifier registerOnce(address _addr) {\r\n\r\n        // require _addr to be not registered, the length of a name must equal to 0.\r\n        require(bytes(addrToUser[_addr].name).length == 0, \"you have registered before.\");\r\n        \r\n        // ok\r\n        _;\r\n    }\r\n\r\n    function register(string _name) public \r\n        validName(_name)\r\n        newName(_name)\r\n        registerOnce(msg.sender) returns(bool) {\r\n\r\n        // add a new user        \r\n        users.push(User(_name, \"\", \"\", \"\", \"\"));\r\n\r\n        return true;\r\n    }\r\n\r\n    // no need to login\r\n    // because using msg.sender to authenticate is enough, so we don' need password.\r\n\r\n    function watch(string _name) public \r\n        registered(msg.sender)\r\n        existName(_name) {\r\n\r\n        // to watch a user\r\n        string memory name = addrToUser[msg.sender].name;\r\n        nameToWatches[name].push(name);\r\n    }\r\n\r\n    function unwatch(string _name) public\r\n        registered(msg.sender)\r\n        existName(_name) {\r\n\r\n        // to unwatch a user\r\n        string memory name = addrToUser[msg.sender].name;\r\n        for (uint i = 0; i < nameToWatches[name].length; i++) {\r\n            \r\n            if (bytes(nameToWatches[name][i]).length == 0) {\r\n                // skip the empty string\r\n                continue;\r\n            }\r\n\r\n            if (keccak256(abi.encodePacked(_name)) == keccak256(abi.encodePacked(nameToWatches[name][i]))) {\r\n                // remove the user who name _name from watched\r\n                delete nameToWatches[name][i];\r\n                break;\r\n            }\r\n        }\r\n    }\r\n\r\n    function getUserByIndex(uint _index) public view returns(string, string, string, string, string) {\r\n\r\n        User memory user = users[_index];\r\n        return (user.name, user.head_img, user.moto, user.hobby, user.birthday);\r\n    }\r\n\r\n    function getUserCount() public view returns(uint) {\r\n\r\n        return users.length;\r\n    }\r\n}",
  "sourcePath": "/home/tao/blockchain/privateChain/Solidity-SuperCommunity/contracts/UserManager.sol",
  "compiler": {
    "name": "solc",
    "version": "0.4.24+commit.e67f0147.Emscripten.clang"
  },
  "schemaVersion": "2.0.1",
  "updatedAt": "2018-11-21T16:36:53.539Z"
}