{
  "contractName": "UserManager",
  "abi": [
    {
      "constant": false,
      "inputs": [
        {
          "name": "_name",
          "type": "string"
        }
      ],
      "name": "register",
      "outputs": [
        {
          "name": "",
          "type": "bool"
        }
      ],
      "payable": false,
      "stateMutability": "nonpayable",
      "type": "function"
    },
    {
      "constant": false,
      "inputs": [
        {
          "name": "_name",
          "type": "string"
        }
      ],
      "name": "watch",
      "outputs": [],
      "payable": false,
      "stateMutability": "nonpayable",
      "type": "function"
    },
    {
      "constant": false,
      "inputs": [
        {
          "name": "_name",
          "type": "string"
        }
      ],
      "name": "unwatch",
      "outputs": [],
      "payable": false,
      "stateMutability": "nonpayable",
      "type": "function"
    },
    {
      "constant": true,
      "inputs": [
        {
          "name": "_index",
          "type": "uint256"
        }
      ],
      "name": "getUserByIndex",
      "outputs": [
        {
          "name": "",
          "type": "string"
        },
        {
          "name": "",
          "type": "string"
        },
        {
          "name": "",
          "type": "string"
        },
        {
          "name": "",
          "type": "string"
        },
        {
          "name": "",
          "type": "string"
        }
      ],
      "payable": false,
      "stateMutability": "view",
      "type": "function"
    },
    {
      "constant": true,
      "inputs": [],
      "name": "getUserCount",
      "outputs": [
        {
          "name": "",
          "type": "uint256"
        }
      ],
      "payable": false,
      "stateMutability": "view",
      "type": "function"
    },
    {
      "constant": true,
      "inputs": [
        {
          "name": "_index",
          "type": "uint256"
        }
      ],
      "name": "getWatchesByIndex",
      "outputs": [
        {
          "name": "",
          "type": "address"
        }
      ],
      "payable": false,
      "stateMutability": "view",
      "type": "function"
    },
    {
      "constant": true,
      "inputs": [],
      "name": "getWatchesCount",
      "outputs": [
        {
          "name": "",
          "type": "uint256"
        }
      ],
      "payable": false,
      "stateMutability": "view",
      "type": "function"
    },
    {
      "constant": true,
      "inputs": [
        {
          "name": "_name",
          "type": "string"
        }
      ],
      "name": "getAddrByName",
      "outputs": [
        {
          "name": "",
          "type": "address"
        }
      ],
      "payable": false,
      "stateMutability": "view",
      "type": "function"
    },
    {
      "constant": true,
      "inputs": [
        {
          "name": "addr",
          "type": "address"
        }
      ],
      "name": "getNameByAddr",
      "outputs": [
        {
          "name": "",
          "type": "string"
        }
      ],
      "payable": false,
      "stateMutability": "view",
      "type": "function"
    }
  ],
  "bytecode": "0x608060405234801561001057600080fd5b50611e5c806100206000396000f300608060405260043610610099576000357c0100000000000000000000000000000000000000000000000000000000900463ffffffff16806307574d7f1461009e578063166e99851461010757806351737757146101745780637e6aead2146101dd5780638dc3f87314610299578063b5cb15f714610342578063c9bf65b41461036d578063f2c298be14610398578063ff5d32fe14610419575b600080fd5b3480156100aa57600080fd5b50610105600480360381019080803590602001908201803590602001908080601f016020809104026020016040519081016040528093929190818152602001838380828437820191505050505050919291929050505061066f565b005b34801561011357600080fd5b50610132600480360381019080803590602001909291905050506109a8565b604051808273ffffffffffffffffffffffffffffffffffffffff1673ffffffffffffffffffffffffffffffffffffffff16815260200191505060405180910390f35b34801561018057600080fd5b506101db600480360381019080803590602001908201803590602001908080601f0160208091040260200160405190810160405280939291908181526020018383808284378201915050505050509192919290505050610aa6565b005b3480156101e957600080fd5b5061021e600480360381019080803573ffffffffffffffffffffffffffffffffffffffff169060200190929190505050610f08565b6040518080602001828103825283818151815260200191508051906020019080838360005b8381101561025e578082015181840152602081019050610243565b50505050905090810190601f16801561028b5780820380516001836020036101000a031916815260200191505b509250505060405180910390f35b3480156102a557600080fd5b50610300600480360381019080803590602001908201803590602001908080601f0160208091040260200160405190810160405280939291908181526020018383808284378201915050505050509192919290505050611296565b604051808273ffffffffffffffffffffffffffffffffffffffff1673ffffffffffffffffffffffffffffffffffffffff16815260200191505060405180910390f35b34801561034e57600080fd5b5061035761132b565b6040518082815260200191505060405180910390f35b34801561037957600080fd5b50610382611337565b6040518082815260200191505060405180910390f35b3480156103a457600080fd5b506103ff600480360381019080803590602001908201803590602001908080601f0160208091040260200160405190810160405280939291908181526020018383808284378201915050505050509192919290505050611381565b604051808215151515815260200191505060405180910390f35b34801561042557600080fd5b506104446004803603810190808035906020019092919050505061193c565b60405180806020018060200180602001806020018060200186810386528b818151815260200191508051906020019080838360005b83811015610494578082015181840152602081019050610479565b50505050905090810190601f1680156104c15780820380516001836020036101000a031916815260200191505b5086810385528a818151815260200191508051906020019080838360005b838110156104fa5780820151818401526020810190506104df565b50505050905090810190601f1680156105275780820380516001836020036101000a031916815260200191505b50868103845289818151815260200191508051906020019080838360005b83811015610560578082015181840152602081019050610545565b50505050905090810190601f16801561058d5780820380516001836020036101000a031916815260200191505b50868103835288818151815260200191508051906020019080838360005b838110156105c65780820151818401526020810190506105ab565b50505050905090810190601f1680156105f35780820380516001836020036101000a031916815260200191505b50868103825287818151815260200191508051906020019080838360005b8381101561062c578082015181840152602081019050610611565b50505050905090810190601f1680156106595780820380516001836020036101000a031916815260200191505b509a505050505050505050505060405180910390f35b6000336000600160008373ffffffffffffffffffffffffffffffffffffffff1673ffffffffffffffffffffffffffffffffffffffff168152602001908152602001600020600001805460018160011615610100020316600290049050111515610740576040517f08c379a00000000000000000000000000000000000000000000000000000000081526004018080602001828103825260198152602001807f74686973206e616d65206973206e6f7420657869737465642e0000000000000081525060200191505060405180910390fd5b82600073ffffffffffffffffffffffffffffffffffffffff166002826040518082805190602001908083835b602083101515610791578051825260208201915060208101905060208303925061076c565b6001836020036101000a038019825116818451168082178552505050505050905001915050908152602001604051809103902060009054906101000a900473ffffffffffffffffffffffffffffffffffffffff1673ffffffffffffffffffffffffffffffffffffffff1614151515610871576040517f08c379a00000000000000000000000000000000000000000000000000000000081526004018080602001828103825260198152602001807f74686973206e616d65206973206e6f7420657869737465642e0000000000000081525060200191505060405180910390fd5b6002846040518082805190602001908083835b6020831015156108a95780518252602082019150602081019050602083039250610884565b6001836020036101000a038019825116818451168082178552505050505050905001915050908152602001604051809103902060009054906101000a900473ffffffffffffffffffffffffffffffffffffffff169250600360003373ffffffffffffffffffffffffffffffffffffffff1673ffffffffffffffffffffffffffffffffffffffff1681526020019081526020016000208390806001815401808255809150509060018203906000526020600020016000909192909190916101000a81548173ffffffffffffffffffffffffffffffffffffffff021916908373ffffffffffffffffffffffffffffffffffffffff1602179055505050505050565b60006109b2611337565b82101515610a28576040517f08c379a00000000000000000000000000000000000000000000000000000000081526004018080602001828103825260128152602001807f696e646578206f7574206f6620626f756e64000000000000000000000000000081525060200191505060405180910390fd5b600360003373ffffffffffffffffffffffffffffffffffffffff1673ffffffffffffffffffffffffffffffffffffffff16815260200190815260200160002082815481101515610a7457fe5b9060005260206000200160009054906101000a900473ffffffffffffffffffffffffffffffffffffffff169050919050565b600080600080336000600160008373ffffffffffffffffffffffffffffffffffffffff1673ffffffffffffffffffffffffffffffffffffffff168152602001908152602001600020600001805460018160011615610100020316600290049050111515610b7b576040517f08c379a00000000000000000000000000000000000000000000000000000000081526004018080602001828103825260198152602001807f74686973206e616d65206973206e6f7420657869737465642e0000000000000081525060200191505060405180910390fd5b85600073ffffffffffffffffffffffffffffffffffffffff166002826040518082805190602001908083835b602083101515610bcc5780518252602082019150602081019050602083039250610ba7565b6001836020036101000a038019825116818451168082178552505050505050905001915050908152602001604051809103902060009054906101000a900473ffffffffffffffffffffffffffffffffffffffff1673ffffffffffffffffffffffffffffffffffffffff1614151515610cac576040517f08c379a00000000000000000000000000000000000000000000000000000000081526004018080602001828103825260198152602001807f74686973206e616d65206973206e6f7420657869737465642e0000000000000081525060200191505060405180910390fd5b6002876040518082805190602001908083835b602083101515610ce45780518252602082019150602081019050602083039250610cbf565b6001836020036101000a038019825116818451168082178552505050505050905001915050908152602001604051809103902060009054906101000a900473ffffffffffffffffffffffffffffffffffffffff169550600360003373ffffffffffffffffffffffffffffffffffffffff1673ffffffffffffffffffffffffffffffffffffffff168152602001908152602001600020805490509450600093505b84841015610eff57600360003373ffffffffffffffffffffffffffffffffffffffff1673ffffffffffffffffffffffffffffffffffffffff16815260200190815260200160002084815481101515610dd857fe5b9060005260206000200160009054906101000a900473ffffffffffffffffffffffffffffffffffffffff169250600073ffffffffffffffffffffffffffffffffffffffff168373ffffffffffffffffffffffffffffffffffffffff161415610e3f57610ef2565b8273ffffffffffffffffffffffffffffffffffffffff168673ffffffffffffffffffffffffffffffffffffffff161415610ef157600360003373ffffffffffffffffffffffffffffffffffffffff1673ffffffffffffffffffffffffffffffffffffffff16815260200190815260200160002084815481101515610ebf57fe5b9060005260206000200160006101000a81549073ffffffffffffffffffffffffffffffffffffffff0219169055610eff565b5b8380600101945050610d84565b50505050505050565b6060610f12611d5b565b600160008473ffffffffffffffffffffffffffffffffffffffff1673ffffffffffffffffffffffffffffffffffffffff16815260200190815260200160002060a06040519081016040529081600082018054600181600116156101000203166002900480601f016020809104026020016040519081016040528092919081815260200182805460018160011615610100020316600290048015610ff65780601f10610fcb57610100808354040283529160200191610ff6565b820191906000526020600020905b815481529060010190602001808311610fd957829003601f168201915b50505050508152602001600182018054600181600116156101000203166002900480601f0160208091040260200160405190810160405280929190818152602001828054600181600116156101000203166002900480156110985780601f1061106d57610100808354040283529160200191611098565b820191906000526020600020905b81548152906001019060200180831161107b57829003601f168201915b50505050508152602001600282018054600181600116156101000203166002900480601f01602080910402602001604051908101604052809291908181526020018280546001816001161561010002031660029004801561113a5780601f1061110f5761010080835404028352916020019161113a565b820191906000526020600020905b81548152906001019060200180831161111d57829003601f168201915b50505050508152602001600382018054600181600116156101000203166002900480601f0160208091040260200160405190810160405280929190818152602001828054600181600116156101000203166002900480156111dc5780601f106111b1576101008083540402835291602001916111dc565b820191906000526020600020905b8154815290600101906020018083116111bf57829003601f168201915b50505050508152602001600482018054600181600116156101000203166002900480601f01602080910402602001604051908101604052809291908181526020018280546001816001161561010002031660029004801561127e5780601f106112535761010080835404028352916020019161127e565b820191906000526020600020905b81548152906001019060200180831161126157829003601f168201915b50505050508152505090508060000151915050919050565b60006002826040518082805190602001908083835b6020831015156112d057805182526020820191506020810190506020830392506112ab565b6001836020036101000a038019825116818451168082178552505050505050905001915050908152602001604051809103902060009054906101000a900473ffffffffffffffffffffffffffffffffffffffff169050919050565b60008080549050905090565b6000600360003373ffffffffffffffffffffffffffffffffffffffff1673ffffffffffffffffffffffffffffffffffffffff16815260200190815260200160002080549050905090565b60008160028151111515611423576040517f08c379a00000000000000000000000000000000000000000000000000000000081526004018080602001828103825260288152602001807f746865206c656e677468206f662061206e616d65206d7573742067726561746581526020017f72207468616e203200000000000000000000000000000000000000000000000081525060400191505060405180910390fd5b82600073ffffffffffffffffffffffffffffffffffffffff166002826040518082805190602001908083835b602083101515611474578051825260208201915060208101905060208303925061144f565b6001836020036101000a038019825116818451168082178552505050505050905001915050908152602001604051809103902060009054906101000a900473ffffffffffffffffffffffffffffffffffffffff1673ffffffffffffffffffffffffffffffffffffffff16141515611553576040517f08c379a00000000000000000000000000000000000000000000000000000000081526004018080602001828103825260188152602001807f74686973206e616d6520686173206265656e20757365642e000000000000000081525060200191505060405180910390fd5b336000600160008373ffffffffffffffffffffffffffffffffffffffff1673ffffffffffffffffffffffffffffffffffffffff168152602001908152602001600020600001805460018160011615610100020316600290049050141515611622576040517f08c379a000000000000000000000000000000000000000000000000000000000815260040180806020018281038252601b8152602001807f796f7520686176652072656769737465726564206265666f72652e000000000081525060200191505060405180910390fd5b600060a06040519081016040528087815260200160206040519081016040528060008152508152602001602060405190810160405280600081525081526020016020604051908101604052806000815250815260200160206040519081016040528060008152508152509080600181540180825580915050906001820390600052602060002090600502016000909192909190915060008201518160000190805190602001906116d3929190611d8b565b5060208201518160010190805190602001906116f0929190611d8b565b50604082015181600201908051906020019061170d929190611d8b565b50606082015181600301908051906020019061172a929190611d8b565b506080820151816004019080519060200190611747929190611d8b565b50505050336002866040518082805190602001908083835b602083101515611784578051825260208201915060208101905060208303925061175f565b6001836020036101000a038019825116818451168082178552505050505050905001915050908152602001604051809103902060006101000a81548173ffffffffffffffffffffffffffffffffffffffff021916908373ffffffffffffffffffffffffffffffffffffffff16021790555060a0604051908101604052808681526020016020604051908101604052806000815250815260200160206040519081016040528060008152508152602001602060405190810160405280600081525081526020016020604051908101604052806000815250815250600160003373ffffffffffffffffffffffffffffffffffffffff1673ffffffffffffffffffffffffffffffffffffffff16815260200190815260200160002060008201518160000190805190602001906118b8929190611d8b565b5060208201518160010190805190602001906118d5929190611d8b565b5060408201518160020190805190602001906118f2929190611d8b565b50606082015181600301908051906020019061190f929190611d8b565b50608082015181600401908051906020019061192c929190611d8b565b5090505060019350505050919050565b606080606080606061194c611d5b565b61195461132b565b871015156119ca576040517f08c379a00000000000000000000000000000000000000000000000000000000081526004018080602001828103825260128152602001807f696e646578206f7574206f6620626f756e64000000000000000000000000000081525060200191505060405180910390fd5b6000878154811015156119d957fe5b906000526020600020906005020160a06040519081016040529081600082018054600181600116156101000203166002900480601f016020809104026020016040519081016040528092919081815260200182805460018160011615610100020316600290048015611a8c5780601f10611a6157610100808354040283529160200191611a8c565b820191906000526020600020905b815481529060010190602001808311611a6f57829003601f168201915b50505050508152602001600182018054600181600116156101000203166002900480601f016020809104026020016040519081016040528092919081815260200182805460018160011615610100020316600290048015611b2e5780601f10611b0357610100808354040283529160200191611b2e565b820191906000526020600020905b815481529060010190602001808311611b1157829003601f168201915b50505050508152602001600282018054600181600116156101000203166002900480601f016020809104026020016040519081016040528092919081815260200182805460018160011615610100020316600290048015611bd05780601f10611ba557610100808354040283529160200191611bd0565b820191906000526020600020905b815481529060010190602001808311611bb357829003601f168201915b50505050508152602001600382018054600181600116156101000203166002900480601f016020809104026020016040519081016040528092919081815260200182805460018160011615610100020316600290048015611c725780601f10611c4757610100808354040283529160200191611c72565b820191906000526020600020905b815481529060010190602001808311611c5557829003601f168201915b50505050508152602001600482018054600181600116156101000203166002900480601f016020809104026020016040519081016040528092919081815260200182805460018160011615610100020316600290048015611d145780601f10611ce957610100808354040283529160200191611d14565b820191906000526020600020905b815481529060010190602001808311611cf757829003601f168201915b505050505081525050905080600001518160200151826040015183606001518460800151849450839350829250819150809050955095509550955095505091939590929450565b60a06040519081016040528060608152602001606081526020016060815260200160608152602001606081525090565b828054600181600116156101000203166002900490600052602060002090601f016020900481019282601f10611dcc57805160ff1916838001178555611dfa565b82800160010185558215611dfa579182015b82811115611df9578251825591602001919060010190611dde565b5b509050611e079190611e0b565b5090565b611e2d91905b80821115611e29576000816000905550600101611e11565b5090565b905600a165627a7a72305820057c6e871f4f0a9f2d3f6228b9ca2caf38937eae9628816375f699b820fd5f3b0029",
  "source": "pragma solidity ^0.4.24;\r\n\r\ncontract UserManager {\r\n\r\n    struct User {\r\n        \r\n        // required\r\n        string name;   // one user one name, no password.\r\n\r\n        // belows are optional, a brief user profile\r\n        string head_img; // an image url\r\n        string moto;\r\n        string hobby;\r\n        string birthday;\r\n        // other attributes\r\n    }\r\n\r\n    User[] users;   // all the users\r\n\r\n    mapping(address => User) addrToUser;  // mapping account address to a user\r\n    mapping(string => address) nameToAddr;  // mapping a username to account address\r\n    mapping(address => address[]) addrToWatches; // mapping a user address to all the users' address he or she watched\r\n\r\n    modifier validName(string memory _name) {\r\n        \r\n        // require a valid name, the length of a name must greater than 2\r\n        require(bytes(_name).length > 2, \"the length of a name must greater than 2\");\r\n\r\n        // ok\r\n        _;\r\n    }\r\n\r\n    modifier newName(string memory _name) {\r\n\r\n        // require a new name, the address of the name must be 0x0 (otherwise, means duplicate name).\r\n        require(nameToAddr[_name] == address(0), \"this name has been used.\"); \r\n\r\n        // ok\r\n        _;\r\n    }\r\n\r\n    modifier existName(string memory _name) {\r\n        \r\n        // require a exist name, the address of the name must exist.\r\n        require(nameToAddr[_name] != address(0), \"this name is not existed.\"); \r\n\r\n        // ok\r\n        _;\r\n    }\r\n\r\n    modifier registered(address _addr) {\r\n        \r\n        // require _addr to be registered, the length of a name must greater than 0.\r\n        require(bytes(addrToUser[_addr].name).length > 0, \"this name is not existed.\"); \r\n\r\n        // ok\r\n        _;\r\n    }\r\n\r\n    modifier registerOnce(address _addr) {\r\n\r\n        // require _addr to be not registered, the length of a name must equal to 0.\r\n        require(bytes(addrToUser[_addr].name).length == 0, \"you have registered before.\");\r\n        \r\n        // ok\r\n        _;\r\n    }\r\n\r\n    function register(string memory _name) public \r\n        validName(_name)\r\n        newName(_name)\r\n        registerOnce(msg.sender) returns(bool) {\r\n\r\n        // add a new user        \r\n        users.push(User(_name, \"\", \"\", \"\", \"\"));\r\n        nameToAddr[_name] = msg.sender;\r\n        addrToUser[msg.sender] = User(_name, \"\", \"\", \"\", \"\");\r\n\r\n        return true;\r\n    }\r\n\r\n    // no need to login\r\n    // because using msg.sender to authenticate is enough, so we don' need password.\r\n\r\n    function watch(string memory _name) public \r\n        registered(msg.sender)\r\n        existName(_name) {\r\n\r\n        // to watch a user\r\n        address toWatch = nameToAddr[_name];\r\n        addrToWatches[msg.sender].push(toWatch);\r\n    }\r\n\r\n    function unwatch(string memory _name) public\r\n        registered(msg.sender)\r\n        existName(_name) {\r\n\r\n        // to unwatch a user\r\n        address toUnwatch = nameToAddr[_name];\r\n        uint length = addrToWatches[msg.sender].length;\r\n        for (uint i = 0; i < length; i++) {\r\n\r\n            address watched = addrToWatches[msg.sender][i];\r\n            \r\n            if (watched == address(0)) {\r\n                // skip the invalid address\r\n                continue;\r\n            }\r\n\r\n            if (toUnwatch == watched) {\r\n                // remove the user who name _name from watched\r\n                delete addrToWatches[msg.sender][i];\r\n                break;\r\n            }\r\n        }\r\n    }\r\n\r\n    function getUserByIndex(uint _index) public view returns(string memory, string memory, string memory, string memory, string memory) {\r\n\r\n        require(_index < getUserCount(), \"index out of bound\");\r\n\r\n        User memory user = users[_index];\r\n        return (user.name, user.head_img, user.moto, user.hobby, user.birthday);\r\n    }\r\n\r\n    // function getAllUsers() public view returns(address[] memory) {\r\n\r\n    //     address[] memory result;\r\n    //     for (uint i = 0; i < getWatchesCount(); i++) {\r\n    //         address temp = getWatchesByIndex(i);\r\n    //         if (temp == address(0)) {\r\n    //             // skip the empty one\r\n    //             continue;\r\n    //         }\r\n    //         result.push(temp);\r\n    //     }\r\n    //     return result;\r\n    // }\r\n\r\n    function getUserCount() public view returns(uint) {\r\n\r\n        return users.length;\r\n    }\r\n\r\n    function getWatchesByIndex(uint _index) public view returns(address) {\r\n        \r\n        require(_index < getWatchesCount(), \"index out of bound\");\r\n\r\n        return addrToWatches[msg.sender][_index];\r\n    }\r\n\r\n    // function getAllWatches() public view returns(address[] memory) {\r\n\r\n    //     address[] memory result;\r\n    //     for (uint i = 0; i < getWatchesCount(); i++) {\r\n    //         address temp = getWatchesByIndex(i);\r\n    //         if (temp == address(0)) {\r\n    //             // skip the empty one\r\n    //             continue;d\r\n    //         }\r\n    //         result.push(temp);\r\n    //     }\r\n    //     return result;\r\n    // }\r\n\r\n    function getWatchesCount() public view returns(uint) {\r\n\r\n        return addrToWatches[msg.sender].length;\r\n    }\r\n\r\n    function getAddrByName(string memory _name) public view returns(address) {\r\n\r\n        return nameToAddr[_name];\r\n    }\r\n\r\n    function getNameByAddr(address addr) public view returns(string memory) {\r\n\r\n        User memory user = addrToUser[addr];\r\n        return user.name;\r\n    }\r\n}\r\n",
  "sourcePath": "/home/tao/blockchain/privateChain/Solidity-SuperCommunity/contracts/UserManager.sol",
  "compiler": {
    "name": "solc",
    "version": "0.4.24+commit.e67f0147.Emscripten.clang"
  },
  "schemaVersion": "2.0.1",
  "updatedAt": "2018-11-23T14:38:38.629Z"
}