{
  "contractName": "UserManager",
  "abi": [
    {
      "constant": false,
      "inputs": [
        {
          "name": "_name",
          "type": "string"
        }
      ],
      "name": "register",
      "outputs": [
        {
          "name": "",
          "type": "bool"
        }
      ],
      "payable": false,
      "stateMutability": "nonpayable",
      "type": "function"
    },
    {
      "constant": false,
      "inputs": [
        {
          "name": "_name",
          "type": "string"
        }
      ],
      "name": "watch",
      "outputs": [],
      "payable": false,
      "stateMutability": "nonpayable",
      "type": "function"
    },
    {
      "constant": false,
      "inputs": [
        {
          "name": "_name",
          "type": "string"
        }
      ],
      "name": "unwatch",
      "outputs": [],
      "payable": false,
      "stateMutability": "nonpayable",
      "type": "function"
    },
    {
      "constant": true,
      "inputs": [
        {
          "name": "_index",
          "type": "uint256"
        }
      ],
      "name": "getUserByIndex",
      "outputs": [
        {
          "name": "",
          "type": "string"
        },
        {
          "name": "",
          "type": "string"
        },
        {
          "name": "",
          "type": "string"
        },
        {
          "name": "",
          "type": "string"
        },
        {
          "name": "",
          "type": "string"
        }
      ],
      "payable": false,
      "stateMutability": "view",
      "type": "function"
    },
    {
      "constant": true,
      "inputs": [],
      "name": "getUserCount",
      "outputs": [
        {
          "name": "",
          "type": "uint256"
        }
      ],
      "payable": false,
      "stateMutability": "view",
      "type": "function"
    },
    {
      "constant": true,
      "inputs": [
        {
          "name": "_index",
          "type": "uint256"
        }
      ],
      "name": "getWatchesByIndex",
      "outputs": [
        {
          "name": "",
          "type": "address"
        }
      ],
      "payable": false,
      "stateMutability": "view",
      "type": "function"
    },
    {
      "constant": true,
      "inputs": [],
      "name": "getWatchesCount",
      "outputs": [
        {
          "name": "",
          "type": "uint256"
        }
      ],
      "payable": false,
      "stateMutability": "view",
      "type": "function"
    },
    {
      "constant": true,
      "inputs": [
        {
          "name": "_name",
          "type": "string"
        }
      ],
      "name": "getAddrByName",
      "outputs": [
        {
          "name": "",
          "type": "address"
        }
      ],
      "payable": false,
      "stateMutability": "view",
      "type": "function"
    },
    {
      "constant": true,
      "inputs": [
        {
          "name": "_addr",
          "type": "address"
        }
      ],
      "name": "getNameByAddr",
      "outputs": [
        {
          "name": "",
          "type": "string"
        }
      ],
      "payable": false,
      "stateMutability": "view",
      "type": "function"
    }
  ],
  "bytecode": "0x608060405234801561001057600080fd5b50612005806100206000396000f3fe608060405260043610610099576000357c0100000000000000000000000000000000000000000000000000000000900463ffffffff16806307574d7f1461009e578063166e99851461016657806351737757146101e15780637e6aead2146102a95780638dc3f87314610373578063b5cb15f71461047b578063c9bf65b4146104a6578063f2c298be146104d1578063ff5d32fe146105b1575b600080fd5b3480156100aa57600080fd5b50610164600480360360208110156100c157600080fd5b81019080803590602001906401000000008111156100de57600080fd5b8201836020820111156100f057600080fd5b8035906020019184600183028401116401000000008311171561011257600080fd5b91908080601f016020809104026020016040519081016040528093929190818152602001838380828437600081840152601f19601f820116905080830192505050505050509192919290505050610815565b005b34801561017257600080fd5b5061019f6004803603602081101561018957600080fd5b8101908080359060200190929190505050610b4e565b604051808273ffffffffffffffffffffffffffffffffffffffff1673ffffffffffffffffffffffffffffffffffffffff16815260200191505060405180910390f35b3480156101ed57600080fd5b506102a76004803603602081101561020457600080fd5b810190808035906020019064010000000081111561022157600080fd5b82018360208201111561023357600080fd5b8035906020019184600183028401116401000000008311171561025557600080fd5b91908080601f016020809104026020016040519081016040528093929190818152602001838380828437600081840152601f19601f820116905080830192505050505050509192919290505050610c4c565b005b3480156102b557600080fd5b506102f8600480360360208110156102cc57600080fd5b81019080803573ffffffffffffffffffffffffffffffffffffffff1690602001909291905050506110b1565b6040518080602001828103825283818151815260200191508051906020019080838360005b8381101561033857808201518184015260208101905061031d565b50505050905090810190601f1680156103655780820380516001836020036101000a031916815260200191505b509250505060405180910390f35b34801561037f57600080fd5b506104396004803603602081101561039657600080fd5b81019080803590602001906401000000008111156103b357600080fd5b8201836020820111156103c557600080fd5b803590602001918460018302840111640100000000831117156103e757600080fd5b91908080601f016020809104026020016040519081016040528093929190818152602001838380828437600081840152601f19601f82011690508083019250505050505050919291929050505061143f565b604051808273ffffffffffffffffffffffffffffffffffffffff1673ffffffffffffffffffffffffffffffffffffffff16815260200191505060405180910390f35b34801561048757600080fd5b506104906114d4565b6040518082815260200191505060405180910390f35b3480156104b257600080fd5b506104bb6114e0565b6040518082815260200191505060405180910390f35b3480156104dd57600080fd5b50610597600480360360208110156104f457600080fd5b810190808035906020019064010000000081111561051157600080fd5b82018360208201111561052357600080fd5b8035906020019184600183028401116401000000008311171561054557600080fd5b91908080601f016020809104026020016040519081016040528093929190818152602001838380828437600081840152601f19601f82011690508083019250505050505050919291929050505061152a565b604051808215151515815260200191505060405180910390f35b3480156105bd57600080fd5b506105ea600480360360208110156105d457600080fd5b8101908080359060200190929190505050611ae5565b60405180806020018060200180602001806020018060200186810386528b818151815260200191508051906020019080838360005b8381101561063a57808201518184015260208101905061061f565b50505050905090810190601f1680156106675780820380516001836020036101000a031916815260200191505b5086810385528a818151815260200191508051906020019080838360005b838110156106a0578082015181840152602081019050610685565b50505050905090810190601f1680156106cd5780820380516001836020036101000a031916815260200191505b50868103845289818151815260200191508051906020019080838360005b838110156107065780820151818401526020810190506106eb565b50505050905090810190601f1680156107335780820380516001836020036101000a031916815260200191505b50868103835288818151815260200191508051906020019080838360005b8381101561076c578082015181840152602081019050610751565b50505050905090810190601f1680156107995780820380516001836020036101000a031916815260200191505b50868103825287818151815260200191508051906020019080838360005b838110156107d25780820151818401526020810190506107b7565b50505050905090810190601f1680156107ff5780820380516001836020036101000a031916815260200191505b509a505050505050505050505060405180910390f35b336000600160008373ffffffffffffffffffffffffffffffffffffffff1673ffffffffffffffffffffffffffffffffffffffff1681526020019081526020016000206000018054600181600116156101000203166002900490501115156108e4576040517f08c379a00000000000000000000000000000000000000000000000000000000081526004018080602001828103825260198152602001807f74686973206e616d65206973206e6f7420657869737465642e0000000000000081525060200191505060405180910390fd5b81600073ffffffffffffffffffffffffffffffffffffffff166002826040518082805190602001908083835b6020831015156109355780518252602082019150602081019050602083039250610910565b6001836020036101000a038019825116818451168082178552505050505050905001915050908152602001604051809103902060009054906101000a900473ffffffffffffffffffffffffffffffffffffffff1673ffffffffffffffffffffffffffffffffffffffff1614151515610a15576040517f08c379a00000000000000000000000000000000000000000000000000000000081526004018080602001828103825260198152602001807f74686973206e616d65206973206e6f7420657869737465642e0000000000000081525060200191505060405180910390fd5b60006002846040518082805190602001908083835b602083101515610a4f5780518252602082019150602081019050602083039250610a2a565b6001836020036101000a038019825116818451168082178552505050505050905001915050908152602001604051809103902060009054906101000a900473ffffffffffffffffffffffffffffffffffffffff169050600360003373ffffffffffffffffffffffffffffffffffffffff1673ffffffffffffffffffffffffffffffffffffffff1681526020019081526020016000208190806001815401808255809150509060018203906000526020600020016000909192909190916101000a81548173ffffffffffffffffffffffffffffffffffffffff021916908373ffffffffffffffffffffffffffffffffffffffff1602179055505050505050565b6000610b586114e0565b82101515610bce576040517f08c379a00000000000000000000000000000000000000000000000000000000081526004018080602001828103825260128152602001807f696e646578206f7574206f6620626f756e64000000000000000000000000000081525060200191505060405180910390fd5b600360003373ffffffffffffffffffffffffffffffffffffffff1673ffffffffffffffffffffffffffffffffffffffff16815260200190815260200160002082815481101515610c1a57fe5b9060005260206000200160009054906101000a900473ffffffffffffffffffffffffffffffffffffffff169050919050565b336000600160008373ffffffffffffffffffffffffffffffffffffffff1673ffffffffffffffffffffffffffffffffffffffff168152602001908152602001600020600001805460018160011615610100020316600290049050111515610d1b576040517f08c379a00000000000000000000000000000000000000000000000000000000081526004018080602001828103825260198152602001807f74686973206e616d65206973206e6f7420657869737465642e0000000000000081525060200191505060405180910390fd5b81600073ffffffffffffffffffffffffffffffffffffffff166002826040518082805190602001908083835b602083101515610d6c5780518252602082019150602081019050602083039250610d47565b6001836020036101000a038019825116818451168082178552505050505050905001915050908152602001604051809103902060009054906101000a900473ffffffffffffffffffffffffffffffffffffffff1673ffffffffffffffffffffffffffffffffffffffff1614151515610e4c576040517f08c379a00000000000000000000000000000000000000000000000000000000081526004018080602001828103825260198152602001807f74686973206e616d65206973206e6f7420657869737465642e0000000000000081525060200191505060405180910390fd5b60006002846040518082805190602001908083835b602083101515610e865780518252602082019150602081019050602083039250610e61565b6001836020036101000a038019825116818451168082178552505050505050905001915050908152602001604051809103902060009054906101000a900473ffffffffffffffffffffffffffffffffffffffff1690506000600360003373ffffffffffffffffffffffffffffffffffffffff1673ffffffffffffffffffffffffffffffffffffffff16815260200190815260200160002080549050905060008090505b818110156110a9576000600360003373ffffffffffffffffffffffffffffffffffffffff1673ffffffffffffffffffffffffffffffffffffffff16815260200190815260200160002082815481101515610f7f57fe5b9060005260206000200160009054906101000a900473ffffffffffffffffffffffffffffffffffffffff169050600073ffffffffffffffffffffffffffffffffffffffff168173ffffffffffffffffffffffffffffffffffffffff161415610fe7575061109c565b8073ffffffffffffffffffffffffffffffffffffffff168473ffffffffffffffffffffffffffffffffffffffff16141561109a57600360003373ffffffffffffffffffffffffffffffffffffffff1673ffffffffffffffffffffffffffffffffffffffff1681526020019081526020016000208281548110151561106757fe5b9060005260206000200160006101000a81549073ffffffffffffffffffffffffffffffffffffffff0219169055506110a9565b505b8080600101915050610f29565b505050505050565b60606110bb611f04565b600160008473ffffffffffffffffffffffffffffffffffffffff1673ffffffffffffffffffffffffffffffffffffffff16815260200190815260200160002060a06040519081016040529081600082018054600181600116156101000203166002900480601f01602080910402602001604051908101604052809291908181526020018280546001816001161561010002031660029004801561119f5780601f106111745761010080835404028352916020019161119f565b820191906000526020600020905b81548152906001019060200180831161118257829003601f168201915b50505050508152602001600182018054600181600116156101000203166002900480601f0160208091040260200160405190810160405280929190818152602001828054600181600116156101000203166002900480156112415780601f1061121657610100808354040283529160200191611241565b820191906000526020600020905b81548152906001019060200180831161122457829003601f168201915b50505050508152602001600282018054600181600116156101000203166002900480601f0160208091040260200160405190810160405280929190818152602001828054600181600116156101000203166002900480156112e35780601f106112b8576101008083540402835291602001916112e3565b820191906000526020600020905b8154815290600101906020018083116112c657829003601f168201915b50505050508152602001600382018054600181600116156101000203166002900480601f0160208091040260200160405190810160405280929190818152602001828054600181600116156101000203166002900480156113855780601f1061135a57610100808354040283529160200191611385565b820191906000526020600020905b81548152906001019060200180831161136857829003601f168201915b50505050508152602001600482018054600181600116156101000203166002900480601f0160208091040260200160405190810160405280929190818152602001828054600181600116156101000203166002900480156114275780601f106113fc57610100808354040283529160200191611427565b820191906000526020600020905b81548152906001019060200180831161140a57829003601f168201915b50505050508152505090508060000151915050919050565b60006002826040518082805190602001908083835b6020831015156114795780518252602082019150602081019050602083039250611454565b6001836020036101000a038019825116818451168082178552505050505050905001915050908152602001604051809103902060009054906101000a900473ffffffffffffffffffffffffffffffffffffffff169050919050565b60008080549050905090565b6000600360003373ffffffffffffffffffffffffffffffffffffffff1673ffffffffffffffffffffffffffffffffffffffff16815260200190815260200160002080549050905090565b600081600281511115156115cc576040517f08c379a00000000000000000000000000000000000000000000000000000000081526004018080602001828103825260288152602001807f746865206c656e677468206f662061206e616d65206d7573742067726561746581526020017f72207468616e203200000000000000000000000000000000000000000000000081525060400191505060405180910390fd5b82600073ffffffffffffffffffffffffffffffffffffffff166002826040518082805190602001908083835b60208310151561161d57805182526020820191506020810190506020830392506115f8565b6001836020036101000a038019825116818451168082178552505050505050905001915050908152602001604051809103902060009054906101000a900473ffffffffffffffffffffffffffffffffffffffff1673ffffffffffffffffffffffffffffffffffffffff161415156116fc576040517f08c379a00000000000000000000000000000000000000000000000000000000081526004018080602001828103825260188152602001807f74686973206e616d6520686173206265656e20757365642e000000000000000081525060200191505060405180910390fd5b336000600160008373ffffffffffffffffffffffffffffffffffffffff1673ffffffffffffffffffffffffffffffffffffffff1681526020019081526020016000206000018054600181600116156101000203166002900490501415156117cb576040517f08c379a000000000000000000000000000000000000000000000000000000000815260040180806020018281038252601b8152602001807f796f7520686176652072656769737465726564206265666f72652e000000000081525060200191505060405180910390fd5b600060a060405190810160405280878152602001602060405190810160405280600081525081526020016020604051908101604052806000815250815260200160206040519081016040528060008152508152602001602060405190810160405280600081525081525090806001815401808255809150509060018203906000526020600020906005020160009091929091909150600082015181600001908051906020019061187c929190611f34565b506020820151816001019080519060200190611899929190611f34565b5060408201518160020190805190602001906118b6929190611f34565b5060608201518160030190805190602001906118d3929190611f34565b5060808201518160040190805190602001906118f0929190611f34565b50505050336002866040518082805190602001908083835b60208310151561192d5780518252602082019150602081019050602083039250611908565b6001836020036101000a038019825116818451168082178552505050505050905001915050908152602001604051809103902060006101000a81548173ffffffffffffffffffffffffffffffffffffffff021916908373ffffffffffffffffffffffffffffffffffffffff16021790555060a0604051908101604052808681526020016020604051908101604052806000815250815260200160206040519081016040528060008152508152602001602060405190810160405280600081525081526020016020604051908101604052806000815250815250600160003373ffffffffffffffffffffffffffffffffffffffff1673ffffffffffffffffffffffffffffffffffffffff1681526020019081526020016000206000820151816000019080519060200190611a61929190611f34565b506020820151816001019080519060200190611a7e929190611f34565b506040820151816002019080519060200190611a9b929190611f34565b506060820151816003019080519060200190611ab8929190611f34565b506080820151816004019080519060200190611ad5929190611f34565b5090505060019350505050919050565b6060806060806060611af56114d4565b86101515611b6b576040517f08c379a00000000000000000000000000000000000000000000000000000000081526004018080602001828103825260128152602001807f696e646578206f7574206f6620626f756e64000000000000000000000000000081525060200191505060405180910390fd5b611b73611f04565b600087815481101515611b8257fe5b906000526020600020906005020160a06040519081016040529081600082018054600181600116156101000203166002900480601f016020809104026020016040519081016040528092919081815260200182805460018160011615610100020316600290048015611c355780601f10611c0a57610100808354040283529160200191611c35565b820191906000526020600020905b815481529060010190602001808311611c1857829003601f168201915b50505050508152602001600182018054600181600116156101000203166002900480601f016020809104026020016040519081016040528092919081815260200182805460018160011615610100020316600290048015611cd75780601f10611cac57610100808354040283529160200191611cd7565b820191906000526020600020905b815481529060010190602001808311611cba57829003601f168201915b50505050508152602001600282018054600181600116156101000203166002900480601f016020809104026020016040519081016040528092919081815260200182805460018160011615610100020316600290048015611d795780601f10611d4e57610100808354040283529160200191611d79565b820191906000526020600020905b815481529060010190602001808311611d5c57829003601f168201915b50505050508152602001600382018054600181600116156101000203166002900480601f016020809104026020016040519081016040528092919081815260200182805460018160011615610100020316600290048015611e1b5780601f10611df057610100808354040283529160200191611e1b565b820191906000526020600020905b815481529060010190602001808311611dfe57829003601f168201915b50505050508152602001600482018054600181600116156101000203166002900480601f016020809104026020016040519081016040528092919081815260200182805460018160011615610100020316600290048015611ebd5780601f10611e9257610100808354040283529160200191611ebd565b820191906000526020600020905b815481529060010190602001808311611ea057829003601f168201915b505050505081525050905080600001518160200151826040015183606001518460800151849450839350829250819150809050955095509550955095505091939590929450565b60a06040519081016040528060608152602001606081526020016060815260200160608152602001606081525090565b828054600181600116156101000203166002900490600052602060002090601f016020900481019282601f10611f7557805160ff1916838001178555611fa3565b82800160010185558215611fa3579182015b82811115611fa2578251825591602001919060010190611f87565b5b509050611fb09190611fb4565b5090565b611fd691905b80821115611fd2576000816000905550600101611fba565b5090565b9056fea165627a7a7230582090e57943c244816af624270ed289f78aa98543d3fdb742398d5360e71b7b680b0029",
  "source": "pragma solidity ^0.5.0;\r\n\r\ncontract UserManager {\r\n\r\n    struct User {\r\n        \r\n        // required\r\n        string name;   // one user one name, no password.\r\n\r\n        // belows are optional, a brief user profile\r\n        string head_img; // an image url\r\n        string moto;\r\n        string hobby;\r\n        string birthday;\r\n        // other attributes\r\n    }\r\n\r\n    User[] users;   // all the users\r\n\r\n    mapping(address => User) addrToUser;  // mapping account address to a user\r\n    mapping(string => address payable) nameToAddr;  // mapping a username to account address\r\n    mapping(address => address[]) addrToWatches; // mapping a user address to all the users' address he or she watched\r\n\r\n    modifier validName(string memory _name) {\r\n        \r\n        // require a valid name, the length of a name must greater than 2\r\n        require(bytes(_name).length > 2, \"the length of a name must greater than 2\");\r\n\r\n        // ok\r\n        _;\r\n    }\r\n\r\n    modifier newName(string memory _name) {\r\n\r\n        // require a new name, the address of the name must be 0x0 (otherwise, means duplicate name).\r\n        require(nameToAddr[_name] == address(0), \"this name has been used.\"); \r\n\r\n        // ok\r\n        _;\r\n    }\r\n\r\n    modifier existName(string memory _name) {\r\n        \r\n        // require a exist name, the address of the name must exist.\r\n        require(nameToAddr[_name] != address(0), \"this name is not existed.\"); \r\n\r\n        // ok\r\n        _;\r\n    }\r\n\r\n    modifier registered(address _addr) {\r\n        \r\n        // require _addr to be registered, the length of a name must greater than 0.\r\n        require(bytes(addrToUser[_addr].name).length > 0, \"this name is not existed.\"); \r\n\r\n        // ok\r\n        _;\r\n    }\r\n\r\n    modifier registerOnce(address _addr) {\r\n\r\n        // require _addr to be not registered, the length of a name must equal to 0.\r\n        require(bytes(addrToUser[_addr].name).length == 0, \"you have registered before.\");\r\n        \r\n        // ok\r\n        _;\r\n    }\r\n\r\n    function register(string memory _name) public \r\n        validName(_name)\r\n        newName(_name)\r\n        registerOnce(msg.sender) returns(bool) {\r\n\r\n        // add a new user        \r\n        users.push(User(_name, \"\", \"\", \"\", \"\"));\r\n        nameToAddr[_name] = msg.sender;\r\n        addrToUser[msg.sender] = User(_name, \"\", \"\", \"\", \"\");\r\n\r\n        return true;\r\n    }\r\n\r\n    // no need to login\r\n    // because using msg.sender to authenticate is enough, so we don' need password.\r\n\r\n    function watch(string memory _name) public \r\n        registered(msg.sender)\r\n        existName(_name) {\r\n\r\n        // to watch a user\r\n        address toWatch = nameToAddr[_name];\r\n        addrToWatches[msg.sender].push(toWatch);\r\n    }\r\n\r\n    function unwatch(string memory _name) public\r\n        registered(msg.sender)\r\n        existName(_name) {\r\n\r\n        // to unwatch a user\r\n        address toUnwatch = nameToAddr[_name];\r\n        uint length = addrToWatches[msg.sender].length;\r\n        for (uint i = 0; i < length; i++) {\r\n\r\n            address watched = addrToWatches[msg.sender][i];\r\n            \r\n            if (watched == address(0)) {\r\n                // skip the invalid address\r\n                continue;\r\n            }\r\n\r\n            if (toUnwatch == watched) {\r\n                // remove the user who name _name from watched\r\n                delete addrToWatches[msg.sender][i];\r\n                break;\r\n            }\r\n        }\r\n    }\r\n\r\n    function getUserByIndex(uint _index) public view returns(string memory, string memory, string memory, string memory, string memory) {\r\n\r\n        require(_index < getUserCount(), \"index out of bound\");\r\n\r\n        User memory user = users[_index];\r\n        return (user.name, user.head_img, user.moto, user.hobby, user.birthday);\r\n    }\r\n\r\n    // function getAllUsers() public view returns(address[] memory) {\r\n\r\n    //     address[] memory result;\r\n    //     for (uint i = 0; i < getWatchesCount(); i++) {\r\n    //         address temp = getWatchesByIndex(i);\r\n    //         if (temp == address(0)) {\r\n    //             // skip the empty one\r\n    //             continue;\r\n    //         }\r\n    //         result.push(temp);\r\n    //     }\r\n    //     return result;\r\n    // }\r\n\r\n    function getUserCount() public view returns(uint) {\r\n\r\n        return users.length;\r\n    }\r\n\r\n    function getWatchesByIndex(uint _index) public view returns(address) {\r\n        \r\n        require(_index < getWatchesCount(), \"index out of bound\");\r\n\r\n        return addrToWatches[msg.sender][_index];\r\n    }\r\n\r\n    // function getAllWatches() public view returns(address[] memory) {\r\n\r\n    //     address[] memory result;\r\n    //     for (uint i = 0; i < getWatchesCount(); i++) {\r\n    //         address temp = getWatchesByIndex(i);\r\n    //         if (temp == address(0)) {\r\n    //             // skip the empty one\r\n    //             continue;d\r\n    //         }\r\n    //         result.push(temp);\r\n    //     }\r\n    //     return result;\r\n    // }\r\n\r\n    function getWatchesCount() public view returns(uint) {\r\n\r\n        return addrToWatches[msg.sender].length;\r\n    }\r\n\r\n    function getAddrByName(string memory _name) public view returns(address) {\r\n\r\n        return nameToAddr[_name];\r\n    }\r\n\r\n    function getNameByAddr(address _addr) public view returns(string memory) {\r\n\r\n        User memory user = addrToUser[_addr];\r\n        return user.name;\r\n    }\r\n}\r\n",
  "sourcePath": "/home/tao/blockchain/privateChain/webpack/contracts/UserManager.sol",
  "compiler": {
    "name": "solc",
    "version": "0.5.0+commit.1d4f565a.Emscripten.clang"
  },
  "schemaVersion": "3.0.0",
  "updatedAt": "2018-12-26T01:37:57.235Z",
  "devdoc": {
    "methods": {}
  },
  "userdoc": {
    "methods": {}
  }
}